{
	"src/nft.sol": {
		"NFT": {
			"abi": [
				{
					"inputs": [
						{
							"internalType": "string",
							"name": "tokenURI",
							"type": "string"
						}
					],
					"stateMutability": "nonpayable",
					"type": "constructor"
				},
				{
					"inputs": [
						{
							"internalType": "address",
							"name": "sender",
							"type": "address"
						},
						{
							"internalType": "uint256",
							"name": "tokenId",
							"type": "uint256"
						},
						{
							"internalType": "address",
							"name": "owner",
							"type": "address"
						}
					],
					"name": "ERC721IncorrectOwner",
					"type": "error"
				},
				{
					"inputs": [
						{
							"internalType": "address",
							"name": "operator",
							"type": "address"
						},
						{
							"internalType": "uint256",
							"name": "tokenId",
							"type": "uint256"
						}
					],
					"name": "ERC721InsufficientApproval",
					"type": "error"
				},
				{
					"inputs": [
						{
							"internalType": "address",
							"name": "approver",
							"type": "address"
						}
					],
					"name": "ERC721InvalidApprover",
					"type": "error"
				},
				{
					"inputs": [
						{
							"internalType": "address",
							"name": "operator",
							"type": "address"
						}
					],
					"name": "ERC721InvalidOperator",
					"type": "error"
				},
				{
					"inputs": [
						{
							"internalType": "address",
							"name": "owner",
							"type": "address"
						}
					],
					"name": "ERC721InvalidOwner",
					"type": "error"
				},
				{
					"inputs": [
						{
							"internalType": "address",
							"name": "receiver",
							"type": "address"
						}
					],
					"name": "ERC721InvalidReceiver",
					"type": "error"
				},
				{
					"inputs": [
						{
							"internalType": "address",
							"name": "sender",
							"type": "address"
						}
					],
					"name": "ERC721InvalidSender",
					"type": "error"
				},
				{
					"inputs": [
						{
							"internalType": "uint256",
							"name": "tokenId",
							"type": "uint256"
						}
					],
					"name": "ERC721NonexistentToken",
					"type": "error"
				},
				{
					"anonymous": false,
					"inputs": [
						{
							"indexed": true,
							"internalType": "address",
							"name": "owner",
							"type": "address"
						},
						{
							"indexed": true,
							"internalType": "address",
							"name": "approved",
							"type": "address"
						},
						{
							"indexed": true,
							"internalType": "uint256",
							"name": "tokenId",
							"type": "uint256"
						}
					],
					"name": "Approval",
					"type": "event"
				},
				{
					"anonymous": false,
					"inputs": [
						{
							"indexed": true,
							"internalType": "address",
							"name": "owner",
							"type": "address"
						},
						{
							"indexed": true,
							"internalType": "address",
							"name": "operator",
							"type": "address"
						},
						{
							"indexed": false,
							"internalType": "bool",
							"name": "approved",
							"type": "bool"
						}
					],
					"name": "ApprovalForAll",
					"type": "event"
				},
				{
					"anonymous": false,
					"inputs": [
						{
							"indexed": false,
							"internalType": "uint256",
							"name": "_fromTokenId",
							"type": "uint256"
						},
						{
							"indexed": false,
							"internalType": "uint256",
							"name": "_toTokenId",
							"type": "uint256"
						}
					],
					"name": "BatchMetadataUpdate",
					"type": "event"
				},
				{
					"anonymous": false,
					"inputs": [
						{
							"indexed": false,
							"internalType": "uint256",
							"name": "_tokenId",
							"type": "uint256"
						}
					],
					"name": "MetadataUpdate",
					"type": "event"
				},
				{
					"anonymous": false,
					"inputs": [
						{
							"indexed": true,
							"internalType": "address",
							"name": "from",
							"type": "address"
						},
						{
							"indexed": true,
							"internalType": "address",
							"name": "to",
							"type": "address"
						},
						{
							"indexed": true,
							"internalType": "uint256",
							"name": "tokenId",
							"type": "uint256"
						}
					],
					"name": "Transfer",
					"type": "event"
				},
				{
					"inputs": [
						{
							"internalType": "address",
							"name": "to",
							"type": "address"
						},
						{
							"internalType": "uint256",
							"name": "tokenId",
							"type": "uint256"
						}
					],
					"name": "approve",
					"outputs": [],
					"stateMutability": "nonpayable",
					"type": "function"
				},
				{
					"inputs": [
						{
							"internalType": "address",
							"name": "owner",
							"type": "address"
						}
					],
					"name": "balanceOf",
					"outputs": [
						{
							"internalType": "uint256",
							"name": "",
							"type": "uint256"
						}
					],
					"stateMutability": "view",
					"type": "function"
				},
				{
					"inputs": [
						{
							"internalType": "uint256",
							"name": "tokenId",
							"type": "uint256"
						}
					],
					"name": "burnNFT",
					"outputs": [],
					"stateMutability": "nonpayable",
					"type": "function"
				},
				{
					"inputs": [],
					"name": "currentTokenURI",
					"outputs": [
						{
							"internalType": "string",
							"name": "",
							"type": "string"
						}
					],
					"stateMutability": "view",
					"type": "function"
				},
				{
					"inputs": [
						{
							"internalType": "uint256",
							"name": "tokenId",
							"type": "uint256"
						}
					],
					"name": "getApproved",
					"outputs": [
						{
							"internalType": "address",
							"name": "",
							"type": "address"
						}
					],
					"stateMutability": "view",
					"type": "function"
				},
				{
					"inputs": [
						{
							"internalType": "address",
							"name": "owner",
							"type": "address"
						},
						{
							"internalType": "address",
							"name": "operator",
							"type": "address"
						}
					],
					"name": "isApprovedForAll",
					"outputs": [
						{
							"internalType": "bool",
							"name": "",
							"type": "bool"
						}
					],
					"stateMutability": "view",
					"type": "function"
				},
				{
					"inputs": [],
					"name": "mintNFT",
					"outputs": [
						{
							"internalType": "uint256",
							"name": "",
							"type": "uint256"
						}
					],
					"stateMutability": "nonpayable",
					"type": "function"
				},
				{
					"inputs": [],
					"name": "name",
					"outputs": [
						{
							"internalType": "string",
							"name": "",
							"type": "string"
						}
					],
					"stateMutability": "view",
					"type": "function"
				},
				{
					"inputs": [
						{
							"internalType": "uint256",
							"name": "tokenId",
							"type": "uint256"
						}
					],
					"name": "ownerOf",
					"outputs": [
						{
							"internalType": "address",
							"name": "",
							"type": "address"
						}
					],
					"stateMutability": "view",
					"type": "function"
				},
				{
					"inputs": [
						{
							"internalType": "address",
							"name": "from",
							"type": "address"
						},
						{
							"internalType": "address",
							"name": "to",
							"type": "address"
						},
						{
							"internalType": "uint256",
							"name": "tokenId",
							"type": "uint256"
						}
					],
					"name": "safeTransferFrom",
					"outputs": [],
					"stateMutability": "nonpayable",
					"type": "function"
				},
				{
					"inputs": [
						{
							"internalType": "address",
							"name": "from",
							"type": "address"
						},
						{
							"internalType": "address",
							"name": "to",
							"type": "address"
						},
						{
							"internalType": "uint256",
							"name": "tokenId",
							"type": "uint256"
						},
						{
							"internalType": "bytes",
							"name": "data",
							"type": "bytes"
						}
					],
					"name": "safeTransferFrom",
					"outputs": [],
					"stateMutability": "nonpayable",
					"type": "function"
				},
				{
					"inputs": [
						{
							"internalType": "address",
							"name": "operator",
							"type": "address"
						},
						{
							"internalType": "bool",
							"name": "approved",
							"type": "bool"
						}
					],
					"name": "setApprovalForAll",
					"outputs": [],
					"stateMutability": "nonpayable",
					"type": "function"
				},
				{
					"inputs": [
						{
							"internalType": "string",
							"name": "newURI",
							"type": "string"
						}
					],
					"name": "setURI",
					"outputs": [
						{
							"internalType": "string",
							"name": "",
							"type": "string"
						}
					],
					"stateMutability": "nonpayable",
					"type": "function"
				},
				{
					"inputs": [
						{
							"internalType": "bytes4",
							"name": "interfaceId",
							"type": "bytes4"
						}
					],
					"name": "supportsInterface",
					"outputs": [
						{
							"internalType": "bool",
							"name": "",
							"type": "bool"
						}
					],
					"stateMutability": "view",
					"type": "function"
				},
				{
					"inputs": [],
					"name": "symbol",
					"outputs": [
						{
							"internalType": "string",
							"name": "",
							"type": "string"
						}
					],
					"stateMutability": "view",
					"type": "function"
				},
				{
					"inputs": [
						{
							"internalType": "uint256",
							"name": "tokenId",
							"type": "uint256"
						}
					],
					"name": "tokenURI",
					"outputs": [
						{
							"internalType": "string",
							"name": "",
							"type": "string"
						}
					],
					"stateMutability": "view",
					"type": "function"
				},
				{
					"inputs": [],
					"name": "totalSupply",
					"outputs": [
						{
							"internalType": "uint256",
							"name": "",
							"type": "uint256"
						}
					],
					"stateMutability": "view",
					"type": "function"
				},
				{
					"inputs": [
						{
							"internalType": "address",
							"name": "from",
							"type": "address"
						},
						{
							"internalType": "address",
							"name": "to",
							"type": "address"
						},
						{
							"internalType": "uint256",
							"name": "tokenId",
							"type": "uint256"
						}
					],
					"name": "transferFrom",
					"outputs": [],
					"stateMutability": "nonpayable",
					"type": "function"
				}
			],
			"devdoc": {
				"errors": {
					"ERC721IncorrectOwner(address,uint256,address)": [
						{
							"details": "Indicates an error related to the ownership over a particular token. Used in transfers.",
							"params": {
								"owner": "Address of the current owner of a token.",
								"sender": "Address whose tokens are being transferred.",
								"tokenId": "Identifier number of a token."
							}
						}
					],
					"ERC721InsufficientApproval(address,uint256)": [
						{
							"details": "Indicates a failure with the `operator`’s approval. Used in transfers.",
							"params": {
								"operator": "Address that may be allowed to operate on tokens without being their owner.",
								"tokenId": "Identifier number of a token."
							}
						}
					],
					"ERC721InvalidApprover(address)": [
						{
							"details": "Indicates a failure with the `approver` of a token to be approved. Used in approvals.",
							"params": {
								"approver": "Address initiating an approval operation."
							}
						}
					],
					"ERC721InvalidOperator(address)": [
						{
							"details": "Indicates a failure with the `operator` to be approved. Used in approvals.",
							"params": {
								"operator": "Address that may be allowed to operate on tokens without being their owner."
							}
						}
					],
					"ERC721InvalidOwner(address)": [
						{
							"details": "Indicates that an address can't be an owner. For example, `address(0)` is a forbidden owner in EIP-20. Used in balance queries.",
							"params": {
								"owner": "Address of the current owner of a token."
							}
						}
					],
					"ERC721InvalidReceiver(address)": [
						{
							"details": "Indicates a failure with the token `receiver`. Used in transfers.",
							"params": {
								"receiver": "Address to which tokens are being transferred."
							}
						}
					],
					"ERC721InvalidSender(address)": [
						{
							"details": "Indicates a failure with the token `sender`. Used in transfers.",
							"params": {
								"sender": "Address whose tokens are being transferred."
							}
						}
					],
					"ERC721NonexistentToken(uint256)": [
						{
							"details": "Indicates a `tokenId` whose `owner` is the zero address.",
							"params": {
								"tokenId": "Identifier number of a token."
							}
						}
					]
				},
				"events": {
					"Approval(address,address,uint256)": {
						"details": "Emitted when `owner` enables `approved` to manage the `tokenId` token."
					},
					"ApprovalForAll(address,address,bool)": {
						"details": "Emitted when `owner` enables or disables (`approved`) `operator` to manage all of its assets."
					},
					"BatchMetadataUpdate(uint256,uint256)": {
						"details": "This event emits when the metadata of a range of tokens is changed. So that the third-party platforms such as NFT market could timely update the images and related attributes of the NFTs."
					},
					"MetadataUpdate(uint256)": {
						"details": "This event emits when the metadata of a token is changed. So that the third-party platforms such as NFT market could timely update the images and related attributes of the NFT."
					},
					"Transfer(address,address,uint256)": {
						"details": "Emitted when `tokenId` token is transferred from `from` to `to`."
					}
				},
				"kind": "dev",
				"methods": {
					"approve(address,uint256)": {
						"details": "See {IERC721-approve}."
					},
					"balanceOf(address)": {
						"details": "See {IERC721-balanceOf}."
					},
					"getApproved(uint256)": {
						"details": "See {IERC721-getApproved}."
					},
					"isApprovedForAll(address,address)": {
						"details": "See {IERC721-isApprovedForAll}."
					},
					"name()": {
						"details": "See {IERC721Metadata-name}."
					},
					"ownerOf(uint256)": {
						"details": "See {IERC721-ownerOf}."
					},
					"safeTransferFrom(address,address,uint256)": {
						"details": "See {IERC721-safeTransferFrom}."
					},
					"safeTransferFrom(address,address,uint256,bytes)": {
						"details": "See {IERC721-safeTransferFrom}."
					},
					"setApprovalForAll(address,bool)": {
						"details": "See {IERC721-setApprovalForAll}."
					},
					"supportsInterface(bytes4)": {
						"details": "See {IERC165-supportsInterface}"
					},
					"symbol()": {
						"details": "See {IERC721Metadata-symbol}."
					},
					"tokenURI(uint256)": {
						"details": "See {IERC721Metadata-tokenURI}."
					},
					"transferFrom(address,address,uint256)": {
						"details": "See {IERC721-transferFrom}."
					}
				},
				"version": 1
			},
			"evm": {
				"assembly": "    /* \"src/nft.sol\":328:1288  contract NFT is ERC721URIStorage {... */\n  mstore(0x40, 0x80)\n    /* \"src/nft.sol\":429:430  5 */\n  0x05\n    /* \"src/nft.sol\":407:430  uint256 private cap = 5 */\n  0x08\n  sstore\n    /* \"src/nft.sol\":507:610  constructor(string memory tokenURI) ERC721(\"NewNFT\", \"NFT\") {... */\n  callvalue\n  dup1\n  iszero\n  tag_1\n  jumpi\n  0x00\n  dup1\n  revert\ntag_1:\n  pop\n  mload(0x40)\n  sub(codesize, bytecodeSize)\n  dup1\n  bytecodeSize\n  dup4\n  codecopy\n  dup2\n  dup2\n  add\n  0x40\n  mstore\n  dup2\n  add\n  swap1\n  tag_2\n  swap2\n  swap1\n  tag_3\n  jump\t// in\ntag_2:\n    /* \"@openzeppelin/contracts/token/ERC721/ERC721.sol\":1381:1494  constructor(string memory name_, string memory symbol_) {... */\n  mload(0x40)\n  dup1\n  0x40\n  add\n  0x40\n  mstore\n  dup1\n  0x06\n  dup2\n  mstore\n  0x20\n  add\n  0x4e65774e46540000000000000000000000000000000000000000000000000000\n  dup2\n  mstore\n  pop\n  mload(0x40)\n  dup1\n  0x40\n  add\n  0x40\n  mstore\n  dup1\n  0x03\n  dup2\n  mstore\n  0x20\n  add\n  0x4e46540000000000000000000000000000000000000000000000000000000000\n  dup2\n  mstore\n  pop\n    /* \"@openzeppelin/contracts/token/ERC721/ERC721.sol\":1455:1460  name_ */\n  dup2\n    /* \"@openzeppelin/contracts/token/ERC721/ERC721.sol\":1447:1452  _name */\n  0x00\n    /* \"@openzeppelin/contracts/token/ERC721/ERC721.sol\":1447:1460  _name = name_ */\n  swap1\n  dup2\n  tag_7\n  swap2\n  swap1\n  tag_8\n  jump\t// in\ntag_7:\n  pop\n    /* \"@openzeppelin/contracts/token/ERC721/ERC721.sol\":1480:1487  symbol_ */\n  dup1\n    /* \"@openzeppelin/contracts/token/ERC721/ERC721.sol\":1470:1477  _symbol */\n  0x01\n    /* \"@openzeppelin/contracts/token/ERC721/ERC721.sol\":1470:1487  _symbol = symbol_ */\n  swap1\n  dup2\n  tag_9\n  swap2\n  swap1\n  tag_8\n  jump\t// in\ntag_9:\n  pop\n    /* \"@openzeppelin/contracts/token/ERC721/ERC721.sol\":1381:1494  constructor(string memory name_, string memory symbol_) {... */\n  pop\n  pop\n    /* \"src/nft.sol\":595:603  tokenURI */\n  dup1\n    /* \"src/nft.sol\":577:592  currentTokenURI */\n  0x0a\n    /* \"src/nft.sol\":577:603  currentTokenURI = tokenURI */\n  swap1\n  dup2\n  tag_11\n  swap2\n  swap1\n  tag_8\n  jump\t// in\ntag_11:\n  pop\n    /* \"src/nft.sol\":507:610  constructor(string memory tokenURI) ERC721(\"NewNFT\", \"NFT\") {... */\n  pop\n    /* \"src/nft.sol\":328:1288  contract NFT is ERC721URIStorage {... */\n  jump(tag_12)\n    /* \"#utility.yul\":7:82   */\ntag_13:\n    /* \"#utility.yul\":40:46   */\n  0x00\n    /* \"#utility.yul\":73:75   */\n  0x40\n    /* \"#utility.yul\":67:76   */\n  mload\n    /* \"#utility.yul\":57:76   */\n  swap1\n  pop\n    /* \"#utility.yul\":7:82   */\n  swap1\n  jump\t// out\n    /* \"#utility.yul\":88:205   */\ntag_14:\n    /* \"#utility.yul\":197:198   */\n  0x00\n    /* \"#utility.yul\":194:195   */\n  dup1\n    /* \"#utility.yul\":187:199   */\n  revert\n    /* \"#utility.yul\":211:328   */\ntag_15:\n    /* \"#utility.yul\":320:321   */\n  0x00\n    /* \"#utility.yul\":317:318   */\n  dup1\n    /* \"#utility.yul\":310:322   */\n  revert\n    /* \"#utility.yul\":334:451   */\ntag_16:\n    /* \"#utility.yul\":443:444   */\n  0x00\n    /* \"#utility.yul\":440:441   */\n  dup1\n    /* \"#utility.yul\":433:445   */\n  revert\n    /* \"#utility.yul\":457:574   */\ntag_17:\n    /* \"#utility.yul\":566:567   */\n  0x00\n    /* \"#utility.yul\":563:564   */\n  dup1\n    /* \"#utility.yul\":556:568   */\n  revert\n    /* \"#utility.yul\":580:682   */\ntag_18:\n    /* \"#utility.yul\":621:627   */\n  0x00\n    /* \"#utility.yul\":672:674   */\n  0x1f\n    /* \"#utility.yul\":668:675   */\n  not\n    /* \"#utility.yul\":663:665   */\n  0x1f\n    /* \"#utility.yul\":656:661   */\n  dup4\n    /* \"#utility.yul\":652:666   */\n  add\n    /* \"#utility.yul\":648:676   */\n  and\n    /* \"#utility.yul\":638:676   */\n  swap1\n  pop\n    /* \"#utility.yul\":580:682   */\n  swap2\n  swap1\n  pop\n  jump\t// out\n    /* \"#utility.yul\":688:868   */\ntag_19:\n    /* \"#utility.yul\":736:813   */\n  0x4e487b7100000000000000000000000000000000000000000000000000000000\n    /* \"#utility.yul\":733:734   */\n  0x00\n    /* \"#utility.yul\":726:814   */\n  mstore\n    /* \"#utility.yul\":833:837   */\n  0x41\n    /* \"#utility.yul\":830:831   */\n  0x04\n    /* \"#utility.yul\":823:838   */\n  mstore\n    /* \"#utility.yul\":857:861   */\n  0x24\n    /* \"#utility.yul\":854:855   */\n  0x00\n    /* \"#utility.yul\":847:862   */\n  revert\n    /* \"#utility.yul\":874:1155   */\ntag_20:\n    /* \"#utility.yul\":957:984   */\n  tag_54\n    /* \"#utility.yul\":979:983   */\n  dup3\n    /* \"#utility.yul\":957:984   */\n  tag_18\n  jump\t// in\ntag_54:\n    /* \"#utility.yul\":949:955   */\n  dup2\n    /* \"#utility.yul\":945:985   */\n  add\n    /* \"#utility.yul\":1087:1093   */\n  dup2\n    /* \"#utility.yul\":1075:1085   */\n  dup2\n    /* \"#utility.yul\":1072:1094   */\n  lt\n    /* \"#utility.yul\":1051:1069   */\n  0xffffffffffffffff\n    /* \"#utility.yul\":1039:1049   */\n  dup3\n    /* \"#utility.yul\":1036:1070   */\n  gt\n    /* \"#utility.yul\":1033:1095   */\n  or\n    /* \"#utility.yul\":1030:1118   */\n  iszero\n  tag_55\n  jumpi\n    /* \"#utility.yul\":1098:1116   */\n  tag_56\n  tag_19\n  jump\t// in\ntag_56:\n    /* \"#utility.yul\":1030:1118   */\ntag_55:\n    /* \"#utility.yul\":1138:1148   */\n  dup1\n    /* \"#utility.yul\":1134:1136   */\n  0x40\n    /* \"#utility.yul\":1127:1149   */\n  mstore\n    /* \"#utility.yul\":917:1155   */\n  pop\n    /* \"#utility.yul\":874:1155   */\n  pop\n  pop\n  jump\t// out\n    /* \"#utility.yul\":1161:1290   */\ntag_21:\n    /* \"#utility.yul\":1195:1201   */\n  0x00\n    /* \"#utility.yul\":1222:1242   */\n  tag_58\n  tag_13\n  jump\t// in\ntag_58:\n    /* \"#utility.yul\":1212:1242   */\n  swap1\n  pop\n    /* \"#utility.yul\":1251:1284   */\n  tag_59\n    /* \"#utility.yul\":1279:1283   */\n  dup3\n    /* \"#utility.yul\":1271:1277   */\n  dup3\n    /* \"#utility.yul\":1251:1284   */\n  tag_20\n  jump\t// in\ntag_59:\n    /* \"#utility.yul\":1161:1290   */\n  swap2\n  swap1\n  pop\n  jump\t// out\n    /* \"#utility.yul\":1296:1604   */\ntag_22:\n    /* \"#utility.yul\":1358:1362   */\n  0x00\n    /* \"#utility.yul\":1448:1466   */\n  0xffffffffffffffff\n    /* \"#utility.yul\":1440:1446   */\n  dup3\n    /* \"#utility.yul\":1437:1467   */\n  gt\n    /* \"#utility.yul\":1434:1490   */\n  iszero\n  tag_61\n  jumpi\n    /* \"#utility.yul\":1470:1488   */\n  tag_62\n  tag_19\n  jump\t// in\ntag_62:\n    /* \"#utility.yul\":1434:1490   */\ntag_61:\n    /* \"#utility.yul\":1508:1537   */\n  tag_63\n    /* \"#utility.yul\":1530:1536   */\n  dup3\n    /* \"#utility.yul\":1508:1537   */\n  tag_18\n  jump\t// in\ntag_63:\n    /* \"#utility.yul\":1500:1537   */\n  swap1\n  pop\n    /* \"#utility.yul\":1592:1596   */\n  0x20\n    /* \"#utility.yul\":1586:1590   */\n  dup2\n    /* \"#utility.yul\":1582:1597   */\n  add\n    /* \"#utility.yul\":1574:1597   */\n  swap1\n  pop\n    /* \"#utility.yul\":1296:1604   */\n  swap2\n  swap1\n  pop\n  jump\t// out\n    /* \"#utility.yul\":1610:1856   */\ntag_23:\n    /* \"#utility.yul\":1691:1692   */\n  0x00\n    /* \"#utility.yul\":1701:1814   */\ntag_65:\n    /* \"#utility.yul\":1715:1721   */\n  dup4\n    /* \"#utility.yul\":1712:1713   */\n  dup2\n    /* \"#utility.yul\":1709:1722   */\n  lt\n    /* \"#utility.yul\":1701:1814   */\n  iszero\n  tag_67\n  jumpi\n    /* \"#utility.yul\":1800:1801   */\n  dup1\n    /* \"#utility.yul\":1795:1798   */\n  dup3\n    /* \"#utility.yul\":1791:1802   */\n  add\n    /* \"#utility.yul\":1785:1803   */\n  mload\n    /* \"#utility.yul\":1781:1782   */\n  dup2\n    /* \"#utility.yul\":1776:1779   */\n  dup5\n    /* \"#utility.yul\":1772:1783   */\n  add\n    /* \"#utility.yul\":1765:1804   */\n  mstore\n    /* \"#utility.yul\":1737:1739   */\n  0x20\n    /* \"#utility.yul\":1734:1735   */\n  dup2\n    /* \"#utility.yul\":1730:1740   */\n  add\n    /* \"#utility.yul\":1725:1740   */\n  swap1\n  pop\n    /* \"#utility.yul\":1701:1814   */\n  jump(tag_65)\ntag_67:\n    /* \"#utility.yul\":1848:1849   */\n  0x00\n    /* \"#utility.yul\":1839:1845   */\n  dup5\n    /* \"#utility.yul\":1834:1837   */\n  dup5\n    /* \"#utility.yul\":1830:1846   */\n  add\n    /* \"#utility.yul\":1823:1850   */\n  mstore\n    /* \"#utility.yul\":1672:1856   */\n  pop\n    /* \"#utility.yul\":1610:1856   */\n  pop\n  pop\n  pop\n  jump\t// out\n    /* \"#utility.yul\":1862:2296   */\ntag_24:\n    /* \"#utility.yul\":1951:1956   */\n  0x00\n    /* \"#utility.yul\":1976:2042   */\n  tag_69\n    /* \"#utility.yul\":1992:2041   */\n  tag_70\n    /* \"#utility.yul\":2034:2040   */\n  dup5\n    /* \"#utility.yul\":1992:2041   */\n  tag_22\n  jump\t// in\ntag_70:\n    /* \"#utility.yul\":1976:2042   */\n  tag_21\n  jump\t// in\ntag_69:\n    /* \"#utility.yul\":1967:2042   */\n  swap1\n  pop\n    /* \"#utility.yul\":2065:2071   */\n  dup3\n    /* \"#utility.yul\":2058:2063   */\n  dup2\n    /* \"#utility.yul\":2051:2072   */\n  mstore\n    /* \"#utility.yul\":2103:2107   */\n  0x20\n    /* \"#utility.yul\":2096:2101   */\n  dup2\n    /* \"#utility.yul\":2092:2108   */\n  add\n    /* \"#utility.yul\":2141:2144   */\n  dup5\n    /* \"#utility.yul\":2132:2138   */\n  dup5\n    /* \"#utility.yul\":2127:2130   */\n  dup5\n    /* \"#utility.yul\":2123:2139   */\n  add\n    /* \"#utility.yul\":2120:2145   */\n  gt\n    /* \"#utility.yul\":2117:2229   */\n  iszero\n  tag_71\n  jumpi\n    /* \"#utility.yul\":2148:2227   */\n  tag_72\n  tag_17\n  jump\t// in\ntag_72:\n    /* \"#utility.yul\":2117:2229   */\ntag_71:\n    /* \"#utility.yul\":2238:2290   */\n  tag_73\n    /* \"#utility.yul\":2283:2289   */\n  dup5\n    /* \"#utility.yul\":2278:2281   */\n  dup3\n    /* \"#utility.yul\":2273:2276   */\n  dup6\n    /* \"#utility.yul\":2238:2290   */\n  tag_23\n  jump\t// in\ntag_73:\n    /* \"#utility.yul\":1957:2296   */\n  pop\n    /* \"#utility.yul\":1862:2296   */\n  swap4\n  swap3\n  pop\n  pop\n  pop\n  jump\t// out\n    /* \"#utility.yul\":2316:2671   */\ntag_25:\n    /* \"#utility.yul\":2383:2388   */\n  0x00\n    /* \"#utility.yul\":2432:2435   */\n  dup3\n    /* \"#utility.yul\":2425:2429   */\n  0x1f\n    /* \"#utility.yul\":2417:2423   */\n  dup4\n    /* \"#utility.yul\":2413:2430   */\n  add\n    /* \"#utility.yul\":2409:2436   */\n  slt\n    /* \"#utility.yul\":2399:2521   */\n  tag_75\n  jumpi\n    /* \"#utility.yul\":2440:2519   */\n  tag_76\n  tag_16\n  jump\t// in\ntag_76:\n    /* \"#utility.yul\":2399:2521   */\ntag_75:\n    /* \"#utility.yul\":2550:2556   */\n  dup2\n    /* \"#utility.yul\":2544:2557   */\n  mload\n    /* \"#utility.yul\":2575:2665   */\n  tag_77\n    /* \"#utility.yul\":2661:2664   */\n  dup5\n    /* \"#utility.yul\":2653:2659   */\n  dup3\n    /* \"#utility.yul\":2646:2650   */\n  0x20\n    /* \"#utility.yul\":2638:2644   */\n  dup7\n    /* \"#utility.yul\":2634:2651   */\n  add\n    /* \"#utility.yul\":2575:2665   */\n  tag_24\n  jump\t// in\ntag_77:\n    /* \"#utility.yul\":2566:2665   */\n  swap2\n  pop\n    /* \"#utility.yul\":2389:2671   */\n  pop\n    /* \"#utility.yul\":2316:2671   */\n  swap3\n  swap2\n  pop\n  pop\n  jump\t// out\n    /* \"#utility.yul\":2677:3201   */\ntag_3:\n    /* \"#utility.yul\":2757:2763   */\n  0x00\n    /* \"#utility.yul\":2806:2808   */\n  0x20\n    /* \"#utility.yul\":2794:2803   */\n  dup3\n    /* \"#utility.yul\":2785:2792   */\n  dup5\n    /* \"#utility.yul\":2781:2804   */\n  sub\n    /* \"#utility.yul\":2777:2809   */\n  slt\n    /* \"#utility.yul\":2774:2893   */\n  iszero\n  tag_79\n  jumpi\n    /* \"#utility.yul\":2812:2891   */\n  tag_80\n  tag_14\n  jump\t// in\ntag_80:\n    /* \"#utility.yul\":2774:2893   */\ntag_79:\n    /* \"#utility.yul\":2953:2954   */\n  0x00\n    /* \"#utility.yul\":2942:2951   */\n  dup3\n    /* \"#utility.yul\":2938:2955   */\n  add\n    /* \"#utility.yul\":2932:2956   */\n  mload\n    /* \"#utility.yul\":2983:3001   */\n  0xffffffffffffffff\n    /* \"#utility.yul\":2975:2981   */\n  dup2\n    /* \"#utility.yul\":2972:3002   */\n  gt\n    /* \"#utility.yul\":2969:3086   */\n  iszero\n  tag_81\n  jumpi\n    /* \"#utility.yul\":3005:3084   */\n  tag_82\n  tag_15\n  jump\t// in\ntag_82:\n    /* \"#utility.yul\":2969:3086   */\ntag_81:\n    /* \"#utility.yul\":3110:3184   */\n  tag_83\n    /* \"#utility.yul\":3176:3183   */\n  dup5\n    /* \"#utility.yul\":3167:3173   */\n  dup3\n    /* \"#utility.yul\":3156:3165   */\n  dup6\n    /* \"#utility.yul\":3152:3174   */\n  add\n    /* \"#utility.yul\":3110:3184   */\n  tag_25\n  jump\t// in\ntag_83:\n    /* \"#utility.yul\":3100:3184   */\n  swap2\n  pop\n    /* \"#utility.yul\":2903:3194   */\n  pop\n    /* \"#utility.yul\":2677:3201   */\n  swap3\n  swap2\n  pop\n  pop\n  jump\t// out\n    /* \"#utility.yul\":3207:3306   */\ntag_26:\n    /* \"#utility.yul\":3259:3265   */\n  0x00\n    /* \"#utility.yul\":3293:3298   */\n  dup2\n    /* \"#utility.yul\":3287:3299   */\n  mload\n    /* \"#utility.yul\":3277:3299   */\n  swap1\n  pop\n    /* \"#utility.yul\":3207:3306   */\n  swap2\n  swap1\n  pop\n  jump\t// out\n    /* \"#utility.yul\":3312:3492   */\ntag_27:\n    /* \"#utility.yul\":3360:3437   */\n  0x4e487b7100000000000000000000000000000000000000000000000000000000\n    /* \"#utility.yul\":3357:3358   */\n  0x00\n    /* \"#utility.yul\":3350:3438   */\n  mstore\n    /* \"#utility.yul\":3457:3461   */\n  0x22\n    /* \"#utility.yul\":3454:3455   */\n  0x04\n    /* \"#utility.yul\":3447:3462   */\n  mstore\n    /* \"#utility.yul\":3481:3485   */\n  0x24\n    /* \"#utility.yul\":3478:3479   */\n  0x00\n    /* \"#utility.yul\":3471:3486   */\n  revert\n    /* \"#utility.yul\":3498:3818   */\ntag_28:\n    /* \"#utility.yul\":3542:3548   */\n  0x00\n    /* \"#utility.yul\":3579:3580   */\n  0x02\n    /* \"#utility.yul\":3573:3577   */\n  dup3\n    /* \"#utility.yul\":3569:3581   */\n  div\n    /* \"#utility.yul\":3559:3581   */\n  swap1\n  pop\n    /* \"#utility.yul\":3626:3627   */\n  0x01\n    /* \"#utility.yul\":3620:3624   */\n  dup3\n    /* \"#utility.yul\":3616:3628   */\n  and\n    /* \"#utility.yul\":3647:3665   */\n  dup1\n    /* \"#utility.yul\":3637:3718   */\n  tag_87\n  jumpi\n    /* \"#utility.yul\":3703:3707   */\n  0x7f\n    /* \"#utility.yul\":3695:3701   */\n  dup3\n    /* \"#utility.yul\":3691:3708   */\n  and\n    /* \"#utility.yul\":3681:3708   */\n  swap2\n  pop\n    /* \"#utility.yul\":3637:3718   */\ntag_87:\n    /* \"#utility.yul\":3765:3767   */\n  0x20\n    /* \"#utility.yul\":3757:3763   */\n  dup3\n    /* \"#utility.yul\":3754:3768   */\n  lt\n    /* \"#utility.yul\":3734:3752   */\n  dup2\n    /* \"#utility.yul\":3731:3769   */\n  sub\n    /* \"#utility.yul\":3728:3812   */\n  tag_88\n  jumpi\n    /* \"#utility.yul\":3784:3802   */\n  tag_89\n  tag_27\n  jump\t// in\ntag_89:\n    /* \"#utility.yul\":3728:3812   */\ntag_88:\n    /* \"#utility.yul\":3549:3818   */\n  pop\n    /* \"#utility.yul\":3498:3818   */\n  swap2\n  swap1\n  pop\n  jump\t// out\n    /* \"#utility.yul\":3824:3965   */\ntag_29:\n    /* \"#utility.yul\":3873:3877   */\n  0x00\n    /* \"#utility.yul\":3896:3899   */\n  dup2\n    /* \"#utility.yul\":3888:3899   */\n  swap1\n  pop\n    /* \"#utility.yul\":3919:3922   */\n  dup2\n    /* \"#utility.yul\":3916:3917   */\n  0x00\n    /* \"#utility.yul\":3909:3923   */\n  mstore\n    /* \"#utility.yul\":3953:3957   */\n  0x20\n    /* \"#utility.yul\":3950:3951   */\n  0x00\n    /* \"#utility.yul\":3940:3958   */\n  keccak256\n    /* \"#utility.yul\":3932:3958   */\n  swap1\n  pop\n    /* \"#utility.yul\":3824:3965   */\n  swap2\n  swap1\n  pop\n  jump\t// out\n    /* \"#utility.yul\":3971:4064   */\ntag_30:\n    /* \"#utility.yul\":4008:4014   */\n  0x00\n    /* \"#utility.yul\":4055:4057   */\n  0x20\n    /* \"#utility.yul\":4050:4052   */\n  0x1f\n    /* \"#utility.yul\":4043:4048   */\n  dup4\n    /* \"#utility.yul\":4039:4053   */\n  add\n    /* \"#utility.yul\":4035:4058   */\n  div\n    /* \"#utility.yul\":4025:4058   */\n  swap1\n  pop\n    /* \"#utility.yul\":3971:4064   */\n  swap2\n  swap1\n  pop\n  jump\t// out\n    /* \"#utility.yul\":4070:4177   */\ntag_31:\n    /* \"#utility.yul\":4114:4122   */\n  0x00\n    /* \"#utility.yul\":4164:4169   */\n  dup3\n    /* \"#utility.yul\":4158:4162   */\n  dup3\n    /* \"#utility.yul\":4154:4170   */\n  shl\n    /* \"#utility.yul\":4133:4170   */\n  swap1\n  pop\n    /* \"#utility.yul\":4070:4177   */\n  swap3\n  swap2\n  pop\n  pop\n  jump\t// out\n    /* \"#utility.yul\":4183:4576   */\ntag_32:\n    /* \"#utility.yul\":4252:4258   */\n  0x00\n    /* \"#utility.yul\":4302:4303   */\n  0x08\n    /* \"#utility.yul\":4290:4300   */\n  dup4\n    /* \"#utility.yul\":4286:4304   */\n  mul\n    /* \"#utility.yul\":4325:4422   */\n  tag_94\n    /* \"#utility.yul\":4355:4421   */\n  0xffffffffffffffffffffffffffffffffffffffffffffffffffffffffffffffff\n    /* \"#utility.yul\":4344:4353   */\n  dup3\n    /* \"#utility.yul\":4325:4422   */\n  tag_31\n  jump\t// in\ntag_94:\n    /* \"#utility.yul\":4443:4482   */\n  tag_95\n    /* \"#utility.yul\":4473:4481   */\n  dup7\n    /* \"#utility.yul\":4462:4471   */\n  dup4\n    /* \"#utility.yul\":4443:4482   */\n  tag_31\n  jump\t// in\ntag_95:\n    /* \"#utility.yul\":4431:4482   */\n  swap6\n  pop\n    /* \"#utility.yul\":4515:4519   */\n  dup1\n    /* \"#utility.yul\":4511:4520   */\n  not\n    /* \"#utility.yul\":4504:4509   */\n  dup5\n    /* \"#utility.yul\":4500:4521   */\n  and\n    /* \"#utility.yul\":4491:4521   */\n  swap4\n  pop\n    /* \"#utility.yul\":4564:4568   */\n  dup1\n    /* \"#utility.yul\":4554:4562   */\n  dup7\n    /* \"#utility.yul\":4550:4569   */\n  and\n    /* \"#utility.yul\":4543:4548   */\n  dup5\n    /* \"#utility.yul\":4540:4570   */\n  or\n    /* \"#utility.yul\":4530:4570   */\n  swap3\n  pop\n    /* \"#utility.yul\":4259:4576   */\n  pop\n  pop\n    /* \"#utility.yul\":4183:4576   */\n  swap4\n  swap3\n  pop\n  pop\n  pop\n  jump\t// out\n    /* \"#utility.yul\":4582:4659   */\ntag_33:\n    /* \"#utility.yul\":4619:4626   */\n  0x00\n    /* \"#utility.yul\":4648:4653   */\n  dup2\n    /* \"#utility.yul\":4637:4653   */\n  swap1\n  pop\n    /* \"#utility.yul\":4582:4659   */\n  swap2\n  swap1\n  pop\n  jump\t// out\n    /* \"#utility.yul\":4665:4725   */\ntag_34:\n    /* \"#utility.yul\":4693:4696   */\n  0x00\n    /* \"#utility.yul\":4714:4719   */\n  dup2\n    /* \"#utility.yul\":4707:4719   */\n  swap1\n  pop\n    /* \"#utility.yul\":4665:4725   */\n  swap2\n  swap1\n  pop\n  jump\t// out\n    /* \"#utility.yul\":4731:4873   */\ntag_35:\n    /* \"#utility.yul\":4781:4790   */\n  0x00\n    /* \"#utility.yul\":4814:4867   */\n  tag_99\n    /* \"#utility.yul\":4832:4866   */\n  tag_100\n    /* \"#utility.yul\":4841:4865   */\n  tag_101\n    /* \"#utility.yul\":4859:4864   */\n  dup5\n    /* \"#utility.yul\":4841:4865   */\n  tag_33\n  jump\t// in\ntag_101:\n    /* \"#utility.yul\":4832:4866   */\n  tag_34\n  jump\t// in\ntag_100:\n    /* \"#utility.yul\":4814:4867   */\n  tag_33\n  jump\t// in\ntag_99:\n    /* \"#utility.yul\":4801:4867   */\n  swap1\n  pop\n    /* \"#utility.yul\":4731:4873   */\n  swap2\n  swap1\n  pop\n  jump\t// out\n    /* \"#utility.yul\":4879:4954   */\ntag_36:\n    /* \"#utility.yul\":4922:4925   */\n  0x00\n    /* \"#utility.yul\":4943:4948   */\n  dup2\n    /* \"#utility.yul\":4936:4948   */\n  swap1\n  pop\n    /* \"#utility.yul\":4879:4954   */\n  swap2\n  swap1\n  pop\n  jump\t// out\n    /* \"#utility.yul\":4960:5229   */\ntag_37:\n    /* \"#utility.yul\":5070:5109   */\n  tag_104\n    /* \"#utility.yul\":5101:5108   */\n  dup4\n    /* \"#utility.yul\":5070:5109   */\n  tag_35\n  jump\t// in\ntag_104:\n    /* \"#utility.yul\":5131:5222   */\n  tag_105\n    /* \"#utility.yul\":5180:5221   */\n  tag_106\n    /* \"#utility.yul\":5204:5220   */\n  dup3\n    /* \"#utility.yul\":5180:5221   */\n  tag_36\n  jump\t// in\ntag_106:\n    /* \"#utility.yul\":5172:5178   */\n  dup5\n    /* \"#utility.yul\":5165:5169   */\n  dup5\n    /* \"#utility.yul\":5159:5170   */\n  sload\n    /* \"#utility.yul\":5131:5222   */\n  tag_32\n  jump\t// in\ntag_105:\n    /* \"#utility.yul\":5125:5129   */\n  dup3\n    /* \"#utility.yul\":5118:5223   */\n  sstore\n    /* \"#utility.yul\":5036:5229   */\n  pop\n    /* \"#utility.yul\":4960:5229   */\n  pop\n  pop\n  pop\n  jump\t// out\n    /* \"#utility.yul\":5235:5308   */\ntag_38:\n    /* \"#utility.yul\":5280:5283   */\n  0x00\n    /* \"#utility.yul\":5235:5308   */\n  swap1\n  jump\t// out\n    /* \"#utility.yul\":5314:5503   */\ntag_39:\n    /* \"#utility.yul\":5391:5423   */\n  tag_109\n  tag_38\n  jump\t// in\ntag_109:\n    /* \"#utility.yul\":5432:5497   */\n  tag_110\n    /* \"#utility.yul\":5490:5496   */\n  dup2\n    /* \"#utility.yul\":5482:5488   */\n  dup5\n    /* \"#utility.yul\":5476:5480   */\n  dup5\n    /* \"#utility.yul\":5432:5497   */\n  tag_37\n  jump\t// in\ntag_110:\n    /* \"#utility.yul\":5367:5503   */\n  pop\n    /* \"#utility.yul\":5314:5503   */\n  pop\n  pop\n  jump\t// out\n    /* \"#utility.yul\":5509:5695   */\ntag_40:\n    /* \"#utility.yul\":5569:5689   */\ntag_112:\n    /* \"#utility.yul\":5586:5589   */\n  dup2\n    /* \"#utility.yul\":5579:5584   */\n  dup2\n    /* \"#utility.yul\":5576:5590   */\n  lt\n    /* \"#utility.yul\":5569:5689   */\n  iszero\n  tag_114\n  jumpi\n    /* \"#utility.yul\":5640:5679   */\n  tag_115\n    /* \"#utility.yul\":5677:5678   */\n  0x00\n    /* \"#utility.yul\":5670:5675   */\n  dup3\n    /* \"#utility.yul\":5640:5679   */\n  tag_39\n  jump\t// in\ntag_115:\n    /* \"#utility.yul\":5613:5614   */\n  0x01\n    /* \"#utility.yul\":5606:5611   */\n  dup2\n    /* \"#utility.yul\":5602:5615   */\n  add\n    /* \"#utility.yul\":5593:5615   */\n  swap1\n  pop\n    /* \"#utility.yul\":5569:5689   */\n  jump(tag_112)\ntag_114:\n    /* \"#utility.yul\":5509:5695   */\n  pop\n  pop\n  jump\t// out\n    /* \"#utility.yul\":5701:6244   */\ntag_41:\n    /* \"#utility.yul\":5802:5804   */\n  0x1f\n    /* \"#utility.yul\":5797:5800   */\n  dup3\n    /* \"#utility.yul\":5794:5805   */\n  gt\n    /* \"#utility.yul\":5791:6237   */\n  iszero\n  tag_117\n  jumpi\n    /* \"#utility.yul\":5836:5874   */\n  tag_118\n    /* \"#utility.yul\":5868:5873   */\n  dup2\n    /* \"#utility.yul\":5836:5874   */\n  tag_29\n  jump\t// in\ntag_118:\n    /* \"#utility.yul\":5920:5949   */\n  tag_119\n    /* \"#utility.yul\":5938:5948   */\n  dup5\n    /* \"#utility.yul\":5920:5949   */\n  tag_30\n  jump\t// in\ntag_119:\n    /* \"#utility.yul\":5910:5918   */\n  dup2\n    /* \"#utility.yul\":5906:5950   */\n  add\n    /* \"#utility.yul\":6103:6105   */\n  0x20\n    /* \"#utility.yul\":6091:6101   */\n  dup6\n    /* \"#utility.yul\":6088:6106   */\n  lt\n    /* \"#utility.yul\":6085:6134   */\n  iszero\n  tag_120\n  jumpi\n    /* \"#utility.yul\":6124:6132   */\n  dup2\n    /* \"#utility.yul\":6109:6132   */\n  swap1\n  pop\n    /* \"#utility.yul\":6085:6134   */\ntag_120:\n    /* \"#utility.yul\":6147:6227   */\n  tag_121\n    /* \"#utility.yul\":6203:6225   */\n  tag_122\n    /* \"#utility.yul\":6221:6224   */\n  dup6\n    /* \"#utility.yul\":6203:6225   */\n  tag_30\n  jump\t// in\ntag_122:\n    /* \"#utility.yul\":6193:6201   */\n  dup4\n    /* \"#utility.yul\":6189:6226   */\n  add\n    /* \"#utility.yul\":6176:6187   */\n  dup3\n    /* \"#utility.yul\":6147:6227   */\n  tag_40\n  jump\t// in\ntag_121:\n    /* \"#utility.yul\":5806:6237   */\n  pop\n  pop\n    /* \"#utility.yul\":5791:6237   */\ntag_117:\n    /* \"#utility.yul\":5701:6244   */\n  pop\n  pop\n  pop\n  jump\t// out\n    /* \"#utility.yul\":6250:6367   */\ntag_42:\n    /* \"#utility.yul\":6304:6312   */\n  0x00\n    /* \"#utility.yul\":6354:6359   */\n  dup3\n    /* \"#utility.yul\":6348:6352   */\n  dup3\n    /* \"#utility.yul\":6344:6360   */\n  shr\n    /* \"#utility.yul\":6323:6360   */\n  swap1\n  pop\n    /* \"#utility.yul\":6250:6367   */\n  swap3\n  swap2\n  pop\n  pop\n  jump\t// out\n    /* \"#utility.yul\":6373:6542   */\ntag_43:\n    /* \"#utility.yul\":6417:6423   */\n  0x00\n    /* \"#utility.yul\":6450:6501   */\n  tag_125\n    /* \"#utility.yul\":6498:6499   */\n  0x00\n    /* \"#utility.yul\":6494:6500   */\n  not\n    /* \"#utility.yul\":6486:6491   */\n  dup5\n    /* \"#utility.yul\":6483:6484   */\n  0x08\n    /* \"#utility.yul\":6479:6492   */\n  mul\n    /* \"#utility.yul\":6450:6501   */\n  tag_42\n  jump\t// in\ntag_125:\n    /* \"#utility.yul\":6446:6502   */\n  not\n    /* \"#utility.yul\":6531:6535   */\n  dup1\n    /* \"#utility.yul\":6525:6529   */\n  dup4\n    /* \"#utility.yul\":6521:6536   */\n  and\n    /* \"#utility.yul\":6511:6536   */\n  swap2\n  pop\n    /* \"#utility.yul\":6424:6542   */\n  pop\n    /* \"#utility.yul\":6373:6542   */\n  swap3\n  swap2\n  pop\n  pop\n  jump\t// out\n    /* \"#utility.yul\":6547:6842   */\ntag_44:\n    /* \"#utility.yul\":6623:6627   */\n  0x00\n    /* \"#utility.yul\":6769:6798   */\n  tag_127\n    /* \"#utility.yul\":6794:6797   */\n  dup4\n    /* \"#utility.yul\":6788:6792   */\n  dup4\n    /* \"#utility.yul\":6769:6798   */\n  tag_43\n  jump\t// in\ntag_127:\n    /* \"#utility.yul\":6761:6798   */\n  swap2\n  pop\n    /* \"#utility.yul\":6831:6834   */\n  dup3\n    /* \"#utility.yul\":6828:6829   */\n  0x02\n    /* \"#utility.yul\":6824:6835   */\n  mul\n    /* \"#utility.yul\":6818:6822   */\n  dup3\n    /* \"#utility.yul\":6815:6836   */\n  or\n    /* \"#utility.yul\":6807:6836   */\n  swap1\n  pop\n    /* \"#utility.yul\":6547:6842   */\n  swap3\n  swap2\n  pop\n  pop\n  jump\t// out\n    /* \"#utility.yul\":6847:8242   */\ntag_8:\n    /* \"#utility.yul\":6964:7001   */\n  tag_129\n    /* \"#utility.yul\":6997:7000   */\n  dup3\n    /* \"#utility.yul\":6964:7001   */\n  tag_26\n  jump\t// in\ntag_129:\n    /* \"#utility.yul\":7066:7084   */\n  0xffffffffffffffff\n    /* \"#utility.yul\":7058:7064   */\n  dup2\n    /* \"#utility.yul\":7055:7085   */\n  gt\n    /* \"#utility.yul\":7052:7108   */\n  iszero\n  tag_130\n  jumpi\n    /* \"#utility.yul\":7088:7106   */\n  tag_131\n  tag_19\n  jump\t// in\ntag_131:\n    /* \"#utility.yul\":7052:7108   */\ntag_130:\n    /* \"#utility.yul\":7132:7170   */\n  tag_132\n    /* \"#utility.yul\":7164:7168   */\n  dup3\n    /* \"#utility.yul\":7158:7169   */\n  sload\n    /* \"#utility.yul\":7132:7170   */\n  tag_28\n  jump\t// in\ntag_132:\n    /* \"#utility.yul\":7217:7284   */\n  tag_133\n    /* \"#utility.yul\":7277:7283   */\n  dup3\n    /* \"#utility.yul\":7269:7275   */\n  dup3\n    /* \"#utility.yul\":7263:7267   */\n  dup6\n    /* \"#utility.yul\":7217:7284   */\n  tag_41\n  jump\t// in\ntag_133:\n    /* \"#utility.yul\":7311:7312   */\n  0x00\n    /* \"#utility.yul\":7335:7339   */\n  0x20\n    /* \"#utility.yul\":7322:7339   */\n  swap1\n  pop\n    /* \"#utility.yul\":7367:7369   */\n  0x1f\n    /* \"#utility.yul\":7359:7365   */\n  dup4\n    /* \"#utility.yul\":7356:7370   */\n  gt\n    /* \"#utility.yul\":7384:7385   */\n  0x01\n    /* \"#utility.yul\":7379:7997   */\n  dup2\n  eq\n  tag_135\n  jumpi\n    /* \"#utility.yul\":8041:8042   */\n  0x00\n    /* \"#utility.yul\":8058:8064   */\n  dup5\n    /* \"#utility.yul\":8055:8132   */\n  iszero\n  tag_136\n  jumpi\n    /* \"#utility.yul\":8107:8116   */\n  dup3\n    /* \"#utility.yul\":8102:8105   */\n  dup8\n    /* \"#utility.yul\":8098:8117   */\n  add\n    /* \"#utility.yul\":8092:8118   */\n  mload\n    /* \"#utility.yul\":8083:8118   */\n  swap1\n  pop\n    /* \"#utility.yul\":8055:8132   */\ntag_136:\n    /* \"#utility.yul\":8158:8225   */\n  tag_137\n    /* \"#utility.yul\":8218:8224   */\n  dup6\n    /* \"#utility.yul\":8211:8216   */\n  dup3\n    /* \"#utility.yul\":8158:8225   */\n  tag_44\n  jump\t// in\ntag_137:\n    /* \"#utility.yul\":8152:8156   */\n  dup7\n    /* \"#utility.yul\":8145:8226   */\n  sstore\n    /* \"#utility.yul\":8014:8236   */\n  pop\n    /* \"#utility.yul\":7349:8236   */\n  jump(tag_134)\n    /* \"#utility.yul\":7379:7997   */\ntag_135:\n    /* \"#utility.yul\":7431:7435   */\n  0x1f\n    /* \"#utility.yul\":7427:7436   */\n  not\n    /* \"#utility.yul\":7419:7425   */\n  dup5\n    /* \"#utility.yul\":7415:7437   */\n  and\n    /* \"#utility.yul\":7465:7502   */\n  tag_138\n    /* \"#utility.yul\":7497:7501   */\n  dup7\n    /* \"#utility.yul\":7465:7502   */\n  tag_29\n  jump\t// in\ntag_138:\n    /* \"#utility.yul\":7524:7525   */\n  0x00\n    /* \"#utility.yul\":7538:7746   */\ntag_139:\n    /* \"#utility.yul\":7552:7559   */\n  dup3\n    /* \"#utility.yul\":7549:7550   */\n  dup2\n    /* \"#utility.yul\":7546:7560   */\n  lt\n    /* \"#utility.yul\":7538:7746   */\n  iszero\n  tag_141\n  jumpi\n    /* \"#utility.yul\":7631:7640   */\n  dup5\n    /* \"#utility.yul\":7626:7629   */\n  dup10\n    /* \"#utility.yul\":7622:7641   */\n  add\n    /* \"#utility.yul\":7616:7642   */\n  mload\n    /* \"#utility.yul\":7608:7614   */\n  dup3\n    /* \"#utility.yul\":7601:7643   */\n  sstore\n    /* \"#utility.yul\":7682:7683   */\n  0x01\n    /* \"#utility.yul\":7674:7680   */\n  dup3\n    /* \"#utility.yul\":7670:7684   */\n  add\n    /* \"#utility.yul\":7660:7684   */\n  swap2\n  pop\n    /* \"#utility.yul\":7729:7731   */\n  0x20\n    /* \"#utility.yul\":7718:7727   */\n  dup6\n    /* \"#utility.yul\":7714:7732   */\n  add\n    /* \"#utility.yul\":7701:7732   */\n  swap5\n  pop\n    /* \"#utility.yul\":7575:7579   */\n  0x20\n    /* \"#utility.yul\":7572:7573   */\n  dup2\n    /* \"#utility.yul\":7568:7580   */\n  add\n    /* \"#utility.yul\":7563:7580   */\n  swap1\n  pop\n    /* \"#utility.yul\":7538:7746   */\n  jump(tag_139)\ntag_141:\n    /* \"#utility.yul\":7774:7780   */\n  dup7\n    /* \"#utility.yul\":7765:7772   */\n  dup4\n    /* \"#utility.yul\":7762:7781   */\n  lt\n    /* \"#utility.yul\":7759:7938   */\n  iszero\n  tag_142\n  jumpi\n    /* \"#utility.yul\":7832:7841   */\n  dup5\n    /* \"#utility.yul\":7827:7830   */\n  dup10\n    /* \"#utility.yul\":7823:7842   */\n  add\n    /* \"#utility.yul\":7817:7843   */\n  mload\n    /* \"#utility.yul\":7875:7923   */\n  tag_143\n    /* \"#utility.yul\":7917:7921   */\n  0x1f\n    /* \"#utility.yul\":7909:7915   */\n  dup10\n    /* \"#utility.yul\":7905:7922   */\n  and\n    /* \"#utility.yul\":7894:7903   */\n  dup3\n    /* \"#utility.yul\":7875:7923   */\n  tag_43\n  jump\t// in\ntag_143:\n    /* \"#utility.yul\":7867:7873   */\n  dup4\n    /* \"#utility.yul\":7860:7924   */\n  sstore\n    /* \"#utility.yul\":7782:7938   */\n  pop\n    /* \"#utility.yul\":7759:7938   */\ntag_142:\n    /* \"#utility.yul\":7984:7985   */\n  0x01\n    /* \"#utility.yul\":7980:7981   */\n  0x02\n    /* \"#utility.yul\":7972:7978   */\n  dup9\n    /* \"#utility.yul\":7968:7982   */\n  mul\n    /* \"#utility.yul\":7964:7986   */\n  add\n    /* \"#utility.yul\":7958:7962   */\n  dup9\n    /* \"#utility.yul\":7951:7987   */\n  sstore\n    /* \"#utility.yul\":7386:7997   */\n  pop\n  pop\n  pop\n    /* \"#utility.yul\":7349:8236   */\ntag_134:\n  pop\n    /* \"#utility.yul\":6939:8242   */\n  pop\n  pop\n  pop\n    /* \"#utility.yul\":6847:8242   */\n  pop\n  pop\n  jump\t// out\n    /* \"src/nft.sol\":328:1288  contract NFT is ERC721URIStorage {... */\ntag_12:\n  dataSize(sub_0)\n  dup1\n  dataOffset(sub_0)\n  0x00\n  codecopy\n  0x00\n  return\nstop\n\nsub_0: assembly {\n        /* \"src/nft.sol\":328:1288  contract NFT is ERC721URIStorage {... */\n      mstore(0x40, 0x80)\n      callvalue\n      dup1\n      iszero\n      tag_1\n      jumpi\n      0x00\n      dup1\n      revert\n    tag_1:\n      pop\n      jumpi(tag_2, lt(calldatasize, 0x04))\n      shr(0xe0, calldataload(0x00))\n      dup1\n      0x42842e0e\n      gt\n      tag_21\n      jumpi\n      dup1\n      0x95d89b41\n      gt\n      tag_22\n      jumpi\n      dup1\n      0x95d89b41\n      eq\n      tag_16\n      jumpi\n      dup1\n      0xa22cb465\n      eq\n      tag_17\n      jumpi\n      dup1\n      0xb88d4fde\n      eq\n      tag_18\n      jumpi\n      dup1\n      0xc87b56dd\n      eq\n      tag_19\n      jumpi\n      dup1\n      0xe985e9c5\n      eq\n      tag_20\n      jumpi\n      jump(tag_2)\n    tag_22:\n      dup1\n      0x42842e0e\n      eq\n      tag_12\n      jumpi\n      dup1\n      0x6352211e\n      eq\n      tag_13\n      jumpi\n      dup1\n      0x70a08231\n      eq\n      tag_14\n      jumpi\n      dup1\n      0x8e9673a5\n      eq\n      tag_15\n      jumpi\n      jump(tag_2)\n    tag_21:\n      dup1\n      0x095ea7b3\n      gt\n      tag_23\n      jumpi\n      dup1\n      0x095ea7b3\n      eq\n      tag_7\n      jumpi\n      dup1\n      0x14f710fe\n      eq\n      tag_8\n      jumpi\n      dup1\n      0x18160ddd\n      eq\n      tag_9\n      jumpi\n      dup1\n      0x23b872dd\n      eq\n      tag_10\n      jumpi\n      dup1\n      0x2890e0d7\n      eq\n      tag_11\n      jumpi\n      jump(tag_2)\n    tag_23:\n      dup1\n      0x01ffc9a7\n      eq\n      tag_3\n      jumpi\n      dup1\n      0x02fe5305\n      eq\n      tag_4\n      jumpi\n      dup1\n      0x06fdde03\n      eq\n      tag_5\n      jumpi\n      dup1\n      0x081812fc\n      eq\n      tag_6\n      jumpi\n    tag_2:\n      0x00\n      dup1\n      revert\n        /* \"@openzeppelin/contracts/token/ERC721/extensions/ERC721URIStorage.sol\":937:1144  function supportsInterface(bytes4 interfaceId) public view virtual override(ERC721, IERC165) returns (bool) {... */\n    tag_3:\n      tag_24\n      0x04\n      dup1\n      calldatasize\n      sub\n      dup2\n      add\n      swap1\n      tag_25\n      swap2\n      swap1\n      tag_26\n      jump\t// in\n    tag_25:\n      tag_27\n      jump\t// in\n    tag_24:\n      mload(0x40)\n      tag_28\n      swap2\n      swap1\n      tag_29\n      jump\t// in\n    tag_28:\n      mload(0x40)\n      dup1\n      swap2\n      sub\n      swap1\n      return\n        /* \"src/nft.sol\":1140:1282  function setURI(string memory newURI) public returns (string memory) {... */\n    tag_4:\n      tag_30\n      0x04\n      dup1\n      calldatasize\n      sub\n      dup2\n      add\n      swap1\n      tag_31\n      swap2\n      swap1\n      tag_32\n      jump\t// in\n    tag_31:\n      tag_33\n      jump\t// in\n    tag_30:\n      mload(0x40)\n      tag_34\n      swap2\n      swap1\n      tag_35\n      jump\t// in\n    tag_34:\n      mload(0x40)\n      dup1\n      swap2\n      sub\n      swap1\n      return\n        /* \"@openzeppelin/contracts/token/ERC721/ERC721.sol\":2365:2454  function name() public view virtual returns (string memory) {... */\n    tag_5:\n      tag_36\n      tag_37\n      jump\t// in\n    tag_36:\n      mload(0x40)\n      tag_38\n      swap2\n      swap1\n      tag_35\n      jump\t// in\n    tag_38:\n      mload(0x40)\n      dup1\n      swap2\n      sub\n      swap1\n      return\n        /* \"@openzeppelin/contracts/token/ERC721/ERC721.sol\":3497:3651  function getApproved(uint256 tokenId) public view virtual returns (address) {... */\n    tag_6:\n      tag_39\n      0x04\n      dup1\n      calldatasize\n      sub\n      dup2\n      add\n      swap1\n      tag_40\n      swap2\n      swap1\n      tag_41\n      jump\t// in\n    tag_40:\n      tag_42\n      jump\t// in\n    tag_39:\n      mload(0x40)\n      tag_43\n      swap2\n      swap1\n      tag_44\n      jump\t// in\n    tag_43:\n      mload(0x40)\n      dup1\n      swap2\n      sub\n      swap1\n      return\n        /* \"@openzeppelin/contracts/token/ERC721/ERC721.sol\":3323:3436  function approve(address to, uint256 tokenId) public virtual {... */\n    tag_7:\n      tag_45\n      0x04\n      dup1\n      calldatasize\n      sub\n      dup2\n      add\n      swap1\n      tag_46\n      swap2\n      swap1\n      tag_47\n      jump\t// in\n    tag_46:\n      tag_48\n      jump\t// in\n    tag_45:\n      stop\n        /* \"src/nft.sol\":616:1013  function mintNFT() public returns (uint256) {... */\n    tag_8:\n      tag_49\n      tag_50\n      jump\t// in\n    tag_49:\n      mload(0x40)\n      tag_51\n      swap2\n      swap1\n      tag_52\n      jump\t// in\n    tag_51:\n      mload(0x40)\n      dup1\n      swap2\n      sub\n      swap1\n      return\n        /* \"src/nft.sol\":437:463  uint256 public totalSupply */\n    tag_9:\n      tag_53\n      tag_54\n      jump\t// in\n    tag_53:\n      mload(0x40)\n      tag_55\n      swap2\n      swap1\n      tag_52\n      jump\t// in\n    tag_55:\n      mload(0x40)\n      dup1\n      swap2\n      sub\n      swap1\n      return\n        /* \"@openzeppelin/contracts/token/ERC721/ERC721.sol\":4143:4721  function transferFrom(address from, address to, uint256 tokenId) public virtual {... */\n    tag_10:\n      tag_56\n      0x04\n      dup1\n      calldatasize\n      sub\n      dup2\n      add\n      swap1\n      tag_57\n      swap2\n      swap1\n      tag_58\n      jump\t// in\n    tag_57:\n      tag_59\n      jump\t// in\n    tag_56:\n      stop\n        /* \"src/nft.sol\":1023:1134  function burnNFT(uint256 tokenId) public {... */\n    tag_11:\n      tag_60\n      0x04\n      dup1\n      calldatasize\n      sub\n      dup2\n      add\n      swap1\n      tag_61\n      swap2\n      swap1\n      tag_41\n      jump\t// in\n    tag_61:\n      tag_62\n      jump\t// in\n    tag_60:\n      stop\n        /* \"@openzeppelin/contracts/token/ERC721/ERC721.sol\":4787:4919  function safeTransferFrom(address from, address to, uint256 tokenId) public {... */\n    tag_12:\n      tag_63\n      0x04\n      dup1\n      calldatasize\n      sub\n      dup2\n      add\n      swap1\n      tag_64\n      swap2\n      swap1\n      tag_58\n      jump\t// in\n    tag_64:\n      tag_65\n      jump\t// in\n    tag_63:\n      stop\n        /* \"@openzeppelin/contracts/token/ERC721/ERC721.sol\":2185:2303  function ownerOf(uint256 tokenId) public view virtual returns (address) {... */\n    tag_13:\n      tag_66\n      0x04\n      dup1\n      calldatasize\n      sub\n      dup2\n      add\n      swap1\n      tag_67\n      swap2\n      swap1\n      tag_41\n      jump\t// in\n    tag_67:\n      tag_68\n      jump\t// in\n    tag_66:\n      mload(0x40)\n      tag_69\n      swap2\n      swap1\n      tag_44\n      jump\t// in\n    tag_69:\n      mload(0x40)\n      dup1\n      swap2\n      sub\n      swap1\n      return\n        /* \"@openzeppelin/contracts/token/ERC721/ERC721.sol\":1920:2128  function balanceOf(address owner) public view virtual returns (uint256) {... */\n    tag_14:\n      tag_70\n      0x04\n      dup1\n      calldatasize\n      sub\n      dup2\n      add\n      swap1\n      tag_71\n      swap2\n      swap1\n      tag_72\n      jump\t// in\n    tag_71:\n      tag_73\n      jump\t// in\n    tag_70:\n      mload(0x40)\n      tag_74\n      swap2\n      swap1\n      tag_52\n      jump\t// in\n    tag_74:\n      mload(0x40)\n      dup1\n      swap2\n      sub\n      swap1\n      return\n        /* \"src/nft.sol\":470:499  string public currentTokenURI */\n    tag_15:\n      tag_75\n      tag_76\n      jump\t// in\n    tag_75:\n      mload(0x40)\n      tag_77\n      swap2\n      swap1\n      tag_35\n      jump\t// in\n    tag_77:\n      mload(0x40)\n      dup1\n      swap2\n      sub\n      swap1\n      return\n        /* \"@openzeppelin/contracts/token/ERC721/ERC721.sol\":2518:2611  function symbol() public view virtual returns (string memory) {... */\n    tag_16:\n      tag_78\n      tag_79\n      jump\t// in\n    tag_78:\n      mload(0x40)\n      tag_80\n      swap2\n      swap1\n      tag_35\n      jump\t// in\n    tag_80:\n      mload(0x40)\n      dup1\n      swap2\n      sub\n      swap1\n      return\n        /* \"@openzeppelin/contracts/token/ERC721/ERC721.sol\":3718:3862  function setApprovalForAll(address operator, bool approved) public virtual {... */\n    tag_17:\n      tag_81\n      0x04\n      dup1\n      calldatasize\n      sub\n      dup2\n      add\n      swap1\n      tag_82\n      swap2\n      swap1\n      tag_83\n      jump\t// in\n    tag_82:\n      tag_84\n      jump\t// in\n    tag_81:\n      stop\n        /* \"@openzeppelin/contracts/token/ERC721/ERC721.sol\":4985:5193  function safeTransferFrom(address from, address to, uint256 tokenId, bytes memory data) public virtual {... */\n    tag_18:\n      tag_85\n      0x04\n      dup1\n      calldatasize\n      sub\n      dup2\n      add\n      swap1\n      tag_86\n      swap2\n      swap1\n      tag_87\n      jump\t// in\n    tag_86:\n      tag_88\n      jump\t// in\n    tag_85:\n      stop\n        /* \"@openzeppelin/contracts/token/ERC721/extensions/ERC721URIStorage.sol\":1210:1803  function tokenURI(uint256 tokenId) public view virtual override returns (string memory) {... */\n    tag_19:\n      tag_89\n      0x04\n      dup1\n      calldatasize\n      sub\n      dup2\n      add\n      swap1\n      tag_90\n      swap2\n      swap1\n      tag_41\n      jump\t// in\n    tag_90:\n      tag_91\n      jump\t// in\n    tag_89:\n      mload(0x40)\n      tag_92\n      swap2\n      swap1\n      tag_35\n      jump\t// in\n    tag_92:\n      mload(0x40)\n      dup1\n      swap2\n      sub\n      swap1\n      return\n        /* \"@openzeppelin/contracts/token/ERC721/ERC721.sol\":3928:4081  function isApprovedForAll(address owner, address operator) public view virtual returns (bool) {... */\n    tag_20:\n      tag_93\n      0x04\n      dup1\n      calldatasize\n      sub\n      dup2\n      add\n      swap1\n      tag_94\n      swap2\n      swap1\n      tag_95\n      jump\t// in\n    tag_94:\n      tag_96\n      jump\t// in\n    tag_93:\n      mload(0x40)\n      tag_97\n      swap2\n      swap1\n      tag_29\n      jump\t// in\n    tag_97:\n      mload(0x40)\n      dup1\n      swap2\n      sub\n      swap1\n      return\n        /* \"@openzeppelin/contracts/token/ERC721/extensions/ERC721URIStorage.sol\":937:1144  function supportsInterface(bytes4 interfaceId) public view virtual override(ERC721, IERC165) returns (bool) {... */\n    tag_27:\n        /* \"@openzeppelin/contracts/token/ERC721/extensions/ERC721URIStorage.sol\":1039:1043  bool */\n      0x00\n        /* \"@openzeppelin/contracts/token/ERC721/extensions/ERC721URIStorage.sol\":760:770  0x49064906 */\n      0x49064906\n        /* \"@openzeppelin/contracts/token/ERC721/extensions/ERC721URIStorage.sol\":753:771  bytes4(0x49064906) */\n      0xe0\n      shl\n        /* \"@openzeppelin/contracts/token/ERC721/extensions/ERC721URIStorage.sol\":1062:1097  interfaceId == ERC4906_INTERFACE_ID */\n      not(0xffffffffffffffffffffffffffffffffffffffffffffffffffffffff)\n      and\n        /* \"@openzeppelin/contracts/token/ERC721/extensions/ERC721URIStorage.sol\":1062:1073  interfaceId */\n      dup3\n        /* \"@openzeppelin/contracts/token/ERC721/extensions/ERC721URIStorage.sol\":1062:1097  interfaceId == ERC4906_INTERFACE_ID */\n      not(0xffffffffffffffffffffffffffffffffffffffffffffffffffffffff)\n      and\n      eq\n        /* \"@openzeppelin/contracts/token/ERC721/extensions/ERC721URIStorage.sol\":1062:1137  interfaceId == ERC4906_INTERFACE_ID || super.supportsInterface(interfaceId) */\n      dup1\n      tag_99\n      jumpi\n      pop\n        /* \"@openzeppelin/contracts/token/ERC721/extensions/ERC721URIStorage.sol\":1101:1137  super.supportsInterface(interfaceId) */\n      tag_100\n        /* \"@openzeppelin/contracts/token/ERC721/extensions/ERC721URIStorage.sol\":1125:1136  interfaceId */\n      dup3\n        /* \"@openzeppelin/contracts/token/ERC721/extensions/ERC721URIStorage.sol\":1101:1124  super.supportsInterface */\n      tag_101\n        /* \"@openzeppelin/contracts/token/ERC721/extensions/ERC721URIStorage.sol\":1101:1137  super.supportsInterface(interfaceId) */\n      jump\t// in\n    tag_100:\n        /* \"@openzeppelin/contracts/token/ERC721/extensions/ERC721URIStorage.sol\":1062:1137  interfaceId == ERC4906_INTERFACE_ID || super.supportsInterface(interfaceId) */\n    tag_99:\n        /* \"@openzeppelin/contracts/token/ERC721/extensions/ERC721URIStorage.sol\":1055:1137  return interfaceId == ERC4906_INTERFACE_ID || super.supportsInterface(interfaceId) */\n      swap1\n      pop\n        /* \"@openzeppelin/contracts/token/ERC721/extensions/ERC721URIStorage.sol\":937:1144  function supportsInterface(bytes4 interfaceId) public view virtual override(ERC721, IERC165) returns (bool) {... */\n      swap2\n      swap1\n      pop\n      jump\t// out\n        /* \"src/nft.sol\":1140:1282  function setURI(string memory newURI) public returns (string memory) {... */\n    tag_33:\n        /* \"src/nft.sol\":1194:1207  string memory */\n      0x60\n        /* \"src/nft.sol\":1237:1243  newURI */\n      dup2\n        /* \"src/nft.sol\":1219:1234  currentTokenURI */\n      0x0a\n        /* \"src/nft.sol\":1219:1243  currentTokenURI = newURI */\n      swap1\n      dup2\n      tag_103\n      swap2\n      swap1\n      tag_104\n      jump\t// in\n    tag_103:\n      pop\n        /* \"src/nft.sol\":1260:1275  currentTokenURI */\n      0x0a\n        /* \"src/nft.sol\":1253:1275  return currentTokenURI */\n      dup1\n      sload\n      tag_105\n      swap1\n      tag_106\n      jump\t// in\n    tag_105:\n      dup1\n      0x1f\n      add\n      0x20\n      dup1\n      swap2\n      div\n      mul\n      0x20\n      add\n      mload(0x40)\n      swap1\n      dup2\n      add\n      0x40\n      mstore\n      dup1\n      swap3\n      swap2\n      swap1\n      dup2\n      dup2\n      mstore\n      0x20\n      add\n      dup3\n      dup1\n      sload\n      tag_107\n      swap1\n      tag_106\n      jump\t// in\n    tag_107:\n      dup1\n      iszero\n      tag_108\n      jumpi\n      dup1\n      0x1f\n      lt\n      tag_109\n      jumpi\n      0x0100\n      dup1\n      dup4\n      sload\n      div\n      mul\n      dup4\n      mstore\n      swap2\n      0x20\n      add\n      swap2\n      jump(tag_108)\n    tag_109:\n      dup3\n      add\n      swap2\n      swap1\n      0x00\n      mstore\n      keccak256(0x00, 0x20)\n      swap1\n    tag_110:\n      dup2\n      sload\n      dup2\n      mstore\n      swap1\n      0x01\n      add\n      swap1\n      0x20\n      add\n      dup1\n      dup4\n      gt\n      tag_110\n      jumpi\n      dup3\n      swap1\n      sub\n      0x1f\n      and\n      dup3\n      add\n      swap2\n    tag_108:\n      pop\n      pop\n      pop\n      pop\n      pop\n      swap1\n      pop\n        /* \"src/nft.sol\":1140:1282  function setURI(string memory newURI) public returns (string memory) {... */\n      swap2\n      swap1\n      pop\n      jump\t// out\n        /* \"@openzeppelin/contracts/token/ERC721/ERC721.sol\":2365:2454  function name() public view virtual returns (string memory) {... */\n    tag_37:\n        /* \"@openzeppelin/contracts/token/ERC721/ERC721.sol\":2410:2423  string memory */\n      0x60\n        /* \"@openzeppelin/contracts/token/ERC721/ERC721.sol\":2442:2447  _name */\n      0x00\n        /* \"@openzeppelin/contracts/token/ERC721/ERC721.sol\":2435:2447  return _name */\n      dup1\n      sload\n      tag_112\n      swap1\n      tag_106\n      jump\t// in\n    tag_112:\n      dup1\n      0x1f\n      add\n      0x20\n      dup1\n      swap2\n      div\n      mul\n      0x20\n      add\n      mload(0x40)\n      swap1\n      dup2\n      add\n      0x40\n      mstore\n      dup1\n      swap3\n      swap2\n      swap1\n      dup2\n      dup2\n      mstore\n      0x20\n      add\n      dup3\n      dup1\n      sload\n      tag_113\n      swap1\n      tag_106\n      jump\t// in\n    tag_113:\n      dup1\n      iszero\n      tag_114\n      jumpi\n      dup1\n      0x1f\n      lt\n      tag_115\n      jumpi\n      0x0100\n      dup1\n      dup4\n      sload\n      div\n      mul\n      dup4\n      mstore\n      swap2\n      0x20\n      add\n      swap2\n      jump(tag_114)\n    tag_115:\n      dup3\n      add\n      swap2\n      swap1\n      0x00\n      mstore\n      keccak256(0x00, 0x20)\n      swap1\n    tag_116:\n      dup2\n      sload\n      dup2\n      mstore\n      swap1\n      0x01\n      add\n      swap1\n      0x20\n      add\n      dup1\n      dup4\n      gt\n      tag_116\n      jumpi\n      dup3\n      swap1\n      sub\n      0x1f\n      and\n      dup3\n      add\n      swap2\n    tag_114:\n      pop\n      pop\n      pop\n      pop\n      pop\n      swap1\n      pop\n        /* \"@openzeppelin/contracts/token/ERC721/ERC721.sol\":2365:2454  function name() public view virtual returns (string memory) {... */\n      swap1\n      jump\t// out\n        /* \"@openzeppelin/contracts/token/ERC721/ERC721.sol\":3497:3651  function getApproved(uint256 tokenId) public view virtual returns (address) {... */\n    tag_42:\n        /* \"@openzeppelin/contracts/token/ERC721/ERC721.sol\":3564:3571  address */\n      0x00\n        /* \"@openzeppelin/contracts/token/ERC721/ERC721.sol\":3583:3605  _requireOwned(tokenId) */\n      tag_118\n        /* \"@openzeppelin/contracts/token/ERC721/ERC721.sol\":3597:3604  tokenId */\n      dup3\n        /* \"@openzeppelin/contracts/token/ERC721/ERC721.sol\":3583:3596  _requireOwned */\n      tag_119\n        /* \"@openzeppelin/contracts/token/ERC721/ERC721.sol\":3583:3605  _requireOwned(tokenId) */\n      jump\t// in\n    tag_118:\n      pop\n        /* \"@openzeppelin/contracts/token/ERC721/ERC721.sol\":3623:3644  _getApproved(tokenId) */\n      tag_120\n        /* \"@openzeppelin/contracts/token/ERC721/ERC721.sol\":3636:3643  tokenId */\n      dup3\n        /* \"@openzeppelin/contracts/token/ERC721/ERC721.sol\":3623:3635  _getApproved */\n      tag_121\n        /* \"@openzeppelin/contracts/token/ERC721/ERC721.sol\":3623:3644  _getApproved(tokenId) */\n      jump\t// in\n    tag_120:\n        /* \"@openzeppelin/contracts/token/ERC721/ERC721.sol\":3616:3644  return _getApproved(tokenId) */\n      swap1\n      pop\n        /* \"@openzeppelin/contracts/token/ERC721/ERC721.sol\":3497:3651  function getApproved(uint256 tokenId) public view virtual returns (address) {... */\n      swap2\n      swap1\n      pop\n      jump\t// out\n        /* \"@openzeppelin/contracts/token/ERC721/ERC721.sol\":3323:3436  function approve(address to, uint256 tokenId) public virtual {... */\n    tag_48:\n        /* \"@openzeppelin/contracts/token/ERC721/ERC721.sol\":3394:3429  _approve(to, tokenId, _msgSender()) */\n      tag_123\n        /* \"@openzeppelin/contracts/token/ERC721/ERC721.sol\":3403:3405  to */\n      dup3\n        /* \"@openzeppelin/contracts/token/ERC721/ERC721.sol\":3407:3414  tokenId */\n      dup3\n        /* \"@openzeppelin/contracts/token/ERC721/ERC721.sol\":3416:3428  _msgSender() */\n      tag_124\n        /* \"@openzeppelin/contracts/token/ERC721/ERC721.sol\":3416:3426  _msgSender */\n      tag_125\n        /* \"@openzeppelin/contracts/token/ERC721/ERC721.sol\":3416:3428  _msgSender() */\n      jump\t// in\n    tag_124:\n        /* \"@openzeppelin/contracts/token/ERC721/ERC721.sol\":3394:3402  _approve */\n      tag_126\n        /* \"@openzeppelin/contracts/token/ERC721/ERC721.sol\":3394:3429  _approve(to, tokenId, _msgSender()) */\n      jump\t// in\n    tag_123:\n        /* \"@openzeppelin/contracts/token/ERC721/ERC721.sol\":3323:3436  function approve(address to, uint256 tokenId) public virtual {... */\n      pop\n      pop\n      jump\t// out\n        /* \"src/nft.sol\":616:1013  function mintNFT() public returns (uint256) {... */\n    tag_50:\n        /* \"src/nft.sol\":651:658  uint256 */\n      0x00\n        /* \"src/nft.sol\":670:685  uint256 tokenId */\n      dup1\n        /* \"src/nft.sol\":688:699  nextTokenId */\n      0x07\n      0x00\n        /* \"src/nft.sol\":688:701  nextTokenId++ */\n      dup2\n      sload\n      dup1\n      swap3\n      swap2\n      swap1\n      tag_128\n      swap1\n      tag_129\n      jump\t// in\n    tag_128:\n      swap2\n      swap1\n      pop\n      sstore\n        /* \"src/nft.sol\":670:701  uint256 tokenId = nextTokenId++ */\n      swap1\n      pop\n        /* \"src/nft.sol\":711:737  _mint(msg.sender, tokenId) */\n      tag_130\n        /* \"src/nft.sol\":717:727  msg.sender */\n      caller\n        /* \"src/nft.sol\":729:736  tokenId */\n      dup3\n        /* \"src/nft.sol\":711:716  _mint */\n      tag_131\n        /* \"src/nft.sol\":711:737  _mint(msg.sender, tokenId) */\n      jump\t// in\n    tag_130:\n        /* \"src/nft.sol\":756:775  string memory newID */\n      0x00\n        /* \"src/nft.sol\":792:807  currentTokenURI */\n      0x0a\n        /* \"src/nft.sol\":809:834  Strings.toString(tokenId) */\n      tag_132\n        /* \"src/nft.sol\":826:833  tokenId */\n      dup4\n        /* \"src/nft.sol\":809:825  Strings.toString */\n      tag_133\n        /* \"src/nft.sol\":809:834  Strings.toString(tokenId) */\n      jump\t// in\n    tag_132:\n        /* \"src/nft.sol\":778:835  string.concat(currentTokenURI, Strings.toString(tokenId)) */\n      add(0x20, mload(0x40))\n      tag_134\n      swap3\n      swap2\n      swap1\n      tag_135\n      jump\t// in\n    tag_134:\n      mload(0x40)\n      0x20\n      dup2\n      dup4\n      sub\n      sub\n      dup2\n      mstore\n      swap1\n      0x40\n      mstore\n        /* \"src/nft.sol\":756:835  string memory newID = string.concat(currentTokenURI, Strings.toString(tokenId)) */\n      swap1\n      pop\n        /* \"src/nft.sol\":845:873  _setTokenURI(tokenId, newID) */\n      tag_136\n        /* \"src/nft.sol\":858:865  tokenId */\n      dup3\n        /* \"src/nft.sol\":867:872  newID */\n      dup3\n        /* \"src/nft.sol\":845:857  _setTokenURI */\n      tag_137\n        /* \"src/nft.sol\":845:873  _setTokenURI(tokenId, newID) */\n      jump\t// in\n    tag_136:\n        /* \"src/nft.sol\":920:921  1 */\n      0x01\n        /* \"src/nft.sol\":906:917  totalSupply */\n      sload(0x09)\n        /* \"src/nft.sol\":906:921  totalSupply + 1 */\n      tag_138\n      swap2\n      swap1\n      tag_139\n      jump\t// in\n    tag_138:\n        /* \"src/nft.sol\":892:903  totalSupply */\n      0x09\n        /* \"src/nft.sol\":892:921  totalSupply = totalSupply + 1 */\n      dup2\n      swap1\n      sstore\n      pop\n        /* \"src/nft.sol\":954:957  cap */\n      sload(0x08)\n        /* \"src/nft.sol\":939:950  totalSupply */\n      sload(0x09)\n        /* \"src/nft.sol\":939:957  totalSupply <= cap */\n      gt\n      iszero\n        /* \"src/nft.sol\":931:982  require(totalSupply <= cap,\"There is a supply cap\") */\n      tag_140\n      jumpi\n      mload(0x40)\n      0x08c379a000000000000000000000000000000000000000000000000000000000\n      dup2\n      mstore\n      0x04\n      add\n      tag_141\n      swap1\n      tag_142\n      jump\t// in\n    tag_141:\n      mload(0x40)\n      dup1\n      swap2\n      sub\n      swap1\n      revert\n    tag_140:\n        /* \"src/nft.sol\":999:1006  tokenId */\n      dup2\n        /* \"src/nft.sol\":992:1006  return tokenId */\n      swap3\n      pop\n      pop\n      pop\n        /* \"src/nft.sol\":616:1013  function mintNFT() public returns (uint256) {... */\n      swap1\n      jump\t// out\n        /* \"src/nft.sol\":437:463  uint256 public totalSupply */\n    tag_54:\n      sload(0x09)\n      dup2\n      jump\t// out\n        /* \"@openzeppelin/contracts/token/ERC721/ERC721.sol\":4143:4721  function transferFrom(address from, address to, uint256 tokenId) public virtual {... */\n    tag_59:\n        /* \"@openzeppelin/contracts/token/ERC721/ERC721.sol\":4251:4252  0 */\n      0x00\n        /* \"@openzeppelin/contracts/token/ERC721/ERC721.sol\":4237:4253  to == address(0) */\n      0xffffffffffffffffffffffffffffffffffffffff\n      and\n        /* \"@openzeppelin/contracts/token/ERC721/ERC721.sol\":4237:4239  to */\n      dup3\n        /* \"@openzeppelin/contracts/token/ERC721/ERC721.sol\":4237:4253  to == address(0) */\n      0xffffffffffffffffffffffffffffffffffffffff\n      and\n      sub\n        /* \"@openzeppelin/contracts/token/ERC721/ERC721.sol\":4233:4320  if (to == address(0)) {... */\n      tag_144\n      jumpi\n        /* \"@openzeppelin/contracts/token/ERC721/ERC721.sol\":4306:4307  0 */\n      0x00\n        /* \"@openzeppelin/contracts/token/ERC721/ERC721.sol\":4276:4309  ERC721InvalidReceiver(address(0)) */\n      mload(0x40)\n      0x64a0ae9200000000000000000000000000000000000000000000000000000000\n      dup2\n      mstore\n      0x04\n      add\n      tag_145\n      swap2\n      swap1\n      tag_44\n      jump\t// in\n    tag_145:\n      mload(0x40)\n      dup1\n      swap2\n      sub\n      swap1\n      revert\n        /* \"@openzeppelin/contracts/token/ERC721/ERC721.sol\":4233:4320  if (to == address(0)) {... */\n    tag_144:\n        /* \"@openzeppelin/contracts/token/ERC721/ERC721.sol\":4538:4559  address previousOwner */\n      0x00\n        /* \"@openzeppelin/contracts/token/ERC721/ERC721.sol\":4562:4596  _update(to, tokenId, _msgSender()) */\n      tag_146\n        /* \"@openzeppelin/contracts/token/ERC721/ERC721.sol\":4570:4572  to */\n      dup4\n        /* \"@openzeppelin/contracts/token/ERC721/ERC721.sol\":4574:4581  tokenId */\n      dup4\n        /* \"@openzeppelin/contracts/token/ERC721/ERC721.sol\":4583:4595  _msgSender() */\n      tag_147\n        /* \"@openzeppelin/contracts/token/ERC721/ERC721.sol\":4583:4593  _msgSender */\n      tag_125\n        /* \"@openzeppelin/contracts/token/ERC721/ERC721.sol\":4583:4595  _msgSender() */\n      jump\t// in\n    tag_147:\n        /* \"@openzeppelin/contracts/token/ERC721/ERC721.sol\":4562:4569  _update */\n      tag_148\n        /* \"@openzeppelin/contracts/token/ERC721/ERC721.sol\":4562:4596  _update(to, tokenId, _msgSender()) */\n      jump\t// in\n    tag_146:\n        /* \"@openzeppelin/contracts/token/ERC721/ERC721.sol\":4538:4596  address previousOwner = _update(to, tokenId, _msgSender()) */\n      swap1\n      pop\n        /* \"@openzeppelin/contracts/token/ERC721/ERC721.sol\":4627:4631  from */\n      dup4\n        /* \"@openzeppelin/contracts/token/ERC721/ERC721.sol\":4610:4631  previousOwner != from */\n      0xffffffffffffffffffffffffffffffffffffffff\n      and\n        /* \"@openzeppelin/contracts/token/ERC721/ERC721.sol\":4610:4623  previousOwner */\n      dup2\n        /* \"@openzeppelin/contracts/token/ERC721/ERC721.sol\":4610:4631  previousOwner != from */\n      0xffffffffffffffffffffffffffffffffffffffff\n      and\n      eq\n        /* \"@openzeppelin/contracts/token/ERC721/ERC721.sol\":4606:4715  if (previousOwner != from) {... */\n      tag_149\n      jumpi\n        /* \"@openzeppelin/contracts/token/ERC721/ERC721.sol\":4675:4679  from */\n      dup4\n        /* \"@openzeppelin/contracts/token/ERC721/ERC721.sol\":4681:4688  tokenId */\n      dup3\n        /* \"@openzeppelin/contracts/token/ERC721/ERC721.sol\":4690:4703  previousOwner */\n      dup3\n        /* \"@openzeppelin/contracts/token/ERC721/ERC721.sol\":4654:4704  ERC721IncorrectOwner(from, tokenId, previousOwner) */\n      mload(0x40)\n      0x64283d7b00000000000000000000000000000000000000000000000000000000\n      dup2\n      mstore\n      0x04\n      add\n      tag_150\n      swap4\n      swap3\n      swap2\n      swap1\n      tag_151\n      jump\t// in\n    tag_150:\n      mload(0x40)\n      dup1\n      swap2\n      sub\n      swap1\n      revert\n        /* \"@openzeppelin/contracts/token/ERC721/ERC721.sol\":4606:4715  if (previousOwner != from) {... */\n    tag_149:\n        /* \"@openzeppelin/contracts/token/ERC721/ERC721.sol\":4223:4721  {... */\n      pop\n        /* \"@openzeppelin/contracts/token/ERC721/ERC721.sol\":4143:4721  function transferFrom(address from, address to, uint256 tokenId) public virtual {... */\n      pop\n      pop\n      pop\n      jump\t// out\n        /* \"src/nft.sol\":1023:1134  function burnNFT(uint256 tokenId) public {... */\n    tag_62:\n        /* \"src/nft.sol\":1074:1088  _burn(tokenId) */\n      tag_153\n        /* \"src/nft.sol\":1080:1087  tokenId */\n      dup2\n        /* \"src/nft.sol\":1074:1079  _burn */\n      tag_154\n        /* \"src/nft.sol\":1074:1088  _burn(tokenId) */\n      jump\t// in\n    tag_153:\n        /* \"src/nft.sol\":1126:1127  1 */\n      0x01\n        /* \"src/nft.sol\":1112:1123  totalSupply */\n      sload(0x09)\n        /* \"src/nft.sol\":1112:1127  totalSupply - 1 */\n      tag_155\n      swap2\n      swap1\n      tag_156\n      jump\t// in\n    tag_155:\n        /* \"src/nft.sol\":1098:1109  totalSupply */\n      0x09\n        /* \"src/nft.sol\":1098:1127  totalSupply = totalSupply - 1 */\n      dup2\n      swap1\n      sstore\n      pop\n        /* \"src/nft.sol\":1023:1134  function burnNFT(uint256 tokenId) public {... */\n      pop\n      jump\t// out\n        /* \"@openzeppelin/contracts/token/ERC721/ERC721.sol\":4787:4919  function safeTransferFrom(address from, address to, uint256 tokenId) public {... */\n    tag_65:\n        /* \"@openzeppelin/contracts/token/ERC721/ERC721.sol\":4873:4912  safeTransferFrom(from, to, tokenId, \"\") */\n      tag_158\n        /* \"@openzeppelin/contracts/token/ERC721/ERC721.sol\":4890:4894  from */\n      dup4\n        /* \"@openzeppelin/contracts/token/ERC721/ERC721.sol\":4896:4898  to */\n      dup4\n        /* \"@openzeppelin/contracts/token/ERC721/ERC721.sol\":4900:4907  tokenId */\n      dup4\n        /* \"@openzeppelin/contracts/token/ERC721/ERC721.sol\":4873:4912  safeTransferFrom(from, to, tokenId, \"\") */\n      mload(0x40)\n      dup1\n      0x20\n      add\n      0x40\n      mstore\n      dup1\n      0x00\n      dup2\n      mstore\n      pop\n        /* \"@openzeppelin/contracts/token/ERC721/ERC721.sol\":4873:4889  safeTransferFrom */\n      tag_88\n        /* \"@openzeppelin/contracts/token/ERC721/ERC721.sol\":4873:4912  safeTransferFrom(from, to, tokenId, \"\") */\n      jump\t// in\n    tag_158:\n        /* \"@openzeppelin/contracts/token/ERC721/ERC721.sol\":4787:4919  function safeTransferFrom(address from, address to, uint256 tokenId) public {... */\n      pop\n      pop\n      pop\n      jump\t// out\n        /* \"@openzeppelin/contracts/token/ERC721/ERC721.sol\":2185:2303  function ownerOf(uint256 tokenId) public view virtual returns (address) {... */\n    tag_68:\n        /* \"@openzeppelin/contracts/token/ERC721/ERC721.sol\":2248:2255  address */\n      0x00\n        /* \"@openzeppelin/contracts/token/ERC721/ERC721.sol\":2274:2296  _requireOwned(tokenId) */\n      tag_160\n        /* \"@openzeppelin/contracts/token/ERC721/ERC721.sol\":2288:2295  tokenId */\n      dup3\n        /* \"@openzeppelin/contracts/token/ERC721/ERC721.sol\":2274:2287  _requireOwned */\n      tag_119\n        /* \"@openzeppelin/contracts/token/ERC721/ERC721.sol\":2274:2296  _requireOwned(tokenId) */\n      jump\t// in\n    tag_160:\n        /* \"@openzeppelin/contracts/token/ERC721/ERC721.sol\":2267:2296  return _requireOwned(tokenId) */\n      swap1\n      pop\n        /* \"@openzeppelin/contracts/token/ERC721/ERC721.sol\":2185:2303  function ownerOf(uint256 tokenId) public view virtual returns (address) {... */\n      swap2\n      swap1\n      pop\n      jump\t// out\n        /* \"@openzeppelin/contracts/token/ERC721/ERC721.sol\":1920:2128  function balanceOf(address owner) public view virtual returns (uint256) {... */\n    tag_73:\n        /* \"@openzeppelin/contracts/token/ERC721/ERC721.sol\":1983:1990  uint256 */\n      0x00\n        /* \"@openzeppelin/contracts/token/ERC721/ERC721.sol\":2023:2024  0 */\n      dup1\n        /* \"@openzeppelin/contracts/token/ERC721/ERC721.sol\":2006:2025  owner == address(0) */\n      0xffffffffffffffffffffffffffffffffffffffff\n      and\n        /* \"@openzeppelin/contracts/token/ERC721/ERC721.sol\":2006:2011  owner */\n      dup3\n        /* \"@openzeppelin/contracts/token/ERC721/ERC721.sol\":2006:2025  owner == address(0) */\n      0xffffffffffffffffffffffffffffffffffffffff\n      and\n      sub\n        /* \"@openzeppelin/contracts/token/ERC721/ERC721.sol\":2002:2089  if (owner == address(0)) {... */\n      tag_162\n      jumpi\n        /* \"@openzeppelin/contracts/token/ERC721/ERC721.sol\":2075:2076  0 */\n      0x00\n        /* \"@openzeppelin/contracts/token/ERC721/ERC721.sol\":2048:2078  ERC721InvalidOwner(address(0)) */\n      mload(0x40)\n      0x89c62b6400000000000000000000000000000000000000000000000000000000\n      dup2\n      mstore\n      0x04\n      add\n      tag_163\n      swap2\n      swap1\n      tag_44\n      jump\t// in\n    tag_163:\n      mload(0x40)\n      dup1\n      swap2\n      sub\n      swap1\n      revert\n        /* \"@openzeppelin/contracts/token/ERC721/ERC721.sol\":2002:2089  if (owner == address(0)) {... */\n    tag_162:\n        /* \"@openzeppelin/contracts/token/ERC721/ERC721.sol\":2105:2114  _balances */\n      0x03\n        /* \"@openzeppelin/contracts/token/ERC721/ERC721.sol\":2105:2121  _balances[owner] */\n      0x00\n        /* \"@openzeppelin/contracts/token/ERC721/ERC721.sol\":2115:2120  owner */\n      dup4\n        /* \"@openzeppelin/contracts/token/ERC721/ERC721.sol\":2105:2121  _balances[owner] */\n      0xffffffffffffffffffffffffffffffffffffffff\n      and\n      0xffffffffffffffffffffffffffffffffffffffff\n      and\n      dup2\n      mstore\n      0x20\n      add\n      swap1\n      dup2\n      mstore\n      0x20\n      add\n      0x00\n      keccak256\n      sload\n        /* \"@openzeppelin/contracts/token/ERC721/ERC721.sol\":2098:2121  return _balances[owner] */\n      swap1\n      pop\n        /* \"@openzeppelin/contracts/token/ERC721/ERC721.sol\":1920:2128  function balanceOf(address owner) public view virtual returns (uint256) {... */\n      swap2\n      swap1\n      pop\n      jump\t// out\n        /* \"src/nft.sol\":470:499  string public currentTokenURI */\n    tag_76:\n      0x0a\n      dup1\n      sload\n      tag_164\n      swap1\n      tag_106\n      jump\t// in\n    tag_164:\n      dup1\n      0x1f\n      add\n      0x20\n      dup1\n      swap2\n      div\n      mul\n      0x20\n      add\n      mload(0x40)\n      swap1\n      dup2\n      add\n      0x40\n      mstore\n      dup1\n      swap3\n      swap2\n      swap1\n      dup2\n      dup2\n      mstore\n      0x20\n      add\n      dup3\n      dup1\n      sload\n      tag_165\n      swap1\n      tag_106\n      jump\t// in\n    tag_165:\n      dup1\n      iszero\n      tag_166\n      jumpi\n      dup1\n      0x1f\n      lt\n      tag_167\n      jumpi\n      0x0100\n      dup1\n      dup4\n      sload\n      div\n      mul\n      dup4\n      mstore\n      swap2\n      0x20\n      add\n      swap2\n      jump(tag_166)\n    tag_167:\n      dup3\n      add\n      swap2\n      swap1\n      0x00\n      mstore\n      keccak256(0x00, 0x20)\n      swap1\n    tag_168:\n      dup2\n      sload\n      dup2\n      mstore\n      swap1\n      0x01\n      add\n      swap1\n      0x20\n      add\n      dup1\n      dup4\n      gt\n      tag_168\n      jumpi\n      dup3\n      swap1\n      sub\n      0x1f\n      and\n      dup3\n      add\n      swap2\n    tag_166:\n      pop\n      pop\n      pop\n      pop\n      pop\n      dup2\n      jump\t// out\n        /* \"@openzeppelin/contracts/token/ERC721/ERC721.sol\":2518:2611  function symbol() public view virtual returns (string memory) {... */\n    tag_79:\n        /* \"@openzeppelin/contracts/token/ERC721/ERC721.sol\":2565:2578  string memory */\n      0x60\n        /* \"@openzeppelin/contracts/token/ERC721/ERC721.sol\":2597:2604  _symbol */\n      0x01\n        /* \"@openzeppelin/contracts/token/ERC721/ERC721.sol\":2590:2604  return _symbol */\n      dup1\n      sload\n      tag_170\n      swap1\n      tag_106\n      jump\t// in\n    tag_170:\n      dup1\n      0x1f\n      add\n      0x20\n      dup1\n      swap2\n      div\n      mul\n      0x20\n      add\n      mload(0x40)\n      swap1\n      dup2\n      add\n      0x40\n      mstore\n      dup1\n      swap3\n      swap2\n      swap1\n      dup2\n      dup2\n      mstore\n      0x20\n      add\n      dup3\n      dup1\n      sload\n      tag_171\n      swap1\n      tag_106\n      jump\t// in\n    tag_171:\n      dup1\n      iszero\n      tag_172\n      jumpi\n      dup1\n      0x1f\n      lt\n      tag_173\n      jumpi\n      0x0100\n      dup1\n      dup4\n      sload\n      div\n      mul\n      dup4\n      mstore\n      swap2\n      0x20\n      add\n      swap2\n      jump(tag_172)\n    tag_173:\n      dup3\n      add\n      swap2\n      swap1\n      0x00\n      mstore\n      keccak256(0x00, 0x20)\n      swap1\n    tag_174:\n      dup2\n      sload\n      dup2\n      mstore\n      swap1\n      0x01\n      add\n      swap1\n      0x20\n      add\n      dup1\n      dup4\n      gt\n      tag_174\n      jumpi\n      dup3\n      swap1\n      sub\n      0x1f\n      and\n      dup3\n      add\n      swap2\n    tag_172:\n      pop\n      pop\n      pop\n      pop\n      pop\n      swap1\n      pop\n        /* \"@openzeppelin/contracts/token/ERC721/ERC721.sol\":2518:2611  function symbol() public view virtual returns (string memory) {... */\n      swap1\n      jump\t// out\n        /* \"@openzeppelin/contracts/token/ERC721/ERC721.sol\":3718:3862  function setApprovalForAll(address operator, bool approved) public virtual {... */\n    tag_84:\n        /* \"@openzeppelin/contracts/token/ERC721/ERC721.sol\":3803:3855  _setApprovalForAll(_msgSender(), operator, approved) */\n      tag_176\n        /* \"@openzeppelin/contracts/token/ERC721/ERC721.sol\":3822:3834  _msgSender() */\n      tag_177\n        /* \"@openzeppelin/contracts/token/ERC721/ERC721.sol\":3822:3832  _msgSender */\n      tag_125\n        /* \"@openzeppelin/contracts/token/ERC721/ERC721.sol\":3822:3834  _msgSender() */\n      jump\t// in\n    tag_177:\n        /* \"@openzeppelin/contracts/token/ERC721/ERC721.sol\":3836:3844  operator */\n      dup4\n        /* \"@openzeppelin/contracts/token/ERC721/ERC721.sol\":3846:3854  approved */\n      dup4\n        /* \"@openzeppelin/contracts/token/ERC721/ERC721.sol\":3803:3821  _setApprovalForAll */\n      tag_178\n        /* \"@openzeppelin/contracts/token/ERC721/ERC721.sol\":3803:3855  _setApprovalForAll(_msgSender(), operator, approved) */\n      jump\t// in\n    tag_176:\n        /* \"@openzeppelin/contracts/token/ERC721/ERC721.sol\":3718:3862  function setApprovalForAll(address operator, bool approved) public virtual {... */\n      pop\n      pop\n      jump\t// out\n        /* \"@openzeppelin/contracts/token/ERC721/ERC721.sol\":4985:5193  function safeTransferFrom(address from, address to, uint256 tokenId, bytes memory data) public virtual {... */\n    tag_88:\n        /* \"@openzeppelin/contracts/token/ERC721/ERC721.sol\":5098:5129  transferFrom(from, to, tokenId) */\n      tag_180\n        /* \"@openzeppelin/contracts/token/ERC721/ERC721.sol\":5111:5115  from */\n      dup5\n        /* \"@openzeppelin/contracts/token/ERC721/ERC721.sol\":5117:5119  to */\n      dup5\n        /* \"@openzeppelin/contracts/token/ERC721/ERC721.sol\":5121:5128  tokenId */\n      dup5\n        /* \"@openzeppelin/contracts/token/ERC721/ERC721.sol\":5098:5110  transferFrom */\n      tag_59\n        /* \"@openzeppelin/contracts/token/ERC721/ERC721.sol\":5098:5129  transferFrom(from, to, tokenId) */\n      jump\t// in\n    tag_180:\n        /* \"@openzeppelin/contracts/token/ERC721/ERC721.sol\":5139:5186  _checkOnERC721Received(from, to, tokenId, data) */\n      tag_181\n        /* \"@openzeppelin/contracts/token/ERC721/ERC721.sol\":5162:5166  from */\n      dup5\n        /* \"@openzeppelin/contracts/token/ERC721/ERC721.sol\":5168:5170  to */\n      dup5\n        /* \"@openzeppelin/contracts/token/ERC721/ERC721.sol\":5172:5179  tokenId */\n      dup5\n        /* \"@openzeppelin/contracts/token/ERC721/ERC721.sol\":5181:5185  data */\n      dup5\n        /* \"@openzeppelin/contracts/token/ERC721/ERC721.sol\":5139:5161  _checkOnERC721Received */\n      tag_182\n        /* \"@openzeppelin/contracts/token/ERC721/ERC721.sol\":5139:5186  _checkOnERC721Received(from, to, tokenId, data) */\n      jump\t// in\n    tag_181:\n        /* \"@openzeppelin/contracts/token/ERC721/ERC721.sol\":4985:5193  function safeTransferFrom(address from, address to, uint256 tokenId, bytes memory data) public virtual {... */\n      pop\n      pop\n      pop\n      pop\n      jump\t// out\n        /* \"@openzeppelin/contracts/token/ERC721/extensions/ERC721URIStorage.sol\":1210:1803  function tokenURI(uint256 tokenId) public view virtual override returns (string memory) {... */\n    tag_91:\n        /* \"@openzeppelin/contracts/token/ERC721/extensions/ERC721URIStorage.sol\":1283:1296  string memory */\n      0x60\n        /* \"@openzeppelin/contracts/token/ERC721/extensions/ERC721URIStorage.sol\":1308:1330  _requireOwned(tokenId) */\n      tag_184\n        /* \"@openzeppelin/contracts/token/ERC721/extensions/ERC721URIStorage.sol\":1322:1329  tokenId */\n      dup3\n        /* \"@openzeppelin/contracts/token/ERC721/extensions/ERC721URIStorage.sol\":1308:1321  _requireOwned */\n      tag_119\n        /* \"@openzeppelin/contracts/token/ERC721/extensions/ERC721URIStorage.sol\":1308:1330  _requireOwned(tokenId) */\n      jump\t// in\n    tag_184:\n      pop\n        /* \"@openzeppelin/contracts/token/ERC721/extensions/ERC721URIStorage.sol\":1341:1364  string memory _tokenURI */\n      0x00\n        /* \"@openzeppelin/contracts/token/ERC721/extensions/ERC721URIStorage.sol\":1367:1377  _tokenURIs */\n      0x06\n        /* \"@openzeppelin/contracts/token/ERC721/extensions/ERC721URIStorage.sol\":1367:1386  _tokenURIs[tokenId] */\n      0x00\n        /* \"@openzeppelin/contracts/token/ERC721/extensions/ERC721URIStorage.sol\":1378:1385  tokenId */\n      dup5\n        /* \"@openzeppelin/contracts/token/ERC721/extensions/ERC721URIStorage.sol\":1367:1386  _tokenURIs[tokenId] */\n      dup2\n      mstore\n      0x20\n      add\n      swap1\n      dup2\n      mstore\n      0x20\n      add\n      0x00\n      keccak256\n        /* \"@openzeppelin/contracts/token/ERC721/extensions/ERC721URIStorage.sol\":1341:1386  string memory _tokenURI = _tokenURIs[tokenId] */\n      dup1\n      sload\n      tag_185\n      swap1\n      tag_106\n      jump\t// in\n    tag_185:\n      dup1\n      0x1f\n      add\n      0x20\n      dup1\n      swap2\n      div\n      mul\n      0x20\n      add\n      mload(0x40)\n      swap1\n      dup2\n      add\n      0x40\n      mstore\n      dup1\n      swap3\n      swap2\n      swap1\n      dup2\n      dup2\n      mstore\n      0x20\n      add\n      dup3\n      dup1\n      sload\n      tag_186\n      swap1\n      tag_106\n      jump\t// in\n    tag_186:\n      dup1\n      iszero\n      tag_187\n      jumpi\n      dup1\n      0x1f\n      lt\n      tag_188\n      jumpi\n      0x0100\n      dup1\n      dup4\n      sload\n      div\n      mul\n      dup4\n      mstore\n      swap2\n      0x20\n      add\n      swap2\n      jump(tag_187)\n    tag_188:\n      dup3\n      add\n      swap2\n      swap1\n      0x00\n      mstore\n      keccak256(0x00, 0x20)\n      swap1\n    tag_189:\n      dup2\n      sload\n      dup2\n      mstore\n      swap1\n      0x01\n      add\n      swap1\n      0x20\n      add\n      dup1\n      dup4\n      gt\n      tag_189\n      jumpi\n      dup3\n      swap1\n      sub\n      0x1f\n      and\n      dup3\n      add\n      swap2\n    tag_187:\n      pop\n      pop\n      pop\n      pop\n      pop\n      swap1\n      pop\n        /* \"@openzeppelin/contracts/token/ERC721/extensions/ERC721URIStorage.sol\":1396:1414  string memory base */\n      0x00\n        /* \"@openzeppelin/contracts/token/ERC721/extensions/ERC721URIStorage.sol\":1417:1427  _baseURI() */\n      tag_190\n        /* \"@openzeppelin/contracts/token/ERC721/extensions/ERC721URIStorage.sol\":1417:1425  _baseURI */\n      tag_191\n        /* \"@openzeppelin/contracts/token/ERC721/extensions/ERC721URIStorage.sol\":1417:1427  _baseURI() */\n      jump\t// in\n    tag_190:\n        /* \"@openzeppelin/contracts/token/ERC721/extensions/ERC721URIStorage.sol\":1396:1427  string memory base = _baseURI() */\n      swap1\n      pop\n        /* \"@openzeppelin/contracts/token/ERC721/extensions/ERC721URIStorage.sol\":1522:1523  0 */\n      0x00\n        /* \"@openzeppelin/contracts/token/ERC721/extensions/ERC721URIStorage.sol\":1506:1510  base */\n      dup2\n        /* \"@openzeppelin/contracts/token/ERC721/extensions/ERC721URIStorage.sol\":1500:1518  bytes(base).length */\n      mload\n        /* \"@openzeppelin/contracts/token/ERC721/extensions/ERC721URIStorage.sol\":1500:1523  bytes(base).length == 0 */\n      sub\n        /* \"@openzeppelin/contracts/token/ERC721/extensions/ERC721URIStorage.sol\":1496:1566  if (bytes(base).length == 0) {... */\n      tag_192\n      jumpi\n        /* \"@openzeppelin/contracts/token/ERC721/extensions/ERC721URIStorage.sol\":1546:1555  _tokenURI */\n      dup2\n        /* \"@openzeppelin/contracts/token/ERC721/extensions/ERC721URIStorage.sol\":1539:1555  return _tokenURI */\n      swap3\n      pop\n      pop\n      pop\n      jump(tag_183)\n        /* \"@openzeppelin/contracts/token/ERC721/extensions/ERC721URIStorage.sol\":1496:1566  if (bytes(base).length == 0) {... */\n    tag_192:\n        /* \"@openzeppelin/contracts/token/ERC721/extensions/ERC721URIStorage.sol\":1691:1692  0 */\n      0x00\n        /* \"@openzeppelin/contracts/token/ERC721/extensions/ERC721URIStorage.sol\":1671:1680  _tokenURI */\n      dup3\n        /* \"@openzeppelin/contracts/token/ERC721/extensions/ERC721URIStorage.sol\":1665:1688  bytes(_tokenURI).length */\n      mload\n        /* \"@openzeppelin/contracts/token/ERC721/extensions/ERC721URIStorage.sol\":1665:1692  bytes(_tokenURI).length > 0 */\n      gt\n        /* \"@openzeppelin/contracts/token/ERC721/extensions/ERC721URIStorage.sol\":1661:1756  if (bytes(_tokenURI).length > 0) {... */\n      iszero\n      tag_193\n      jumpi\n        /* \"@openzeppelin/contracts/token/ERC721/extensions/ERC721URIStorage.sol\":1729:1733  base */\n      dup1\n        /* \"@openzeppelin/contracts/token/ERC721/extensions/ERC721URIStorage.sol\":1735:1744  _tokenURI */\n      dup3\n        /* \"@openzeppelin/contracts/token/ERC721/extensions/ERC721URIStorage.sol\":1715:1745  string.concat(base, _tokenURI) */\n      add(0x20, mload(0x40))\n      tag_194\n      swap3\n      swap2\n      swap1\n      tag_195\n      jump\t// in\n    tag_194:\n      mload(0x40)\n      0x20\n      dup2\n      dup4\n      sub\n      sub\n      dup2\n      mstore\n      swap1\n      0x40\n      mstore\n        /* \"@openzeppelin/contracts/token/ERC721/extensions/ERC721URIStorage.sol\":1708:1745  return string.concat(base, _tokenURI) */\n      swap3\n      pop\n      pop\n      pop\n      jump(tag_183)\n        /* \"@openzeppelin/contracts/token/ERC721/extensions/ERC721URIStorage.sol\":1661:1756  if (bytes(_tokenURI).length > 0) {... */\n    tag_193:\n        /* \"@openzeppelin/contracts/token/ERC721/extensions/ERC721URIStorage.sol\":1773:1796  super.tokenURI(tokenId) */\n      tag_196\n        /* \"@openzeppelin/contracts/token/ERC721/extensions/ERC721URIStorage.sol\":1788:1795  tokenId */\n      dup5\n        /* \"@openzeppelin/contracts/token/ERC721/extensions/ERC721URIStorage.sol\":1773:1787  super.tokenURI */\n      tag_197\n        /* \"@openzeppelin/contracts/token/ERC721/extensions/ERC721URIStorage.sol\":1773:1796  super.tokenURI(tokenId) */\n      jump\t// in\n    tag_196:\n        /* \"@openzeppelin/contracts/token/ERC721/extensions/ERC721URIStorage.sol\":1766:1796  return super.tokenURI(tokenId) */\n      swap3\n      pop\n      pop\n      pop\n        /* \"@openzeppelin/contracts/token/ERC721/extensions/ERC721URIStorage.sol\":1210:1803  function tokenURI(uint256 tokenId) public view virtual override returns (string memory) {... */\n    tag_183:\n      swap2\n      swap1\n      pop\n      jump\t// out\n        /* \"@openzeppelin/contracts/token/ERC721/ERC721.sol\":3928:4081  function isApprovedForAll(address owner, address operator) public view virtual returns (bool) {... */\n    tag_96:\n        /* \"@openzeppelin/contracts/token/ERC721/ERC721.sol\":4016:4020  bool */\n      0x00\n        /* \"@openzeppelin/contracts/token/ERC721/ERC721.sol\":4039:4057  _operatorApprovals */\n      0x05\n        /* \"@openzeppelin/contracts/token/ERC721/ERC721.sol\":4039:4064  _operatorApprovals[owner] */\n      0x00\n        /* \"@openzeppelin/contracts/token/ERC721/ERC721.sol\":4058:4063  owner */\n      dup5\n        /* \"@openzeppelin/contracts/token/ERC721/ERC721.sol\":4039:4064  _operatorApprovals[owner] */\n      0xffffffffffffffffffffffffffffffffffffffff\n      and\n      0xffffffffffffffffffffffffffffffffffffffff\n      and\n      dup2\n      mstore\n      0x20\n      add\n      swap1\n      dup2\n      mstore\n      0x20\n      add\n      0x00\n      keccak256\n        /* \"@openzeppelin/contracts/token/ERC721/ERC721.sol\":4039:4074  _operatorApprovals[owner][operator] */\n      0x00\n        /* \"@openzeppelin/contracts/token/ERC721/ERC721.sol\":4065:4073  operator */\n      dup4\n        /* \"@openzeppelin/contracts/token/ERC721/ERC721.sol\":4039:4074  _operatorApprovals[owner][operator] */\n      0xffffffffffffffffffffffffffffffffffffffff\n      and\n      0xffffffffffffffffffffffffffffffffffffffff\n      and\n      dup2\n      mstore\n      0x20\n      add\n      swap1\n      dup2\n      mstore\n      0x20\n      add\n      0x00\n      keccak256\n      0x00\n      swap1\n      sload\n      swap1\n      0x0100\n      exp\n      swap1\n      div\n      0xff\n      and\n        /* \"@openzeppelin/contracts/token/ERC721/ERC721.sol\":4032:4074  return _operatorApprovals[owner][operator] */\n      swap1\n      pop\n        /* \"@openzeppelin/contracts/token/ERC721/ERC721.sol\":3928:4081  function isApprovedForAll(address owner, address operator) public view virtual returns (bool) {... */\n      swap3\n      swap2\n      pop\n      pop\n      jump\t// out\n        /* \"@openzeppelin/contracts/token/ERC721/ERC721.sol\":1561:1861  function supportsInterface(bytes4 interfaceId) public view virtual override(ERC165, IERC165) returns (bool) {... */\n    tag_101:\n        /* \"@openzeppelin/contracts/token/ERC721/ERC721.sol\":1663:1667  bool */\n      0x00\n        /* \"@openzeppelin/contracts/token/ERC721/ERC721.sol\":1713:1738  type(IERC721).interfaceId */\n      0x80ac58cd00000000000000000000000000000000000000000000000000000000\n        /* \"@openzeppelin/contracts/token/ERC721/ERC721.sol\":1698:1738  interfaceId == type(IERC721).interfaceId */\n      not(0xffffffffffffffffffffffffffffffffffffffffffffffffffffffff)\n      and\n        /* \"@openzeppelin/contracts/token/ERC721/ERC721.sol\":1698:1709  interfaceId */\n      dup3\n        /* \"@openzeppelin/contracts/token/ERC721/ERC721.sol\":1698:1738  interfaceId == type(IERC721).interfaceId */\n      not(0xffffffffffffffffffffffffffffffffffffffffffffffffffffffff)\n      and\n      eq\n        /* \"@openzeppelin/contracts/token/ERC721/ERC721.sol\":1698:1802  interfaceId == type(IERC721).interfaceId ||... */\n      dup1\n      tag_200\n      jumpi\n      pop\n        /* \"@openzeppelin/contracts/token/ERC721/ERC721.sol\":1769:1802  type(IERC721Metadata).interfaceId */\n      0x5b5e139f00000000000000000000000000000000000000000000000000000000\n        /* \"@openzeppelin/contracts/token/ERC721/ERC721.sol\":1754:1802  interfaceId == type(IERC721Metadata).interfaceId */\n      not(0xffffffffffffffffffffffffffffffffffffffffffffffffffffffff)\n      and\n        /* \"@openzeppelin/contracts/token/ERC721/ERC721.sol\":1754:1765  interfaceId */\n      dup3\n        /* \"@openzeppelin/contracts/token/ERC721/ERC721.sol\":1754:1802  interfaceId == type(IERC721Metadata).interfaceId */\n      not(0xffffffffffffffffffffffffffffffffffffffffffffffffffffffff)\n      and\n      eq\n        /* \"@openzeppelin/contracts/token/ERC721/ERC721.sol\":1698:1802  interfaceId == type(IERC721).interfaceId ||... */\n    tag_200:\n        /* \"@openzeppelin/contracts/token/ERC721/ERC721.sol\":1698:1854  interfaceId == type(IERC721).interfaceId ||... */\n      dup1\n      tag_201\n      jumpi\n      pop\n        /* \"@openzeppelin/contracts/token/ERC721/ERC721.sol\":1818:1854  super.supportsInterface(interfaceId) */\n      tag_202\n        /* \"@openzeppelin/contracts/token/ERC721/ERC721.sol\":1842:1853  interfaceId */\n      dup3\n        /* \"@openzeppelin/contracts/token/ERC721/ERC721.sol\":1818:1841  super.supportsInterface */\n      tag_203\n        /* \"@openzeppelin/contracts/token/ERC721/ERC721.sol\":1818:1854  super.supportsInterface(interfaceId) */\n      jump\t// in\n    tag_202:\n        /* \"@openzeppelin/contracts/token/ERC721/ERC721.sol\":1698:1854  interfaceId == type(IERC721).interfaceId ||... */\n    tag_201:\n        /* \"@openzeppelin/contracts/token/ERC721/ERC721.sol\":1679:1854  return... */\n      swap1\n      pop\n        /* \"@openzeppelin/contracts/token/ERC721/ERC721.sol\":1561:1861  function supportsInterface(bytes4 interfaceId) public view virtual override(ERC165, IERC165) returns (bool) {... */\n      swap2\n      swap1\n      pop\n      jump\t// out\n        /* \"@openzeppelin/contracts/token/ERC721/ERC721.sol\":16138:16379  function _requireOwned(uint256 tokenId) internal view returns (address) {... */\n    tag_119:\n        /* \"@openzeppelin/contracts/token/ERC721/ERC721.sol\":16201:16208  address */\n      0x00\n        /* \"@openzeppelin/contracts/token/ERC721/ERC721.sol\":16220:16233  address owner */\n      dup1\n        /* \"@openzeppelin/contracts/token/ERC721/ERC721.sol\":16236:16253  _ownerOf(tokenId) */\n      tag_205\n        /* \"@openzeppelin/contracts/token/ERC721/ERC721.sol\":16245:16252  tokenId */\n      dup4\n        /* \"@openzeppelin/contracts/token/ERC721/ERC721.sol\":16236:16244  _ownerOf */\n      tag_206\n        /* \"@openzeppelin/contracts/token/ERC721/ERC721.sol\":16236:16253  _ownerOf(tokenId) */\n      jump\t// in\n    tag_205:\n        /* \"@openzeppelin/contracts/token/ERC721/ERC721.sol\":16220:16253  address owner = _ownerOf(tokenId) */\n      swap1\n      pop\n        /* \"@openzeppelin/contracts/token/ERC721/ERC721.sol\":16284:16285  0 */\n      0x00\n        /* \"@openzeppelin/contracts/token/ERC721/ERC721.sol\":16267:16286  owner == address(0) */\n      0xffffffffffffffffffffffffffffffffffffffff\n      and\n        /* \"@openzeppelin/contracts/token/ERC721/ERC721.sol\":16267:16272  owner */\n      dup2\n        /* \"@openzeppelin/contracts/token/ERC721/ERC721.sol\":16267:16286  owner == address(0) */\n      0xffffffffffffffffffffffffffffffffffffffff\n      and\n      sub\n        /* \"@openzeppelin/contracts/token/ERC721/ERC721.sol\":16263:16351  if (owner == address(0)) {... */\n      tag_207\n      jumpi\n        /* \"@openzeppelin/contracts/token/ERC721/ERC721.sol\":16332:16339  tokenId */\n      dup3\n        /* \"@openzeppelin/contracts/token/ERC721/ERC721.sol\":16309:16340  ERC721NonexistentToken(tokenId) */\n      mload(0x40)\n      0x7e27328900000000000000000000000000000000000000000000000000000000\n      dup2\n      mstore\n      0x04\n      add\n      tag_208\n      swap2\n      swap1\n      tag_52\n      jump\t// in\n    tag_208:\n      mload(0x40)\n      dup1\n      swap2\n      sub\n      swap1\n      revert\n        /* \"@openzeppelin/contracts/token/ERC721/ERC721.sol\":16263:16351  if (owner == address(0)) {... */\n    tag_207:\n        /* \"@openzeppelin/contracts/token/ERC721/ERC721.sol\":16367:16372  owner */\n      dup1\n        /* \"@openzeppelin/contracts/token/ERC721/ERC721.sol\":16360:16372  return owner */\n      swap2\n      pop\n      pop\n        /* \"@openzeppelin/contracts/token/ERC721/ERC721.sol\":16138:16379  function _requireOwned(uint256 tokenId) internal view returns (address) {... */\n      swap2\n      swap1\n      pop\n      jump\t// out\n        /* \"@openzeppelin/contracts/token/ERC721/ERC721.sol\":5938:6065  function _getApproved(uint256 tokenId) internal view virtual returns (address) {... */\n    tag_121:\n        /* \"@openzeppelin/contracts/token/ERC721/ERC721.sol\":6008:6015  address */\n      0x00\n        /* \"@openzeppelin/contracts/token/ERC721/ERC721.sol\":6034:6049  _tokenApprovals */\n      0x04\n        /* \"@openzeppelin/contracts/token/ERC721/ERC721.sol\":6034:6058  _tokenApprovals[tokenId] */\n      0x00\n        /* \"@openzeppelin/contracts/token/ERC721/ERC721.sol\":6050:6057  tokenId */\n      dup4\n        /* \"@openzeppelin/contracts/token/ERC721/ERC721.sol\":6034:6058  _tokenApprovals[tokenId] */\n      dup2\n      mstore\n      0x20\n      add\n      swap1\n      dup2\n      mstore\n      0x20\n      add\n      0x00\n      keccak256\n      0x00\n      swap1\n      sload\n      swap1\n      0x0100\n      exp\n      swap1\n      div\n      0xffffffffffffffffffffffffffffffffffffffff\n      and\n        /* \"@openzeppelin/contracts/token/ERC721/ERC721.sol\":6027:6058  return _tokenApprovals[tokenId] */\n      swap1\n      pop\n        /* \"@openzeppelin/contracts/token/ERC721/ERC721.sol\":5938:6065  function _getApproved(uint256 tokenId) internal view virtual returns (address) {... */\n      swap2\n      swap1\n      pop\n      jump\t// out\n        /* \"@openzeppelin/contracts/utils/Context.sol\":656:752  function _msgSender() internal view virtual returns (address) {... */\n    tag_125:\n        /* \"@openzeppelin/contracts/utils/Context.sol\":709:716  address */\n      0x00\n        /* \"@openzeppelin/contracts/utils/Context.sol\":735:745  msg.sender */\n      caller\n        /* \"@openzeppelin/contracts/utils/Context.sol\":728:745  return msg.sender */\n      swap1\n      pop\n        /* \"@openzeppelin/contracts/utils/Context.sol\":656:752  function _msgSender() internal view virtual returns (address) {... */\n      swap1\n      jump\t// out\n        /* \"@openzeppelin/contracts/token/ERC721/ERC721.sol\":14418:14538  function _approve(address to, uint256 tokenId, address auth) internal {... */\n    tag_126:\n        /* \"@openzeppelin/contracts/token/ERC721/ERC721.sol\":14498:14531  _approve(to, tokenId, auth, true) */\n      tag_212\n        /* \"@openzeppelin/contracts/token/ERC721/ERC721.sol\":14507:14509  to */\n      dup4\n        /* \"@openzeppelin/contracts/token/ERC721/ERC721.sol\":14511:14518  tokenId */\n      dup4\n        /* \"@openzeppelin/contracts/token/ERC721/ERC721.sol\":14520:14524  auth */\n      dup4\n        /* \"@openzeppelin/contracts/token/ERC721/ERC721.sol\":14526:14530  true */\n      0x01\n        /* \"@openzeppelin/contracts/token/ERC721/ERC721.sol\":14498:14506  _approve */\n      tag_213\n        /* \"@openzeppelin/contracts/token/ERC721/ERC721.sol\":14498:14531  _approve(to, tokenId, auth, true) */\n      jump\t// in\n    tag_212:\n        /* \"@openzeppelin/contracts/token/ERC721/ERC721.sol\":14418:14538  function _approve(address to, uint256 tokenId, address auth) internal {... */\n      pop\n      pop\n      pop\n      jump\t// out\n        /* \"@openzeppelin/contracts/token/ERC721/ERC721.sol\":9955:10282  function _mint(address to, uint256 tokenId) internal {... */\n    tag_131:\n        /* \"@openzeppelin/contracts/token/ERC721/ERC721.sol\":10036:10037  0 */\n      0x00\n        /* \"@openzeppelin/contracts/token/ERC721/ERC721.sol\":10022:10038  to == address(0) */\n      0xffffffffffffffffffffffffffffffffffffffff\n      and\n        /* \"@openzeppelin/contracts/token/ERC721/ERC721.sol\":10022:10024  to */\n      dup3\n        /* \"@openzeppelin/contracts/token/ERC721/ERC721.sol\":10022:10038  to == address(0) */\n      0xffffffffffffffffffffffffffffffffffffffff\n      and\n      sub\n        /* \"@openzeppelin/contracts/token/ERC721/ERC721.sol\":10018:10105  if (to == address(0)) {... */\n      tag_215\n      jumpi\n        /* \"@openzeppelin/contracts/token/ERC721/ERC721.sol\":10091:10092  0 */\n      0x00\n        /* \"@openzeppelin/contracts/token/ERC721/ERC721.sol\":10061:10094  ERC721InvalidReceiver(address(0)) */\n      mload(0x40)\n      0x64a0ae9200000000000000000000000000000000000000000000000000000000\n      dup2\n      mstore\n      0x04\n      add\n      tag_216\n      swap2\n      swap1\n      tag_44\n      jump\t// in\n    tag_216:\n      mload(0x40)\n      dup1\n      swap2\n      sub\n      swap1\n      revert\n        /* \"@openzeppelin/contracts/token/ERC721/ERC721.sol\":10018:10105  if (to == address(0)) {... */\n    tag_215:\n        /* \"@openzeppelin/contracts/token/ERC721/ERC721.sol\":10114:10135  address previousOwner */\n      0x00\n        /* \"@openzeppelin/contracts/token/ERC721/ERC721.sol\":10138:10170  _update(to, tokenId, address(0)) */\n      tag_217\n        /* \"@openzeppelin/contracts/token/ERC721/ERC721.sol\":10146:10148  to */\n      dup4\n        /* \"@openzeppelin/contracts/token/ERC721/ERC721.sol\":10150:10157  tokenId */\n      dup4\n        /* \"@openzeppelin/contracts/token/ERC721/ERC721.sol\":10167:10168  0 */\n      0x00\n        /* \"@openzeppelin/contracts/token/ERC721/ERC721.sol\":10138:10145  _update */\n      tag_148\n        /* \"@openzeppelin/contracts/token/ERC721/ERC721.sol\":10138:10170  _update(to, tokenId, address(0)) */\n      jump\t// in\n    tag_217:\n        /* \"@openzeppelin/contracts/token/ERC721/ERC721.sol\":10114:10170  address previousOwner = _update(to, tokenId, address(0)) */\n      swap1\n      pop\n        /* \"@openzeppelin/contracts/token/ERC721/ERC721.sol\":10209:10210  0 */\n      0x00\n        /* \"@openzeppelin/contracts/token/ERC721/ERC721.sol\":10184:10211  previousOwner != address(0) */\n      0xffffffffffffffffffffffffffffffffffffffff\n      and\n        /* \"@openzeppelin/contracts/token/ERC721/ERC721.sol\":10184:10197  previousOwner */\n      dup2\n        /* \"@openzeppelin/contracts/token/ERC721/ERC721.sol\":10184:10211  previousOwner != address(0) */\n      0xffffffffffffffffffffffffffffffffffffffff\n      and\n      eq\n        /* \"@openzeppelin/contracts/token/ERC721/ERC721.sol\":10180:10276  if (previousOwner != address(0)) {... */\n      tag_218\n      jumpi\n        /* \"@openzeppelin/contracts/token/ERC721/ERC721.sol\":10262:10263  0 */\n      0x00\n        /* \"@openzeppelin/contracts/token/ERC721/ERC721.sol\":10234:10265  ERC721InvalidSender(address(0)) */\n      mload(0x40)\n      0x73c6ac6e00000000000000000000000000000000000000000000000000000000\n      dup2\n      mstore\n      0x04\n      add\n      tag_219\n      swap2\n      swap1\n      tag_44\n      jump\t// in\n    tag_219:\n      mload(0x40)\n      dup1\n      swap2\n      sub\n      swap1\n      revert\n        /* \"@openzeppelin/contracts/token/ERC721/ERC721.sol\":10180:10276  if (previousOwner != address(0)) {... */\n    tag_218:\n        /* \"@openzeppelin/contracts/token/ERC721/ERC721.sol\":10008:10282  {... */\n      pop\n        /* \"@openzeppelin/contracts/token/ERC721/ERC721.sol\":9955:10282  function _mint(address to, uint256 tokenId) internal {... */\n      pop\n      pop\n      jump\t// out\n        /* \"@openzeppelin/contracts/utils/Strings.sol\":637:1335  function toString(uint256 value) internal pure returns (string memory) {... */\n    tag_133:\n        /* \"@openzeppelin/contracts/utils/Strings.sol\":693:706  string memory */\n      0x60\n        /* \"@openzeppelin/contracts/utils/Strings.sol\":742:756  uint256 length */\n      0x00\n        /* \"@openzeppelin/contracts/utils/Strings.sol\":779:780  1 */\n      0x01\n        /* \"@openzeppelin/contracts/utils/Strings.sol\":759:776  Math.log10(value) */\n      tag_221\n        /* \"@openzeppelin/contracts/utils/Strings.sol\":770:775  value */\n      dup5\n        /* \"@openzeppelin/contracts/utils/Strings.sol\":759:769  Math.log10 */\n      tag_222\n        /* \"@openzeppelin/contracts/utils/Strings.sol\":759:776  Math.log10(value) */\n      jump\t// in\n    tag_221:\n        /* \"@openzeppelin/contracts/utils/Strings.sol\":759:780  Math.log10(value) + 1 */\n      add\n        /* \"@openzeppelin/contracts/utils/Strings.sol\":742:780  uint256 length = Math.log10(value) + 1 */\n      swap1\n      pop\n        /* \"@openzeppelin/contracts/utils/Strings.sol\":794:814  string memory buffer */\n      0x00\n        /* \"@openzeppelin/contracts/utils/Strings.sol\":828:834  length */\n      dup2\n        /* \"@openzeppelin/contracts/utils/Strings.sol\":817:835  new string(length) */\n      0xffffffffffffffff\n      dup2\n      gt\n      iszero\n      tag_223\n      jumpi\n      tag_224\n      tag_225\n      jump\t// in\n    tag_224:\n    tag_223:\n      mload(0x40)\n      swap1\n      dup1\n      dup3\n      mstore\n      dup1\n      0x1f\n      add\n      not(0x1f)\n      and\n      0x20\n      add\n      dup3\n      add\n      0x40\n      mstore\n      dup1\n      iszero\n      tag_226\n      jumpi\n      dup2\n      0x20\n      add\n      0x01\n      dup3\n      mul\n      dup1\n      calldatasize\n      dup4\n      calldatacopy\n      dup1\n      dup3\n      add\n      swap2\n      pop\n      pop\n      swap1\n      pop\n    tag_226:\n      pop\n        /* \"@openzeppelin/contracts/utils/Strings.sol\":794:835  string memory buffer = new string(length) */\n      swap1\n      pop\n        /* \"@openzeppelin/contracts/utils/Strings.sol\":849:860  uint256 ptr */\n      0x00\n        /* \"@openzeppelin/contracts/utils/Strings.sol\":975:981  length */\n      dup3\n        /* \"@openzeppelin/contracts/utils/Strings.sol\":971:973  32 */\n      0x20\n        /* \"@openzeppelin/contracts/utils/Strings.sol\":967:982  add(32, length) */\n      add\n        /* \"@openzeppelin/contracts/utils/Strings.sol\":959:965  buffer */\n      dup3\n        /* \"@openzeppelin/contracts/utils/Strings.sol\":955:983  add(buffer, add(32, length)) */\n      add\n        /* \"@openzeppelin/contracts/utils/Strings.sol\":948:983  ptr := add(buffer, add(32, length)) */\n      swap1\n      pop\n        /* \"@openzeppelin/contracts/utils/Strings.sol\":1010:1292  while (true) {... */\n    tag_227:\n        /* \"@openzeppelin/contracts/utils/Strings.sol\":1017:1021  true */\n      0x01\n        /* \"@openzeppelin/contracts/utils/Strings.sol\":1010:1292  while (true) {... */\n      iszero\n      tag_228\n      jumpi\n        /* \"@openzeppelin/contracts/utils/Strings.sol\":1041:1046  ptr-- */\n      dup1\n      dup1\n      0x01\n      swap1\n      sub\n      swap2\n      pop\n      pop\n        /* \"@openzeppelin/contracts/utils/Strings.sol\":1180:1190  HEX_DIGITS */\n      0x3031323334353637383961626364656600000000000000000000000000000000\n        /* \"@openzeppelin/contracts/utils/Strings.sol\":1175:1177  10 */\n      0x0a\n        /* \"@openzeppelin/contracts/utils/Strings.sol\":1168:1173  value */\n      dup7\n        /* \"@openzeppelin/contracts/utils/Strings.sol\":1164:1178  mod(value, 10) */\n      mod\n        /* \"@openzeppelin/contracts/utils/Strings.sol\":1159:1191  byte(mod(value, 10), HEX_DIGITS) */\n      byte\n        /* \"@openzeppelin/contracts/utils/Strings.sol\":1154:1157  ptr */\n      dup2\n        /* \"@openzeppelin/contracts/utils/Strings.sol\":1146:1192  mstore8(ptr, byte(mod(value, 10), HEX_DIGITS)) */\n      mstore8\n        /* \"@openzeppelin/contracts/utils/Strings.sol\":1236:1238  10 */\n      0x0a\n        /* \"@openzeppelin/contracts/utils/Strings.sol\":1227:1238  value /= 10 */\n      dup6\n      dup2\n      tag_229\n      jumpi\n      tag_230\n      tag_231\n      jump\t// in\n    tag_230:\n    tag_229:\n      div\n      swap5\n      pop\n        /* \"@openzeppelin/contracts/utils/Strings.sol\":1269:1270  0 */\n      0x00\n        /* \"@openzeppelin/contracts/utils/Strings.sol\":1260:1265  value */\n      dup6\n        /* \"@openzeppelin/contracts/utils/Strings.sol\":1260:1270  value == 0 */\n      sub\n        /* \"@openzeppelin/contracts/utils/Strings.sol\":1010:1292  while (true) {... */\n      tag_227\n        /* \"@openzeppelin/contracts/utils/Strings.sol\":1256:1277  if (value == 0) break */\n      jumpi\n        /* \"@openzeppelin/contracts/utils/Strings.sol\":1010:1292  while (true) {... */\n    tag_228:\n        /* \"@openzeppelin/contracts/utils/Strings.sol\":1312:1318  buffer */\n      dup2\n        /* \"@openzeppelin/contracts/utils/Strings.sol\":1305:1318  return buffer */\n      swap4\n      pop\n      pop\n      pop\n      pop\n        /* \"@openzeppelin/contracts/utils/Strings.sol\":637:1335  function toString(uint256 value) internal pure returns (string memory) {... */\n      swap2\n      swap1\n      pop\n      jump\t// out\n        /* \"@openzeppelin/contracts/token/ERC721/extensions/ERC721URIStorage.sol\":1922:2089  function _setTokenURI(uint256 tokenId, string memory _tokenURI) internal virtual {... */\n    tag_137:\n        /* \"@openzeppelin/contracts/token/ERC721/extensions/ERC721URIStorage.sol\":2035:2044  _tokenURI */\n      dup1\n        /* \"@openzeppelin/contracts/token/ERC721/extensions/ERC721URIStorage.sol\":2013:2023  _tokenURIs */\n      0x06\n        /* \"@openzeppelin/contracts/token/ERC721/extensions/ERC721URIStorage.sol\":2013:2032  _tokenURIs[tokenId] */\n      0x00\n        /* \"@openzeppelin/contracts/token/ERC721/extensions/ERC721URIStorage.sol\":2024:2031  tokenId */\n      dup5\n        /* \"@openzeppelin/contracts/token/ERC721/extensions/ERC721URIStorage.sol\":2013:2032  _tokenURIs[tokenId] */\n      dup2\n      mstore\n      0x20\n      add\n      swap1\n      dup2\n      mstore\n      0x20\n      add\n      0x00\n      keccak256\n        /* \"@openzeppelin/contracts/token/ERC721/extensions/ERC721URIStorage.sol\":2013:2044  _tokenURIs[tokenId] = _tokenURI */\n      swap1\n      dup2\n      tag_234\n      swap2\n      swap1\n      tag_104\n      jump\t// in\n    tag_234:\n      pop\n        /* \"@openzeppelin/contracts/token/ERC721/extensions/ERC721URIStorage.sol\":2059:2082  MetadataUpdate(tokenId) */\n      0xf8e1a15aba9398e019f0b49df1a4fde98ee17ae345cb5f6b5e2c27f5033e8ce7\n        /* \"@openzeppelin/contracts/token/ERC721/extensions/ERC721URIStorage.sol\":2074:2081  tokenId */\n      dup3\n        /* \"@openzeppelin/contracts/token/ERC721/extensions/ERC721URIStorage.sol\":2059:2082  MetadataUpdate(tokenId) */\n      mload(0x40)\n      tag_235\n      swap2\n      swap1\n      tag_52\n      jump\t// in\n    tag_235:\n      mload(0x40)\n      dup1\n      swap2\n      sub\n      swap1\n      log1\n        /* \"@openzeppelin/contracts/token/ERC721/extensions/ERC721URIStorage.sol\":1922:2089  function _setTokenURI(uint256 tokenId, string memory _tokenURI) internal virtual {... */\n      pop\n      pop\n      jump\t// out\n        /* \"@openzeppelin/contracts/token/ERC721/ERC721.sol\":8838:9633  function _update(address to, uint256 tokenId, address auth) internal virtual returns (address) {... */\n    tag_148:\n        /* \"@openzeppelin/contracts/token/ERC721/ERC721.sol\":8924:8931  address */\n      0x00\n        /* \"@openzeppelin/contracts/token/ERC721/ERC721.sol\":8943:8955  address from */\n      dup1\n        /* \"@openzeppelin/contracts/token/ERC721/ERC721.sol\":8958:8975  _ownerOf(tokenId) */\n      tag_237\n        /* \"@openzeppelin/contracts/token/ERC721/ERC721.sol\":8967:8974  tokenId */\n      dup5\n        /* \"@openzeppelin/contracts/token/ERC721/ERC721.sol\":8958:8966  _ownerOf */\n      tag_206\n        /* \"@openzeppelin/contracts/token/ERC721/ERC721.sol\":8958:8975  _ownerOf(tokenId) */\n      jump\t// in\n    tag_237:\n        /* \"@openzeppelin/contracts/token/ERC721/ERC721.sol\":8943:8975  address from = _ownerOf(tokenId) */\n      swap1\n      pop\n        /* \"@openzeppelin/contracts/token/ERC721/ERC721.sol\":9051:9052  0 */\n      0x00\n        /* \"@openzeppelin/contracts/token/ERC721/ERC721.sol\":9035:9053  auth != address(0) */\n      0xffffffffffffffffffffffffffffffffffffffff\n      and\n        /* \"@openzeppelin/contracts/token/ERC721/ERC721.sol\":9035:9039  auth */\n      dup4\n        /* \"@openzeppelin/contracts/token/ERC721/ERC721.sol\":9035:9053  auth != address(0) */\n      0xffffffffffffffffffffffffffffffffffffffff\n      and\n      eq\n        /* \"@openzeppelin/contracts/token/ERC721/ERC721.sol\":9031:9117  if (auth != address(0)) {... */\n      tag_238\n      jumpi\n        /* \"@openzeppelin/contracts/token/ERC721/ERC721.sol\":9069:9106  _checkAuthorized(from, auth, tokenId) */\n      tag_239\n        /* \"@openzeppelin/contracts/token/ERC721/ERC721.sol\":9086:9090  from */\n      dup2\n        /* \"@openzeppelin/contracts/token/ERC721/ERC721.sol\":9092:9096  auth */\n      dup5\n        /* \"@openzeppelin/contracts/token/ERC721/ERC721.sol\":9098:9105  tokenId */\n      dup7\n        /* \"@openzeppelin/contracts/token/ERC721/ERC721.sol\":9069:9085  _checkAuthorized */\n      tag_240\n        /* \"@openzeppelin/contracts/token/ERC721/ERC721.sol\":9069:9106  _checkAuthorized(from, auth, tokenId) */\n      jump\t// in\n    tag_239:\n        /* \"@openzeppelin/contracts/token/ERC721/ERC721.sol\":9031:9117  if (auth != address(0)) {... */\n    tag_238:\n        /* \"@openzeppelin/contracts/token/ERC721/ERC721.sol\":9177:9178  0 */\n      0x00\n        /* \"@openzeppelin/contracts/token/ERC721/ERC721.sol\":9161:9179  from != address(0) */\n      0xffffffffffffffffffffffffffffffffffffffff\n      and\n        /* \"@openzeppelin/contracts/token/ERC721/ERC721.sol\":9161:9165  from */\n      dup2\n        /* \"@openzeppelin/contracts/token/ERC721/ERC721.sol\":9161:9179  from != address(0) */\n      0xffffffffffffffffffffffffffffffffffffffff\n      and\n      eq\n        /* \"@openzeppelin/contracts/token/ERC721/ERC721.sol\":9157:9413  if (from != address(0)) {... */\n      tag_241\n      jumpi\n        /* \"@openzeppelin/contracts/token/ERC721/ERC721.sol\":9277:9325  _approve(address(0), tokenId, address(0), false) */\n      tag_242\n        /* \"@openzeppelin/contracts/token/ERC721/ERC721.sol\":9294:9295  0 */\n      0x00\n        /* \"@openzeppelin/contracts/token/ERC721/ERC721.sol\":9298:9305  tokenId */\n      dup6\n        /* \"@openzeppelin/contracts/token/ERC721/ERC721.sol\":9315:9316  0 */\n      0x00\n        /* \"@openzeppelin/contracts/token/ERC721/ERC721.sol\":9319:9324  false */\n      dup1\n        /* \"@openzeppelin/contracts/token/ERC721/ERC721.sol\":9277:9285  _approve */\n      tag_213\n        /* \"@openzeppelin/contracts/token/ERC721/ERC721.sol\":9277:9325  _approve(address(0), tokenId, address(0), false) */\n      jump\t// in\n    tag_242:\n        /* \"@openzeppelin/contracts/token/ERC721/ERC721.sol\":9387:9388  1 */\n      0x01\n        /* \"@openzeppelin/contracts/token/ERC721/ERC721.sol\":9368:9377  _balances */\n      0x03\n        /* \"@openzeppelin/contracts/token/ERC721/ERC721.sol\":9368:9383  _balances[from] */\n      0x00\n        /* \"@openzeppelin/contracts/token/ERC721/ERC721.sol\":9378:9382  from */\n      dup4\n        /* \"@openzeppelin/contracts/token/ERC721/ERC721.sol\":9368:9383  _balances[from] */\n      0xffffffffffffffffffffffffffffffffffffffff\n      and\n      0xffffffffffffffffffffffffffffffffffffffff\n      and\n      dup2\n      mstore\n      0x20\n      add\n      swap1\n      dup2\n      mstore\n      0x20\n      add\n      0x00\n      keccak256\n      0x00\n        /* \"@openzeppelin/contracts/token/ERC721/ERC721.sol\":9368:9388  _balances[from] -= 1 */\n      dup3\n      dup3\n      sload\n      sub\n      swap3\n      pop\n      pop\n      dup2\n      swap1\n      sstore\n      pop\n        /* \"@openzeppelin/contracts/token/ERC721/ERC721.sol\":9157:9413  if (from != address(0)) {... */\n    tag_241:\n        /* \"@openzeppelin/contracts/token/ERC721/ERC721.sol\":9441:9442  0 */\n      0x00\n        /* \"@openzeppelin/contracts/token/ERC721/ERC721.sol\":9427:9443  to != address(0) */\n      0xffffffffffffffffffffffffffffffffffffffff\n      and\n        /* \"@openzeppelin/contracts/token/ERC721/ERC721.sol\":9427:9429  to */\n      dup6\n        /* \"@openzeppelin/contracts/token/ERC721/ERC721.sol\":9427:9443  to != address(0) */\n      0xffffffffffffffffffffffffffffffffffffffff\n      and\n      eq\n        /* \"@openzeppelin/contracts/token/ERC721/ERC721.sol\":9423:9530  if (to != address(0)) {... */\n      tag_243\n      jumpi\n        /* \"@openzeppelin/contracts/token/ERC721/ERC721.sol\":9504:9505  1 */\n      0x01\n        /* \"@openzeppelin/contracts/token/ERC721/ERC721.sol\":9487:9496  _balances */\n      0x03\n        /* \"@openzeppelin/contracts/token/ERC721/ERC721.sol\":9487:9500  _balances[to] */\n      0x00\n        /* \"@openzeppelin/contracts/token/ERC721/ERC721.sol\":9497:9499  to */\n      dup8\n        /* \"@openzeppelin/contracts/token/ERC721/ERC721.sol\":9487:9500  _balances[to] */\n      0xffffffffffffffffffffffffffffffffffffffff\n      and\n      0xffffffffffffffffffffffffffffffffffffffff\n      and\n      dup2\n      mstore\n      0x20\n      add\n      swap1\n      dup2\n      mstore\n      0x20\n      add\n      0x00\n      keccak256\n      0x00\n        /* \"@openzeppelin/contracts/token/ERC721/ERC721.sol\":9487:9505  _balances[to] += 1 */\n      dup3\n      dup3\n      sload\n      add\n      swap3\n      pop\n      pop\n      dup2\n      swap1\n      sstore\n      pop\n        /* \"@openzeppelin/contracts/token/ERC721/ERC721.sol\":9423:9530  if (to != address(0)) {... */\n    tag_243:\n        /* \"@openzeppelin/contracts/token/ERC721/ERC721.sol\":9559:9561  to */\n      dup5\n        /* \"@openzeppelin/contracts/token/ERC721/ERC721.sol\":9540:9547  _owners */\n      0x02\n        /* \"@openzeppelin/contracts/token/ERC721/ERC721.sol\":9540:9556  _owners[tokenId] */\n      0x00\n        /* \"@openzeppelin/contracts/token/ERC721/ERC721.sol\":9548:9555  tokenId */\n      dup7\n        /* \"@openzeppelin/contracts/token/ERC721/ERC721.sol\":9540:9556  _owners[tokenId] */\n      dup2\n      mstore\n      0x20\n      add\n      swap1\n      dup2\n      mstore\n      0x20\n      add\n      0x00\n      keccak256\n      0x00\n        /* \"@openzeppelin/contracts/token/ERC721/ERC721.sol\":9540:9561  _owners[tokenId] = to */\n      0x0100\n      exp\n      dup2\n      sload\n      dup2\n      0xffffffffffffffffffffffffffffffffffffffff\n      mul\n      not\n      and\n      swap1\n      dup4\n      0xffffffffffffffffffffffffffffffffffffffff\n      and\n      mul\n      or\n      swap1\n      sstore\n      pop\n        /* \"@openzeppelin/contracts/token/ERC721/ERC721.sol\":9596:9603  tokenId */\n      dup4\n        /* \"@openzeppelin/contracts/token/ERC721/ERC721.sol\":9592:9594  to */\n      dup6\n        /* \"@openzeppelin/contracts/token/ERC721/ERC721.sol\":9577:9604  Transfer(from, to, tokenId) */\n      0xffffffffffffffffffffffffffffffffffffffff\n      and\n        /* \"@openzeppelin/contracts/token/ERC721/ERC721.sol\":9586:9590  from */\n      dup3\n        /* \"@openzeppelin/contracts/token/ERC721/ERC721.sol\":9577:9604  Transfer(from, to, tokenId) */\n      0xffffffffffffffffffffffffffffffffffffffff\n      and\n      0xddf252ad1be2c89b69c2b068fc378daa952ba7f163c4a11628f55a4df523b3ef\n      mload(0x40)\n      mload(0x40)\n      dup1\n      swap2\n      sub\n      swap1\n      log4\n        /* \"@openzeppelin/contracts/token/ERC721/ERC721.sol\":9622:9626  from */\n      dup1\n        /* \"@openzeppelin/contracts/token/ERC721/ERC721.sol\":9615:9626  return from */\n      swap2\n      pop\n      pop\n        /* \"@openzeppelin/contracts/token/ERC721/ERC721.sol\":8838:9633  function _update(address to, uint256 tokenId, address auth) internal virtual returns (address) {... */\n      swap4\n      swap3\n      pop\n      pop\n      pop\n      jump\t// out\n        /* \"@openzeppelin/contracts/token/ERC721/ERC721.sol\":11462:11689  function _burn(uint256 tokenId) internal {... */\n    tag_154:\n        /* \"@openzeppelin/contracts/token/ERC721/ERC721.sol\":11513:11534  address previousOwner */\n      0x00\n        /* \"@openzeppelin/contracts/token/ERC721/ERC721.sol\":11537:11577  _update(address(0), tokenId, address(0)) */\n      tag_245\n        /* \"@openzeppelin/contracts/token/ERC721/ERC721.sol\":11553:11554  0 */\n      0x00\n        /* \"@openzeppelin/contracts/token/ERC721/ERC721.sol\":11557:11564  tokenId */\n      dup4\n        /* \"@openzeppelin/contracts/token/ERC721/ERC721.sol\":11574:11575  0 */\n      0x00\n        /* \"@openzeppelin/contracts/token/ERC721/ERC721.sol\":11537:11544  _update */\n      tag_148\n        /* \"@openzeppelin/contracts/token/ERC721/ERC721.sol\":11537:11577  _update(address(0), tokenId, address(0)) */\n      jump\t// in\n    tag_245:\n        /* \"@openzeppelin/contracts/token/ERC721/ERC721.sol\":11513:11577  address previousOwner = _update(address(0), tokenId, address(0)) */\n      swap1\n      pop\n        /* \"@openzeppelin/contracts/token/ERC721/ERC721.sol\":11616:11617  0 */\n      0x00\n        /* \"@openzeppelin/contracts/token/ERC721/ERC721.sol\":11591:11618  previousOwner == address(0) */\n      0xffffffffffffffffffffffffffffffffffffffff\n      and\n        /* \"@openzeppelin/contracts/token/ERC721/ERC721.sol\":11591:11604  previousOwner */\n      dup2\n        /* \"@openzeppelin/contracts/token/ERC721/ERC721.sol\":11591:11618  previousOwner == address(0) */\n      0xffffffffffffffffffffffffffffffffffffffff\n      and\n      sub\n        /* \"@openzeppelin/contracts/token/ERC721/ERC721.sol\":11587:11683  if (previousOwner == address(0)) {... */\n      tag_246\n      jumpi\n        /* \"@openzeppelin/contracts/token/ERC721/ERC721.sol\":11664:11671  tokenId */\n      dup2\n        /* \"@openzeppelin/contracts/token/ERC721/ERC721.sol\":11641:11672  ERC721NonexistentToken(tokenId) */\n      mload(0x40)\n      0x7e27328900000000000000000000000000000000000000000000000000000000\n      dup2\n      mstore\n      0x04\n      add\n      tag_247\n      swap2\n      swap1\n      tag_52\n      jump\t// in\n    tag_247:\n      mload(0x40)\n      dup1\n      swap2\n      sub\n      swap1\n      revert\n        /* \"@openzeppelin/contracts/token/ERC721/ERC721.sol\":11587:11683  if (previousOwner == address(0)) {... */\n    tag_246:\n        /* \"@openzeppelin/contracts/token/ERC721/ERC721.sol\":11503:11689  {... */\n      pop\n        /* \"@openzeppelin/contracts/token/ERC721/ERC721.sol\":11462:11689  function _burn(uint256 tokenId) internal {... */\n      pop\n      jump\t// out\n        /* \"@openzeppelin/contracts/token/ERC721/ERC721.sol\":15591:15903  function _setApprovalForAll(address owner, address operator, bool approved) internal virtual {... */\n    tag_178:\n        /* \"@openzeppelin/contracts/token/ERC721/ERC721.sol\":15718:15719  0 */\n      0x00\n        /* \"@openzeppelin/contracts/token/ERC721/ERC721.sol\":15698:15720  operator == address(0) */\n      0xffffffffffffffffffffffffffffffffffffffff\n      and\n        /* \"@openzeppelin/contracts/token/ERC721/ERC721.sol\":15698:15706  operator */\n      dup3\n        /* \"@openzeppelin/contracts/token/ERC721/ERC721.sol\":15698:15720  operator == address(0) */\n      0xffffffffffffffffffffffffffffffffffffffff\n      and\n      sub\n        /* \"@openzeppelin/contracts/token/ERC721/ERC721.sol\":15694:15785  if (operator == address(0)) {... */\n      tag_249\n      jumpi\n        /* \"@openzeppelin/contracts/token/ERC721/ERC721.sol\":15765:15773  operator */\n      dup2\n        /* \"@openzeppelin/contracts/token/ERC721/ERC721.sol\":15743:15774  ERC721InvalidOperator(operator) */\n      mload(0x40)\n      0x5b08ba1800000000000000000000000000000000000000000000000000000000\n      dup2\n      mstore\n      0x04\n      add\n      tag_250\n      swap2\n      swap1\n      tag_44\n      jump\t// in\n    tag_250:\n      mload(0x40)\n      dup1\n      swap2\n      sub\n      swap1\n      revert\n        /* \"@openzeppelin/contracts/token/ERC721/ERC721.sol\":15694:15785  if (operator == address(0)) {... */\n    tag_249:\n        /* \"@openzeppelin/contracts/token/ERC721/ERC721.sol\":15832:15840  approved */\n      dup1\n        /* \"@openzeppelin/contracts/token/ERC721/ERC721.sol\":15794:15812  _operatorApprovals */\n      0x05\n        /* \"@openzeppelin/contracts/token/ERC721/ERC721.sol\":15794:15819  _operatorApprovals[owner] */\n      0x00\n        /* \"@openzeppelin/contracts/token/ERC721/ERC721.sol\":15813:15818  owner */\n      dup6\n        /* \"@openzeppelin/contracts/token/ERC721/ERC721.sol\":15794:15819  _operatorApprovals[owner] */\n      0xffffffffffffffffffffffffffffffffffffffff\n      and\n      0xffffffffffffffffffffffffffffffffffffffff\n      and\n      dup2\n      mstore\n      0x20\n      add\n      swap1\n      dup2\n      mstore\n      0x20\n      add\n      0x00\n      keccak256\n        /* \"@openzeppelin/contracts/token/ERC721/ERC721.sol\":15794:15829  _operatorApprovals[owner][operator] */\n      0x00\n        /* \"@openzeppelin/contracts/token/ERC721/ERC721.sol\":15820:15828  operator */\n      dup5\n        /* \"@openzeppelin/contracts/token/ERC721/ERC721.sol\":15794:15829  _operatorApprovals[owner][operator] */\n      0xffffffffffffffffffffffffffffffffffffffff\n      and\n      0xffffffffffffffffffffffffffffffffffffffff\n      and\n      dup2\n      mstore\n      0x20\n      add\n      swap1\n      dup2\n      mstore\n      0x20\n      add\n      0x00\n      keccak256\n      0x00\n        /* \"@openzeppelin/contracts/token/ERC721/ERC721.sol\":15794:15840  _operatorApprovals[owner][operator] = approved */\n      0x0100\n      exp\n      dup2\n      sload\n      dup2\n      0xff\n      mul\n      not\n      and\n      swap1\n      dup4\n      iszero\n      iszero\n      mul\n      or\n      swap1\n      sstore\n      pop\n        /* \"@openzeppelin/contracts/token/ERC721/ERC721.sol\":15877:15885  operator */\n      dup2\n        /* \"@openzeppelin/contracts/token/ERC721/ERC721.sol\":15855:15896  ApprovalForAll(owner, operator, approved) */\n      0xffffffffffffffffffffffffffffffffffffffff\n      and\n        /* \"@openzeppelin/contracts/token/ERC721/ERC721.sol\":15870:15875  owner */\n      dup4\n        /* \"@openzeppelin/contracts/token/ERC721/ERC721.sol\":15855:15896  ApprovalForAll(owner, operator, approved) */\n      0xffffffffffffffffffffffffffffffffffffffff\n      and\n      0x17307eab39ab6107e8899845ad3d59bd9653f200f220920489ca2b5937696c31\n        /* \"@openzeppelin/contracts/token/ERC721/ERC721.sol\":15887:15895  approved */\n      dup4\n        /* \"@openzeppelin/contracts/token/ERC721/ERC721.sol\":15855:15896  ApprovalForAll(owner, operator, approved) */\n      mload(0x40)\n      tag_251\n      swap2\n      swap1\n      tag_29\n      jump\t// in\n    tag_251:\n      mload(0x40)\n      dup1\n      swap2\n      sub\n      swap1\n      log3\n        /* \"@openzeppelin/contracts/token/ERC721/ERC721.sol\":15591:15903  function _setApprovalForAll(address owner, address operator, bool approved) internal virtual {... */\n      pop\n      pop\n      pop\n      jump\t// out\n        /* \"@openzeppelin/contracts/token/ERC721/ERC721.sol\":16918:17700  function _checkOnERC721Received(address from, address to, uint256 tokenId, bytes memory data) private {... */\n    tag_182:\n        /* \"@openzeppelin/contracts/token/ERC721/ERC721.sol\":17051:17052  0 */\n      0x00\n        /* \"@openzeppelin/contracts/token/ERC721/ERC721.sol\":17034:17036  to */\n      dup4\n        /* \"@openzeppelin/contracts/token/ERC721/ERC721.sol\":17034:17048  to.code.length */\n      0xffffffffffffffffffffffffffffffffffffffff\n      and\n      extcodesize\n        /* \"@openzeppelin/contracts/token/ERC721/ERC721.sol\":17034:17052  to.code.length > 0 */\n      gt\n        /* \"@openzeppelin/contracts/token/ERC721/ERC721.sol\":17030:17694  if (to.code.length > 0) {... */\n      iszero\n      tag_253\n      jumpi\n        /* \"@openzeppelin/contracts/token/ERC721/ERC721.sol\":17088:17090  to */\n      dup3\n        /* \"@openzeppelin/contracts/token/ERC721/ERC721.sol\":17072:17108  IERC721Receiver(to).onERC721Received */\n      0xffffffffffffffffffffffffffffffffffffffff\n      and\n      0x150b7a02\n        /* \"@openzeppelin/contracts/token/ERC721/ERC721.sol\":17109:17121  _msgSender() */\n      tag_254\n        /* \"@openzeppelin/contracts/token/ERC721/ERC721.sol\":17109:17119  _msgSender */\n      tag_125\n        /* \"@openzeppelin/contracts/token/ERC721/ERC721.sol\":17109:17121  _msgSender() */\n      jump\t// in\n    tag_254:\n        /* \"@openzeppelin/contracts/token/ERC721/ERC721.sol\":17123:17127  from */\n      dup7\n        /* \"@openzeppelin/contracts/token/ERC721/ERC721.sol\":17129:17136  tokenId */\n      dup6\n        /* \"@openzeppelin/contracts/token/ERC721/ERC721.sol\":17138:17142  data */\n      dup6\n        /* \"@openzeppelin/contracts/token/ERC721/ERC721.sol\":17072:17143  IERC721Receiver(to).onERC721Received(_msgSender(), from, tokenId, data) */\n      mload(0x40)\n      dup6\n      0xffffffff\n      and\n      0xe0\n      shl\n      dup2\n      mstore\n      0x04\n      add\n      tag_255\n      swap5\n      swap4\n      swap3\n      swap2\n      swap1\n      tag_256\n      jump\t// in\n    tag_255:\n      0x20\n      mload(0x40)\n      dup1\n      dup4\n      sub\n      dup2\n      0x00\n      dup8\n      gas\n      call\n      swap3\n      pop\n      pop\n      pop\n      dup1\n      iszero\n      tag_257\n      jumpi\n      pop\n      mload(0x40)\n      returndatasize\n      not(0x1f)\n      0x1f\n      dup3\n      add\n      and\n      dup3\n      add\n      dup1\n      0x40\n      mstore\n      pop\n      dup2\n      add\n      swap1\n      tag_258\n      swap2\n      swap1\n      tag_259\n      jump\t// in\n    tag_258:\n      0x01\n    tag_257:\n        /* \"@openzeppelin/contracts/token/ERC721/ERC721.sol\":17068:17684  try IERC721Receiver(to).onERC721Received(_msgSender(), from, tokenId, data) returns (bytes4 retval) {... */\n      tag_260\n      jumpi\n      returndatasize\n      dup1\n      0x00\n      dup2\n      eq\n      tag_265\n      jumpi\n      mload(0x40)\n      swap2\n      pop\n      and(add(returndatasize, 0x3f), not(0x1f))\n      dup3\n      add\n      0x40\n      mstore\n      returndatasize\n      dup3\n      mstore\n      returndatasize\n      0x00\n      0x20\n      dup5\n      add\n      returndatacopy\n      jump(tag_264)\n    tag_265:\n      0x60\n      swap2\n      pop\n    tag_264:\n      pop\n        /* \"@openzeppelin/contracts/token/ERC721/ERC721.sol\":17398:17399  0 */\n      0x00\n        /* \"@openzeppelin/contracts/token/ERC721/ERC721.sol\":17381:17387  reason */\n      dup2\n        /* \"@openzeppelin/contracts/token/ERC721/ERC721.sol\":17381:17394  reason.length */\n      mload\n        /* \"@openzeppelin/contracts/token/ERC721/ERC721.sol\":17381:17399  reason.length == 0 */\n      sub\n        /* \"@openzeppelin/contracts/token/ERC721/ERC721.sol\":17377:17670  if (reason.length == 0) {... */\n      tag_266\n      jumpi\n        /* \"@openzeppelin/contracts/token/ERC721/ERC721.sol\":17452:17454  to */\n      dup4\n        /* \"@openzeppelin/contracts/token/ERC721/ERC721.sol\":17430:17455  ERC721InvalidReceiver(to) */\n      mload(0x40)\n      0x64a0ae9200000000000000000000000000000000000000000000000000000000\n      dup2\n      mstore\n      0x04\n      add\n      tag_267\n      swap2\n      swap1\n      tag_44\n      jump\t// in\n    tag_267:\n      mload(0x40)\n      dup1\n      swap2\n      sub\n      swap1\n      revert\n        /* \"@openzeppelin/contracts/token/ERC721/ERC721.sol\":17377:17670  if (reason.length == 0) {... */\n    tag_266:\n        /* \"@openzeppelin/contracts/token/ERC721/ERC721.sol\":17622:17628  reason */\n      dup1\n        /* \"@openzeppelin/contracts/token/ERC721/ERC721.sol\":17616:17629  mload(reason) */\n      mload\n        /* \"@openzeppelin/contracts/token/ERC721/ERC721.sol\":17607:17613  reason */\n      dup2\n        /* \"@openzeppelin/contracts/token/ERC721/ERC721.sol\":17603:17605  32 */\n      0x20\n        /* \"@openzeppelin/contracts/token/ERC721/ERC721.sol\":17599:17614  add(32, reason) */\n      add\n        /* \"@openzeppelin/contracts/token/ERC721/ERC721.sol\":17592:17630  revert(add(32, reason), mload(reason)) */\n      revert\n        /* \"@openzeppelin/contracts/token/ERC721/ERC721.sol\":17068:17684  try IERC721Receiver(to).onERC721Received(_msgSender(), from, tokenId, data) returns (bytes4 retval) {... */\n    tag_260:\n        /* \"@openzeppelin/contracts/token/ERC721/ERC721.sol\":17200:17241  IERC721Receiver.onERC721Received.selector */\n      shl(0xe0, 0x150b7a02)\n        /* \"@openzeppelin/contracts/token/ERC721/ERC721.sol\":17190:17241  retval != IERC721Receiver.onERC721Received.selector */\n      not(0xffffffffffffffffffffffffffffffffffffffffffffffffffffffff)\n      and\n        /* \"@openzeppelin/contracts/token/ERC721/ERC721.sol\":17190:17196  retval */\n      dup2\n        /* \"@openzeppelin/contracts/token/ERC721/ERC721.sol\":17190:17241  retval != IERC721Receiver.onERC721Received.selector */\n      not(0xffffffffffffffffffffffffffffffffffffffffffffffffffffffff)\n      and\n      eq\n        /* \"@openzeppelin/contracts/token/ERC721/ERC721.sol\":17186:17316  if (retval != IERC721Receiver.onERC721Received.selector) {... */\n      tag_270\n      jumpi\n        /* \"@openzeppelin/contracts/token/ERC721/ERC721.sol\":17294:17296  to */\n      dup4\n        /* \"@openzeppelin/contracts/token/ERC721/ERC721.sol\":17272:17297  ERC721InvalidReceiver(to) */\n      mload(0x40)\n      0x64a0ae9200000000000000000000000000000000000000000000000000000000\n      dup2\n      mstore\n      0x04\n      add\n      tag_271\n      swap2\n      swap1\n      tag_44\n      jump\t// in\n    tag_271:\n      mload(0x40)\n      dup1\n      swap2\n      sub\n      swap1\n      revert\n        /* \"@openzeppelin/contracts/token/ERC721/ERC721.sol\":17186:17316  if (retval != IERC721Receiver.onERC721Received.selector) {... */\n    tag_270:\n        /* \"@openzeppelin/contracts/token/ERC721/ERC721.sol\":17144:17330  returns (bytes4 retval) {... */\n      pop\n        /* \"@openzeppelin/contracts/token/ERC721/ERC721.sol\":17030:17694  if (to.code.length > 0) {... */\n    tag_253:\n        /* \"@openzeppelin/contracts/token/ERC721/ERC721.sol\":16918:17700  function _checkOnERC721Received(address from, address to, uint256 tokenId, bytes memory data) private {... */\n      pop\n      pop\n      pop\n      pop\n      jump\t// out\n        /* \"@openzeppelin/contracts/token/ERC721/ERC721.sol\":3174:3266  function _baseURI() internal view virtual returns (string memory) {... */\n    tag_191:\n        /* \"@openzeppelin/contracts/token/ERC721/ERC721.sol\":3225:3238  string memory */\n      0x60\n        /* \"@openzeppelin/contracts/token/ERC721/ERC721.sol\":3250:3259  return \"\" */\n      mload(0x40)\n      dup1\n      0x20\n      add\n      0x40\n      mstore\n      dup1\n      0x00\n      dup2\n      mstore\n      pop\n      swap1\n      pop\n        /* \"@openzeppelin/contracts/token/ERC721/ERC721.sol\":3174:3266  function _baseURI() internal view virtual returns (string memory) {... */\n      swap1\n      jump\t// out\n        /* \"@openzeppelin/contracts/token/ERC721/ERC721.sol\":2677:2932  function tokenURI(uint256 tokenId) public view virtual returns (string memory) {... */\n    tag_197:\n        /* \"@openzeppelin/contracts/token/ERC721/ERC721.sol\":2741:2754  string memory */\n      0x60\n        /* \"@openzeppelin/contracts/token/ERC721/ERC721.sol\":2766:2788  _requireOwned(tokenId) */\n      tag_274\n        /* \"@openzeppelin/contracts/token/ERC721/ERC721.sol\":2780:2787  tokenId */\n      dup3\n        /* \"@openzeppelin/contracts/token/ERC721/ERC721.sol\":2766:2779  _requireOwned */\n      tag_119\n        /* \"@openzeppelin/contracts/token/ERC721/ERC721.sol\":2766:2788  _requireOwned(tokenId) */\n      jump\t// in\n    tag_274:\n      pop\n        /* \"@openzeppelin/contracts/token/ERC721/ERC721.sol\":2799:2820  string memory baseURI */\n      0x00\n        /* \"@openzeppelin/contracts/token/ERC721/ERC721.sol\":2823:2833  _baseURI() */\n      tag_275\n        /* \"@openzeppelin/contracts/token/ERC721/ERC721.sol\":2823:2831  _baseURI */\n      tag_191\n        /* \"@openzeppelin/contracts/token/ERC721/ERC721.sol\":2823:2833  _baseURI() */\n      jump\t// in\n    tag_275:\n        /* \"@openzeppelin/contracts/token/ERC721/ERC721.sol\":2799:2833  string memory baseURI = _baseURI() */\n      swap1\n      pop\n        /* \"@openzeppelin/contracts/token/ERC721/ERC721.sol\":2874:2875  0 */\n      0x00\n        /* \"@openzeppelin/contracts/token/ERC721/ERC721.sol\":2856:2863  baseURI */\n      dup2\n        /* \"@openzeppelin/contracts/token/ERC721/ERC721.sol\":2850:2871  bytes(baseURI).length */\n      mload\n        /* \"@openzeppelin/contracts/token/ERC721/ERC721.sol\":2850:2875  bytes(baseURI).length > 0 */\n      gt\n        /* \"@openzeppelin/contracts/token/ERC721/ERC721.sol\":2850:2925  bytes(baseURI).length > 0 ? string.concat(baseURI, tokenId.toString()) : \"\" */\n      tag_276\n      jumpi\n      mload(0x40)\n      dup1\n      0x20\n      add\n      0x40\n      mstore\n      dup1\n      0x00\n      dup2\n      mstore\n      pop\n      jump(tag_277)\n    tag_276:\n        /* \"@openzeppelin/contracts/token/ERC721/ERC721.sol\":2892:2899  baseURI */\n      dup1\n        /* \"@openzeppelin/contracts/token/ERC721/ERC721.sol\":2901:2919  tokenId.toString() */\n      tag_278\n        /* \"@openzeppelin/contracts/token/ERC721/ERC721.sol\":2901:2908  tokenId */\n      dup5\n        /* \"@openzeppelin/contracts/token/ERC721/ERC721.sol\":2901:2917  tokenId.toString */\n      tag_133\n        /* \"@openzeppelin/contracts/token/ERC721/ERC721.sol\":2901:2919  tokenId.toString() */\n      jump\t// in\n    tag_278:\n        /* \"@openzeppelin/contracts/token/ERC721/ERC721.sol\":2878:2920  string.concat(baseURI, tokenId.toString()) */\n      add(0x20, mload(0x40))\n      tag_279\n      swap3\n      swap2\n      swap1\n      tag_195\n      jump\t// in\n    tag_279:\n      mload(0x40)\n      0x20\n      dup2\n      dup4\n      sub\n      sub\n      dup2\n      mstore\n      swap1\n      0x40\n      mstore\n        /* \"@openzeppelin/contracts/token/ERC721/ERC721.sol\":2850:2925  bytes(baseURI).length > 0 ? string.concat(baseURI, tokenId.toString()) : \"\" */\n    tag_277:\n        /* \"@openzeppelin/contracts/token/ERC721/ERC721.sol\":2843:2925  return bytes(baseURI).length > 0 ? string.concat(baseURI, tokenId.toString()) : \"\" */\n      swap2\n      pop\n      pop\n        /* \"@openzeppelin/contracts/token/ERC721/ERC721.sol\":2677:2932  function tokenURI(uint256 tokenId) public view virtual returns (string memory) {... */\n      swap2\n      swap1\n      pop\n      jump\t// out\n        /* \"@openzeppelin/contracts/utils/introspection/ERC165.sol\":762:908  function supportsInterface(bytes4 interfaceId) public view virtual returns (bool) {... */\n    tag_203:\n        /* \"@openzeppelin/contracts/utils/introspection/ERC165.sol\":838:842  bool */\n      0x00\n        /* \"@openzeppelin/contracts/utils/introspection/ERC165.sol\":876:901  type(IERC165).interfaceId */\n      0x01ffc9a700000000000000000000000000000000000000000000000000000000\n        /* \"@openzeppelin/contracts/utils/introspection/ERC165.sol\":861:901  interfaceId == type(IERC165).interfaceId */\n      not(0xffffffffffffffffffffffffffffffffffffffffffffffffffffffff)\n      and\n        /* \"@openzeppelin/contracts/utils/introspection/ERC165.sol\":861:872  interfaceId */\n      dup3\n        /* \"@openzeppelin/contracts/utils/introspection/ERC165.sol\":861:901  interfaceId == type(IERC165).interfaceId */\n      not(0xffffffffffffffffffffffffffffffffffffffffffffffffffffffff)\n      and\n      eq\n        /* \"@openzeppelin/contracts/utils/introspection/ERC165.sol\":854:901  return interfaceId == type(IERC165).interfaceId */\n      swap1\n      pop\n        /* \"@openzeppelin/contracts/utils/introspection/ERC165.sol\":762:908  function supportsInterface(bytes4 interfaceId) public view virtual returns (bool) {... */\n      swap2\n      swap1\n      pop\n      jump\t// out\n        /* \"@openzeppelin/contracts/token/ERC721/ERC721.sol\":5707:5822  function _ownerOf(uint256 tokenId) internal view virtual returns (address) {... */\n    tag_206:\n        /* \"@openzeppelin/contracts/token/ERC721/ERC721.sol\":5773:5780  address */\n      0x00\n        /* \"@openzeppelin/contracts/token/ERC721/ERC721.sol\":5799:5806  _owners */\n      0x02\n        /* \"@openzeppelin/contracts/token/ERC721/ERC721.sol\":5799:5815  _owners[tokenId] */\n      0x00\n        /* \"@openzeppelin/contracts/token/ERC721/ERC721.sol\":5807:5814  tokenId */\n      dup4\n        /* \"@openzeppelin/contracts/token/ERC721/ERC721.sol\":5799:5815  _owners[tokenId] */\n      dup2\n      mstore\n      0x20\n      add\n      swap1\n      dup2\n      mstore\n      0x20\n      add\n      0x00\n      keccak256\n      0x00\n      swap1\n      sload\n      swap1\n      0x0100\n      exp\n      swap1\n      div\n      0xffffffffffffffffffffffffffffffffffffffff\n      and\n        /* \"@openzeppelin/contracts/token/ERC721/ERC721.sol\":5792:5815  return _owners[tokenId] */\n      swap1\n      pop\n        /* \"@openzeppelin/contracts/token/ERC721/ERC721.sol\":5707:5822  function _ownerOf(uint256 tokenId) internal view virtual returns (address) {... */\n      swap2\n      swap1\n      pop\n      jump\t// out\n        /* \"@openzeppelin/contracts/token/ERC721/ERC721.sol\":14720:15382  function _approve(address to, uint256 tokenId, address auth, bool emitEvent) internal virtual {... */\n    tag_213:\n        /* \"@openzeppelin/contracts/token/ERC721/ERC721.sol\":14880:14889  emitEvent */\n      dup1\n        /* \"@openzeppelin/contracts/token/ERC721/ERC721.sol\":14880:14911  emitEvent || auth != address(0) */\n      dup1\n      tag_283\n      jumpi\n      pop\n        /* \"@openzeppelin/contracts/token/ERC721/ERC721.sol\":14909:14910  0 */\n      0x00\n        /* \"@openzeppelin/contracts/token/ERC721/ERC721.sol\":14893:14911  auth != address(0) */\n      0xffffffffffffffffffffffffffffffffffffffff\n      and\n        /* \"@openzeppelin/contracts/token/ERC721/ERC721.sol\":14893:14897  auth */\n      dup3\n        /* \"@openzeppelin/contracts/token/ERC721/ERC721.sol\":14893:14911  auth != address(0) */\n      0xffffffffffffffffffffffffffffffffffffffff\n      and\n      eq\n      iszero\n        /* \"@openzeppelin/contracts/token/ERC721/ERC721.sol\":14880:14911  emitEvent || auth != address(0) */\n    tag_283:\n        /* \"@openzeppelin/contracts/token/ERC721/ERC721.sol\":14876:15336  if (emitEvent || auth != address(0)) {... */\n      iszero\n      tag_284\n      jumpi\n        /* \"@openzeppelin/contracts/token/ERC721/ERC721.sol\":14927:14940  address owner */\n      0x00\n        /* \"@openzeppelin/contracts/token/ERC721/ERC721.sol\":14943:14965  _requireOwned(tokenId) */\n      tag_285\n        /* \"@openzeppelin/contracts/token/ERC721/ERC721.sol\":14957:14964  tokenId */\n      dup5\n        /* \"@openzeppelin/contracts/token/ERC721/ERC721.sol\":14943:14956  _requireOwned */\n      tag_119\n        /* \"@openzeppelin/contracts/token/ERC721/ERC721.sol\":14943:14965  _requireOwned(tokenId) */\n      jump\t// in\n    tag_285:\n        /* \"@openzeppelin/contracts/token/ERC721/ERC721.sol\":14927:14965  address owner = _requireOwned(tokenId) */\n      swap1\n      pop\n        /* \"@openzeppelin/contracts/token/ERC721/ERC721.sol\":15109:15110  0 */\n      0x00\n        /* \"@openzeppelin/contracts/token/ERC721/ERC721.sol\":15093:15111  auth != address(0) */\n      0xffffffffffffffffffffffffffffffffffffffff\n      and\n        /* \"@openzeppelin/contracts/token/ERC721/ERC721.sol\":15093:15097  auth */\n      dup4\n        /* \"@openzeppelin/contracts/token/ERC721/ERC721.sol\":15093:15111  auth != address(0) */\n      0xffffffffffffffffffffffffffffffffffffffff\n      and\n      eq\n      iszero\n        /* \"@openzeppelin/contracts/token/ERC721/ERC721.sol\":15093:15128  auth != address(0) && owner != auth */\n      dup1\n      iszero\n      tag_286\n      jumpi\n      pop\n        /* \"@openzeppelin/contracts/token/ERC721/ERC721.sol\":15124:15128  auth */\n      dup3\n        /* \"@openzeppelin/contracts/token/ERC721/ERC721.sol\":15115:15128  owner != auth */\n      0xffffffffffffffffffffffffffffffffffffffff\n      and\n        /* \"@openzeppelin/contracts/token/ERC721/ERC721.sol\":15115:15120  owner */\n      dup2\n        /* \"@openzeppelin/contracts/token/ERC721/ERC721.sol\":15115:15128  owner != auth */\n      0xffffffffffffffffffffffffffffffffffffffff\n      and\n      eq\n      iszero\n        /* \"@openzeppelin/contracts/token/ERC721/ERC721.sol\":15093:15128  auth != address(0) && owner != auth */\n    tag_286:\n        /* \"@openzeppelin/contracts/token/ERC721/ERC721.sol\":15093:15162  auth != address(0) && owner != auth && !isApprovedForAll(owner, auth) */\n      dup1\n      iszero\n      tag_287\n      jumpi\n      pop\n        /* \"@openzeppelin/contracts/token/ERC721/ERC721.sol\":15133:15162  isApprovedForAll(owner, auth) */\n      tag_288\n        /* \"@openzeppelin/contracts/token/ERC721/ERC721.sol\":15150:15155  owner */\n      dup2\n        /* \"@openzeppelin/contracts/token/ERC721/ERC721.sol\":15157:15161  auth */\n      dup5\n        /* \"@openzeppelin/contracts/token/ERC721/ERC721.sol\":15133:15149  isApprovedForAll */\n      tag_96\n        /* \"@openzeppelin/contracts/token/ERC721/ERC721.sol\":15133:15162  isApprovedForAll(owner, auth) */\n      jump\t// in\n    tag_288:\n        /* \"@openzeppelin/contracts/token/ERC721/ERC721.sol\":15132:15162  !isApprovedForAll(owner, auth) */\n      iszero\n        /* \"@openzeppelin/contracts/token/ERC721/ERC721.sol\":15093:15162  auth != address(0) && owner != auth && !isApprovedForAll(owner, auth) */\n    tag_287:\n        /* \"@openzeppelin/contracts/token/ERC721/ERC721.sol\":15089:15231  if (auth != address(0) && owner != auth && !isApprovedForAll(owner, auth)) {... */\n      iszero\n      tag_289\n      jumpi\n        /* \"@openzeppelin/contracts/token/ERC721/ERC721.sol\":15211:15215  auth */\n      dup3\n        /* \"@openzeppelin/contracts/token/ERC721/ERC721.sol\":15189:15216  ERC721InvalidApprover(auth) */\n      mload(0x40)\n      0xa9fbf51f00000000000000000000000000000000000000000000000000000000\n      dup2\n      mstore\n      0x04\n      add\n      tag_290\n      swap2\n      swap1\n      tag_44\n      jump\t// in\n    tag_290:\n      mload(0x40)\n      dup1\n      swap2\n      sub\n      swap1\n      revert\n        /* \"@openzeppelin/contracts/token/ERC721/ERC721.sol\":15089:15231  if (auth != address(0) && owner != auth && !isApprovedForAll(owner, auth)) {... */\n    tag_289:\n        /* \"@openzeppelin/contracts/token/ERC721/ERC721.sol\":15249:15258  emitEvent */\n      dup2\n        /* \"@openzeppelin/contracts/token/ERC721/ERC721.sol\":15245:15326  if (emitEvent) {... */\n      iszero\n      tag_291\n      jumpi\n        /* \"@openzeppelin/contracts/token/ERC721/ERC721.sol\":15303:15310  tokenId */\n      dup4\n        /* \"@openzeppelin/contracts/token/ERC721/ERC721.sol\":15299:15301  to */\n      dup6\n        /* \"@openzeppelin/contracts/token/ERC721/ERC721.sol\":15283:15311  Approval(owner, to, tokenId) */\n      0xffffffffffffffffffffffffffffffffffffffff\n      and\n        /* \"@openzeppelin/contracts/token/ERC721/ERC721.sol\":15292:15297  owner */\n      dup3\n        /* \"@openzeppelin/contracts/token/ERC721/ERC721.sol\":15283:15311  Approval(owner, to, tokenId) */\n      0xffffffffffffffffffffffffffffffffffffffff\n      and\n      0x8c5be1e5ebec7d5bd14f71427d1e84f3dd0314c0f7b2291e5b200ac8c7c3b925\n      mload(0x40)\n      mload(0x40)\n      dup1\n      swap2\n      sub\n      swap1\n      log4\n        /* \"@openzeppelin/contracts/token/ERC721/ERC721.sol\":15245:15326  if (emitEvent) {... */\n    tag_291:\n        /* \"@openzeppelin/contracts/token/ERC721/ERC721.sol\":14913:15336  {... */\n      pop\n        /* \"@openzeppelin/contracts/token/ERC721/ERC721.sol\":14876:15336  if (emitEvent || auth != address(0)) {... */\n    tag_284:\n        /* \"@openzeppelin/contracts/token/ERC721/ERC721.sol\":15373:15375  to */\n      dup4\n        /* \"@openzeppelin/contracts/token/ERC721/ERC721.sol\":15346:15361  _tokenApprovals */\n      0x04\n        /* \"@openzeppelin/contracts/token/ERC721/ERC721.sol\":15346:15370  _tokenApprovals[tokenId] */\n      0x00\n        /* \"@openzeppelin/contracts/token/ERC721/ERC721.sol\":15362:15369  tokenId */\n      dup6\n        /* \"@openzeppelin/contracts/token/ERC721/ERC721.sol\":15346:15370  _tokenApprovals[tokenId] */\n      dup2\n      mstore\n      0x20\n      add\n      swap1\n      dup2\n      mstore\n      0x20\n      add\n      0x00\n      keccak256\n      0x00\n        /* \"@openzeppelin/contracts/token/ERC721/ERC721.sol\":15346:15375  _tokenApprovals[tokenId] = to */\n      0x0100\n      exp\n      dup2\n      sload\n      dup2\n      0xffffffffffffffffffffffffffffffffffffffff\n      mul\n      not\n      and\n      swap1\n      dup4\n      0xffffffffffffffffffffffffffffffffffffffff\n      and\n      mul\n      or\n      swap1\n      sstore\n      pop\n        /* \"@openzeppelin/contracts/token/ERC721/ERC721.sol\":14720:15382  function _approve(address to, uint256 tokenId, address auth, bool emitEvent) internal virtual {... */\n      pop\n      pop\n      pop\n      pop\n      jump\t// out\n        /* \"@openzeppelin/contracts/utils/math/Math.sol\":12214:13130  function log10(uint256 value) internal pure returns (uint256) {... */\n    tag_222:\n        /* \"@openzeppelin/contracts/utils/math/Math.sol\":12267:12274  uint256 */\n      0x00\n        /* \"@openzeppelin/contracts/utils/math/Math.sol\":12286:12300  uint256 result */\n      dup1\n        /* \"@openzeppelin/contracts/utils/math/Math.sol\":12303:12304  0 */\n      0x00\n        /* \"@openzeppelin/contracts/utils/math/Math.sol\":12286:12304  uint256 result = 0 */\n      swap1\n      pop\n        /* \"@openzeppelin/contracts/utils/math/Math.sol\":12351:12359  10 ** 64 */\n      0x184f03e93ff9f4daa797ed6e38ed64bf6a1f010000000000000000\n        /* \"@openzeppelin/contracts/utils/math/Math.sol\":12342:12347  value */\n      dup4\n        /* \"@openzeppelin/contracts/utils/math/Math.sol\":12342:12359  value >= 10 ** 64 */\n      lt\n        /* \"@openzeppelin/contracts/utils/math/Math.sol\":12338:12441  if (value >= 10 ** 64) {... */\n      tag_293\n      jumpi\n        /* \"@openzeppelin/contracts/utils/math/Math.sol\":12388:12396  10 ** 64 */\n      0x184f03e93ff9f4daa797ed6e38ed64bf6a1f010000000000000000\n        /* \"@openzeppelin/contracts/utils/math/Math.sol\":12379:12396  value /= 10 ** 64 */\n      dup4\n      dup2\n      tag_294\n      jumpi\n      tag_295\n      tag_231\n      jump\t// in\n    tag_295:\n    tag_294:\n      div\n      swap3\n      pop\n        /* \"@openzeppelin/contracts/utils/math/Math.sol\":12424:12426  64 */\n      0x40\n        /* \"@openzeppelin/contracts/utils/math/Math.sol\":12414:12426  result += 64 */\n      dup2\n      add\n      swap1\n      pop\n        /* \"@openzeppelin/contracts/utils/math/Math.sol\":12338:12441  if (value >= 10 ** 64) {... */\n    tag_293:\n        /* \"@openzeppelin/contracts/utils/math/Math.sol\":12467:12475  10 ** 32 */\n      0x04ee2d6d415b85acef8100000000\n        /* \"@openzeppelin/contracts/utils/math/Math.sol\":12458:12463  value */\n      dup4\n        /* \"@openzeppelin/contracts/utils/math/Math.sol\":12458:12475  value >= 10 ** 32 */\n      lt\n        /* \"@openzeppelin/contracts/utils/math/Math.sol\":12454:12557  if (value >= 10 ** 32) {... */\n      tag_296\n      jumpi\n        /* \"@openzeppelin/contracts/utils/math/Math.sol\":12504:12512  10 ** 32 */\n      0x04ee2d6d415b85acef8100000000\n        /* \"@openzeppelin/contracts/utils/math/Math.sol\":12495:12512  value /= 10 ** 32 */\n      dup4\n      dup2\n      tag_297\n      jumpi\n      tag_298\n      tag_231\n      jump\t// in\n    tag_298:\n    tag_297:\n      div\n      swap3\n      pop\n        /* \"@openzeppelin/contracts/utils/math/Math.sol\":12540:12542  32 */\n      0x20\n        /* \"@openzeppelin/contracts/utils/math/Math.sol\":12530:12542  result += 32 */\n      dup2\n      add\n      swap1\n      pop\n        /* \"@openzeppelin/contracts/utils/math/Math.sol\":12454:12557  if (value >= 10 ** 32) {... */\n    tag_296:\n        /* \"@openzeppelin/contracts/utils/math/Math.sol\":12583:12591  10 ** 16 */\n      0x2386f26fc10000\n        /* \"@openzeppelin/contracts/utils/math/Math.sol\":12574:12579  value */\n      dup4\n        /* \"@openzeppelin/contracts/utils/math/Math.sol\":12574:12591  value >= 10 ** 16 */\n      lt\n        /* \"@openzeppelin/contracts/utils/math/Math.sol\":12570:12673  if (value >= 10 ** 16) {... */\n      tag_299\n      jumpi\n        /* \"@openzeppelin/contracts/utils/math/Math.sol\":12620:12628  10 ** 16 */\n      0x2386f26fc10000\n        /* \"@openzeppelin/contracts/utils/math/Math.sol\":12611:12628  value /= 10 ** 16 */\n      dup4\n      dup2\n      tag_300\n      jumpi\n      tag_301\n      tag_231\n      jump\t// in\n    tag_301:\n    tag_300:\n      div\n      swap3\n      pop\n        /* \"@openzeppelin/contracts/utils/math/Math.sol\":12656:12658  16 */\n      0x10\n        /* \"@openzeppelin/contracts/utils/math/Math.sol\":12646:12658  result += 16 */\n      dup2\n      add\n      swap1\n      pop\n        /* \"@openzeppelin/contracts/utils/math/Math.sol\":12570:12673  if (value >= 10 ** 16) {... */\n    tag_299:\n        /* \"@openzeppelin/contracts/utils/math/Math.sol\":12699:12706  10 ** 8 */\n      0x05f5e100\n        /* \"@openzeppelin/contracts/utils/math/Math.sol\":12690:12695  value */\n      dup4\n        /* \"@openzeppelin/contracts/utils/math/Math.sol\":12690:12706  value >= 10 ** 8 */\n      lt\n        /* \"@openzeppelin/contracts/utils/math/Math.sol\":12686:12786  if (value >= 10 ** 8) {... */\n      tag_302\n      jumpi\n        /* \"@openzeppelin/contracts/utils/math/Math.sol\":12735:12742  10 ** 8 */\n      0x05f5e100\n        /* \"@openzeppelin/contracts/utils/math/Math.sol\":12726:12742  value /= 10 ** 8 */\n      dup4\n      dup2\n      tag_303\n      jumpi\n      tag_304\n      tag_231\n      jump\t// in\n    tag_304:\n    tag_303:\n      div\n      swap3\n      pop\n        /* \"@openzeppelin/contracts/utils/math/Math.sol\":12770:12771  8 */\n      0x08\n        /* \"@openzeppelin/contracts/utils/math/Math.sol\":12760:12771  result += 8 */\n      dup2\n      add\n      swap1\n      pop\n        /* \"@openzeppelin/contracts/utils/math/Math.sol\":12686:12786  if (value >= 10 ** 8) {... */\n    tag_302:\n        /* \"@openzeppelin/contracts/utils/math/Math.sol\":12812:12819  10 ** 4 */\n      0x2710\n        /* \"@openzeppelin/contracts/utils/math/Math.sol\":12803:12808  value */\n      dup4\n        /* \"@openzeppelin/contracts/utils/math/Math.sol\":12803:12819  value >= 10 ** 4 */\n      lt\n        /* \"@openzeppelin/contracts/utils/math/Math.sol\":12799:12899  if (value >= 10 ** 4) {... */\n      tag_305\n      jumpi\n        /* \"@openzeppelin/contracts/utils/math/Math.sol\":12848:12855  10 ** 4 */\n      0x2710\n        /* \"@openzeppelin/contracts/utils/math/Math.sol\":12839:12855  value /= 10 ** 4 */\n      dup4\n      dup2\n      tag_306\n      jumpi\n      tag_307\n      tag_231\n      jump\t// in\n    tag_307:\n    tag_306:\n      div\n      swap3\n      pop\n        /* \"@openzeppelin/contracts/utils/math/Math.sol\":12883:12884  4 */\n      0x04\n        /* \"@openzeppelin/contracts/utils/math/Math.sol\":12873:12884  result += 4 */\n      dup2\n      add\n      swap1\n      pop\n        /* \"@openzeppelin/contracts/utils/math/Math.sol\":12799:12899  if (value >= 10 ** 4) {... */\n    tag_305:\n        /* \"@openzeppelin/contracts/utils/math/Math.sol\":12925:12932  10 ** 2 */\n      0x64\n        /* \"@openzeppelin/contracts/utils/math/Math.sol\":12916:12921  value */\n      dup4\n        /* \"@openzeppelin/contracts/utils/math/Math.sol\":12916:12932  value >= 10 ** 2 */\n      lt\n        /* \"@openzeppelin/contracts/utils/math/Math.sol\":12912:13012  if (value >= 10 ** 2) {... */\n      tag_308\n      jumpi\n        /* \"@openzeppelin/contracts/utils/math/Math.sol\":12961:12968  10 ** 2 */\n      0x64\n        /* \"@openzeppelin/contracts/utils/math/Math.sol\":12952:12968  value /= 10 ** 2 */\n      dup4\n      dup2\n      tag_309\n      jumpi\n      tag_310\n      tag_231\n      jump\t// in\n    tag_310:\n    tag_309:\n      div\n      swap3\n      pop\n        /* \"@openzeppelin/contracts/utils/math/Math.sol\":12996:12997  2 */\n      0x02\n        /* \"@openzeppelin/contracts/utils/math/Math.sol\":12986:12997  result += 2 */\n      dup2\n      add\n      swap1\n      pop\n        /* \"@openzeppelin/contracts/utils/math/Math.sol\":12912:13012  if (value >= 10 ** 2) {... */\n    tag_308:\n        /* \"@openzeppelin/contracts/utils/math/Math.sol\":13038:13045  10 ** 1 */\n      0x0a\n        /* \"@openzeppelin/contracts/utils/math/Math.sol\":13029:13034  value */\n      dup4\n        /* \"@openzeppelin/contracts/utils/math/Math.sol\":13029:13045  value >= 10 ** 1 */\n      lt\n        /* \"@openzeppelin/contracts/utils/math/Math.sol\":13025:13091  if (value >= 10 ** 1) {... */\n      tag_311\n      jumpi\n        /* \"@openzeppelin/contracts/utils/math/Math.sol\":13075:13076  1 */\n      0x01\n        /* \"@openzeppelin/contracts/utils/math/Math.sol\":13065:13076  result += 1 */\n      dup2\n      add\n      swap1\n      pop\n        /* \"@openzeppelin/contracts/utils/math/Math.sol\":13025:13091  if (value >= 10 ** 1) {... */\n    tag_311:\n        /* \"@openzeppelin/contracts/utils/math/Math.sol\":13117:13123  result */\n      dup1\n        /* \"@openzeppelin/contracts/utils/math/Math.sol\":13110:13123  return result */\n      swap2\n      pop\n      pop\n        /* \"@openzeppelin/contracts/utils/math/Math.sol\":12214:13130  function log10(uint256 value) internal pure returns (uint256) {... */\n      swap2\n      swap1\n      pop\n      jump\t// out\n        /* \"@openzeppelin/contracts/token/ERC721/ERC721.sol\":7082:7450  function _checkAuthorized(address owner, address spender, uint256 tokenId) internal view virtual {... */\n    tag_240:\n        /* \"@openzeppelin/contracts/token/ERC721/ERC721.sol\":7194:7232  _isAuthorized(owner, spender, tokenId) */\n      tag_313\n        /* \"@openzeppelin/contracts/token/ERC721/ERC721.sol\":7208:7213  owner */\n      dup4\n        /* \"@openzeppelin/contracts/token/ERC721/ERC721.sol\":7215:7222  spender */\n      dup4\n        /* \"@openzeppelin/contracts/token/ERC721/ERC721.sol\":7224:7231  tokenId */\n      dup4\n        /* \"@openzeppelin/contracts/token/ERC721/ERC721.sol\":7194:7207  _isAuthorized */\n      tag_314\n        /* \"@openzeppelin/contracts/token/ERC721/ERC721.sol\":7194:7232  _isAuthorized(owner, spender, tokenId) */\n      jump\t// in\n    tag_313:\n        /* \"@openzeppelin/contracts/token/ERC721/ERC721.sol\":7189:7444  if (!_isAuthorized(owner, spender, tokenId)) {... */\n      tag_315\n      jumpi\n        /* \"@openzeppelin/contracts/token/ERC721/ERC721.sol\":7269:7270  0 */\n      0x00\n        /* \"@openzeppelin/contracts/token/ERC721/ERC721.sol\":7252:7271  owner == address(0) */\n      0xffffffffffffffffffffffffffffffffffffffff\n      and\n        /* \"@openzeppelin/contracts/token/ERC721/ERC721.sol\":7252:7257  owner */\n      dup4\n        /* \"@openzeppelin/contracts/token/ERC721/ERC721.sol\":7252:7271  owner == address(0) */\n      0xffffffffffffffffffffffffffffffffffffffff\n      and\n      sub\n        /* \"@openzeppelin/contracts/token/ERC721/ERC721.sol\":7248:7434  if (owner == address(0)) {... */\n      tag_316\n      jumpi\n        /* \"@openzeppelin/contracts/token/ERC721/ERC721.sol\":7321:7328  tokenId */\n      dup1\n        /* \"@openzeppelin/contracts/token/ERC721/ERC721.sol\":7298:7329  ERC721NonexistentToken(tokenId) */\n      mload(0x40)\n      0x7e27328900000000000000000000000000000000000000000000000000000000\n      dup2\n      mstore\n      0x04\n      add\n      tag_317\n      swap2\n      swap1\n      tag_52\n      jump\t// in\n    tag_317:\n      mload(0x40)\n      dup1\n      swap2\n      sub\n      swap1\n      revert\n        /* \"@openzeppelin/contracts/token/ERC721/ERC721.sol\":7248:7434  if (owner == address(0)) {... */\n    tag_316:\n        /* \"@openzeppelin/contracts/token/ERC721/ERC721.sol\":7402:7409  spender */\n      dup2\n        /* \"@openzeppelin/contracts/token/ERC721/ERC721.sol\":7411:7418  tokenId */\n      dup2\n        /* \"@openzeppelin/contracts/token/ERC721/ERC721.sol\":7375:7419  ERC721InsufficientApproval(spender, tokenId) */\n      mload(0x40)\n      0x177e802f00000000000000000000000000000000000000000000000000000000\n      dup2\n      mstore\n      0x04\n      add\n      tag_319\n      swap3\n      swap2\n      swap1\n      tag_320\n      jump\t// in\n    tag_319:\n      mload(0x40)\n      dup1\n      swap2\n      sub\n      swap1\n      revert\n        /* \"@openzeppelin/contracts/token/ERC721/ERC721.sol\":7189:7444  if (!_isAuthorized(owner, spender, tokenId)) {... */\n    tag_315:\n        /* \"@openzeppelin/contracts/token/ERC721/ERC721.sol\":7082:7450  function _checkAuthorized(address owner, address spender, uint256 tokenId) internal view virtual {... */\n      pop\n      pop\n      pop\n      jump\t// out\n        /* \"@openzeppelin/contracts/token/ERC721/ERC721.sol\":6376:6648  function _isAuthorized(address owner, address spender, uint256 tokenId) internal view virtual returns (bool) {... */\n    tag_314:\n        /* \"@openzeppelin/contracts/token/ERC721/ERC721.sol\":6479:6483  bool */\n      0x00\n        /* \"@openzeppelin/contracts/token/ERC721/ERC721.sol\":6533:6534  0 */\n      dup1\n        /* \"@openzeppelin/contracts/token/ERC721/ERC721.sol\":6514:6535  spender != address(0) */\n      0xffffffffffffffffffffffffffffffffffffffff\n      and\n        /* \"@openzeppelin/contracts/token/ERC721/ERC721.sol\":6514:6521  spender */\n      dup4\n        /* \"@openzeppelin/contracts/token/ERC721/ERC721.sol\":6514:6535  spender != address(0) */\n      0xffffffffffffffffffffffffffffffffffffffff\n      and\n      eq\n      iszero\n        /* \"@openzeppelin/contracts/token/ERC721/ERC721.sol\":6514:6641  spender != address(0) &&... */\n      dup1\n      iszero\n      tag_322\n      jumpi\n      pop\n        /* \"@openzeppelin/contracts/token/ERC721/ERC721.sol\":6561:6568  spender */\n      dup3\n        /* \"@openzeppelin/contracts/token/ERC721/ERC721.sol\":6552:6568  owner == spender */\n      0xffffffffffffffffffffffffffffffffffffffff\n      and\n        /* \"@openzeppelin/contracts/token/ERC721/ERC721.sol\":6552:6557  owner */\n      dup5\n        /* \"@openzeppelin/contracts/token/ERC721/ERC721.sol\":6552:6568  owner == spender */\n      0xffffffffffffffffffffffffffffffffffffffff\n      and\n      eq\n        /* \"@openzeppelin/contracts/token/ERC721/ERC721.sol\":6552:6604  owner == spender || isApprovedForAll(owner, spender) */\n      dup1\n      tag_323\n      jumpi\n      pop\n        /* \"@openzeppelin/contracts/token/ERC721/ERC721.sol\":6572:6604  isApprovedForAll(owner, spender) */\n      tag_324\n        /* \"@openzeppelin/contracts/token/ERC721/ERC721.sol\":6589:6594  owner */\n      dup5\n        /* \"@openzeppelin/contracts/token/ERC721/ERC721.sol\":6596:6603  spender */\n      dup5\n        /* \"@openzeppelin/contracts/token/ERC721/ERC721.sol\":6572:6588  isApprovedForAll */\n      tag_96\n        /* \"@openzeppelin/contracts/token/ERC721/ERC721.sol\":6572:6604  isApprovedForAll(owner, spender) */\n      jump\t// in\n    tag_324:\n        /* \"@openzeppelin/contracts/token/ERC721/ERC721.sol\":6552:6604  owner == spender || isApprovedForAll(owner, spender) */\n    tag_323:\n        /* \"@openzeppelin/contracts/token/ERC721/ERC721.sol\":6552:6640  owner == spender || isApprovedForAll(owner, spender) || _getApproved(tokenId) == spender */\n      dup1\n      tag_325\n      jumpi\n      pop\n        /* \"@openzeppelin/contracts/token/ERC721/ERC721.sol\":6633:6640  spender */\n      dup3\n        /* \"@openzeppelin/contracts/token/ERC721/ERC721.sol\":6608:6640  _getApproved(tokenId) == spender */\n      0xffffffffffffffffffffffffffffffffffffffff\n      and\n        /* \"@openzeppelin/contracts/token/ERC721/ERC721.sol\":6608:6629  _getApproved(tokenId) */\n      tag_326\n        /* \"@openzeppelin/contracts/token/ERC721/ERC721.sol\":6621:6628  tokenId */\n      dup4\n        /* \"@openzeppelin/contracts/token/ERC721/ERC721.sol\":6608:6620  _getApproved */\n      tag_121\n        /* \"@openzeppelin/contracts/token/ERC721/ERC721.sol\":6608:6629  _getApproved(tokenId) */\n      jump\t// in\n    tag_326:\n        /* \"@openzeppelin/contracts/token/ERC721/ERC721.sol\":6608:6640  _getApproved(tokenId) == spender */\n      0xffffffffffffffffffffffffffffffffffffffff\n      and\n      eq\n        /* \"@openzeppelin/contracts/token/ERC721/ERC721.sol\":6552:6640  owner == spender || isApprovedForAll(owner, spender) || _getApproved(tokenId) == spender */\n    tag_325:\n        /* \"@openzeppelin/contracts/token/ERC721/ERC721.sol\":6514:6641  spender != address(0) &&... */\n    tag_322:\n        /* \"@openzeppelin/contracts/token/ERC721/ERC721.sol\":6495:6641  return... */\n      swap1\n      pop\n        /* \"@openzeppelin/contracts/token/ERC721/ERC721.sol\":6376:6648  function _isAuthorized(address owner, address spender, uint256 tokenId) internal view virtual returns (bool) {... */\n      swap4\n      swap3\n      pop\n      pop\n      pop\n      jump\t// out\n        /* \"#utility.yul\":7:82   */\n    tag_327:\n        /* \"#utility.yul\":40:46   */\n      0x00\n        /* \"#utility.yul\":73:75   */\n      0x40\n        /* \"#utility.yul\":67:76   */\n      mload\n        /* \"#utility.yul\":57:76   */\n      swap1\n      pop\n        /* \"#utility.yul\":7:82   */\n      swap1\n      jump\t// out\n        /* \"#utility.yul\":88:205   */\n    tag_328:\n        /* \"#utility.yul\":197:198   */\n      0x00\n        /* \"#utility.yul\":194:195   */\n      dup1\n        /* \"#utility.yul\":187:199   */\n      revert\n        /* \"#utility.yul\":211:328   */\n    tag_329:\n        /* \"#utility.yul\":320:321   */\n      0x00\n        /* \"#utility.yul\":317:318   */\n      dup1\n        /* \"#utility.yul\":310:322   */\n      revert\n        /* \"#utility.yul\":334:483   */\n    tag_330:\n        /* \"#utility.yul\":370:377   */\n      0x00\n        /* \"#utility.yul\":410:476   */\n      0xffffffff00000000000000000000000000000000000000000000000000000000\n        /* \"#utility.yul\":403:408   */\n      dup3\n        /* \"#utility.yul\":399:477   */\n      and\n        /* \"#utility.yul\":388:477   */\n      swap1\n      pop\n        /* \"#utility.yul\":334:483   */\n      swap2\n      swap1\n      pop\n      jump\t// out\n        /* \"#utility.yul\":489:609   */\n    tag_331:\n        /* \"#utility.yul\":561:584   */\n      tag_394\n        /* \"#utility.yul\":578:583   */\n      dup2\n        /* \"#utility.yul\":561:584   */\n      tag_330\n      jump\t// in\n    tag_394:\n        /* \"#utility.yul\":554:559   */\n      dup2\n        /* \"#utility.yul\":551:585   */\n      eq\n        /* \"#utility.yul\":541:603   */\n      tag_395\n      jumpi\n        /* \"#utility.yul\":599:600   */\n      0x00\n        /* \"#utility.yul\":596:597   */\n      dup1\n        /* \"#utility.yul\":589:601   */\n      revert\n        /* \"#utility.yul\":541:603   */\n    tag_395:\n        /* \"#utility.yul\":489:609   */\n      pop\n      jump\t// out\n        /* \"#utility.yul\":615:752   */\n    tag_332:\n        /* \"#utility.yul\":660:665   */\n      0x00\n        /* \"#utility.yul\":698:704   */\n      dup2\n        /* \"#utility.yul\":685:705   */\n      calldataload\n        /* \"#utility.yul\":676:705   */\n      swap1\n      pop\n        /* \"#utility.yul\":714:746   */\n      tag_397\n        /* \"#utility.yul\":740:745   */\n      dup2\n        /* \"#utility.yul\":714:746   */\n      tag_331\n      jump\t// in\n    tag_397:\n        /* \"#utility.yul\":615:752   */\n      swap3\n      swap2\n      pop\n      pop\n      jump\t// out\n        /* \"#utility.yul\":758:1085   */\n    tag_26:\n        /* \"#utility.yul\":816:822   */\n      0x00\n        /* \"#utility.yul\":865:867   */\n      0x20\n        /* \"#utility.yul\":853:862   */\n      dup3\n        /* \"#utility.yul\":844:851   */\n      dup5\n        /* \"#utility.yul\":840:863   */\n      sub\n        /* \"#utility.yul\":836:868   */\n      slt\n        /* \"#utility.yul\":833:952   */\n      iszero\n      tag_399\n      jumpi\n        /* \"#utility.yul\":871:950   */\n      tag_400\n      tag_328\n      jump\t// in\n    tag_400:\n        /* \"#utility.yul\":833:952   */\n    tag_399:\n        /* \"#utility.yul\":991:992   */\n      0x00\n        /* \"#utility.yul\":1016:1068   */\n      tag_401\n        /* \"#utility.yul\":1060:1067   */\n      dup5\n        /* \"#utility.yul\":1051:1057   */\n      dup3\n        /* \"#utility.yul\":1040:1049   */\n      dup6\n        /* \"#utility.yul\":1036:1058   */\n      add\n        /* \"#utility.yul\":1016:1068   */\n      tag_332\n      jump\t// in\n    tag_401:\n        /* \"#utility.yul\":1006:1068   */\n      swap2\n      pop\n        /* \"#utility.yul\":962:1078   */\n      pop\n        /* \"#utility.yul\":758:1085   */\n      swap3\n      swap2\n      pop\n      pop\n      jump\t// out\n        /* \"#utility.yul\":1091:1181   */\n    tag_333:\n        /* \"#utility.yul\":1125:1132   */\n      0x00\n        /* \"#utility.yul\":1168:1173   */\n      dup2\n        /* \"#utility.yul\":1161:1174   */\n      iszero\n        /* \"#utility.yul\":1154:1175   */\n      iszero\n        /* \"#utility.yul\":1143:1175   */\n      swap1\n      pop\n        /* \"#utility.yul\":1091:1181   */\n      swap2\n      swap1\n      pop\n      jump\t// out\n        /* \"#utility.yul\":1187:1296   */\n    tag_334:\n        /* \"#utility.yul\":1268:1289   */\n      tag_404\n        /* \"#utility.yul\":1283:1288   */\n      dup2\n        /* \"#utility.yul\":1268:1289   */\n      tag_333\n      jump\t// in\n    tag_404:\n        /* \"#utility.yul\":1263:1266   */\n      dup3\n        /* \"#utility.yul\":1256:1290   */\n      mstore\n        /* \"#utility.yul\":1187:1296   */\n      pop\n      pop\n      jump\t// out\n        /* \"#utility.yul\":1302:1512   */\n    tag_29:\n        /* \"#utility.yul\":1389:1393   */\n      0x00\n        /* \"#utility.yul\":1427:1429   */\n      0x20\n        /* \"#utility.yul\":1416:1425   */\n      dup3\n        /* \"#utility.yul\":1412:1430   */\n      add\n        /* \"#utility.yul\":1404:1430   */\n      swap1\n      pop\n        /* \"#utility.yul\":1440:1505   */\n      tag_406\n        /* \"#utility.yul\":1502:1503   */\n      0x00\n        /* \"#utility.yul\":1491:1500   */\n      dup4\n        /* \"#utility.yul\":1487:1504   */\n      add\n        /* \"#utility.yul\":1478:1484   */\n      dup5\n        /* \"#utility.yul\":1440:1505   */\n      tag_334\n      jump\t// in\n    tag_406:\n        /* \"#utility.yul\":1302:1512   */\n      swap3\n      swap2\n      pop\n      pop\n      jump\t// out\n        /* \"#utility.yul\":1518:1635   */\n    tag_335:\n        /* \"#utility.yul\":1627:1628   */\n      0x00\n        /* \"#utility.yul\":1624:1625   */\n      dup1\n        /* \"#utility.yul\":1617:1629   */\n      revert\n        /* \"#utility.yul\":1641:1758   */\n    tag_336:\n        /* \"#utility.yul\":1750:1751   */\n      0x00\n        /* \"#utility.yul\":1747:1748   */\n      dup1\n        /* \"#utility.yul\":1740:1752   */\n      revert\n        /* \"#utility.yul\":1764:1866   */\n    tag_337:\n        /* \"#utility.yul\":1805:1811   */\n      0x00\n        /* \"#utility.yul\":1856:1858   */\n      0x1f\n        /* \"#utility.yul\":1852:1859   */\n      not\n        /* \"#utility.yul\":1847:1849   */\n      0x1f\n        /* \"#utility.yul\":1840:1845   */\n      dup4\n        /* \"#utility.yul\":1836:1850   */\n      add\n        /* \"#utility.yul\":1832:1860   */\n      and\n        /* \"#utility.yul\":1822:1860   */\n      swap1\n      pop\n        /* \"#utility.yul\":1764:1866   */\n      swap2\n      swap1\n      pop\n      jump\t// out\n        /* \"#utility.yul\":1872:2052   */\n    tag_225:\n        /* \"#utility.yul\":1920:1997   */\n      0x4e487b7100000000000000000000000000000000000000000000000000000000\n        /* \"#utility.yul\":1917:1918   */\n      0x00\n        /* \"#utility.yul\":1910:1998   */\n      mstore\n        /* \"#utility.yul\":2017:2021   */\n      0x41\n        /* \"#utility.yul\":2014:2015   */\n      0x04\n        /* \"#utility.yul\":2007:2022   */\n      mstore\n        /* \"#utility.yul\":2041:2045   */\n      0x24\n        /* \"#utility.yul\":2038:2039   */\n      0x00\n        /* \"#utility.yul\":2031:2046   */\n      revert\n        /* \"#utility.yul\":2058:2339   */\n    tag_338:\n        /* \"#utility.yul\":2141:2168   */\n      tag_412\n        /* \"#utility.yul\":2163:2167   */\n      dup3\n        /* \"#utility.yul\":2141:2168   */\n      tag_337\n      jump\t// in\n    tag_412:\n        /* \"#utility.yul\":2133:2139   */\n      dup2\n        /* \"#utility.yul\":2129:2169   */\n      add\n        /* \"#utility.yul\":2271:2277   */\n      dup2\n        /* \"#utility.yul\":2259:2269   */\n      dup2\n        /* \"#utility.yul\":2256:2278   */\n      lt\n        /* \"#utility.yul\":2235:2253   */\n      0xffffffffffffffff\n        /* \"#utility.yul\":2223:2233   */\n      dup3\n        /* \"#utility.yul\":2220:2254   */\n      gt\n        /* \"#utility.yul\":2217:2279   */\n      or\n        /* \"#utility.yul\":2214:2302   */\n      iszero\n      tag_413\n      jumpi\n        /* \"#utility.yul\":2282:2300   */\n      tag_414\n      tag_225\n      jump\t// in\n    tag_414:\n        /* \"#utility.yul\":2214:2302   */\n    tag_413:\n        /* \"#utility.yul\":2322:2332   */\n      dup1\n        /* \"#utility.yul\":2318:2320   */\n      0x40\n        /* \"#utility.yul\":2311:2333   */\n      mstore\n        /* \"#utility.yul\":2101:2339   */\n      pop\n        /* \"#utility.yul\":2058:2339   */\n      pop\n      pop\n      jump\t// out\n        /* \"#utility.yul\":2345:2474   */\n    tag_339:\n        /* \"#utility.yul\":2379:2385   */\n      0x00\n        /* \"#utility.yul\":2406:2426   */\n      tag_416\n      tag_327\n      jump\t// in\n    tag_416:\n        /* \"#utility.yul\":2396:2426   */\n      swap1\n      pop\n        /* \"#utility.yul\":2435:2468   */\n      tag_417\n        /* \"#utility.yul\":2463:2467   */\n      dup3\n        /* \"#utility.yul\":2455:2461   */\n      dup3\n        /* \"#utility.yul\":2435:2468   */\n      tag_338\n      jump\t// in\n    tag_417:\n        /* \"#utility.yul\":2345:2474   */\n      swap2\n      swap1\n      pop\n      jump\t// out\n        /* \"#utility.yul\":2480:2788   */\n    tag_340:\n        /* \"#utility.yul\":2542:2546   */\n      0x00\n        /* \"#utility.yul\":2632:2650   */\n      0xffffffffffffffff\n        /* \"#utility.yul\":2624:2630   */\n      dup3\n        /* \"#utility.yul\":2621:2651   */\n      gt\n        /* \"#utility.yul\":2618:2674   */\n      iszero\n      tag_419\n      jumpi\n        /* \"#utility.yul\":2654:2672   */\n      tag_420\n      tag_225\n      jump\t// in\n    tag_420:\n        /* \"#utility.yul\":2618:2674   */\n    tag_419:\n        /* \"#utility.yul\":2692:2721   */\n      tag_421\n        /* \"#utility.yul\":2714:2720   */\n      dup3\n        /* \"#utility.yul\":2692:2721   */\n      tag_337\n      jump\t// in\n    tag_421:\n        /* \"#utility.yul\":2684:2721   */\n      swap1\n      pop\n        /* \"#utility.yul\":2776:2780   */\n      0x20\n        /* \"#utility.yul\":2770:2774   */\n      dup2\n        /* \"#utility.yul\":2766:2781   */\n      add\n        /* \"#utility.yul\":2758:2781   */\n      swap1\n      pop\n        /* \"#utility.yul\":2480:2788   */\n      swap2\n      swap1\n      pop\n      jump\t// out\n        /* \"#utility.yul\":2794:2940   */\n    tag_341:\n        /* \"#utility.yul\":2891:2897   */\n      dup3\n        /* \"#utility.yul\":2886:2889   */\n      dup2\n        /* \"#utility.yul\":2881:2884   */\n      dup4\n        /* \"#utility.yul\":2868:2898   */\n      calldatacopy\n        /* \"#utility.yul\":2932:2933   */\n      0x00\n        /* \"#utility.yul\":2923:2929   */\n      dup4\n        /* \"#utility.yul\":2918:2921   */\n      dup4\n        /* \"#utility.yul\":2914:2930   */\n      add\n        /* \"#utility.yul\":2907:2934   */\n      mstore\n        /* \"#utility.yul\":2794:2940   */\n      pop\n      pop\n      pop\n      jump\t// out\n        /* \"#utility.yul\":2946:3371   */\n    tag_342:\n        /* \"#utility.yul\":3024:3029   */\n      0x00\n        /* \"#utility.yul\":3049:3115   */\n      tag_424\n        /* \"#utility.yul\":3065:3114   */\n      tag_425\n        /* \"#utility.yul\":3107:3113   */\n      dup5\n        /* \"#utility.yul\":3065:3114   */\n      tag_340\n      jump\t// in\n    tag_425:\n        /* \"#utility.yul\":3049:3115   */\n      tag_339\n      jump\t// in\n    tag_424:\n        /* \"#utility.yul\":3040:3115   */\n      swap1\n      pop\n        /* \"#utility.yul\":3138:3144   */\n      dup3\n        /* \"#utility.yul\":3131:3136   */\n      dup2\n        /* \"#utility.yul\":3124:3145   */\n      mstore\n        /* \"#utility.yul\":3176:3180   */\n      0x20\n        /* \"#utility.yul\":3169:3174   */\n      dup2\n        /* \"#utility.yul\":3165:3181   */\n      add\n        /* \"#utility.yul\":3214:3217   */\n      dup5\n        /* \"#utility.yul\":3205:3211   */\n      dup5\n        /* \"#utility.yul\":3200:3203   */\n      dup5\n        /* \"#utility.yul\":3196:3212   */\n      add\n        /* \"#utility.yul\":3193:3218   */\n      gt\n        /* \"#utility.yul\":3190:3302   */\n      iszero\n      tag_426\n      jumpi\n        /* \"#utility.yul\":3221:3300   */\n      tag_427\n      tag_336\n      jump\t// in\n    tag_427:\n        /* \"#utility.yul\":3190:3302   */\n    tag_426:\n        /* \"#utility.yul\":3311:3365   */\n      tag_428\n        /* \"#utility.yul\":3358:3364   */\n      dup5\n        /* \"#utility.yul\":3353:3356   */\n      dup3\n        /* \"#utility.yul\":3348:3351   */\n      dup6\n        /* \"#utility.yul\":3311:3365   */\n      tag_341\n      jump\t// in\n    tag_428:\n        /* \"#utility.yul\":3030:3371   */\n      pop\n        /* \"#utility.yul\":2946:3371   */\n      swap4\n      swap3\n      pop\n      pop\n      pop\n      jump\t// out\n        /* \"#utility.yul\":3391:3731   */\n    tag_343:\n        /* \"#utility.yul\":3447:3452   */\n      0x00\n        /* \"#utility.yul\":3496:3499   */\n      dup3\n        /* \"#utility.yul\":3489:3493   */\n      0x1f\n        /* \"#utility.yul\":3481:3487   */\n      dup4\n        /* \"#utility.yul\":3477:3494   */\n      add\n        /* \"#utility.yul\":3473:3500   */\n      slt\n        /* \"#utility.yul\":3463:3585   */\n      tag_430\n      jumpi\n        /* \"#utility.yul\":3504:3583   */\n      tag_431\n      tag_335\n      jump\t// in\n    tag_431:\n        /* \"#utility.yul\":3463:3585   */\n    tag_430:\n        /* \"#utility.yul\":3621:3627   */\n      dup2\n        /* \"#utility.yul\":3608:3628   */\n      calldataload\n        /* \"#utility.yul\":3646:3725   */\n      tag_432\n        /* \"#utility.yul\":3721:3724   */\n      dup5\n        /* \"#utility.yul\":3713:3719   */\n      dup3\n        /* \"#utility.yul\":3706:3710   */\n      0x20\n        /* \"#utility.yul\":3698:3704   */\n      dup7\n        /* \"#utility.yul\":3694:3711   */\n      add\n        /* \"#utility.yul\":3646:3725   */\n      tag_342\n      jump\t// in\n    tag_432:\n        /* \"#utility.yul\":3637:3725   */\n      swap2\n      pop\n        /* \"#utility.yul\":3453:3731   */\n      pop\n        /* \"#utility.yul\":3391:3731   */\n      swap3\n      swap2\n      pop\n      pop\n      jump\t// out\n        /* \"#utility.yul\":3737:4246   */\n    tag_32:\n        /* \"#utility.yul\":3806:3812   */\n      0x00\n        /* \"#utility.yul\":3855:3857   */\n      0x20\n        /* \"#utility.yul\":3843:3852   */\n      dup3\n        /* \"#utility.yul\":3834:3841   */\n      dup5\n        /* \"#utility.yul\":3830:3853   */\n      sub\n        /* \"#utility.yul\":3826:3858   */\n      slt\n        /* \"#utility.yul\":3823:3942   */\n      iszero\n      tag_434\n      jumpi\n        /* \"#utility.yul\":3861:3940   */\n      tag_435\n      tag_328\n      jump\t// in\n    tag_435:\n        /* \"#utility.yul\":3823:3942   */\n    tag_434:\n        /* \"#utility.yul\":4009:4010   */\n      0x00\n        /* \"#utility.yul\":3998:4007   */\n      dup3\n        /* \"#utility.yul\":3994:4011   */\n      add\n        /* \"#utility.yul\":3981:4012   */\n      calldataload\n        /* \"#utility.yul\":4039:4057   */\n      0xffffffffffffffff\n        /* \"#utility.yul\":4031:4037   */\n      dup2\n        /* \"#utility.yul\":4028:4058   */\n      gt\n        /* \"#utility.yul\":4025:4142   */\n      iszero\n      tag_436\n      jumpi\n        /* \"#utility.yul\":4061:4140   */\n      tag_437\n      tag_329\n      jump\t// in\n    tag_437:\n        /* \"#utility.yul\":4025:4142   */\n    tag_436:\n        /* \"#utility.yul\":4166:4229   */\n      tag_438\n        /* \"#utility.yul\":4221:4228   */\n      dup5\n        /* \"#utility.yul\":4212:4218   */\n      dup3\n        /* \"#utility.yul\":4201:4210   */\n      dup6\n        /* \"#utility.yul\":4197:4219   */\n      add\n        /* \"#utility.yul\":4166:4229   */\n      tag_343\n      jump\t// in\n    tag_438:\n        /* \"#utility.yul\":4156:4229   */\n      swap2\n      pop\n        /* \"#utility.yul\":3952:4239   */\n      pop\n        /* \"#utility.yul\":3737:4246   */\n      swap3\n      swap2\n      pop\n      pop\n      jump\t// out\n        /* \"#utility.yul\":4252:4351   */\n    tag_344:\n        /* \"#utility.yul\":4304:4310   */\n      0x00\n        /* \"#utility.yul\":4338:4343   */\n      dup2\n        /* \"#utility.yul\":4332:4344   */\n      mload\n        /* \"#utility.yul\":4322:4344   */\n      swap1\n      pop\n        /* \"#utility.yul\":4252:4351   */\n      swap2\n      swap1\n      pop\n      jump\t// out\n        /* \"#utility.yul\":4357:4526   */\n    tag_345:\n        /* \"#utility.yul\":4441:4452   */\n      0x00\n        /* \"#utility.yul\":4475:4481   */\n      dup3\n        /* \"#utility.yul\":4470:4473   */\n      dup3\n        /* \"#utility.yul\":4463:4482   */\n      mstore\n        /* \"#utility.yul\":4515:4519   */\n      0x20\n        /* \"#utility.yul\":4510:4513   */\n      dup3\n        /* \"#utility.yul\":4506:4520   */\n      add\n        /* \"#utility.yul\":4491:4520   */\n      swap1\n      pop\n        /* \"#utility.yul\":4357:4526   */\n      swap3\n      swap2\n      pop\n      pop\n      jump\t// out\n        /* \"#utility.yul\":4532:4778   */\n    tag_346:\n        /* \"#utility.yul\":4613:4614   */\n      0x00\n        /* \"#utility.yul\":4623:4736   */\n    tag_442:\n        /* \"#utility.yul\":4637:4643   */\n      dup4\n        /* \"#utility.yul\":4634:4635   */\n      dup2\n        /* \"#utility.yul\":4631:4644   */\n      lt\n        /* \"#utility.yul\":4623:4736   */\n      iszero\n      tag_444\n      jumpi\n        /* \"#utility.yul\":4722:4723   */\n      dup1\n        /* \"#utility.yul\":4717:4720   */\n      dup3\n        /* \"#utility.yul\":4713:4724   */\n      add\n        /* \"#utility.yul\":4707:4725   */\n      mload\n        /* \"#utility.yul\":4703:4704   */\n      dup2\n        /* \"#utility.yul\":4698:4701   */\n      dup5\n        /* \"#utility.yul\":4694:4705   */\n      add\n        /* \"#utility.yul\":4687:4726   */\n      mstore\n        /* \"#utility.yul\":4659:4661   */\n      0x20\n        /* \"#utility.yul\":4656:4657   */\n      dup2\n        /* \"#utility.yul\":4652:4662   */\n      add\n        /* \"#utility.yul\":4647:4662   */\n      swap1\n      pop\n        /* \"#utility.yul\":4623:4736   */\n      jump(tag_442)\n    tag_444:\n        /* \"#utility.yul\":4770:4771   */\n      0x00\n        /* \"#utility.yul\":4761:4767   */\n      dup5\n        /* \"#utility.yul\":4756:4759   */\n      dup5\n        /* \"#utility.yul\":4752:4768   */\n      add\n        /* \"#utility.yul\":4745:4772   */\n      mstore\n        /* \"#utility.yul\":4594:4778   */\n      pop\n        /* \"#utility.yul\":4532:4778   */\n      pop\n      pop\n      pop\n      jump\t// out\n        /* \"#utility.yul\":4784:5161   */\n    tag_347:\n        /* \"#utility.yul\":4872:4875   */\n      0x00\n        /* \"#utility.yul\":4900:4939   */\n      tag_446\n        /* \"#utility.yul\":4933:4938   */\n      dup3\n        /* \"#utility.yul\":4900:4939   */\n      tag_344\n      jump\t// in\n    tag_446:\n        /* \"#utility.yul\":4955:5026   */\n      tag_447\n        /* \"#utility.yul\":5019:5025   */\n      dup2\n        /* \"#utility.yul\":5014:5017   */\n      dup6\n        /* \"#utility.yul\":4955:5026   */\n      tag_345\n      jump\t// in\n    tag_447:\n        /* \"#utility.yul\":4948:5026   */\n      swap4\n      pop\n        /* \"#utility.yul\":5035:5100   */\n      tag_448\n        /* \"#utility.yul\":5093:5099   */\n      dup2\n        /* \"#utility.yul\":5088:5091   */\n      dup6\n        /* \"#utility.yul\":5081:5085   */\n      0x20\n        /* \"#utility.yul\":5074:5079   */\n      dup7\n        /* \"#utility.yul\":5070:5086   */\n      add\n        /* \"#utility.yul\":5035:5100   */\n      tag_346\n      jump\t// in\n    tag_448:\n        /* \"#utility.yul\":5125:5154   */\n      tag_449\n        /* \"#utility.yul\":5147:5153   */\n      dup2\n        /* \"#utility.yul\":5125:5154   */\n      tag_337\n      jump\t// in\n    tag_449:\n        /* \"#utility.yul\":5120:5123   */\n      dup5\n        /* \"#utility.yul\":5116:5155   */\n      add\n        /* \"#utility.yul\":5109:5155   */\n      swap2\n      pop\n        /* \"#utility.yul\":4876:5161   */\n      pop\n        /* \"#utility.yul\":4784:5161   */\n      swap3\n      swap2\n      pop\n      pop\n      jump\t// out\n        /* \"#utility.yul\":5167:5480   */\n    tag_35:\n        /* \"#utility.yul\":5280:5284   */\n      0x00\n        /* \"#utility.yul\":5318:5320   */\n      0x20\n        /* \"#utility.yul\":5307:5316   */\n      dup3\n        /* \"#utility.yul\":5303:5321   */\n      add\n        /* \"#utility.yul\":5295:5321   */\n      swap1\n      pop\n        /* \"#utility.yul\":5367:5376   */\n      dup2\n        /* \"#utility.yul\":5361:5365   */\n      dup2\n        /* \"#utility.yul\":5357:5377   */\n      sub\n        /* \"#utility.yul\":5353:5354   */\n      0x00\n        /* \"#utility.yul\":5342:5351   */\n      dup4\n        /* \"#utility.yul\":5338:5355   */\n      add\n        /* \"#utility.yul\":5331:5378   */\n      mstore\n        /* \"#utility.yul\":5395:5473   */\n      tag_451\n        /* \"#utility.yul\":5468:5472   */\n      dup2\n        /* \"#utility.yul\":5459:5465   */\n      dup5\n        /* \"#utility.yul\":5395:5473   */\n      tag_347\n      jump\t// in\n    tag_451:\n        /* \"#utility.yul\":5387:5473   */\n      swap1\n      pop\n        /* \"#utility.yul\":5167:5480   */\n      swap3\n      swap2\n      pop\n      pop\n      jump\t// out\n        /* \"#utility.yul\":5486:5563   */\n    tag_348:\n        /* \"#utility.yul\":5523:5530   */\n      0x00\n        /* \"#utility.yul\":5552:5557   */\n      dup2\n        /* \"#utility.yul\":5541:5557   */\n      swap1\n      pop\n        /* \"#utility.yul\":5486:5563   */\n      swap2\n      swap1\n      pop\n      jump\t// out\n        /* \"#utility.yul\":5569:5691   */\n    tag_349:\n        /* \"#utility.yul\":5642:5666   */\n      tag_454\n        /* \"#utility.yul\":5660:5665   */\n      dup2\n        /* \"#utility.yul\":5642:5666   */\n      tag_348\n      jump\t// in\n    tag_454:\n        /* \"#utility.yul\":5635:5640   */\n      dup2\n        /* \"#utility.yul\":5632:5667   */\n      eq\n        /* \"#utility.yul\":5622:5685   */\n      tag_455\n      jumpi\n        /* \"#utility.yul\":5681:5682   */\n      0x00\n        /* \"#utility.yul\":5678:5679   */\n      dup1\n        /* \"#utility.yul\":5671:5683   */\n      revert\n        /* \"#utility.yul\":5622:5685   */\n    tag_455:\n        /* \"#utility.yul\":5569:5691   */\n      pop\n      jump\t// out\n        /* \"#utility.yul\":5697:5836   */\n    tag_350:\n        /* \"#utility.yul\":5743:5748   */\n      0x00\n        /* \"#utility.yul\":5781:5787   */\n      dup2\n        /* \"#utility.yul\":5768:5788   */\n      calldataload\n        /* \"#utility.yul\":5759:5788   */\n      swap1\n      pop\n        /* \"#utility.yul\":5797:5830   */\n      tag_457\n        /* \"#utility.yul\":5824:5829   */\n      dup2\n        /* \"#utility.yul\":5797:5830   */\n      tag_349\n      jump\t// in\n    tag_457:\n        /* \"#utility.yul\":5697:5836   */\n      swap3\n      swap2\n      pop\n      pop\n      jump\t// out\n        /* \"#utility.yul\":5842:6171   */\n    tag_41:\n        /* \"#utility.yul\":5901:5907   */\n      0x00\n        /* \"#utility.yul\":5950:5952   */\n      0x20\n        /* \"#utility.yul\":5938:5947   */\n      dup3\n        /* \"#utility.yul\":5929:5936   */\n      dup5\n        /* \"#utility.yul\":5925:5948   */\n      sub\n        /* \"#utility.yul\":5921:5953   */\n      slt\n        /* \"#utility.yul\":5918:6037   */\n      iszero\n      tag_459\n      jumpi\n        /* \"#utility.yul\":5956:6035   */\n      tag_460\n      tag_328\n      jump\t// in\n    tag_460:\n        /* \"#utility.yul\":5918:6037   */\n    tag_459:\n        /* \"#utility.yul\":6076:6077   */\n      0x00\n        /* \"#utility.yul\":6101:6154   */\n      tag_461\n        /* \"#utility.yul\":6146:6153   */\n      dup5\n        /* \"#utility.yul\":6137:6143   */\n      dup3\n        /* \"#utility.yul\":6126:6135   */\n      dup6\n        /* \"#utility.yul\":6122:6144   */\n      add\n        /* \"#utility.yul\":6101:6154   */\n      tag_350\n      jump\t// in\n    tag_461:\n        /* \"#utility.yul\":6091:6154   */\n      swap2\n      pop\n        /* \"#utility.yul\":6047:6164   */\n      pop\n        /* \"#utility.yul\":5842:6171   */\n      swap3\n      swap2\n      pop\n      pop\n      jump\t// out\n        /* \"#utility.yul\":6177:6303   */\n    tag_351:\n        /* \"#utility.yul\":6214:6221   */\n      0x00\n        /* \"#utility.yul\":6254:6296   */\n      0xffffffffffffffffffffffffffffffffffffffff\n        /* \"#utility.yul\":6247:6252   */\n      dup3\n        /* \"#utility.yul\":6243:6297   */\n      and\n        /* \"#utility.yul\":6232:6297   */\n      swap1\n      pop\n        /* \"#utility.yul\":6177:6303   */\n      swap2\n      swap1\n      pop\n      jump\t// out\n        /* \"#utility.yul\":6309:6405   */\n    tag_352:\n        /* \"#utility.yul\":6346:6353   */\n      0x00\n        /* \"#utility.yul\":6375:6399   */\n      tag_464\n        /* \"#utility.yul\":6393:6398   */\n      dup3\n        /* \"#utility.yul\":6375:6399   */\n      tag_351\n      jump\t// in\n    tag_464:\n        /* \"#utility.yul\":6364:6399   */\n      swap1\n      pop\n        /* \"#utility.yul\":6309:6405   */\n      swap2\n      swap1\n      pop\n      jump\t// out\n        /* \"#utility.yul\":6411:6529   */\n    tag_353:\n        /* \"#utility.yul\":6498:6522   */\n      tag_466\n        /* \"#utility.yul\":6516:6521   */\n      dup2\n        /* \"#utility.yul\":6498:6522   */\n      tag_352\n      jump\t// in\n    tag_466:\n        /* \"#utility.yul\":6493:6496   */\n      dup3\n        /* \"#utility.yul\":6486:6523   */\n      mstore\n        /* \"#utility.yul\":6411:6529   */\n      pop\n      pop\n      jump\t// out\n        /* \"#utility.yul\":6535:6757   */\n    tag_44:\n        /* \"#utility.yul\":6628:6632   */\n      0x00\n        /* \"#utility.yul\":6666:6668   */\n      0x20\n        /* \"#utility.yul\":6655:6664   */\n      dup3\n        /* \"#utility.yul\":6651:6669   */\n      add\n        /* \"#utility.yul\":6643:6669   */\n      swap1\n      pop\n        /* \"#utility.yul\":6679:6750   */\n      tag_468\n        /* \"#utility.yul\":6747:6748   */\n      0x00\n        /* \"#utility.yul\":6736:6745   */\n      dup4\n        /* \"#utility.yul\":6732:6749   */\n      add\n        /* \"#utility.yul\":6723:6729   */\n      dup5\n        /* \"#utility.yul\":6679:6750   */\n      tag_353\n      jump\t// in\n    tag_468:\n        /* \"#utility.yul\":6535:6757   */\n      swap3\n      swap2\n      pop\n      pop\n      jump\t// out\n        /* \"#utility.yul\":6763:6885   */\n    tag_354:\n        /* \"#utility.yul\":6836:6860   */\n      tag_470\n        /* \"#utility.yul\":6854:6859   */\n      dup2\n        /* \"#utility.yul\":6836:6860   */\n      tag_352\n      jump\t// in\n    tag_470:\n        /* \"#utility.yul\":6829:6834   */\n      dup2\n        /* \"#utility.yul\":6826:6861   */\n      eq\n        /* \"#utility.yul\":6816:6879   */\n      tag_471\n      jumpi\n        /* \"#utility.yul\":6875:6876   */\n      0x00\n        /* \"#utility.yul\":6872:6873   */\n      dup1\n        /* \"#utility.yul\":6865:6877   */\n      revert\n        /* \"#utility.yul\":6816:6879   */\n    tag_471:\n        /* \"#utility.yul\":6763:6885   */\n      pop\n      jump\t// out\n        /* \"#utility.yul\":6891:7030   */\n    tag_355:\n        /* \"#utility.yul\":6937:6942   */\n      0x00\n        /* \"#utility.yul\":6975:6981   */\n      dup2\n        /* \"#utility.yul\":6962:6982   */\n      calldataload\n        /* \"#utility.yul\":6953:6982   */\n      swap1\n      pop\n        /* \"#utility.yul\":6991:7024   */\n      tag_473\n        /* \"#utility.yul\":7018:7023   */\n      dup2\n        /* \"#utility.yul\":6991:7024   */\n      tag_354\n      jump\t// in\n    tag_473:\n        /* \"#utility.yul\":6891:7030   */\n      swap3\n      swap2\n      pop\n      pop\n      jump\t// out\n        /* \"#utility.yul\":7036:7510   */\n    tag_47:\n        /* \"#utility.yul\":7104:7110   */\n      0x00\n        /* \"#utility.yul\":7112:7118   */\n      dup1\n        /* \"#utility.yul\":7161:7163   */\n      0x40\n        /* \"#utility.yul\":7149:7158   */\n      dup4\n        /* \"#utility.yul\":7140:7147   */\n      dup6\n        /* \"#utility.yul\":7136:7159   */\n      sub\n        /* \"#utility.yul\":7132:7164   */\n      slt\n        /* \"#utility.yul\":7129:7248   */\n      iszero\n      tag_475\n      jumpi\n        /* \"#utility.yul\":7167:7246   */\n      tag_476\n      tag_328\n      jump\t// in\n    tag_476:\n        /* \"#utility.yul\":7129:7248   */\n    tag_475:\n        /* \"#utility.yul\":7287:7288   */\n      0x00\n        /* \"#utility.yul\":7312:7365   */\n      tag_477\n        /* \"#utility.yul\":7357:7364   */\n      dup6\n        /* \"#utility.yul\":7348:7354   */\n      dup3\n        /* \"#utility.yul\":7337:7346   */\n      dup7\n        /* \"#utility.yul\":7333:7355   */\n      add\n        /* \"#utility.yul\":7312:7365   */\n      tag_355\n      jump\t// in\n    tag_477:\n        /* \"#utility.yul\":7302:7365   */\n      swap3\n      pop\n        /* \"#utility.yul\":7258:7375   */\n      pop\n        /* \"#utility.yul\":7414:7416   */\n      0x20\n        /* \"#utility.yul\":7440:7493   */\n      tag_478\n        /* \"#utility.yul\":7485:7492   */\n      dup6\n        /* \"#utility.yul\":7476:7482   */\n      dup3\n        /* \"#utility.yul\":7465:7474   */\n      dup7\n        /* \"#utility.yul\":7461:7483   */\n      add\n        /* \"#utility.yul\":7440:7493   */\n      tag_350\n      jump\t// in\n    tag_478:\n        /* \"#utility.yul\":7430:7493   */\n      swap2\n      pop\n        /* \"#utility.yul\":7385:7503   */\n      pop\n        /* \"#utility.yul\":7036:7510   */\n      swap3\n      pop\n      swap3\n      swap1\n      pop\n      jump\t// out\n        /* \"#utility.yul\":7516:7634   */\n    tag_356:\n        /* \"#utility.yul\":7603:7627   */\n      tag_480\n        /* \"#utility.yul\":7621:7626   */\n      dup2\n        /* \"#utility.yul\":7603:7627   */\n      tag_348\n      jump\t// in\n    tag_480:\n        /* \"#utility.yul\":7598:7601   */\n      dup3\n        /* \"#utility.yul\":7591:7628   */\n      mstore\n        /* \"#utility.yul\":7516:7634   */\n      pop\n      pop\n      jump\t// out\n        /* \"#utility.yul\":7640:7862   */\n    tag_52:\n        /* \"#utility.yul\":7733:7737   */\n      0x00\n        /* \"#utility.yul\":7771:7773   */\n      0x20\n        /* \"#utility.yul\":7760:7769   */\n      dup3\n        /* \"#utility.yul\":7756:7774   */\n      add\n        /* \"#utility.yul\":7748:7774   */\n      swap1\n      pop\n        /* \"#utility.yul\":7784:7855   */\n      tag_482\n        /* \"#utility.yul\":7852:7853   */\n      0x00\n        /* \"#utility.yul\":7841:7850   */\n      dup4\n        /* \"#utility.yul\":7837:7854   */\n      add\n        /* \"#utility.yul\":7828:7834   */\n      dup5\n        /* \"#utility.yul\":7784:7855   */\n      tag_356\n      jump\t// in\n    tag_482:\n        /* \"#utility.yul\":7640:7862   */\n      swap3\n      swap2\n      pop\n      pop\n      jump\t// out\n        /* \"#utility.yul\":7868:8487   */\n    tag_58:\n        /* \"#utility.yul\":7945:7951   */\n      0x00\n        /* \"#utility.yul\":7953:7959   */\n      dup1\n        /* \"#utility.yul\":7961:7967   */\n      0x00\n        /* \"#utility.yul\":8010:8012   */\n      0x60\n        /* \"#utility.yul\":7998:8007   */\n      dup5\n        /* \"#utility.yul\":7989:7996   */\n      dup7\n        /* \"#utility.yul\":7985:8008   */\n      sub\n        /* \"#utility.yul\":7981:8013   */\n      slt\n        /* \"#utility.yul\":7978:8097   */\n      iszero\n      tag_484\n      jumpi\n        /* \"#utility.yul\":8016:8095   */\n      tag_485\n      tag_328\n      jump\t// in\n    tag_485:\n        /* \"#utility.yul\":7978:8097   */\n    tag_484:\n        /* \"#utility.yul\":8136:8137   */\n      0x00\n        /* \"#utility.yul\":8161:8214   */\n      tag_486\n        /* \"#utility.yul\":8206:8213   */\n      dup7\n        /* \"#utility.yul\":8197:8203   */\n      dup3\n        /* \"#utility.yul\":8186:8195   */\n      dup8\n        /* \"#utility.yul\":8182:8204   */\n      add\n        /* \"#utility.yul\":8161:8214   */\n      tag_355\n      jump\t// in\n    tag_486:\n        /* \"#utility.yul\":8151:8214   */\n      swap4\n      pop\n        /* \"#utility.yul\":8107:8224   */\n      pop\n        /* \"#utility.yul\":8263:8265   */\n      0x20\n        /* \"#utility.yul\":8289:8342   */\n      tag_487\n        /* \"#utility.yul\":8334:8341   */\n      dup7\n        /* \"#utility.yul\":8325:8331   */\n      dup3\n        /* \"#utility.yul\":8314:8323   */\n      dup8\n        /* \"#utility.yul\":8310:8332   */\n      add\n        /* \"#utility.yul\":8289:8342   */\n      tag_355\n      jump\t// in\n    tag_487:\n        /* \"#utility.yul\":8279:8342   */\n      swap3\n      pop\n        /* \"#utility.yul\":8234:8352   */\n      pop\n        /* \"#utility.yul\":8391:8393   */\n      0x40\n        /* \"#utility.yul\":8417:8470   */\n      tag_488\n        /* \"#utility.yul\":8462:8469   */\n      dup7\n        /* \"#utility.yul\":8453:8459   */\n      dup3\n        /* \"#utility.yul\":8442:8451   */\n      dup8\n        /* \"#utility.yul\":8438:8460   */\n      add\n        /* \"#utility.yul\":8417:8470   */\n      tag_350\n      jump\t// in\n    tag_488:\n        /* \"#utility.yul\":8407:8470   */\n      swap2\n      pop\n        /* \"#utility.yul\":8362:8480   */\n      pop\n        /* \"#utility.yul\":7868:8487   */\n      swap3\n      pop\n      swap3\n      pop\n      swap3\n      jump\t// out\n        /* \"#utility.yul\":8493:8822   */\n    tag_72:\n        /* \"#utility.yul\":8552:8558   */\n      0x00\n        /* \"#utility.yul\":8601:8603   */\n      0x20\n        /* \"#utility.yul\":8589:8598   */\n      dup3\n        /* \"#utility.yul\":8580:8587   */\n      dup5\n        /* \"#utility.yul\":8576:8599   */\n      sub\n        /* \"#utility.yul\":8572:8604   */\n      slt\n        /* \"#utility.yul\":8569:8688   */\n      iszero\n      tag_490\n      jumpi\n        /* \"#utility.yul\":8607:8686   */\n      tag_491\n      tag_328\n      jump\t// in\n    tag_491:\n        /* \"#utility.yul\":8569:8688   */\n    tag_490:\n        /* \"#utility.yul\":8727:8728   */\n      0x00\n        /* \"#utility.yul\":8752:8805   */\n      tag_492\n        /* \"#utility.yul\":8797:8804   */\n      dup5\n        /* \"#utility.yul\":8788:8794   */\n      dup3\n        /* \"#utility.yul\":8777:8786   */\n      dup6\n        /* \"#utility.yul\":8773:8795   */\n      add\n        /* \"#utility.yul\":8752:8805   */\n      tag_355\n      jump\t// in\n    tag_492:\n        /* \"#utility.yul\":8742:8805   */\n      swap2\n      pop\n        /* \"#utility.yul\":8698:8815   */\n      pop\n        /* \"#utility.yul\":8493:8822   */\n      swap3\n      swap2\n      pop\n      pop\n      jump\t// out\n        /* \"#utility.yul\":8828:8944   */\n    tag_357:\n        /* \"#utility.yul\":8898:8919   */\n      tag_494\n        /* \"#utility.yul\":8913:8918   */\n      dup2\n        /* \"#utility.yul\":8898:8919   */\n      tag_333\n      jump\t// in\n    tag_494:\n        /* \"#utility.yul\":8891:8896   */\n      dup2\n        /* \"#utility.yul\":8888:8920   */\n      eq\n        /* \"#utility.yul\":8878:8938   */\n      tag_495\n      jumpi\n        /* \"#utility.yul\":8934:8935   */\n      0x00\n        /* \"#utility.yul\":8931:8932   */\n      dup1\n        /* \"#utility.yul\":8924:8936   */\n      revert\n        /* \"#utility.yul\":8878:8938   */\n    tag_495:\n        /* \"#utility.yul\":8828:8944   */\n      pop\n      jump\t// out\n        /* \"#utility.yul\":8950:9083   */\n    tag_358:\n        /* \"#utility.yul\":8993:8998   */\n      0x00\n        /* \"#utility.yul\":9031:9037   */\n      dup2\n        /* \"#utility.yul\":9018:9038   */\n      calldataload\n        /* \"#utility.yul\":9009:9038   */\n      swap1\n      pop\n        /* \"#utility.yul\":9047:9077   */\n      tag_497\n        /* \"#utility.yul\":9071:9076   */\n      dup2\n        /* \"#utility.yul\":9047:9077   */\n      tag_357\n      jump\t// in\n    tag_497:\n        /* \"#utility.yul\":8950:9083   */\n      swap3\n      swap2\n      pop\n      pop\n      jump\t// out\n        /* \"#utility.yul\":9089:9557   */\n    tag_83:\n        /* \"#utility.yul\":9154:9160   */\n      0x00\n        /* \"#utility.yul\":9162:9168   */\n      dup1\n        /* \"#utility.yul\":9211:9213   */\n      0x40\n        /* \"#utility.yul\":9199:9208   */\n      dup4\n        /* \"#utility.yul\":9190:9197   */\n      dup6\n        /* \"#utility.yul\":9186:9209   */\n      sub\n        /* \"#utility.yul\":9182:9214   */\n      slt\n        /* \"#utility.yul\":9179:9298   */\n      iszero\n      tag_499\n      jumpi\n        /* \"#utility.yul\":9217:9296   */\n      tag_500\n      tag_328\n      jump\t// in\n    tag_500:\n        /* \"#utility.yul\":9179:9298   */\n    tag_499:\n        /* \"#utility.yul\":9337:9338   */\n      0x00\n        /* \"#utility.yul\":9362:9415   */\n      tag_501\n        /* \"#utility.yul\":9407:9414   */\n      dup6\n        /* \"#utility.yul\":9398:9404   */\n      dup3\n        /* \"#utility.yul\":9387:9396   */\n      dup7\n        /* \"#utility.yul\":9383:9405   */\n      add\n        /* \"#utility.yul\":9362:9415   */\n      tag_355\n      jump\t// in\n    tag_501:\n        /* \"#utility.yul\":9352:9415   */\n      swap3\n      pop\n        /* \"#utility.yul\":9308:9425   */\n      pop\n        /* \"#utility.yul\":9464:9466   */\n      0x20\n        /* \"#utility.yul\":9490:9540   */\n      tag_502\n        /* \"#utility.yul\":9532:9539   */\n      dup6\n        /* \"#utility.yul\":9523:9529   */\n      dup3\n        /* \"#utility.yul\":9512:9521   */\n      dup7\n        /* \"#utility.yul\":9508:9530   */\n      add\n        /* \"#utility.yul\":9490:9540   */\n      tag_358\n      jump\t// in\n    tag_502:\n        /* \"#utility.yul\":9480:9540   */\n      swap2\n      pop\n        /* \"#utility.yul\":9435:9550   */\n      pop\n        /* \"#utility.yul\":9089:9557   */\n      swap3\n      pop\n      swap3\n      swap1\n      pop\n      jump\t// out\n        /* \"#utility.yul\":9563:9870   */\n    tag_359:\n        /* \"#utility.yul\":9624:9628   */\n      0x00\n        /* \"#utility.yul\":9714:9732   */\n      0xffffffffffffffff\n        /* \"#utility.yul\":9706:9712   */\n      dup3\n        /* \"#utility.yul\":9703:9733   */\n      gt\n        /* \"#utility.yul\":9700:9756   */\n      iszero\n      tag_504\n      jumpi\n        /* \"#utility.yul\":9736:9754   */\n      tag_505\n      tag_225\n      jump\t// in\n    tag_505:\n        /* \"#utility.yul\":9700:9756   */\n    tag_504:\n        /* \"#utility.yul\":9774:9803   */\n      tag_506\n        /* \"#utility.yul\":9796:9802   */\n      dup3\n        /* \"#utility.yul\":9774:9803   */\n      tag_337\n      jump\t// in\n    tag_506:\n        /* \"#utility.yul\":9766:9803   */\n      swap1\n      pop\n        /* \"#utility.yul\":9858:9862   */\n      0x20\n        /* \"#utility.yul\":9852:9856   */\n      dup2\n        /* \"#utility.yul\":9848:9863   */\n      add\n        /* \"#utility.yul\":9840:9863   */\n      swap1\n      pop\n        /* \"#utility.yul\":9563:9870   */\n      swap2\n      swap1\n      pop\n      jump\t// out\n        /* \"#utility.yul\":9876:10299   */\n    tag_360:\n        /* \"#utility.yul\":9953:9958   */\n      0x00\n        /* \"#utility.yul\":9978:10043   */\n      tag_508\n        /* \"#utility.yul\":9994:10042   */\n      tag_509\n        /* \"#utility.yul\":10035:10041   */\n      dup5\n        /* \"#utility.yul\":9994:10042   */\n      tag_359\n      jump\t// in\n    tag_509:\n        /* \"#utility.yul\":9978:10043   */\n      tag_339\n      jump\t// in\n    tag_508:\n        /* \"#utility.yul\":9969:10043   */\n      swap1\n      pop\n        /* \"#utility.yul\":10066:10072   */\n      dup3\n        /* \"#utility.yul\":10059:10064   */\n      dup2\n        /* \"#utility.yul\":10052:10073   */\n      mstore\n        /* \"#utility.yul\":10104:10108   */\n      0x20\n        /* \"#utility.yul\":10097:10102   */\n      dup2\n        /* \"#utility.yul\":10093:10109   */\n      add\n        /* \"#utility.yul\":10142:10145   */\n      dup5\n        /* \"#utility.yul\":10133:10139   */\n      dup5\n        /* \"#utility.yul\":10128:10131   */\n      dup5\n        /* \"#utility.yul\":10124:10140   */\n      add\n        /* \"#utility.yul\":10121:10146   */\n      gt\n        /* \"#utility.yul\":10118:10230   */\n      iszero\n      tag_510\n      jumpi\n        /* \"#utility.yul\":10149:10228   */\n      tag_511\n      tag_336\n      jump\t// in\n    tag_511:\n        /* \"#utility.yul\":10118:10230   */\n    tag_510:\n        /* \"#utility.yul\":10239:10293   */\n      tag_512\n        /* \"#utility.yul\":10286:10292   */\n      dup5\n        /* \"#utility.yul\":10281:10284   */\n      dup3\n        /* \"#utility.yul\":10276:10279   */\n      dup6\n        /* \"#utility.yul\":10239:10293   */\n      tag_341\n      jump\t// in\n    tag_512:\n        /* \"#utility.yul\":9959:10299   */\n      pop\n        /* \"#utility.yul\":9876:10299   */\n      swap4\n      swap3\n      pop\n      pop\n      pop\n      jump\t// out\n        /* \"#utility.yul\":10318:10656   */\n    tag_361:\n        /* \"#utility.yul\":10373:10378   */\n      0x00\n        /* \"#utility.yul\":10422:10425   */\n      dup3\n        /* \"#utility.yul\":10415:10419   */\n      0x1f\n        /* \"#utility.yul\":10407:10413   */\n      dup4\n        /* \"#utility.yul\":10403:10420   */\n      add\n        /* \"#utility.yul\":10399:10426   */\n      slt\n        /* \"#utility.yul\":10389:10511   */\n      tag_514\n      jumpi\n        /* \"#utility.yul\":10430:10509   */\n      tag_515\n      tag_335\n      jump\t// in\n    tag_515:\n        /* \"#utility.yul\":10389:10511   */\n    tag_514:\n        /* \"#utility.yul\":10547:10553   */\n      dup2\n        /* \"#utility.yul\":10534:10554   */\n      calldataload\n        /* \"#utility.yul\":10572:10650   */\n      tag_516\n        /* \"#utility.yul\":10646:10649   */\n      dup5\n        /* \"#utility.yul\":10638:10644   */\n      dup3\n        /* \"#utility.yul\":10631:10635   */\n      0x20\n        /* \"#utility.yul\":10623:10629   */\n      dup7\n        /* \"#utility.yul\":10619:10636   */\n      add\n        /* \"#utility.yul\":10572:10650   */\n      tag_360\n      jump\t// in\n    tag_516:\n        /* \"#utility.yul\":10563:10650   */\n      swap2\n      pop\n        /* \"#utility.yul\":10379:10656   */\n      pop\n        /* \"#utility.yul\":10318:10656   */\n      swap3\n      swap2\n      pop\n      pop\n      jump\t// out\n        /* \"#utility.yul\":10662:11605   */\n    tag_87:\n        /* \"#utility.yul\":10757:10763   */\n      0x00\n        /* \"#utility.yul\":10765:10771   */\n      dup1\n        /* \"#utility.yul\":10773:10779   */\n      0x00\n        /* \"#utility.yul\":10781:10787   */\n      dup1\n        /* \"#utility.yul\":10830:10833   */\n      0x80\n        /* \"#utility.yul\":10818:10827   */\n      dup6\n        /* \"#utility.yul\":10809:10816   */\n      dup8\n        /* \"#utility.yul\":10805:10828   */\n      sub\n        /* \"#utility.yul\":10801:10834   */\n      slt\n        /* \"#utility.yul\":10798:10918   */\n      iszero\n      tag_518\n      jumpi\n        /* \"#utility.yul\":10837:10916   */\n      tag_519\n      tag_328\n      jump\t// in\n    tag_519:\n        /* \"#utility.yul\":10798:10918   */\n    tag_518:\n        /* \"#utility.yul\":10957:10958   */\n      0x00\n        /* \"#utility.yul\":10982:11035   */\n      tag_520\n        /* \"#utility.yul\":11027:11034   */\n      dup8\n        /* \"#utility.yul\":11018:11024   */\n      dup3\n        /* \"#utility.yul\":11007:11016   */\n      dup9\n        /* \"#utility.yul\":11003:11025   */\n      add\n        /* \"#utility.yul\":10982:11035   */\n      tag_355\n      jump\t// in\n    tag_520:\n        /* \"#utility.yul\":10972:11035   */\n      swap5\n      pop\n        /* \"#utility.yul\":10928:11045   */\n      pop\n        /* \"#utility.yul\":11084:11086   */\n      0x20\n        /* \"#utility.yul\":11110:11163   */\n      tag_521\n        /* \"#utility.yul\":11155:11162   */\n      dup8\n        /* \"#utility.yul\":11146:11152   */\n      dup3\n        /* \"#utility.yul\":11135:11144   */\n      dup9\n        /* \"#utility.yul\":11131:11153   */\n      add\n        /* \"#utility.yul\":11110:11163   */\n      tag_355\n      jump\t// in\n    tag_521:\n        /* \"#utility.yul\":11100:11163   */\n      swap4\n      pop\n        /* \"#utility.yul\":11055:11173   */\n      pop\n        /* \"#utility.yul\":11212:11214   */\n      0x40\n        /* \"#utility.yul\":11238:11291   */\n      tag_522\n        /* \"#utility.yul\":11283:11290   */\n      dup8\n        /* \"#utility.yul\":11274:11280   */\n      dup3\n        /* \"#utility.yul\":11263:11272   */\n      dup9\n        /* \"#utility.yul\":11259:11281   */\n      add\n        /* \"#utility.yul\":11238:11291   */\n      tag_350\n      jump\t// in\n    tag_522:\n        /* \"#utility.yul\":11228:11291   */\n      swap3\n      pop\n        /* \"#utility.yul\":11183:11301   */\n      pop\n        /* \"#utility.yul\":11368:11370   */\n      0x60\n        /* \"#utility.yul\":11357:11366   */\n      dup6\n        /* \"#utility.yul\":11353:11371   */\n      add\n        /* \"#utility.yul\":11340:11372   */\n      calldataload\n        /* \"#utility.yul\":11399:11417   */\n      0xffffffffffffffff\n        /* \"#utility.yul\":11391:11397   */\n      dup2\n        /* \"#utility.yul\":11388:11418   */\n      gt\n        /* \"#utility.yul\":11385:11502   */\n      iszero\n      tag_523\n      jumpi\n        /* \"#utility.yul\":11421:11500   */\n      tag_524\n      tag_329\n      jump\t// in\n    tag_524:\n        /* \"#utility.yul\":11385:11502   */\n    tag_523:\n        /* \"#utility.yul\":11526:11588   */\n      tag_525\n        /* \"#utility.yul\":11580:11587   */\n      dup8\n        /* \"#utility.yul\":11571:11577   */\n      dup3\n        /* \"#utility.yul\":11560:11569   */\n      dup9\n        /* \"#utility.yul\":11556:11578   */\n      add\n        /* \"#utility.yul\":11526:11588   */\n      tag_361\n      jump\t// in\n    tag_525:\n        /* \"#utility.yul\":11516:11588   */\n      swap2\n      pop\n        /* \"#utility.yul\":11311:11598   */\n      pop\n        /* \"#utility.yul\":10662:11605   */\n      swap3\n      swap6\n      swap2\n      swap5\n      pop\n      swap3\n      pop\n      jump\t// out\n        /* \"#utility.yul\":11611:12085   */\n    tag_95:\n        /* \"#utility.yul\":11679:11685   */\n      0x00\n        /* \"#utility.yul\":11687:11693   */\n      dup1\n        /* \"#utility.yul\":11736:11738   */\n      0x40\n        /* \"#utility.yul\":11724:11733   */\n      dup4\n        /* \"#utility.yul\":11715:11722   */\n      dup6\n        /* \"#utility.yul\":11711:11734   */\n      sub\n        /* \"#utility.yul\":11707:11739   */\n      slt\n        /* \"#utility.yul\":11704:11823   */\n      iszero\n      tag_527\n      jumpi\n        /* \"#utility.yul\":11742:11821   */\n      tag_528\n      tag_328\n      jump\t// in\n    tag_528:\n        /* \"#utility.yul\":11704:11823   */\n    tag_527:\n        /* \"#utility.yul\":11862:11863   */\n      0x00\n        /* \"#utility.yul\":11887:11940   */\n      tag_529\n        /* \"#utility.yul\":11932:11939   */\n      dup6\n        /* \"#utility.yul\":11923:11929   */\n      dup3\n        /* \"#utility.yul\":11912:11921   */\n      dup7\n        /* \"#utility.yul\":11908:11930   */\n      add\n        /* \"#utility.yul\":11887:11940   */\n      tag_355\n      jump\t// in\n    tag_529:\n        /* \"#utility.yul\":11877:11940   */\n      swap3\n      pop\n        /* \"#utility.yul\":11833:11950   */\n      pop\n        /* \"#utility.yul\":11989:11991   */\n      0x20\n        /* \"#utility.yul\":12015:12068   */\n      tag_530\n        /* \"#utility.yul\":12060:12067   */\n      dup6\n        /* \"#utility.yul\":12051:12057   */\n      dup3\n        /* \"#utility.yul\":12040:12049   */\n      dup7\n        /* \"#utility.yul\":12036:12058   */\n      add\n        /* \"#utility.yul\":12015:12068   */\n      tag_355\n      jump\t// in\n    tag_530:\n        /* \"#utility.yul\":12005:12068   */\n      swap2\n      pop\n        /* \"#utility.yul\":11960:12078   */\n      pop\n        /* \"#utility.yul\":11611:12085   */\n      swap3\n      pop\n      swap3\n      swap1\n      pop\n      jump\t// out\n        /* \"#utility.yul\":12091:12271   */\n    tag_362:\n        /* \"#utility.yul\":12139:12216   */\n      0x4e487b7100000000000000000000000000000000000000000000000000000000\n        /* \"#utility.yul\":12136:12137   */\n      0x00\n        /* \"#utility.yul\":12129:12217   */\n      mstore\n        /* \"#utility.yul\":12236:12240   */\n      0x22\n        /* \"#utility.yul\":12233:12234   */\n      0x04\n        /* \"#utility.yul\":12226:12241   */\n      mstore\n        /* \"#utility.yul\":12260:12264   */\n      0x24\n        /* \"#utility.yul\":12257:12258   */\n      0x00\n        /* \"#utility.yul\":12250:12265   */\n      revert\n        /* \"#utility.yul\":12277:12597   */\n    tag_106:\n        /* \"#utility.yul\":12321:12327   */\n      0x00\n        /* \"#utility.yul\":12358:12359   */\n      0x02\n        /* \"#utility.yul\":12352:12356   */\n      dup3\n        /* \"#utility.yul\":12348:12360   */\n      div\n        /* \"#utility.yul\":12338:12360   */\n      swap1\n      pop\n        /* \"#utility.yul\":12405:12406   */\n      0x01\n        /* \"#utility.yul\":12399:12403   */\n      dup3\n        /* \"#utility.yul\":12395:12407   */\n      and\n        /* \"#utility.yul\":12426:12444   */\n      dup1\n        /* \"#utility.yul\":12416:12497   */\n      tag_533\n      jumpi\n        /* \"#utility.yul\":12482:12486   */\n      0x7f\n        /* \"#utility.yul\":12474:12480   */\n      dup3\n        /* \"#utility.yul\":12470:12487   */\n      and\n        /* \"#utility.yul\":12460:12487   */\n      swap2\n      pop\n        /* \"#utility.yul\":12416:12497   */\n    tag_533:\n        /* \"#utility.yul\":12544:12546   */\n      0x20\n        /* \"#utility.yul\":12536:12542   */\n      dup3\n        /* \"#utility.yul\":12533:12547   */\n      lt\n        /* \"#utility.yul\":12513:12531   */\n      dup2\n        /* \"#utility.yul\":12510:12548   */\n      sub\n        /* \"#utility.yul\":12507:12591   */\n      tag_534\n      jumpi\n        /* \"#utility.yul\":12563:12581   */\n      tag_535\n      tag_362\n      jump\t// in\n    tag_535:\n        /* \"#utility.yul\":12507:12591   */\n    tag_534:\n        /* \"#utility.yul\":12328:12597   */\n      pop\n        /* \"#utility.yul\":12277:12597   */\n      swap2\n      swap1\n      pop\n      jump\t// out\n        /* \"#utility.yul\":12603:12744   */\n    tag_363:\n        /* \"#utility.yul\":12652:12656   */\n      0x00\n        /* \"#utility.yul\":12675:12678   */\n      dup2\n        /* \"#utility.yul\":12667:12678   */\n      swap1\n      pop\n        /* \"#utility.yul\":12698:12701   */\n      dup2\n        /* \"#utility.yul\":12695:12696   */\n      0x00\n        /* \"#utility.yul\":12688:12702   */\n      mstore\n        /* \"#utility.yul\":12732:12736   */\n      0x20\n        /* \"#utility.yul\":12729:12730   */\n      0x00\n        /* \"#utility.yul\":12719:12737   */\n      keccak256\n        /* \"#utility.yul\":12711:12737   */\n      swap1\n      pop\n        /* \"#utility.yul\":12603:12744   */\n      swap2\n      swap1\n      pop\n      jump\t// out\n        /* \"#utility.yul\":12750:12843   */\n    tag_364:\n        /* \"#utility.yul\":12787:12793   */\n      0x00\n        /* \"#utility.yul\":12834:12836   */\n      0x20\n        /* \"#utility.yul\":12829:12831   */\n      0x1f\n        /* \"#utility.yul\":12822:12827   */\n      dup4\n        /* \"#utility.yul\":12818:12832   */\n      add\n        /* \"#utility.yul\":12814:12837   */\n      div\n        /* \"#utility.yul\":12804:12837   */\n      swap1\n      pop\n        /* \"#utility.yul\":12750:12843   */\n      swap2\n      swap1\n      pop\n      jump\t// out\n        /* \"#utility.yul\":12849:12956   */\n    tag_365:\n        /* \"#utility.yul\":12893:12901   */\n      0x00\n        /* \"#utility.yul\":12943:12948   */\n      dup3\n        /* \"#utility.yul\":12937:12941   */\n      dup3\n        /* \"#utility.yul\":12933:12949   */\n      shl\n        /* \"#utility.yul\":12912:12949   */\n      swap1\n      pop\n        /* \"#utility.yul\":12849:12956   */\n      swap3\n      swap2\n      pop\n      pop\n      jump\t// out\n        /* \"#utility.yul\":12962:13355   */\n    tag_366:\n        /* \"#utility.yul\":13031:13037   */\n      0x00\n        /* \"#utility.yul\":13081:13082   */\n      0x08\n        /* \"#utility.yul\":13069:13079   */\n      dup4\n        /* \"#utility.yul\":13065:13083   */\n      mul\n        /* \"#utility.yul\":13104:13201   */\n      tag_540\n        /* \"#utility.yul\":13134:13200   */\n      0xffffffffffffffffffffffffffffffffffffffffffffffffffffffffffffffff\n        /* \"#utility.yul\":13123:13132   */\n      dup3\n        /* \"#utility.yul\":13104:13201   */\n      tag_365\n      jump\t// in\n    tag_540:\n        /* \"#utility.yul\":13222:13261   */\n      tag_541\n        /* \"#utility.yul\":13252:13260   */\n      dup7\n        /* \"#utility.yul\":13241:13250   */\n      dup4\n        /* \"#utility.yul\":13222:13261   */\n      tag_365\n      jump\t// in\n    tag_541:\n        /* \"#utility.yul\":13210:13261   */\n      swap6\n      pop\n        /* \"#utility.yul\":13294:13298   */\n      dup1\n        /* \"#utility.yul\":13290:13299   */\n      not\n        /* \"#utility.yul\":13283:13288   */\n      dup5\n        /* \"#utility.yul\":13279:13300   */\n      and\n        /* \"#utility.yul\":13270:13300   */\n      swap4\n      pop\n        /* \"#utility.yul\":13343:13347   */\n      dup1\n        /* \"#utility.yul\":13333:13341   */\n      dup7\n        /* \"#utility.yul\":13329:13348   */\n      and\n        /* \"#utility.yul\":13322:13327   */\n      dup5\n        /* \"#utility.yul\":13319:13349   */\n      or\n        /* \"#utility.yul\":13309:13349   */\n      swap3\n      pop\n        /* \"#utility.yul\":13038:13355   */\n      pop\n      pop\n        /* \"#utility.yul\":12962:13355   */\n      swap4\n      swap3\n      pop\n      pop\n      pop\n      jump\t// out\n        /* \"#utility.yul\":13361:13421   */\n    tag_367:\n        /* \"#utility.yul\":13389:13392   */\n      0x00\n        /* \"#utility.yul\":13410:13415   */\n      dup2\n        /* \"#utility.yul\":13403:13415   */\n      swap1\n      pop\n        /* \"#utility.yul\":13361:13421   */\n      swap2\n      swap1\n      pop\n      jump\t// out\n        /* \"#utility.yul\":13427:13569   */\n    tag_368:\n        /* \"#utility.yul\":13477:13486   */\n      0x00\n        /* \"#utility.yul\":13510:13563   */\n      tag_544\n        /* \"#utility.yul\":13528:13562   */\n      tag_545\n        /* \"#utility.yul\":13537:13561   */\n      tag_546\n        /* \"#utility.yul\":13555:13560   */\n      dup5\n        /* \"#utility.yul\":13537:13561   */\n      tag_348\n      jump\t// in\n    tag_546:\n        /* \"#utility.yul\":13528:13562   */\n      tag_367\n      jump\t// in\n    tag_545:\n        /* \"#utility.yul\":13510:13563   */\n      tag_348\n      jump\t// in\n    tag_544:\n        /* \"#utility.yul\":13497:13563   */\n      swap1\n      pop\n        /* \"#utility.yul\":13427:13569   */\n      swap2\n      swap1\n      pop\n      jump\t// out\n        /* \"#utility.yul\":13575:13650   */\n    tag_369:\n        /* \"#utility.yul\":13618:13621   */\n      0x00\n        /* \"#utility.yul\":13639:13644   */\n      dup2\n        /* \"#utility.yul\":13632:13644   */\n      swap1\n      pop\n        /* \"#utility.yul\":13575:13650   */\n      swap2\n      swap1\n      pop\n      jump\t// out\n        /* \"#utility.yul\":13656:13925   */\n    tag_370:\n        /* \"#utility.yul\":13766:13805   */\n      tag_549\n        /* \"#utility.yul\":13797:13804   */\n      dup4\n        /* \"#utility.yul\":13766:13805   */\n      tag_368\n      jump\t// in\n    tag_549:\n        /* \"#utility.yul\":13827:13918   */\n      tag_550\n        /* \"#utility.yul\":13876:13917   */\n      tag_551\n        /* \"#utility.yul\":13900:13916   */\n      dup3\n        /* \"#utility.yul\":13876:13917   */\n      tag_369\n      jump\t// in\n    tag_551:\n        /* \"#utility.yul\":13868:13874   */\n      dup5\n        /* \"#utility.yul\":13861:13865   */\n      dup5\n        /* \"#utility.yul\":13855:13866   */\n      sload\n        /* \"#utility.yul\":13827:13918   */\n      tag_366\n      jump\t// in\n    tag_550:\n        /* \"#utility.yul\":13821:13825   */\n      dup3\n        /* \"#utility.yul\":13814:13919   */\n      sstore\n        /* \"#utility.yul\":13732:13925   */\n      pop\n        /* \"#utility.yul\":13656:13925   */\n      pop\n      pop\n      pop\n      jump\t// out\n        /* \"#utility.yul\":13931:14004   */\n    tag_371:\n        /* \"#utility.yul\":13976:13979   */\n      0x00\n        /* \"#utility.yul\":13931:14004   */\n      swap1\n      jump\t// out\n        /* \"#utility.yul\":14010:14199   */\n    tag_372:\n        /* \"#utility.yul\":14087:14119   */\n      tag_554\n      tag_371\n      jump\t// in\n    tag_554:\n        /* \"#utility.yul\":14128:14193   */\n      tag_555\n        /* \"#utility.yul\":14186:14192   */\n      dup2\n        /* \"#utility.yul\":14178:14184   */\n      dup5\n        /* \"#utility.yul\":14172:14176   */\n      dup5\n        /* \"#utility.yul\":14128:14193   */\n      tag_370\n      jump\t// in\n    tag_555:\n        /* \"#utility.yul\":14063:14199   */\n      pop\n        /* \"#utility.yul\":14010:14199   */\n      pop\n      pop\n      jump\t// out\n        /* \"#utility.yul\":14205:14391   */\n    tag_373:\n        /* \"#utility.yul\":14265:14385   */\n    tag_557:\n        /* \"#utility.yul\":14282:14285   */\n      dup2\n        /* \"#utility.yul\":14275:14280   */\n      dup2\n        /* \"#utility.yul\":14272:14286   */\n      lt\n        /* \"#utility.yul\":14265:14385   */\n      iszero\n      tag_559\n      jumpi\n        /* \"#utility.yul\":14336:14375   */\n      tag_560\n        /* \"#utility.yul\":14373:14374   */\n      0x00\n        /* \"#utility.yul\":14366:14371   */\n      dup3\n        /* \"#utility.yul\":14336:14375   */\n      tag_372\n      jump\t// in\n    tag_560:\n        /* \"#utility.yul\":14309:14310   */\n      0x01\n        /* \"#utility.yul\":14302:14307   */\n      dup2\n        /* \"#utility.yul\":14298:14311   */\n      add\n        /* \"#utility.yul\":14289:14311   */\n      swap1\n      pop\n        /* \"#utility.yul\":14265:14385   */\n      jump(tag_557)\n    tag_559:\n        /* \"#utility.yul\":14205:14391   */\n      pop\n      pop\n      jump\t// out\n        /* \"#utility.yul\":14397:14940   */\n    tag_374:\n        /* \"#utility.yul\":14498:14500   */\n      0x1f\n        /* \"#utility.yul\":14493:14496   */\n      dup3\n        /* \"#utility.yul\":14490:14501   */\n      gt\n        /* \"#utility.yul\":14487:14933   */\n      iszero\n      tag_562\n      jumpi\n        /* \"#utility.yul\":14532:14570   */\n      tag_563\n        /* \"#utility.yul\":14564:14569   */\n      dup2\n        /* \"#utility.yul\":14532:14570   */\n      tag_363\n      jump\t// in\n    tag_563:\n        /* \"#utility.yul\":14616:14645   */\n      tag_564\n        /* \"#utility.yul\":14634:14644   */\n      dup5\n        /* \"#utility.yul\":14616:14645   */\n      tag_364\n      jump\t// in\n    tag_564:\n        /* \"#utility.yul\":14606:14614   */\n      dup2\n        /* \"#utility.yul\":14602:14646   */\n      add\n        /* \"#utility.yul\":14799:14801   */\n      0x20\n        /* \"#utility.yul\":14787:14797   */\n      dup6\n        /* \"#utility.yul\":14784:14802   */\n      lt\n        /* \"#utility.yul\":14781:14830   */\n      iszero\n      tag_565\n      jumpi\n        /* \"#utility.yul\":14820:14828   */\n      dup2\n        /* \"#utility.yul\":14805:14828   */\n      swap1\n      pop\n        /* \"#utility.yul\":14781:14830   */\n    tag_565:\n        /* \"#utility.yul\":14843:14923   */\n      tag_566\n        /* \"#utility.yul\":14899:14921   */\n      tag_567\n        /* \"#utility.yul\":14917:14920   */\n      dup6\n        /* \"#utility.yul\":14899:14921   */\n      tag_364\n      jump\t// in\n    tag_567:\n        /* \"#utility.yul\":14889:14897   */\n      dup4\n        /* \"#utility.yul\":14885:14922   */\n      add\n        /* \"#utility.yul\":14872:14883   */\n      dup3\n        /* \"#utility.yul\":14843:14923   */\n      tag_373\n      jump\t// in\n    tag_566:\n        /* \"#utility.yul\":14502:14933   */\n      pop\n      pop\n        /* \"#utility.yul\":14487:14933   */\n    tag_562:\n        /* \"#utility.yul\":14397:14940   */\n      pop\n      pop\n      pop\n      jump\t// out\n        /* \"#utility.yul\":14946:15063   */\n    tag_375:\n        /* \"#utility.yul\":15000:15008   */\n      0x00\n        /* \"#utility.yul\":15050:15055   */\n      dup3\n        /* \"#utility.yul\":15044:15048   */\n      dup3\n        /* \"#utility.yul\":15040:15056   */\n      shr\n        /* \"#utility.yul\":15019:15056   */\n      swap1\n      pop\n        /* \"#utility.yul\":14946:15063   */\n      swap3\n      swap2\n      pop\n      pop\n      jump\t// out\n        /* \"#utility.yul\":15069:15238   */\n    tag_376:\n        /* \"#utility.yul\":15113:15119   */\n      0x00\n        /* \"#utility.yul\":15146:15197   */\n      tag_570\n        /* \"#utility.yul\":15194:15195   */\n      0x00\n        /* \"#utility.yul\":15190:15196   */\n      not\n        /* \"#utility.yul\":15182:15187   */\n      dup5\n        /* \"#utility.yul\":15179:15180   */\n      0x08\n        /* \"#utility.yul\":15175:15188   */\n      mul\n        /* \"#utility.yul\":15146:15197   */\n      tag_375\n      jump\t// in\n    tag_570:\n        /* \"#utility.yul\":15142:15198   */\n      not\n        /* \"#utility.yul\":15227:15231   */\n      dup1\n        /* \"#utility.yul\":15221:15225   */\n      dup4\n        /* \"#utility.yul\":15217:15232   */\n      and\n        /* \"#utility.yul\":15207:15232   */\n      swap2\n      pop\n        /* \"#utility.yul\":15120:15238   */\n      pop\n        /* \"#utility.yul\":15069:15238   */\n      swap3\n      swap2\n      pop\n      pop\n      jump\t// out\n        /* \"#utility.yul\":15243:15538   */\n    tag_377:\n        /* \"#utility.yul\":15319:15323   */\n      0x00\n        /* \"#utility.yul\":15465:15494   */\n      tag_572\n        /* \"#utility.yul\":15490:15493   */\n      dup4\n        /* \"#utility.yul\":15484:15488   */\n      dup4\n        /* \"#utility.yul\":15465:15494   */\n      tag_376\n      jump\t// in\n    tag_572:\n        /* \"#utility.yul\":15457:15494   */\n      swap2\n      pop\n        /* \"#utility.yul\":15527:15530   */\n      dup3\n        /* \"#utility.yul\":15524:15525   */\n      0x02\n        /* \"#utility.yul\":15520:15531   */\n      mul\n        /* \"#utility.yul\":15514:15518   */\n      dup3\n        /* \"#utility.yul\":15511:15532   */\n      or\n        /* \"#utility.yul\":15503:15532   */\n      swap1\n      pop\n        /* \"#utility.yul\":15243:15538   */\n      swap3\n      swap2\n      pop\n      pop\n      jump\t// out\n        /* \"#utility.yul\":15543:16938   */\n    tag_104:\n        /* \"#utility.yul\":15660:15697   */\n      tag_574\n        /* \"#utility.yul\":15693:15696   */\n      dup3\n        /* \"#utility.yul\":15660:15697   */\n      tag_344\n      jump\t// in\n    tag_574:\n        /* \"#utility.yul\":15762:15780   */\n      0xffffffffffffffff\n        /* \"#utility.yul\":15754:15760   */\n      dup2\n        /* \"#utility.yul\":15751:15781   */\n      gt\n        /* \"#utility.yul\":15748:15804   */\n      iszero\n      tag_575\n      jumpi\n        /* \"#utility.yul\":15784:15802   */\n      tag_576\n      tag_225\n      jump\t// in\n    tag_576:\n        /* \"#utility.yul\":15748:15804   */\n    tag_575:\n        /* \"#utility.yul\":15828:15866   */\n      tag_577\n        /* \"#utility.yul\":15860:15864   */\n      dup3\n        /* \"#utility.yul\":15854:15865   */\n      sload\n        /* \"#utility.yul\":15828:15866   */\n      tag_106\n      jump\t// in\n    tag_577:\n        /* \"#utility.yul\":15913:15980   */\n      tag_578\n        /* \"#utility.yul\":15973:15979   */\n      dup3\n        /* \"#utility.yul\":15965:15971   */\n      dup3\n        /* \"#utility.yul\":15959:15963   */\n      dup6\n        /* \"#utility.yul\":15913:15980   */\n      tag_374\n      jump\t// in\n    tag_578:\n        /* \"#utility.yul\":16007:16008   */\n      0x00\n        /* \"#utility.yul\":16031:16035   */\n      0x20\n        /* \"#utility.yul\":16018:16035   */\n      swap1\n      pop\n        /* \"#utility.yul\":16063:16065   */\n      0x1f\n        /* \"#utility.yul\":16055:16061   */\n      dup4\n        /* \"#utility.yul\":16052:16066   */\n      gt\n        /* \"#utility.yul\":16080:16081   */\n      0x01\n        /* \"#utility.yul\":16075:16693   */\n      dup2\n      eq\n      tag_580\n      jumpi\n        /* \"#utility.yul\":16737:16738   */\n      0x00\n        /* \"#utility.yul\":16754:16760   */\n      dup5\n        /* \"#utility.yul\":16751:16828   */\n      iszero\n      tag_581\n      jumpi\n        /* \"#utility.yul\":16803:16812   */\n      dup3\n        /* \"#utility.yul\":16798:16801   */\n      dup8\n        /* \"#utility.yul\":16794:16813   */\n      add\n        /* \"#utility.yul\":16788:16814   */\n      mload\n        /* \"#utility.yul\":16779:16814   */\n      swap1\n      pop\n        /* \"#utility.yul\":16751:16828   */\n    tag_581:\n        /* \"#utility.yul\":16854:16921   */\n      tag_582\n        /* \"#utility.yul\":16914:16920   */\n      dup6\n        /* \"#utility.yul\":16907:16912   */\n      dup3\n        /* \"#utility.yul\":16854:16921   */\n      tag_377\n      jump\t// in\n    tag_582:\n        /* \"#utility.yul\":16848:16852   */\n      dup7\n        /* \"#utility.yul\":16841:16922   */\n      sstore\n        /* \"#utility.yul\":16710:16932   */\n      pop\n        /* \"#utility.yul\":16045:16932   */\n      jump(tag_579)\n        /* \"#utility.yul\":16075:16693   */\n    tag_580:\n        /* \"#utility.yul\":16127:16131   */\n      0x1f\n        /* \"#utility.yul\":16123:16132   */\n      not\n        /* \"#utility.yul\":16115:16121   */\n      dup5\n        /* \"#utility.yul\":16111:16133   */\n      and\n        /* \"#utility.yul\":16161:16198   */\n      tag_583\n        /* \"#utility.yul\":16193:16197   */\n      dup7\n        /* \"#utility.yul\":16161:16198   */\n      tag_363\n      jump\t// in\n    tag_583:\n        /* \"#utility.yul\":16220:16221   */\n      0x00\n        /* \"#utility.yul\":16234:16442   */\n    tag_584:\n        /* \"#utility.yul\":16248:16255   */\n      dup3\n        /* \"#utility.yul\":16245:16246   */\n      dup2\n        /* \"#utility.yul\":16242:16256   */\n      lt\n        /* \"#utility.yul\":16234:16442   */\n      iszero\n      tag_586\n      jumpi\n        /* \"#utility.yul\":16327:16336   */\n      dup5\n        /* \"#utility.yul\":16322:16325   */\n      dup10\n        /* \"#utility.yul\":16318:16337   */\n      add\n        /* \"#utility.yul\":16312:16338   */\n      mload\n        /* \"#utility.yul\":16304:16310   */\n      dup3\n        /* \"#utility.yul\":16297:16339   */\n      sstore\n        /* \"#utility.yul\":16378:16379   */\n      0x01\n        /* \"#utility.yul\":16370:16376   */\n      dup3\n        /* \"#utility.yul\":16366:16380   */\n      add\n        /* \"#utility.yul\":16356:16380   */\n      swap2\n      pop\n        /* \"#utility.yul\":16425:16427   */\n      0x20\n        /* \"#utility.yul\":16414:16423   */\n      dup6\n        /* \"#utility.yul\":16410:16428   */\n      add\n        /* \"#utility.yul\":16397:16428   */\n      swap5\n      pop\n        /* \"#utility.yul\":16271:16275   */\n      0x20\n        /* \"#utility.yul\":16268:16269   */\n      dup2\n        /* \"#utility.yul\":16264:16276   */\n      add\n        /* \"#utility.yul\":16259:16276   */\n      swap1\n      pop\n        /* \"#utility.yul\":16234:16442   */\n      jump(tag_584)\n    tag_586:\n        /* \"#utility.yul\":16470:16476   */\n      dup7\n        /* \"#utility.yul\":16461:16468   */\n      dup4\n        /* \"#utility.yul\":16458:16477   */\n      lt\n        /* \"#utility.yul\":16455:16634   */\n      iszero\n      tag_587\n      jumpi\n        /* \"#utility.yul\":16528:16537   */\n      dup5\n        /* \"#utility.yul\":16523:16526   */\n      dup10\n        /* \"#utility.yul\":16519:16538   */\n      add\n        /* \"#utility.yul\":16513:16539   */\n      mload\n        /* \"#utility.yul\":16571:16619   */\n      tag_588\n        /* \"#utility.yul\":16613:16617   */\n      0x1f\n        /* \"#utility.yul\":16605:16611   */\n      dup10\n        /* \"#utility.yul\":16601:16618   */\n      and\n        /* \"#utility.yul\":16590:16599   */\n      dup3\n        /* \"#utility.yul\":16571:16619   */\n      tag_376\n      jump\t// in\n    tag_588:\n        /* \"#utility.yul\":16563:16569   */\n      dup4\n        /* \"#utility.yul\":16556:16620   */\n      sstore\n        /* \"#utility.yul\":16478:16634   */\n      pop\n        /* \"#utility.yul\":16455:16634   */\n    tag_587:\n        /* \"#utility.yul\":16680:16681   */\n      0x01\n        /* \"#utility.yul\":16676:16677   */\n      0x02\n        /* \"#utility.yul\":16668:16674   */\n      dup9\n        /* \"#utility.yul\":16664:16678   */\n      mul\n        /* \"#utility.yul\":16660:16682   */\n      add\n        /* \"#utility.yul\":16654:16658   */\n      dup9\n        /* \"#utility.yul\":16647:16683   */\n      sstore\n        /* \"#utility.yul\":16082:16693   */\n      pop\n      pop\n      pop\n        /* \"#utility.yul\":16045:16932   */\n    tag_579:\n      pop\n        /* \"#utility.yul\":15635:16938   */\n      pop\n      pop\n      pop\n        /* \"#utility.yul\":15543:16938   */\n      pop\n      pop\n      jump\t// out\n        /* \"#utility.yul\":16944:17124   */\n    tag_378:\n        /* \"#utility.yul\":16992:17069   */\n      0x4e487b7100000000000000000000000000000000000000000000000000000000\n        /* \"#utility.yul\":16989:16990   */\n      0x00\n        /* \"#utility.yul\":16982:17070   */\n      mstore\n        /* \"#utility.yul\":17089:17093   */\n      0x11\n        /* \"#utility.yul\":17086:17087   */\n      0x04\n        /* \"#utility.yul\":17079:17094   */\n      mstore\n        /* \"#utility.yul\":17113:17117   */\n      0x24\n        /* \"#utility.yul\":17110:17111   */\n      0x00\n        /* \"#utility.yul\":17103:17118   */\n      revert\n        /* \"#utility.yul\":17130:17363   */\n    tag_129:\n        /* \"#utility.yul\":17169:17172   */\n      0x00\n        /* \"#utility.yul\":17192:17216   */\n      tag_591\n        /* \"#utility.yul\":17210:17215   */\n      dup3\n        /* \"#utility.yul\":17192:17216   */\n      tag_348\n      jump\t// in\n    tag_591:\n        /* \"#utility.yul\":17183:17216   */\n      swap2\n      pop\n        /* \"#utility.yul\":17238:17304   */\n      0xffffffffffffffffffffffffffffffffffffffffffffffffffffffffffffffff\n        /* \"#utility.yul\":17231:17236   */\n      dup3\n        /* \"#utility.yul\":17228:17305   */\n      sub\n        /* \"#utility.yul\":17225:17328   */\n      tag_592\n      jumpi\n        /* \"#utility.yul\":17308:17326   */\n      tag_593\n      tag_378\n      jump\t// in\n    tag_593:\n        /* \"#utility.yul\":17225:17328   */\n    tag_592:\n        /* \"#utility.yul\":17355:17356   */\n      0x01\n        /* \"#utility.yul\":17348:17353   */\n      dup3\n        /* \"#utility.yul\":17344:17357   */\n      add\n        /* \"#utility.yul\":17337:17357   */\n      swap1\n      pop\n        /* \"#utility.yul\":17130:17363   */\n      swap2\n      swap1\n      pop\n      jump\t// out\n        /* \"#utility.yul\":17369:17517   */\n    tag_379:\n        /* \"#utility.yul\":17471:17482   */\n      0x00\n        /* \"#utility.yul\":17508:17511   */\n      dup2\n        /* \"#utility.yul\":17493:17511   */\n      swap1\n      pop\n        /* \"#utility.yul\":17369:17517   */\n      swap3\n      swap2\n      pop\n      pop\n      jump\t// out\n        /* \"#utility.yul\":17547:18421   */\n    tag_380:\n        /* \"#utility.yul\":17650:17653   */\n      0x00\n        /* \"#utility.yul\":17687:17692   */\n      dup2\n        /* \"#utility.yul\":17681:17693   */\n      sload\n        /* \"#utility.yul\":17716:17752   */\n      tag_596\n        /* \"#utility.yul\":17742:17751   */\n      dup2\n        /* \"#utility.yul\":17716:17752   */\n      tag_106\n      jump\t// in\n    tag_596:\n        /* \"#utility.yul\":17768:17857   */\n      tag_597\n        /* \"#utility.yul\":17850:17856   */\n      dup2\n        /* \"#utility.yul\":17845:17848   */\n      dup7\n        /* \"#utility.yul\":17768:17857   */\n      tag_379\n      jump\t// in\n    tag_597:\n        /* \"#utility.yul\":17761:17857   */\n      swap5\n      pop\n        /* \"#utility.yul\":17888:17889   */\n      0x01\n        /* \"#utility.yul\":17877:17886   */\n      dup3\n        /* \"#utility.yul\":17873:17890   */\n      and\n        /* \"#utility.yul\":17904:17905   */\n      0x00\n        /* \"#utility.yul\":17899:18065   */\n      dup2\n      eq\n      tag_599\n      jumpi\n        /* \"#utility.yul\":18079:18080   */\n      0x01\n        /* \"#utility.yul\":18074:18415   */\n      dup2\n      eq\n      tag_600\n      jumpi\n        /* \"#utility.yul\":17866:18415   */\n      jump(tag_598)\n        /* \"#utility.yul\":17899:18065   */\n    tag_599:\n        /* \"#utility.yul\":17983:17987   */\n      0xff\n        /* \"#utility.yul\":17979:17988   */\n      not\n        /* \"#utility.yul\":17968:17977   */\n      dup4\n        /* \"#utility.yul\":17964:17989   */\n      and\n        /* \"#utility.yul\":17959:17962   */\n      dup7\n        /* \"#utility.yul\":17952:17990   */\n      mstore\n        /* \"#utility.yul\":18045:18051   */\n      dup2\n        /* \"#utility.yul\":18038:18052   */\n      iszero\n        /* \"#utility.yul\":18031:18053   */\n      iszero\n        /* \"#utility.yul\":18023:18029   */\n      dup3\n        /* \"#utility.yul\":18019:18054   */\n      mul\n        /* \"#utility.yul\":18014:18017   */\n      dup7\n        /* \"#utility.yul\":18010:18055   */\n      add\n        /* \"#utility.yul\":18003:18055   */\n      swap4\n      pop\n        /* \"#utility.yul\":17899:18065   */\n      jump(tag_598)\n        /* \"#utility.yul\":18074:18415   */\n    tag_600:\n        /* \"#utility.yul\":18141:18179   */\n      tag_601\n        /* \"#utility.yul\":18173:18178   */\n      dup6\n        /* \"#utility.yul\":18141:18179   */\n      tag_363\n      jump\t// in\n    tag_601:\n        /* \"#utility.yul\":18201:18202   */\n      0x00\n        /* \"#utility.yul\":18215:18369   */\n    tag_602:\n        /* \"#utility.yul\":18229:18235   */\n      dup4\n        /* \"#utility.yul\":18226:18227   */\n      dup2\n        /* \"#utility.yul\":18223:18236   */\n      lt\n        /* \"#utility.yul\":18215:18369   */\n      iszero\n      tag_604\n      jumpi\n        /* \"#utility.yul\":18303:18310   */\n      dup2\n        /* \"#utility.yul\":18297:18311   */\n      sload\n        /* \"#utility.yul\":18293:18294   */\n      dup2\n        /* \"#utility.yul\":18288:18291   */\n      dup10\n        /* \"#utility.yul\":18284:18295   */\n      add\n        /* \"#utility.yul\":18277:18312   */\n      mstore\n        /* \"#utility.yul\":18353:18354   */\n      0x01\n        /* \"#utility.yul\":18344:18351   */\n      dup3\n        /* \"#utility.yul\":18340:18355   */\n      add\n        /* \"#utility.yul\":18329:18355   */\n      swap2\n      pop\n        /* \"#utility.yul\":18251:18255   */\n      0x20\n        /* \"#utility.yul\":18248:18249   */\n      dup2\n        /* \"#utility.yul\":18244:18256   */\n      add\n        /* \"#utility.yul\":18239:18256   */\n      swap1\n      pop\n        /* \"#utility.yul\":18215:18369   */\n      jump(tag_602)\n    tag_604:\n        /* \"#utility.yul\":18398:18404   */\n      dup4\n        /* \"#utility.yul\":18393:18396   */\n      dup9\n        /* \"#utility.yul\":18389:18405   */\n      add\n        /* \"#utility.yul\":18382:18405   */\n      swap6\n      pop\n        /* \"#utility.yul\":18081:18415   */\n      pop\n      pop\n        /* \"#utility.yul\":17866:18415   */\n    tag_598:\n      pop\n        /* \"#utility.yul\":17654:18421   */\n      pop\n      pop\n        /* \"#utility.yul\":17547:18421   */\n      swap3\n      swap2\n      pop\n      pop\n      jump\t// out\n        /* \"#utility.yul\":18427:18817   */\n    tag_381:\n        /* \"#utility.yul\":18533:18536   */\n      0x00\n        /* \"#utility.yul\":18561:18600   */\n      tag_606\n        /* \"#utility.yul\":18594:18599   */\n      dup3\n        /* \"#utility.yul\":18561:18600   */\n      tag_344\n      jump\t// in\n    tag_606:\n        /* \"#utility.yul\":18616:18705   */\n      tag_607\n        /* \"#utility.yul\":18698:18704   */\n      dup2\n        /* \"#utility.yul\":18693:18696   */\n      dup6\n        /* \"#utility.yul\":18616:18705   */\n      tag_379\n      jump\t// in\n    tag_607:\n        /* \"#utility.yul\":18609:18705   */\n      swap4\n      pop\n        /* \"#utility.yul\":18714:18779   */\n      tag_608\n        /* \"#utility.yul\":18772:18778   */\n      dup2\n        /* \"#utility.yul\":18767:18770   */\n      dup6\n        /* \"#utility.yul\":18760:18764   */\n      0x20\n        /* \"#utility.yul\":18753:18758   */\n      dup7\n        /* \"#utility.yul\":18749:18765   */\n      add\n        /* \"#utility.yul\":18714:18779   */\n      tag_346\n      jump\t// in\n    tag_608:\n        /* \"#utility.yul\":18804:18810   */\n      dup1\n        /* \"#utility.yul\":18799:18802   */\n      dup5\n        /* \"#utility.yul\":18795:18811   */\n      add\n        /* \"#utility.yul\":18788:18811   */\n      swap2\n      pop\n        /* \"#utility.yul\":18537:18817   */\n      pop\n        /* \"#utility.yul\":18427:18817   */\n      swap3\n      swap2\n      pop\n      pop\n      jump\t// out\n        /* \"#utility.yul\":18823:19252   */\n    tag_135:\n        /* \"#utility.yul\":19000:19003   */\n      0x00\n        /* \"#utility.yul\":19022:19114   */\n      tag_610\n        /* \"#utility.yul\":19110:19113   */\n      dup3\n        /* \"#utility.yul\":19101:19107   */\n      dup6\n        /* \"#utility.yul\":19022:19114   */\n      tag_380\n      jump\t// in\n    tag_610:\n        /* \"#utility.yul\":19015:19114   */\n      swap2\n      pop\n        /* \"#utility.yul\":19131:19226   */\n      tag_611\n        /* \"#utility.yul\":19222:19225   */\n      dup3\n        /* \"#utility.yul\":19213:19219   */\n      dup5\n        /* \"#utility.yul\":19131:19226   */\n      tag_381\n      jump\t// in\n    tag_611:\n        /* \"#utility.yul\":19124:19226   */\n      swap2\n      pop\n        /* \"#utility.yul\":19243:19246   */\n      dup2\n        /* \"#utility.yul\":19236:19246   */\n      swap1\n      pop\n        /* \"#utility.yul\":18823:19252   */\n      swap4\n      swap3\n      pop\n      pop\n      pop\n      jump\t// out\n        /* \"#utility.yul\":19258:19449   */\n    tag_139:\n        /* \"#utility.yul\":19298:19301   */\n      0x00\n        /* \"#utility.yul\":19317:19337   */\n      tag_613\n        /* \"#utility.yul\":19335:19336   */\n      dup3\n        /* \"#utility.yul\":19317:19337   */\n      tag_348\n      jump\t// in\n    tag_613:\n        /* \"#utility.yul\":19312:19337   */\n      swap2\n      pop\n        /* \"#utility.yul\":19351:19371   */\n      tag_614\n        /* \"#utility.yul\":19369:19370   */\n      dup4\n        /* \"#utility.yul\":19351:19371   */\n      tag_348\n      jump\t// in\n    tag_614:\n        /* \"#utility.yul\":19346:19371   */\n      swap3\n      pop\n        /* \"#utility.yul\":19394:19395   */\n      dup3\n        /* \"#utility.yul\":19391:19392   */\n      dup3\n        /* \"#utility.yul\":19387:19396   */\n      add\n        /* \"#utility.yul\":19380:19396   */\n      swap1\n      pop\n        /* \"#utility.yul\":19415:19418   */\n      dup1\n        /* \"#utility.yul\":19412:19413   */\n      dup3\n        /* \"#utility.yul\":19409:19419   */\n      gt\n        /* \"#utility.yul\":19406:19442   */\n      iszero\n      tag_615\n      jumpi\n        /* \"#utility.yul\":19422:19440   */\n      tag_616\n      tag_378\n      jump\t// in\n    tag_616:\n        /* \"#utility.yul\":19406:19442   */\n    tag_615:\n        /* \"#utility.yul\":19258:19449   */\n      swap3\n      swap2\n      pop\n      pop\n      jump\t// out\n        /* \"#utility.yul\":19455:19626   */\n    tag_382:\n        /* \"#utility.yul\":19595:19618   */\n      0x5468657265206973206120737570706c79206361700000000000000000000000\n        /* \"#utility.yul\":19591:19592   */\n      0x00\n        /* \"#utility.yul\":19583:19589   */\n      dup3\n        /* \"#utility.yul\":19579:19593   */\n      add\n        /* \"#utility.yul\":19572:19619   */\n      mstore\n        /* \"#utility.yul\":19455:19626   */\n      pop\n      jump\t// out\n        /* \"#utility.yul\":19632:19998   */\n    tag_383:\n        /* \"#utility.yul\":19774:19777   */\n      0x00\n        /* \"#utility.yul\":19795:19862   */\n      tag_619\n        /* \"#utility.yul\":19859:19861   */\n      0x15\n        /* \"#utility.yul\":19854:19857   */\n      dup4\n        /* \"#utility.yul\":19795:19862   */\n      tag_345\n      jump\t// in\n    tag_619:\n        /* \"#utility.yul\":19788:19862   */\n      swap2\n      pop\n        /* \"#utility.yul\":19871:19964   */\n      tag_620\n        /* \"#utility.yul\":19960:19963   */\n      dup3\n        /* \"#utility.yul\":19871:19964   */\n      tag_382\n      jump\t// in\n    tag_620:\n        /* \"#utility.yul\":19989:19991   */\n      0x20\n        /* \"#utility.yul\":19984:19987   */\n      dup3\n        /* \"#utility.yul\":19980:19992   */\n      add\n        /* \"#utility.yul\":19973:19992   */\n      swap1\n      pop\n        /* \"#utility.yul\":19632:19998   */\n      swap2\n      swap1\n      pop\n      jump\t// out\n        /* \"#utility.yul\":20004:20423   */\n    tag_142:\n        /* \"#utility.yul\":20170:20174   */\n      0x00\n        /* \"#utility.yul\":20208:20210   */\n      0x20\n        /* \"#utility.yul\":20197:20206   */\n      dup3\n        /* \"#utility.yul\":20193:20211   */\n      add\n        /* \"#utility.yul\":20185:20211   */\n      swap1\n      pop\n        /* \"#utility.yul\":20257:20266   */\n      dup2\n        /* \"#utility.yul\":20251:20255   */\n      dup2\n        /* \"#utility.yul\":20247:20267   */\n      sub\n        /* \"#utility.yul\":20243:20244   */\n      0x00\n        /* \"#utility.yul\":20232:20241   */\n      dup4\n        /* \"#utility.yul\":20228:20245   */\n      add\n        /* \"#utility.yul\":20221:20268   */\n      mstore\n        /* \"#utility.yul\":20285:20416   */\n      tag_622\n        /* \"#utility.yul\":20411:20415   */\n      dup2\n        /* \"#utility.yul\":20285:20416   */\n      tag_383\n      jump\t// in\n    tag_622:\n        /* \"#utility.yul\":20277:20416   */\n      swap1\n      pop\n        /* \"#utility.yul\":20004:20423   */\n      swap2\n      swap1\n      pop\n      jump\t// out\n        /* \"#utility.yul\":20429:20871   */\n    tag_151:\n        /* \"#utility.yul\":20578:20582   */\n      0x00\n        /* \"#utility.yul\":20616:20618   */\n      0x60\n        /* \"#utility.yul\":20605:20614   */\n      dup3\n        /* \"#utility.yul\":20601:20619   */\n      add\n        /* \"#utility.yul\":20593:20619   */\n      swap1\n      pop\n        /* \"#utility.yul\":20629:20700   */\n      tag_624\n        /* \"#utility.yul\":20697:20698   */\n      0x00\n        /* \"#utility.yul\":20686:20695   */\n      dup4\n        /* \"#utility.yul\":20682:20699   */\n      add\n        /* \"#utility.yul\":20673:20679   */\n      dup7\n        /* \"#utility.yul\":20629:20700   */\n      tag_353\n      jump\t// in\n    tag_624:\n        /* \"#utility.yul\":20710:20782   */\n      tag_625\n        /* \"#utility.yul\":20778:20780   */\n      0x20\n        /* \"#utility.yul\":20767:20776   */\n      dup4\n        /* \"#utility.yul\":20763:20781   */\n      add\n        /* \"#utility.yul\":20754:20760   */\n      dup6\n        /* \"#utility.yul\":20710:20782   */\n      tag_356\n      jump\t// in\n    tag_625:\n        /* \"#utility.yul\":20792:20864   */\n      tag_626\n        /* \"#utility.yul\":20860:20862   */\n      0x40\n        /* \"#utility.yul\":20849:20858   */\n      dup4\n        /* \"#utility.yul\":20845:20863   */\n      add\n        /* \"#utility.yul\":20836:20842   */\n      dup5\n        /* \"#utility.yul\":20792:20864   */\n      tag_353\n      jump\t// in\n    tag_626:\n        /* \"#utility.yul\":20429:20871   */\n      swap5\n      swap4\n      pop\n      pop\n      pop\n      pop\n      jump\t// out\n        /* \"#utility.yul\":20877:21071   */\n    tag_156:\n        /* \"#utility.yul\":20917:20921   */\n      0x00\n        /* \"#utility.yul\":20937:20957   */\n      tag_628\n        /* \"#utility.yul\":20955:20956   */\n      dup3\n        /* \"#utility.yul\":20937:20957   */\n      tag_348\n      jump\t// in\n    tag_628:\n        /* \"#utility.yul\":20932:20957   */\n      swap2\n      pop\n        /* \"#utility.yul\":20971:20991   */\n      tag_629\n        /* \"#utility.yul\":20989:20990   */\n      dup4\n        /* \"#utility.yul\":20971:20991   */\n      tag_348\n      jump\t// in\n    tag_629:\n        /* \"#utility.yul\":20966:20991   */\n      swap3\n      pop\n        /* \"#utility.yul\":21015:21016   */\n      dup3\n        /* \"#utility.yul\":21012:21013   */\n      dup3\n        /* \"#utility.yul\":21008:21017   */\n      sub\n        /* \"#utility.yul\":21000:21017   */\n      swap1\n      pop\n        /* \"#utility.yul\":21039:21040   */\n      dup2\n        /* \"#utility.yul\":21033:21037   */\n      dup2\n        /* \"#utility.yul\":21030:21041   */\n      gt\n        /* \"#utility.yul\":21027:21064   */\n      iszero\n      tag_630\n      jumpi\n        /* \"#utility.yul\":21044:21062   */\n      tag_631\n      tag_378\n      jump\t// in\n    tag_631:\n        /* \"#utility.yul\":21027:21064   */\n    tag_630:\n        /* \"#utility.yul\":20877:21071   */\n      swap3\n      swap2\n      pop\n      pop\n      jump\t// out\n        /* \"#utility.yul\":21077:21512   */\n    tag_195:\n        /* \"#utility.yul\":21257:21260   */\n      0x00\n        /* \"#utility.yul\":21279:21374   */\n      tag_633\n        /* \"#utility.yul\":21370:21373   */\n      dup3\n        /* \"#utility.yul\":21361:21367   */\n      dup6\n        /* \"#utility.yul\":21279:21374   */\n      tag_381\n      jump\t// in\n    tag_633:\n        /* \"#utility.yul\":21272:21374   */\n      swap2\n      pop\n        /* \"#utility.yul\":21391:21486   */\n      tag_634\n        /* \"#utility.yul\":21482:21485   */\n      dup3\n        /* \"#utility.yul\":21473:21479   */\n      dup5\n        /* \"#utility.yul\":21391:21486   */\n      tag_381\n      jump\t// in\n    tag_634:\n        /* \"#utility.yul\":21384:21486   */\n      swap2\n      pop\n        /* \"#utility.yul\":21503:21506   */\n      dup2\n        /* \"#utility.yul\":21496:21506   */\n      swap1\n      pop\n        /* \"#utility.yul\":21077:21512   */\n      swap4\n      swap3\n      pop\n      pop\n      pop\n      jump\t// out\n        /* \"#utility.yul\":21518:21698   */\n    tag_231:\n        /* \"#utility.yul\":21566:21643   */\n      0x4e487b7100000000000000000000000000000000000000000000000000000000\n        /* \"#utility.yul\":21563:21564   */\n      0x00\n        /* \"#utility.yul\":21556:21644   */\n      mstore\n        /* \"#utility.yul\":21663:21667   */\n      0x12\n        /* \"#utility.yul\":21660:21661   */\n      0x04\n        /* \"#utility.yul\":21653:21668   */\n      mstore\n        /* \"#utility.yul\":21687:21691   */\n      0x24\n        /* \"#utility.yul\":21684:21685   */\n      0x00\n        /* \"#utility.yul\":21677:21692   */\n      revert\n        /* \"#utility.yul\":21704:21802   */\n    tag_384:\n        /* \"#utility.yul\":21755:21761   */\n      0x00\n        /* \"#utility.yul\":21789:21794   */\n      dup2\n        /* \"#utility.yul\":21783:21795   */\n      mload\n        /* \"#utility.yul\":21773:21795   */\n      swap1\n      pop\n        /* \"#utility.yul\":21704:21802   */\n      swap2\n      swap1\n      pop\n      jump\t// out\n        /* \"#utility.yul\":21808:21976   */\n    tag_385:\n        /* \"#utility.yul\":21891:21902   */\n      0x00\n        /* \"#utility.yul\":21925:21931   */\n      dup3\n        /* \"#utility.yul\":21920:21923   */\n      dup3\n        /* \"#utility.yul\":21913:21932   */\n      mstore\n        /* \"#utility.yul\":21965:21969   */\n      0x20\n        /* \"#utility.yul\":21960:21963   */\n      dup3\n        /* \"#utility.yul\":21956:21970   */\n      add\n        /* \"#utility.yul\":21941:21970   */\n      swap1\n      pop\n        /* \"#utility.yul\":21808:21976   */\n      swap3\n      swap2\n      pop\n      pop\n      jump\t// out\n        /* \"#utility.yul\":21982:22355   */\n    tag_386:\n        /* \"#utility.yul\":22068:22071   */\n      0x00\n        /* \"#utility.yul\":22096:22134   */\n      tag_639\n        /* \"#utility.yul\":22128:22133   */\n      dup3\n        /* \"#utility.yul\":22096:22134   */\n      tag_384\n      jump\t// in\n    tag_639:\n        /* \"#utility.yul\":22150:22220   */\n      tag_640\n        /* \"#utility.yul\":22213:22219   */\n      dup2\n        /* \"#utility.yul\":22208:22211   */\n      dup6\n        /* \"#utility.yul\":22150:22220   */\n      tag_385\n      jump\t// in\n    tag_640:\n        /* \"#utility.yul\":22143:22220   */\n      swap4\n      pop\n        /* \"#utility.yul\":22229:22294   */\n      tag_641\n        /* \"#utility.yul\":22287:22293   */\n      dup2\n        /* \"#utility.yul\":22282:22285   */\n      dup6\n        /* \"#utility.yul\":22275:22279   */\n      0x20\n        /* \"#utility.yul\":22268:22273   */\n      dup7\n        /* \"#utility.yul\":22264:22280   */\n      add\n        /* \"#utility.yul\":22229:22294   */\n      tag_346\n      jump\t// in\n    tag_641:\n        /* \"#utility.yul\":22319:22348   */\n      tag_642\n        /* \"#utility.yul\":22341:22347   */\n      dup2\n        /* \"#utility.yul\":22319:22348   */\n      tag_337\n      jump\t// in\n    tag_642:\n        /* \"#utility.yul\":22314:22317   */\n      dup5\n        /* \"#utility.yul\":22310:22349   */\n      add\n        /* \"#utility.yul\":22303:22349   */\n      swap2\n      pop\n        /* \"#utility.yul\":22072:22355   */\n      pop\n        /* \"#utility.yul\":21982:22355   */\n      swap3\n      swap2\n      pop\n      pop\n      jump\t// out\n        /* \"#utility.yul\":22361:23001   */\n    tag_256:\n        /* \"#utility.yul\":22556:22560   */\n      0x00\n        /* \"#utility.yul\":22594:22597   */\n      0x80\n        /* \"#utility.yul\":22583:22592   */\n      dup3\n        /* \"#utility.yul\":22579:22598   */\n      add\n        /* \"#utility.yul\":22571:22598   */\n      swap1\n      pop\n        /* \"#utility.yul\":22608:22679   */\n      tag_644\n        /* \"#utility.yul\":22676:22677   */\n      0x00\n        /* \"#utility.yul\":22665:22674   */\n      dup4\n        /* \"#utility.yul\":22661:22678   */\n      add\n        /* \"#utility.yul\":22652:22658   */\n      dup8\n        /* \"#utility.yul\":22608:22679   */\n      tag_353\n      jump\t// in\n    tag_644:\n        /* \"#utility.yul\":22689:22761   */\n      tag_645\n        /* \"#utility.yul\":22757:22759   */\n      0x20\n        /* \"#utility.yul\":22746:22755   */\n      dup4\n        /* \"#utility.yul\":22742:22760   */\n      add\n        /* \"#utility.yul\":22733:22739   */\n      dup7\n        /* \"#utility.yul\":22689:22761   */\n      tag_353\n      jump\t// in\n    tag_645:\n        /* \"#utility.yul\":22771:22843   */\n      tag_646\n        /* \"#utility.yul\":22839:22841   */\n      0x40\n        /* \"#utility.yul\":22828:22837   */\n      dup4\n        /* \"#utility.yul\":22824:22842   */\n      add\n        /* \"#utility.yul\":22815:22821   */\n      dup6\n        /* \"#utility.yul\":22771:22843   */\n      tag_356\n      jump\t// in\n    tag_646:\n        /* \"#utility.yul\":22890:22899   */\n      dup2\n        /* \"#utility.yul\":22884:22888   */\n      dup2\n        /* \"#utility.yul\":22880:22900   */\n      sub\n        /* \"#utility.yul\":22875:22877   */\n      0x60\n        /* \"#utility.yul\":22864:22873   */\n      dup4\n        /* \"#utility.yul\":22860:22878   */\n      add\n        /* \"#utility.yul\":22853:22901   */\n      mstore\n        /* \"#utility.yul\":22918:22994   */\n      tag_647\n        /* \"#utility.yul\":22989:22993   */\n      dup2\n        /* \"#utility.yul\":22980:22986   */\n      dup5\n        /* \"#utility.yul\":22918:22994   */\n      tag_386\n      jump\t// in\n    tag_647:\n        /* \"#utility.yul\":22910:22994   */\n      swap1\n      pop\n        /* \"#utility.yul\":22361:23001   */\n      swap6\n      swap5\n      pop\n      pop\n      pop\n      pop\n      pop\n      jump\t// out\n        /* \"#utility.yul\":23007:23148   */\n    tag_387:\n        /* \"#utility.yul\":23063:23068   */\n      0x00\n        /* \"#utility.yul\":23094:23100   */\n      dup2\n        /* \"#utility.yul\":23088:23101   */\n      mload\n        /* \"#utility.yul\":23079:23101   */\n      swap1\n      pop\n        /* \"#utility.yul\":23110:23142   */\n      tag_649\n        /* \"#utility.yul\":23136:23141   */\n      dup2\n        /* \"#utility.yul\":23110:23142   */\n      tag_331\n      jump\t// in\n    tag_649:\n        /* \"#utility.yul\":23007:23148   */\n      swap3\n      swap2\n      pop\n      pop\n      jump\t// out\n        /* \"#utility.yul\":23154:23503   */\n    tag_259:\n        /* \"#utility.yul\":23223:23229   */\n      0x00\n        /* \"#utility.yul\":23272:23274   */\n      0x20\n        /* \"#utility.yul\":23260:23269   */\n      dup3\n        /* \"#utility.yul\":23251:23258   */\n      dup5\n        /* \"#utility.yul\":23247:23270   */\n      sub\n        /* \"#utility.yul\":23243:23275   */\n      slt\n        /* \"#utility.yul\":23240:23359   */\n      iszero\n      tag_651\n      jumpi\n        /* \"#utility.yul\":23278:23357   */\n      tag_652\n      tag_328\n      jump\t// in\n    tag_652:\n        /* \"#utility.yul\":23240:23359   */\n    tag_651:\n        /* \"#utility.yul\":23398:23399   */\n      0x00\n        /* \"#utility.yul\":23423:23486   */\n      tag_653\n        /* \"#utility.yul\":23478:23485   */\n      dup5\n        /* \"#utility.yul\":23469:23475   */\n      dup3\n        /* \"#utility.yul\":23458:23467   */\n      dup6\n        /* \"#utility.yul\":23454:23476   */\n      add\n        /* \"#utility.yul\":23423:23486   */\n      tag_387\n      jump\t// in\n    tag_653:\n        /* \"#utility.yul\":23413:23486   */\n      swap2\n      pop\n        /* \"#utility.yul\":23369:23496   */\n      pop\n        /* \"#utility.yul\":23154:23503   */\n      swap3\n      swap2\n      pop\n      pop\n      jump\t// out\n        /* \"#utility.yul\":23509:23841   */\n    tag_320:\n        /* \"#utility.yul\":23630:23634   */\n      0x00\n        /* \"#utility.yul\":23668:23670   */\n      0x40\n        /* \"#utility.yul\":23657:23666   */\n      dup3\n        /* \"#utility.yul\":23653:23671   */\n      add\n        /* \"#utility.yul\":23645:23671   */\n      swap1\n      pop\n        /* \"#utility.yul\":23681:23752   */\n      tag_655\n        /* \"#utility.yul\":23749:23750   */\n      0x00\n        /* \"#utility.yul\":23738:23747   */\n      dup4\n        /* \"#utility.yul\":23734:23751   */\n      add\n        /* \"#utility.yul\":23725:23731   */\n      dup6\n        /* \"#utility.yul\":23681:23752   */\n      tag_353\n      jump\t// in\n    tag_655:\n        /* \"#utility.yul\":23762:23834   */\n      tag_656\n        /* \"#utility.yul\":23830:23832   */\n      0x20\n        /* \"#utility.yul\":23819:23828   */\n      dup4\n        /* \"#utility.yul\":23815:23833   */\n      add\n        /* \"#utility.yul\":23806:23812   */\n      dup5\n        /* \"#utility.yul\":23762:23834   */\n      tag_356\n      jump\t// in\n    tag_656:\n        /* \"#utility.yul\":23509:23841   */\n      swap4\n      swap3\n      pop\n      pop\n      pop\n      jump\t// out\n\n    auxdata: 0xa264697066735822122041e6c39ef80bd5a27de975b0475502f3655c1256c9ed718f16654a88b7755e0364736f6c63430008150033\n}\n",
				"bytecode": {
					"linkReferences": {},
					"object": "6080604052600560085534801562000015575f80fd5b5060405162002d3238038062002d3283398181016040528101906200003b91906200026a565b6040518060400160405280600681526020017f4e65774e465400000000000000000000000000000000000000000000000000008152506040518060400160405280600381526020017f4e46540000000000000000000000000000000000000000000000000000000000815250815f9081620000b79190620004f0565b508060019081620000c99190620004f0565b50505080600a9081620000dd9190620004f0565b5050620005d4565b5f604051905090565b5f80fd5b5f80fd5b5f80fd5b5f80fd5b5f601f19601f8301169050919050565b7f4e487b71000000000000000000000000000000000000000000000000000000005f52604160045260245ffd5b6200014682620000fe565b810181811067ffffffffffffffff821117156200016857620001676200010e565b5b80604052505050565b5f6200017c620000e5565b90506200018a82826200013b565b919050565b5f67ffffffffffffffff821115620001ac57620001ab6200010e565b5b620001b782620000fe565b9050602081019050919050565b5f5b83811015620001e3578082015181840152602081019050620001c6565b5f8484015250505050565b5f62000204620001fe846200018f565b62000171565b905082815260208101848484011115620002235762000222620000fa565b5b62000230848285620001c4565b509392505050565b5f82601f8301126200024f576200024e620000f6565b5b815162000261848260208601620001ee565b91505092915050565b5f60208284031215620002825762000281620000ee565b5b5f82015167ffffffffffffffff811115620002a257620002a1620000f2565b5b620002b08482850162000238565b91505092915050565b5f81519050919050565b7f4e487b71000000000000000000000000000000000000000000000000000000005f52602260045260245ffd5b5f60028204905060018216806200030857607f821691505b6020821081036200031e576200031d620002c3565b5b50919050565b5f819050815f5260205f209050919050565b5f6020601f8301049050919050565b5f82821b905092915050565b5f60088302620003827fffffffffffffffffffffffffffffffffffffffffffffffffffffffffffffffff8262000345565b6200038e868362000345565b95508019841693508086168417925050509392505050565b5f819050919050565b5f819050919050565b5f620003d8620003d2620003cc84620003a6565b620003af565b620003a6565b9050919050565b5f819050919050565b620003f383620003b8565b6200040b6200040282620003df565b84845462000351565b825550505050565b5f90565b6200042162000413565b6200042e818484620003e8565b505050565b5b818110156200045557620004495f8262000417565b60018101905062000434565b5050565b601f821115620004a4576200046e8162000324565b620004798462000336565b8101602085101562000489578190505b620004a1620004988562000336565b83018262000433565b50505b505050565b5f82821c905092915050565b5f620004c65f1984600802620004a9565b1980831691505092915050565b5f620004e08383620004b5565b9150826002028217905092915050565b620004fb82620002b9565b67ffffffffffffffff8111156200051757620005166200010e565b5b620005238254620002f0565b6200053082828562000459565b5f60209050601f83116001811462000566575f841562000551578287015190505b6200055d8582620004d3565b865550620005cc565b601f198416620005768662000324565b5f5b828110156200059f5784890151825560018201915060208501945060208101905062000578565b86831015620005bf5784890151620005bb601f891682620004b5565b8355505b6001600288020188555050505b505050505050565b61275080620005e25f395ff3fe608060405234801561000f575f80fd5b5060043610610114575f3560e01c806342842e0e116100a057806395d89b411161006f57806395d89b41146102f0578063a22cb4651461030e578063b88d4fde1461032a578063c87b56dd14610346578063e985e9c51461037657610114565b806342842e0e146102565780636352211e1461027257806370a08231146102a25780638e9673a5146102d257610114565b8063095ea7b3116100e7578063095ea7b3146101c657806314f710fe146101e257806318160ddd1461020057806323b872dd1461021e5780632890e0d71461023a57610114565b806301ffc9a71461011857806302fe53051461014857806306fdde0314610178578063081812fc14610196575b5f80fd5b610132600480360381019061012d9190611aab565b6103a6565b60405161013f9190611af0565b60405180910390f35b610162600480360381019061015d9190611c45565b610406565b60405161016f9190611d06565b60405180910390f35b6101806104a8565b60405161018d9190611d06565b60405180910390f35b6101b060048036038101906101ab9190611d59565b610537565b6040516101bd9190611dc3565b60405180910390f35b6101e060048036038101906101db9190611e06565b610552565b005b6101ea610568565b6040516101f79190611e53565b60405180910390f35b610208610628565b6040516102159190611e53565b60405180910390f35b61023860048036038101906102339190611e6c565b61062e565b005b610254600480360381019061024f9190611d59565b61072d565b005b610270600480360381019061026b9190611e6c565b61074e565b005b61028c60048036038101906102879190611d59565b61076d565b6040516102999190611dc3565b60405180910390f35b6102bc60048036038101906102b79190611ebc565b61077e565b6040516102c99190611e53565b60405180910390f35b6102da610834565b6040516102e79190611d06565b60405180910390f35b6102f86108c0565b6040516103059190611d06565b60405180910390f35b61032860048036038101906103239190611f11565b610950565b005b610344600480360381019061033f9190611fed565b610966565b005b610360600480360381019061035b9190611d59565b610983565b60405161036d9190611d06565b60405180910390f35b610390600480360381019061038b919061206d565b610a8e565b60405161039d9190611af0565b60405180910390f35b5f634906490660e01b7bffffffffffffffffffffffffffffffffffffffffffffffffffffffff1916827bffffffffffffffffffffffffffffffffffffffffffffffffffffffff191614806103ff57506103fe82610b1c565b5b9050919050565b606081600a908161041791906122a5565b50600a8054610425906120d8565b80601f0160208091040260200160405190810160405280929190818152602001828054610451906120d8565b801561049c5780601f106104735761010080835404028352916020019161049c565b820191905f5260205f20905b81548152906001019060200180831161047f57829003601f168201915b50505050509050919050565b60605f80546104b6906120d8565b80601f01602080910402602001604051908101604052809291908181526020018280546104e2906120d8565b801561052d5780601f106105045761010080835404028352916020019161052d565b820191905f5260205f20905b81548152906001019060200180831161051057829003601f168201915b5050505050905090565b5f61054182610bfd565b5061054b82610c83565b9050919050565b610564828261055f610cbc565b610cc3565b5050565b5f8060075f81548092919061057c906123a1565b91905055905061058c3382610cd5565b5f600a61059883610dc8565b6040516020016105a99291906124a2565b60405160208183030381529060405290506105c48282610e92565b60016009546105d391906124c5565b6009819055506008546009541115610620576040517f08c379a000000000000000000000000000000000000000000000000000000000815260040161061790612542565b60405180910390fd5b819250505090565b60095481565b5f73ffffffffffffffffffffffffffffffffffffffff168273ffffffffffffffffffffffffffffffffffffffff160361069e575f6040517f64a0ae920000000000000000000000000000000000000000000000000000000081526004016106959190611dc3565b60405180910390fd5b5f6106b183836106ac610cbc565b610eec565b90508373ffffffffffffffffffffffffffffffffffffffff168173ffffffffffffffffffffffffffffffffffffffff1614610727578382826040517f64283d7b00000000000000000000000000000000000000000000000000000000815260040161071e93929190612560565b60405180910390fd5b50505050565b610736816110f7565b60016009546107459190612595565b60098190555050565b61076883838360405180602001604052805f815250610966565b505050565b5f61077782610bfd565b9050919050565b5f8073ffffffffffffffffffffffffffffffffffffffff168273ffffffffffffffffffffffffffffffffffffffff16036107ef575f6040517f89c62b640000000000000000000000000000000000000000000000000000000081526004016107e69190611dc3565b60405180910390fd5b60035f8373ffffffffffffffffffffffffffffffffffffffff1673ffffffffffffffffffffffffffffffffffffffff1681526020019081526020015f20549050919050565b600a8054610841906120d8565b80601f016020809104026020016040519081016040528092919081815260200182805461086d906120d8565b80156108b85780601f1061088f576101008083540402835291602001916108b8565b820191905f5260205f20905b81548152906001019060200180831161089b57829003601f168201915b505050505081565b6060600180546108cf906120d8565b80601f01602080910402602001604051908101604052809291908181526020018280546108fb906120d8565b80156109465780601f1061091d57610100808354040283529160200191610946565b820191905f5260205f20905b81548152906001019060200180831161092957829003601f168201915b5050505050905090565b61096261095b610cbc565b8383611179565b5050565b61097184848461062e565b61097d848484846112e2565b50505050565b606061098e82610bfd565b505f60065f8481526020019081526020015f2080546109ac906120d8565b80601f01602080910402602001604051908101604052809291908181526020018280546109d8906120d8565b8015610a235780601f106109fa57610100808354040283529160200191610a23565b820191905f5260205f20905b815481529060010190602001808311610a0657829003601f168201915b505050505090505f610a33611494565b90505f815103610a47578192505050610a89565b5f82511115610a7b578082604051602001610a639291906125c8565b60405160208183030381529060405292505050610a89565b610a84846114aa565b925050505b919050565b5f60055f8473ffffffffffffffffffffffffffffffffffffffff1673ffffffffffffffffffffffffffffffffffffffff1681526020019081526020015f205f8373ffffffffffffffffffffffffffffffffffffffff1673ffffffffffffffffffffffffffffffffffffffff1681526020019081526020015f205f9054906101000a900460ff16905092915050565b5f7f80ac58cd000000000000000000000000000000000000000000000000000000007bffffffffffffffffffffffffffffffffffffffffffffffffffffffff1916827bffffffffffffffffffffffffffffffffffffffffffffffffffffffff19161480610be657507f5b5e139f000000000000000000000000000000000000000000000000000000007bffffffffffffffffffffffffffffffffffffffffffffffffffffffff1916827bffffffffffffffffffffffffffffffffffffffffffffffffffffffff1916145b80610bf65750610bf582611510565b5b9050919050565b5f80610c0883611579565b90505f73ffffffffffffffffffffffffffffffffffffffff168173ffffffffffffffffffffffffffffffffffffffff1603610c7a57826040517f7e273289000000000000000000000000000000000000000000000000000000008152600401610c719190611e53565b60405180910390fd5b80915050919050565b5f60045f8381526020019081526020015f205f9054906101000a900473ffffffffffffffffffffffffffffffffffffffff169050919050565b5f33905090565b610cd083838360016115b2565b505050565b5f73ffffffffffffffffffffffffffffffffffffffff168273ffffffffffffffffffffffffffffffffffffffff1603610d45575f6040517f64a0ae92000000000000000000000000000000000000000000000000000000008152600401610d3c9190611dc3565b60405180910390fd5b5f610d5183835f610eec565b90505f73ffffffffffffffffffffffffffffffffffffffff168173ffffffffffffffffffffffffffffffffffffffff1614610dc3575f6040517f73c6ac6e000000000000000000000000000000000000000000000000000000008152600401610dba9190611dc3565b60405180910390fd5b505050565b60605f6001610dd684611771565b0190505f8167ffffffffffffffff811115610df457610df3611b21565b5b6040519080825280601f01601f191660200182016040528015610e265781602001600182028036833780820191505090505b5090505f82602001820190505b600115610e87578080600190039150507f3031323334353637383961626364656600000000000000000000000000000000600a86061a8153600a8581610e7c57610e7b6125eb565b5b0494505f8503610e33575b819350505050919050565b8060065f8481526020019081526020015f209081610eb091906122a5565b507ff8e1a15aba9398e019f0b49df1a4fde98ee17ae345cb5f6b5e2c27f5033e8ce782604051610ee09190611e53565b60405180910390a15050565b5f80610ef784611579565b90505f73ffffffffffffffffffffffffffffffffffffffff168373ffffffffffffffffffffffffffffffffffffffff1614610f3857610f378184866118c2565b5b5f73ffffffffffffffffffffffffffffffffffffffff168173ffffffffffffffffffffffffffffffffffffffff1614610fc357610f775f855f806115b2565b600160035f8373ffffffffffffffffffffffffffffffffffffffff1673ffffffffffffffffffffffffffffffffffffffff1681526020019081526020015f205f82825403925050819055505b5f73ffffffffffffffffffffffffffffffffffffffff168573ffffffffffffffffffffffffffffffffffffffff161461104257600160035f8773ffffffffffffffffffffffffffffffffffffffff1673ffffffffffffffffffffffffffffffffffffffff1681526020019081526020015f205f82825401925050819055505b8460025f8681526020019081526020015f205f6101000a81548173ffffffffffffffffffffffffffffffffffffffff021916908373ffffffffffffffffffffffffffffffffffffffff160217905550838573ffffffffffffffffffffffffffffffffffffffff168273ffffffffffffffffffffffffffffffffffffffff167fddf252ad1be2c89b69c2b068fc378daa952ba7f163c4a11628f55a4df523b3ef60405160405180910390a4809150509392505050565b5f6111035f835f610eec565b90505f73ffffffffffffffffffffffffffffffffffffffff168173ffffffffffffffffffffffffffffffffffffffff160361117557816040517f7e27328900000000000000000000000000000000000000000000000000000000815260040161116c9190611e53565b60405180910390fd5b5050565b5f73ffffffffffffffffffffffffffffffffffffffff168273ffffffffffffffffffffffffffffffffffffffff16036111e957816040517f5b08ba180000000000000000000000000000000000000000000000000000000081526004016111e09190611dc3565b60405180910390fd5b8060055f8573ffffffffffffffffffffffffffffffffffffffff1673ffffffffffffffffffffffffffffffffffffffff1681526020019081526020015f205f8473ffffffffffffffffffffffffffffffffffffffff1673ffffffffffffffffffffffffffffffffffffffff1681526020019081526020015f205f6101000a81548160ff0219169083151502179055508173ffffffffffffffffffffffffffffffffffffffff168373ffffffffffffffffffffffffffffffffffffffff167f17307eab39ab6107e8899845ad3d59bd9653f200f220920489ca2b5937696c31836040516112d59190611af0565b60405180910390a3505050565b5f8373ffffffffffffffffffffffffffffffffffffffff163b111561148e578273ffffffffffffffffffffffffffffffffffffffff1663150b7a02611325610cbc565b8685856040518563ffffffff1660e01b8152600401611347949392919061266a565b6020604051808303815f875af192505050801561138257506040513d601f19601f8201168201806040525081019061137f91906126c8565b60015b611403573d805f81146113b0576040519150601f19603f3d011682016040523d82523d5f602084013e6113b5565b606091505b505f8151036113fb57836040517f64a0ae920000000000000000000000000000000000000000000000000000000081526004016113f29190611dc3565b60405180910390fd5b805181602001fd5b63150b7a0260e01b7bffffffffffffffffffffffffffffffffffffffffffffffffffffffff1916817bffffffffffffffffffffffffffffffffffffffffffffffffffffffff19161461148c57836040517f64a0ae920000000000000000000000000000000000000000000000000000000081526004016114839190611dc3565b60405180910390fd5b505b50505050565b606060405180602001604052805f815250905090565b60606114b582610bfd565b505f6114bf611494565b90505f8151116114dd5760405180602001604052805f815250611508565b806114e784610dc8565b6040516020016114f89291906125c8565b6040516020818303038152906040525b915050919050565b5f7f01ffc9a7000000000000000000000000000000000000000000000000000000007bffffffffffffffffffffffffffffffffffffffffffffffffffffffff1916827bffffffffffffffffffffffffffffffffffffffffffffffffffffffff1916149050919050565b5f60025f8381526020019081526020015f205f9054906101000a900473ffffffffffffffffffffffffffffffffffffffff169050919050565b80806115ea57505f73ffffffffffffffffffffffffffffffffffffffff168273ffffffffffffffffffffffffffffffffffffffff1614155b1561171c575f6115f984610bfd565b90505f73ffffffffffffffffffffffffffffffffffffffff168373ffffffffffffffffffffffffffffffffffffffff161415801561166357508273ffffffffffffffffffffffffffffffffffffffff168173ffffffffffffffffffffffffffffffffffffffff1614155b801561167657506116748184610a8e565b155b156116b857826040517fa9fbf51f0000000000000000000000000000000000000000000000000000000081526004016116af9190611dc3565b60405180910390fd5b811561171a57838573ffffffffffffffffffffffffffffffffffffffff168273ffffffffffffffffffffffffffffffffffffffff167f8c5be1e5ebec7d5bd14f71427d1e84f3dd0314c0f7b2291e5b200ac8c7c3b92560405160405180910390a45b505b8360045f8581526020019081526020015f205f6101000a81548173ffffffffffffffffffffffffffffffffffffffff021916908373ffffffffffffffffffffffffffffffffffffffff16021790555050505050565b5f805f90507a184f03e93ff9f4daa797ed6e38ed64bf6a1f01000000000000000083106117cd577a184f03e93ff9f4daa797ed6e38ed64bf6a1f01000000000000000083816117c3576117c26125eb565b5b0492506040810190505b6d04ee2d6d415b85acef8100000000831061180a576d04ee2d6d415b85acef81000000008381611800576117ff6125eb565b5b0492506020810190505b662386f26fc10000831061183957662386f26fc10000838161182f5761182e6125eb565b5b0492506010810190505b6305f5e1008310611862576305f5e1008381611858576118576125eb565b5b0492506008810190505b612710831061188757612710838161187d5761187c6125eb565b5b0492506004810190505b606483106118aa57606483816118a05761189f6125eb565b5b0492506002810190505b600a83106118b9576001810190505b80915050919050565b6118cd838383611985565b611980575f73ffffffffffffffffffffffffffffffffffffffff168373ffffffffffffffffffffffffffffffffffffffff160361194157806040517f7e2732890000000000000000000000000000000000000000000000000000000081526004016119389190611e53565b60405180910390fd5b81816040517f177e802f0000000000000000000000000000000000000000000000000000000081526004016119779291906126f3565b60405180910390fd5b505050565b5f8073ffffffffffffffffffffffffffffffffffffffff168373ffffffffffffffffffffffffffffffffffffffff1614158015611a3c57508273ffffffffffffffffffffffffffffffffffffffff168473ffffffffffffffffffffffffffffffffffffffff1614806119fd57506119fc8484610a8e565b5b80611a3b57508273ffffffffffffffffffffffffffffffffffffffff16611a2383610c83565b73ffffffffffffffffffffffffffffffffffffffff16145b5b90509392505050565b5f604051905090565b5f80fd5b5f80fd5b5f7fffffffff0000000000000000000000000000000000000000000000000000000082169050919050565b611a8a81611a56565b8114611a94575f80fd5b50565b5f81359050611aa581611a81565b92915050565b5f60208284031215611ac057611abf611a4e565b5b5f611acd84828501611a97565b91505092915050565b5f8115159050919050565b611aea81611ad6565b82525050565b5f602082019050611b035f830184611ae1565b92915050565b5f80fd5b5f80fd5b5f601f19601f8301169050919050565b7f4e487b71000000000000000000000000000000000000000000000000000000005f52604160045260245ffd5b611b5782611b11565b810181811067ffffffffffffffff82111715611b7657611b75611b21565b5b80604052505050565b5f611b88611a45565b9050611b948282611b4e565b919050565b5f67ffffffffffffffff821115611bb357611bb2611b21565b5b611bbc82611b11565b9050602081019050919050565b828183375f83830152505050565b5f611be9611be484611b99565b611b7f565b905082815260208101848484011115611c0557611c04611b0d565b5b611c10848285611bc9565b509392505050565b5f82601f830112611c2c57611c2b611b09565b5b8135611c3c848260208601611bd7565b91505092915050565b5f60208284031215611c5a57611c59611a4e565b5b5f82013567ffffffffffffffff811115611c7757611c76611a52565b5b611c8384828501611c18565b91505092915050565b5f81519050919050565b5f82825260208201905092915050565b5f5b83811015611cc3578082015181840152602081019050611ca8565b5f8484015250505050565b5f611cd882611c8c565b611ce28185611c96565b9350611cf2818560208601611ca6565b611cfb81611b11565b840191505092915050565b5f6020820190508181035f830152611d1e8184611cce565b905092915050565b5f819050919050565b611d3881611d26565b8114611d42575f80fd5b50565b5f81359050611d5381611d2f565b92915050565b5f60208284031215611d6e57611d6d611a4e565b5b5f611d7b84828501611d45565b91505092915050565b5f73ffffffffffffffffffffffffffffffffffffffff82169050919050565b5f611dad82611d84565b9050919050565b611dbd81611da3565b82525050565b5f602082019050611dd65f830184611db4565b92915050565b611de581611da3565b8114611def575f80fd5b50565b5f81359050611e0081611ddc565b92915050565b5f8060408385031215611e1c57611e1b611a4e565b5b5f611e2985828601611df2565b9250506020611e3a85828601611d45565b9150509250929050565b611e4d81611d26565b82525050565b5f602082019050611e665f830184611e44565b92915050565b5f805f60608486031215611e8357611e82611a4e565b5b5f611e9086828701611df2565b9350506020611ea186828701611df2565b9250506040611eb286828701611d45565b9150509250925092565b5f60208284031215611ed157611ed0611a4e565b5b5f611ede84828501611df2565b91505092915050565b611ef081611ad6565b8114611efa575f80fd5b50565b5f81359050611f0b81611ee7565b92915050565b5f8060408385031215611f2757611f26611a4e565b5b5f611f3485828601611df2565b9250506020611f4585828601611efd565b9150509250929050565b5f67ffffffffffffffff821115611f6957611f68611b21565b5b611f7282611b11565b9050602081019050919050565b5f611f91611f8c84611f4f565b611b7f565b905082815260208101848484011115611fad57611fac611b0d565b5b611fb8848285611bc9565b509392505050565b5f82601f830112611fd457611fd3611b09565b5b8135611fe4848260208601611f7f565b91505092915050565b5f805f806080858703121561200557612004611a4e565b5b5f61201287828801611df2565b945050602061202387828801611df2565b935050604061203487828801611d45565b925050606085013567ffffffffffffffff81111561205557612054611a52565b5b61206187828801611fc0565b91505092959194509250565b5f806040838503121561208357612082611a4e565b5b5f61209085828601611df2565b92505060206120a185828601611df2565b9150509250929050565b7f4e487b71000000000000000000000000000000000000000000000000000000005f52602260045260245ffd5b5f60028204905060018216806120ef57607f821691505b602082108103612102576121016120ab565b5b50919050565b5f819050815f5260205f209050919050565b5f6020601f8301049050919050565b5f82821b905092915050565b5f600883026121647fffffffffffffffffffffffffffffffffffffffffffffffffffffffffffffffff82612129565b61216e8683612129565b95508019841693508086168417925050509392505050565b5f819050919050565b5f6121a96121a461219f84611d26565b612186565b611d26565b9050919050565b5f819050919050565b6121c28361218f565b6121d66121ce826121b0565b848454612135565b825550505050565b5f90565b6121ea6121de565b6121f58184846121b9565b505050565b5b818110156122185761220d5f826121e2565b6001810190506121fb565b5050565b601f82111561225d5761222e81612108565b6122378461211a565b81016020851015612246578190505b61225a6122528561211a565b8301826121fa565b50505b505050565b5f82821c905092915050565b5f61227d5f1984600802612262565b1980831691505092915050565b5f612295838361226e565b9150826002028217905092915050565b6122ae82611c8c565b67ffffffffffffffff8111156122c7576122c6611b21565b5b6122d182546120d8565b6122dc82828561221c565b5f60209050601f83116001811461230d575f84156122fb578287015190505b612305858261228a565b86555061236c565b601f19841661231b86612108565b5f5b828110156123425784890151825560018201915060208501945060208101905061231d565b8683101561235f578489015161235b601f89168261226e565b8355505b6001600288020188555050505b505050505050565b7f4e487b71000000000000000000000000000000000000000000000000000000005f52601160045260245ffd5b5f6123ab82611d26565b91507fffffffffffffffffffffffffffffffffffffffffffffffffffffffffffffffff82036123dd576123dc612374565b5b600182019050919050565b5f81905092915050565b5f81546123fe816120d8565b61240881866123e8565b9450600182165f8114612422576001811461243757612469565b60ff1983168652811515820286019350612469565b61244085612108565b5f5b8381101561246157815481890152600182019150602081019050612442565b838801955050505b50505092915050565b5f61247c82611c8c565b61248681856123e8565b9350612496818560208601611ca6565b80840191505092915050565b5f6124ad82856123f2565b91506124b98284612472565b91508190509392505050565b5f6124cf82611d26565b91506124da83611d26565b92508282019050808211156124f2576124f1612374565b5b92915050565b7f5468657265206973206120737570706c792063617000000000000000000000005f82015250565b5f61252c601583611c96565b9150612537826124f8565b602082019050919050565b5f6020820190508181035f83015261255981612520565b9050919050565b5f6060820190506125735f830186611db4565b6125806020830185611e44565b61258d6040830184611db4565b949350505050565b5f61259f82611d26565b91506125aa83611d26565b92508282039050818111156125c2576125c1612374565b5b92915050565b5f6125d38285612472565b91506125df8284612472565b91508190509392505050565b7f4e487b71000000000000000000000000000000000000000000000000000000005f52601260045260245ffd5b5f81519050919050565b5f82825260208201905092915050565b5f61263c82612618565b6126468185612622565b9350612656818560208601611ca6565b61265f81611b11565b840191505092915050565b5f60808201905061267d5f830187611db4565b61268a6020830186611db4565b6126976040830185611e44565b81810360608301526126a98184612632565b905095945050505050565b5f815190506126c281611a81565b92915050565b5f602082840312156126dd576126dc611a4e565b5b5f6126ea848285016126b4565b91505092915050565b5f6040820190506127065f830185611db4565b6127136020830184611e44565b939250505056fea264697066735822122041e6c39ef80bd5a27de975b0475502f3655c1256c9ed718f16654a88b7755e0364736f6c63430008150033",
					"opcodes": "PUSH1 0x80 PUSH1 0x40 MSTORE PUSH1 0x5 PUSH1 0x8 SSTORE CALLVALUE DUP1 ISZERO PUSH3 0x15 JUMPI PUSH0 DUP1 REVERT JUMPDEST POP PUSH1 0x40 MLOAD PUSH3 0x2D32 CODESIZE SUB DUP1 PUSH3 0x2D32 DUP4 CODECOPY DUP2 DUP2 ADD PUSH1 0x40 MSTORE DUP2 ADD SWAP1 PUSH3 0x3B SWAP2 SWAP1 PUSH3 0x26A JUMP JUMPDEST PUSH1 0x40 MLOAD DUP1 PUSH1 0x40 ADD PUSH1 0x40 MSTORE DUP1 PUSH1 0x6 DUP2 MSTORE PUSH1 0x20 ADD PUSH32 0x4E65774E46540000000000000000000000000000000000000000000000000000 DUP2 MSTORE POP PUSH1 0x40 MLOAD DUP1 PUSH1 0x40 ADD PUSH1 0x40 MSTORE DUP1 PUSH1 0x3 DUP2 MSTORE PUSH1 0x20 ADD PUSH32 0x4E46540000000000000000000000000000000000000000000000000000000000 DUP2 MSTORE POP DUP2 PUSH0 SWAP1 DUP2 PUSH3 0xB7 SWAP2 SWAP1 PUSH3 0x4F0 JUMP JUMPDEST POP DUP1 PUSH1 0x1 SWAP1 DUP2 PUSH3 0xC9 SWAP2 SWAP1 PUSH3 0x4F0 JUMP JUMPDEST POP POP POP DUP1 PUSH1 0xA SWAP1 DUP2 PUSH3 0xDD SWAP2 SWAP1 PUSH3 0x4F0 JUMP JUMPDEST POP POP PUSH3 0x5D4 JUMP JUMPDEST PUSH0 PUSH1 0x40 MLOAD SWAP1 POP SWAP1 JUMP JUMPDEST PUSH0 DUP1 REVERT JUMPDEST PUSH0 DUP1 REVERT JUMPDEST PUSH0 DUP1 REVERT JUMPDEST PUSH0 DUP1 REVERT JUMPDEST PUSH0 PUSH1 0x1F NOT PUSH1 0x1F DUP4 ADD AND SWAP1 POP SWAP2 SWAP1 POP JUMP JUMPDEST PUSH32 0x4E487B7100000000000000000000000000000000000000000000000000000000 PUSH0 MSTORE PUSH1 0x41 PUSH1 0x4 MSTORE PUSH1 0x24 PUSH0 REVERT JUMPDEST PUSH3 0x146 DUP3 PUSH3 0xFE JUMP JUMPDEST DUP2 ADD DUP2 DUP2 LT PUSH8 0xFFFFFFFFFFFFFFFF DUP3 GT OR ISZERO PUSH3 0x168 JUMPI PUSH3 0x167 PUSH3 0x10E JUMP JUMPDEST JUMPDEST DUP1 PUSH1 0x40 MSTORE POP POP POP JUMP JUMPDEST PUSH0 PUSH3 0x17C PUSH3 0xE5 JUMP JUMPDEST SWAP1 POP PUSH3 0x18A DUP3 DUP3 PUSH3 0x13B JUMP JUMPDEST SWAP2 SWAP1 POP JUMP JUMPDEST PUSH0 PUSH8 0xFFFFFFFFFFFFFFFF DUP3 GT ISZERO PUSH3 0x1AC JUMPI PUSH3 0x1AB PUSH3 0x10E JUMP JUMPDEST JUMPDEST PUSH3 0x1B7 DUP3 PUSH3 0xFE JUMP JUMPDEST SWAP1 POP PUSH1 0x20 DUP2 ADD SWAP1 POP SWAP2 SWAP1 POP JUMP JUMPDEST PUSH0 JUMPDEST DUP4 DUP2 LT ISZERO PUSH3 0x1E3 JUMPI DUP1 DUP3 ADD MLOAD DUP2 DUP5 ADD MSTORE PUSH1 0x20 DUP2 ADD SWAP1 POP PUSH3 0x1C6 JUMP JUMPDEST PUSH0 DUP5 DUP5 ADD MSTORE POP POP POP POP JUMP JUMPDEST PUSH0 PUSH3 0x204 PUSH3 0x1FE DUP5 PUSH3 0x18F JUMP JUMPDEST PUSH3 0x171 JUMP JUMPDEST SWAP1 POP DUP3 DUP2 MSTORE PUSH1 0x20 DUP2 ADD DUP5 DUP5 DUP5 ADD GT ISZERO PUSH3 0x223 JUMPI PUSH3 0x222 PUSH3 0xFA JUMP JUMPDEST JUMPDEST PUSH3 0x230 DUP5 DUP3 DUP6 PUSH3 0x1C4 JUMP JUMPDEST POP SWAP4 SWAP3 POP POP POP JUMP JUMPDEST PUSH0 DUP3 PUSH1 0x1F DUP4 ADD SLT PUSH3 0x24F JUMPI PUSH3 0x24E PUSH3 0xF6 JUMP JUMPDEST JUMPDEST DUP2 MLOAD PUSH3 0x261 DUP5 DUP3 PUSH1 0x20 DUP7 ADD PUSH3 0x1EE JUMP JUMPDEST SWAP2 POP POP SWAP3 SWAP2 POP POP JUMP JUMPDEST PUSH0 PUSH1 0x20 DUP3 DUP5 SUB SLT ISZERO PUSH3 0x282 JUMPI PUSH3 0x281 PUSH3 0xEE JUMP JUMPDEST JUMPDEST PUSH0 DUP3 ADD MLOAD PUSH8 0xFFFFFFFFFFFFFFFF DUP2 GT ISZERO PUSH3 0x2A2 JUMPI PUSH3 0x2A1 PUSH3 0xF2 JUMP JUMPDEST JUMPDEST PUSH3 0x2B0 DUP5 DUP3 DUP6 ADD PUSH3 0x238 JUMP JUMPDEST SWAP2 POP POP SWAP3 SWAP2 POP POP JUMP JUMPDEST PUSH0 DUP2 MLOAD SWAP1 POP SWAP2 SWAP1 POP JUMP JUMPDEST PUSH32 0x4E487B7100000000000000000000000000000000000000000000000000000000 PUSH0 MSTORE PUSH1 0x22 PUSH1 0x4 MSTORE PUSH1 0x24 PUSH0 REVERT JUMPDEST PUSH0 PUSH1 0x2 DUP3 DIV SWAP1 POP PUSH1 0x1 DUP3 AND DUP1 PUSH3 0x308 JUMPI PUSH1 0x7F DUP3 AND SWAP2 POP JUMPDEST PUSH1 0x20 DUP3 LT DUP2 SUB PUSH3 0x31E JUMPI PUSH3 0x31D PUSH3 0x2C3 JUMP JUMPDEST JUMPDEST POP SWAP2 SWAP1 POP JUMP JUMPDEST PUSH0 DUP2 SWAP1 POP DUP2 PUSH0 MSTORE PUSH1 0x20 PUSH0 KECCAK256 SWAP1 POP SWAP2 SWAP1 POP JUMP JUMPDEST PUSH0 PUSH1 0x20 PUSH1 0x1F DUP4 ADD DIV SWAP1 POP SWAP2 SWAP1 POP JUMP JUMPDEST PUSH0 DUP3 DUP3 SHL SWAP1 POP SWAP3 SWAP2 POP POP JUMP JUMPDEST PUSH0 PUSH1 0x8 DUP4 MUL PUSH3 0x382 PUSH32 0xFFFFFFFFFFFFFFFFFFFFFFFFFFFFFFFFFFFFFFFFFFFFFFFFFFFFFFFFFFFFFFFF DUP3 PUSH3 0x345 JUMP JUMPDEST PUSH3 0x38E DUP7 DUP4 PUSH3 0x345 JUMP JUMPDEST SWAP6 POP DUP1 NOT DUP5 AND SWAP4 POP DUP1 DUP7 AND DUP5 OR SWAP3 POP POP POP SWAP4 SWAP3 POP POP POP JUMP JUMPDEST PUSH0 DUP2 SWAP1 POP SWAP2 SWAP1 POP JUMP JUMPDEST PUSH0 DUP2 SWAP1 POP SWAP2 SWAP1 POP JUMP JUMPDEST PUSH0 PUSH3 0x3D8 PUSH3 0x3D2 PUSH3 0x3CC DUP5 PUSH3 0x3A6 JUMP JUMPDEST PUSH3 0x3AF JUMP JUMPDEST PUSH3 0x3A6 JUMP JUMPDEST SWAP1 POP SWAP2 SWAP1 POP JUMP JUMPDEST PUSH0 DUP2 SWAP1 POP SWAP2 SWAP1 POP JUMP JUMPDEST PUSH3 0x3F3 DUP4 PUSH3 0x3B8 JUMP JUMPDEST PUSH3 0x40B PUSH3 0x402 DUP3 PUSH3 0x3DF JUMP JUMPDEST DUP5 DUP5 SLOAD PUSH3 0x351 JUMP JUMPDEST DUP3 SSTORE POP POP POP POP JUMP JUMPDEST PUSH0 SWAP1 JUMP JUMPDEST PUSH3 0x421 PUSH3 0x413 JUMP JUMPDEST PUSH3 0x42E DUP2 DUP5 DUP5 PUSH3 0x3E8 JUMP JUMPDEST POP POP POP JUMP JUMPDEST JUMPDEST DUP2 DUP2 LT ISZERO PUSH3 0x455 JUMPI PUSH3 0x449 PUSH0 DUP3 PUSH3 0x417 JUMP JUMPDEST PUSH1 0x1 DUP2 ADD SWAP1 POP PUSH3 0x434 JUMP JUMPDEST POP POP JUMP JUMPDEST PUSH1 0x1F DUP3 GT ISZERO PUSH3 0x4A4 JUMPI PUSH3 0x46E DUP2 PUSH3 0x324 JUMP JUMPDEST PUSH3 0x479 DUP5 PUSH3 0x336 JUMP JUMPDEST DUP2 ADD PUSH1 0x20 DUP6 LT ISZERO PUSH3 0x489 JUMPI DUP2 SWAP1 POP JUMPDEST PUSH3 0x4A1 PUSH3 0x498 DUP6 PUSH3 0x336 JUMP JUMPDEST DUP4 ADD DUP3 PUSH3 0x433 JUMP JUMPDEST POP POP JUMPDEST POP POP POP JUMP JUMPDEST PUSH0 DUP3 DUP3 SHR SWAP1 POP SWAP3 SWAP2 POP POP JUMP JUMPDEST PUSH0 PUSH3 0x4C6 PUSH0 NOT DUP5 PUSH1 0x8 MUL PUSH3 0x4A9 JUMP JUMPDEST NOT DUP1 DUP4 AND SWAP2 POP POP SWAP3 SWAP2 POP POP JUMP JUMPDEST PUSH0 PUSH3 0x4E0 DUP4 DUP4 PUSH3 0x4B5 JUMP JUMPDEST SWAP2 POP DUP3 PUSH1 0x2 MUL DUP3 OR SWAP1 POP SWAP3 SWAP2 POP POP JUMP JUMPDEST PUSH3 0x4FB DUP3 PUSH3 0x2B9 JUMP JUMPDEST PUSH8 0xFFFFFFFFFFFFFFFF DUP2 GT ISZERO PUSH3 0x517 JUMPI PUSH3 0x516 PUSH3 0x10E JUMP JUMPDEST JUMPDEST PUSH3 0x523 DUP3 SLOAD PUSH3 0x2F0 JUMP JUMPDEST PUSH3 0x530 DUP3 DUP3 DUP6 PUSH3 0x459 JUMP JUMPDEST PUSH0 PUSH1 0x20 SWAP1 POP PUSH1 0x1F DUP4 GT PUSH1 0x1 DUP2 EQ PUSH3 0x566 JUMPI PUSH0 DUP5 ISZERO PUSH3 0x551 JUMPI DUP3 DUP8 ADD MLOAD SWAP1 POP JUMPDEST PUSH3 0x55D DUP6 DUP3 PUSH3 0x4D3 JUMP JUMPDEST DUP7 SSTORE POP PUSH3 0x5CC JUMP JUMPDEST PUSH1 0x1F NOT DUP5 AND PUSH3 0x576 DUP7 PUSH3 0x324 JUMP JUMPDEST PUSH0 JUMPDEST DUP3 DUP2 LT ISZERO PUSH3 0x59F JUMPI DUP5 DUP10 ADD MLOAD DUP3 SSTORE PUSH1 0x1 DUP3 ADD SWAP2 POP PUSH1 0x20 DUP6 ADD SWAP5 POP PUSH1 0x20 DUP2 ADD SWAP1 POP PUSH3 0x578 JUMP JUMPDEST DUP7 DUP4 LT ISZERO PUSH3 0x5BF JUMPI DUP5 DUP10 ADD MLOAD PUSH3 0x5BB PUSH1 0x1F DUP10 AND DUP3 PUSH3 0x4B5 JUMP JUMPDEST DUP4 SSTORE POP JUMPDEST PUSH1 0x1 PUSH1 0x2 DUP9 MUL ADD DUP9 SSTORE POP POP POP JUMPDEST POP POP POP POP POP POP JUMP JUMPDEST PUSH2 0x2750 DUP1 PUSH3 0x5E2 PUSH0 CODECOPY PUSH0 RETURN INVALID PUSH1 0x80 PUSH1 0x40 MSTORE CALLVALUE DUP1 ISZERO PUSH2 0xF JUMPI PUSH0 DUP1 REVERT JUMPDEST POP PUSH1 0x4 CALLDATASIZE LT PUSH2 0x114 JUMPI PUSH0 CALLDATALOAD PUSH1 0xE0 SHR DUP1 PUSH4 0x42842E0E GT PUSH2 0xA0 JUMPI DUP1 PUSH4 0x95D89B41 GT PUSH2 0x6F JUMPI DUP1 PUSH4 0x95D89B41 EQ PUSH2 0x2F0 JUMPI DUP1 PUSH4 0xA22CB465 EQ PUSH2 0x30E JUMPI DUP1 PUSH4 0xB88D4FDE EQ PUSH2 0x32A JUMPI DUP1 PUSH4 0xC87B56DD EQ PUSH2 0x346 JUMPI DUP1 PUSH4 0xE985E9C5 EQ PUSH2 0x376 JUMPI PUSH2 0x114 JUMP JUMPDEST DUP1 PUSH4 0x42842E0E EQ PUSH2 0x256 JUMPI DUP1 PUSH4 0x6352211E EQ PUSH2 0x272 JUMPI DUP1 PUSH4 0x70A08231 EQ PUSH2 0x2A2 JUMPI DUP1 PUSH4 0x8E9673A5 EQ PUSH2 0x2D2 JUMPI PUSH2 0x114 JUMP JUMPDEST DUP1 PUSH4 0x95EA7B3 GT PUSH2 0xE7 JUMPI DUP1 PUSH4 0x95EA7B3 EQ PUSH2 0x1C6 JUMPI DUP1 PUSH4 0x14F710FE EQ PUSH2 0x1E2 JUMPI DUP1 PUSH4 0x18160DDD EQ PUSH2 0x200 JUMPI DUP1 PUSH4 0x23B872DD EQ PUSH2 0x21E JUMPI DUP1 PUSH4 0x2890E0D7 EQ PUSH2 0x23A JUMPI PUSH2 0x114 JUMP JUMPDEST DUP1 PUSH4 0x1FFC9A7 EQ PUSH2 0x118 JUMPI DUP1 PUSH4 0x2FE5305 EQ PUSH2 0x148 JUMPI DUP1 PUSH4 0x6FDDE03 EQ PUSH2 0x178 JUMPI DUP1 PUSH4 0x81812FC EQ PUSH2 0x196 JUMPI JUMPDEST PUSH0 DUP1 REVERT JUMPDEST PUSH2 0x132 PUSH1 0x4 DUP1 CALLDATASIZE SUB DUP2 ADD SWAP1 PUSH2 0x12D SWAP2 SWAP1 PUSH2 0x1AAB JUMP JUMPDEST PUSH2 0x3A6 JUMP JUMPDEST PUSH1 0x40 MLOAD PUSH2 0x13F SWAP2 SWAP1 PUSH2 0x1AF0 JUMP JUMPDEST PUSH1 0x40 MLOAD DUP1 SWAP2 SUB SWAP1 RETURN JUMPDEST PUSH2 0x162 PUSH1 0x4 DUP1 CALLDATASIZE SUB DUP2 ADD SWAP1 PUSH2 0x15D SWAP2 SWAP1 PUSH2 0x1C45 JUMP JUMPDEST PUSH2 0x406 JUMP JUMPDEST PUSH1 0x40 MLOAD PUSH2 0x16F SWAP2 SWAP1 PUSH2 0x1D06 JUMP JUMPDEST PUSH1 0x40 MLOAD DUP1 SWAP2 SUB SWAP1 RETURN JUMPDEST PUSH2 0x180 PUSH2 0x4A8 JUMP JUMPDEST PUSH1 0x40 MLOAD PUSH2 0x18D SWAP2 SWAP1 PUSH2 0x1D06 JUMP JUMPDEST PUSH1 0x40 MLOAD DUP1 SWAP2 SUB SWAP1 RETURN JUMPDEST PUSH2 0x1B0 PUSH1 0x4 DUP1 CALLDATASIZE SUB DUP2 ADD SWAP1 PUSH2 0x1AB SWAP2 SWAP1 PUSH2 0x1D59 JUMP JUMPDEST PUSH2 0x537 JUMP JUMPDEST PUSH1 0x40 MLOAD PUSH2 0x1BD SWAP2 SWAP1 PUSH2 0x1DC3 JUMP JUMPDEST PUSH1 0x40 MLOAD DUP1 SWAP2 SUB SWAP1 RETURN JUMPDEST PUSH2 0x1E0 PUSH1 0x4 DUP1 CALLDATASIZE SUB DUP2 ADD SWAP1 PUSH2 0x1DB SWAP2 SWAP1 PUSH2 0x1E06 JUMP JUMPDEST PUSH2 0x552 JUMP JUMPDEST STOP JUMPDEST PUSH2 0x1EA PUSH2 0x568 JUMP JUMPDEST PUSH1 0x40 MLOAD PUSH2 0x1F7 SWAP2 SWAP1 PUSH2 0x1E53 JUMP JUMPDEST PUSH1 0x40 MLOAD DUP1 SWAP2 SUB SWAP1 RETURN JUMPDEST PUSH2 0x208 PUSH2 0x628 JUMP JUMPDEST PUSH1 0x40 MLOAD PUSH2 0x215 SWAP2 SWAP1 PUSH2 0x1E53 JUMP JUMPDEST PUSH1 0x40 MLOAD DUP1 SWAP2 SUB SWAP1 RETURN JUMPDEST PUSH2 0x238 PUSH1 0x4 DUP1 CALLDATASIZE SUB DUP2 ADD SWAP1 PUSH2 0x233 SWAP2 SWAP1 PUSH2 0x1E6C JUMP JUMPDEST PUSH2 0x62E JUMP JUMPDEST STOP JUMPDEST PUSH2 0x254 PUSH1 0x4 DUP1 CALLDATASIZE SUB DUP2 ADD SWAP1 PUSH2 0x24F SWAP2 SWAP1 PUSH2 0x1D59 JUMP JUMPDEST PUSH2 0x72D JUMP JUMPDEST STOP JUMPDEST PUSH2 0x270 PUSH1 0x4 DUP1 CALLDATASIZE SUB DUP2 ADD SWAP1 PUSH2 0x26B SWAP2 SWAP1 PUSH2 0x1E6C JUMP JUMPDEST PUSH2 0x74E JUMP JUMPDEST STOP JUMPDEST PUSH2 0x28C PUSH1 0x4 DUP1 CALLDATASIZE SUB DUP2 ADD SWAP1 PUSH2 0x287 SWAP2 SWAP1 PUSH2 0x1D59 JUMP JUMPDEST PUSH2 0x76D JUMP JUMPDEST PUSH1 0x40 MLOAD PUSH2 0x299 SWAP2 SWAP1 PUSH2 0x1DC3 JUMP JUMPDEST PUSH1 0x40 MLOAD DUP1 SWAP2 SUB SWAP1 RETURN JUMPDEST PUSH2 0x2BC PUSH1 0x4 DUP1 CALLDATASIZE SUB DUP2 ADD SWAP1 PUSH2 0x2B7 SWAP2 SWAP1 PUSH2 0x1EBC JUMP JUMPDEST PUSH2 0x77E JUMP JUMPDEST PUSH1 0x40 MLOAD PUSH2 0x2C9 SWAP2 SWAP1 PUSH2 0x1E53 JUMP JUMPDEST PUSH1 0x40 MLOAD DUP1 SWAP2 SUB SWAP1 RETURN JUMPDEST PUSH2 0x2DA PUSH2 0x834 JUMP JUMPDEST PUSH1 0x40 MLOAD PUSH2 0x2E7 SWAP2 SWAP1 PUSH2 0x1D06 JUMP JUMPDEST PUSH1 0x40 MLOAD DUP1 SWAP2 SUB SWAP1 RETURN JUMPDEST PUSH2 0x2F8 PUSH2 0x8C0 JUMP JUMPDEST PUSH1 0x40 MLOAD PUSH2 0x305 SWAP2 SWAP1 PUSH2 0x1D06 JUMP JUMPDEST PUSH1 0x40 MLOAD DUP1 SWAP2 SUB SWAP1 RETURN JUMPDEST PUSH2 0x328 PUSH1 0x4 DUP1 CALLDATASIZE SUB DUP2 ADD SWAP1 PUSH2 0x323 SWAP2 SWAP1 PUSH2 0x1F11 JUMP JUMPDEST PUSH2 0x950 JUMP JUMPDEST STOP JUMPDEST PUSH2 0x344 PUSH1 0x4 DUP1 CALLDATASIZE SUB DUP2 ADD SWAP1 PUSH2 0x33F SWAP2 SWAP1 PUSH2 0x1FED JUMP JUMPDEST PUSH2 0x966 JUMP JUMPDEST STOP JUMPDEST PUSH2 0x360 PUSH1 0x4 DUP1 CALLDATASIZE SUB DUP2 ADD SWAP1 PUSH2 0x35B SWAP2 SWAP1 PUSH2 0x1D59 JUMP JUMPDEST PUSH2 0x983 JUMP JUMPDEST PUSH1 0x40 MLOAD PUSH2 0x36D SWAP2 SWAP1 PUSH2 0x1D06 JUMP JUMPDEST PUSH1 0x40 MLOAD DUP1 SWAP2 SUB SWAP1 RETURN JUMPDEST PUSH2 0x390 PUSH1 0x4 DUP1 CALLDATASIZE SUB DUP2 ADD SWAP1 PUSH2 0x38B SWAP2 SWAP1 PUSH2 0x206D JUMP JUMPDEST PUSH2 0xA8E JUMP JUMPDEST PUSH1 0x40 MLOAD PUSH2 0x39D SWAP2 SWAP1 PUSH2 0x1AF0 JUMP JUMPDEST PUSH1 0x40 MLOAD DUP1 SWAP2 SUB SWAP1 RETURN JUMPDEST PUSH0 PUSH4 0x49064906 PUSH1 0xE0 SHL PUSH28 0xFFFFFFFFFFFFFFFFFFFFFFFFFFFFFFFFFFFFFFFFFFFFFFFFFFFFFFFF NOT AND DUP3 PUSH28 0xFFFFFFFFFFFFFFFFFFFFFFFFFFFFFFFFFFFFFFFFFFFFFFFFFFFFFFFF NOT AND EQ DUP1 PUSH2 0x3FF JUMPI POP PUSH2 0x3FE DUP3 PUSH2 0xB1C JUMP JUMPDEST JUMPDEST SWAP1 POP SWAP2 SWAP1 POP JUMP JUMPDEST PUSH1 0x60 DUP2 PUSH1 0xA SWAP1 DUP2 PUSH2 0x417 SWAP2 SWAP1 PUSH2 0x22A5 JUMP JUMPDEST POP PUSH1 0xA DUP1 SLOAD PUSH2 0x425 SWAP1 PUSH2 0x20D8 JUMP JUMPDEST DUP1 PUSH1 0x1F ADD PUSH1 0x20 DUP1 SWAP2 DIV MUL PUSH1 0x20 ADD PUSH1 0x40 MLOAD SWAP1 DUP2 ADD PUSH1 0x40 MSTORE DUP1 SWAP3 SWAP2 SWAP1 DUP2 DUP2 MSTORE PUSH1 0x20 ADD DUP3 DUP1 SLOAD PUSH2 0x451 SWAP1 PUSH2 0x20D8 JUMP JUMPDEST DUP1 ISZERO PUSH2 0x49C JUMPI DUP1 PUSH1 0x1F LT PUSH2 0x473 JUMPI PUSH2 0x100 DUP1 DUP4 SLOAD DIV MUL DUP4 MSTORE SWAP2 PUSH1 0x20 ADD SWAP2 PUSH2 0x49C JUMP JUMPDEST DUP3 ADD SWAP2 SWAP1 PUSH0 MSTORE PUSH1 0x20 PUSH0 KECCAK256 SWAP1 JUMPDEST DUP2 SLOAD DUP2 MSTORE SWAP1 PUSH1 0x1 ADD SWAP1 PUSH1 0x20 ADD DUP1 DUP4 GT PUSH2 0x47F JUMPI DUP3 SWAP1 SUB PUSH1 0x1F AND DUP3 ADD SWAP2 JUMPDEST POP POP POP POP POP SWAP1 POP SWAP2 SWAP1 POP JUMP JUMPDEST PUSH1 0x60 PUSH0 DUP1 SLOAD PUSH2 0x4B6 SWAP1 PUSH2 0x20D8 JUMP JUMPDEST DUP1 PUSH1 0x1F ADD PUSH1 0x20 DUP1 SWAP2 DIV MUL PUSH1 0x20 ADD PUSH1 0x40 MLOAD SWAP1 DUP2 ADD PUSH1 0x40 MSTORE DUP1 SWAP3 SWAP2 SWAP1 DUP2 DUP2 MSTORE PUSH1 0x20 ADD DUP3 DUP1 SLOAD PUSH2 0x4E2 SWAP1 PUSH2 0x20D8 JUMP JUMPDEST DUP1 ISZERO PUSH2 0x52D JUMPI DUP1 PUSH1 0x1F LT PUSH2 0x504 JUMPI PUSH2 0x100 DUP1 DUP4 SLOAD DIV MUL DUP4 MSTORE SWAP2 PUSH1 0x20 ADD SWAP2 PUSH2 0x52D JUMP JUMPDEST DUP3 ADD SWAP2 SWAP1 PUSH0 MSTORE PUSH1 0x20 PUSH0 KECCAK256 SWAP1 JUMPDEST DUP2 SLOAD DUP2 MSTORE SWAP1 PUSH1 0x1 ADD SWAP1 PUSH1 0x20 ADD DUP1 DUP4 GT PUSH2 0x510 JUMPI DUP3 SWAP1 SUB PUSH1 0x1F AND DUP3 ADD SWAP2 JUMPDEST POP POP POP POP POP SWAP1 POP SWAP1 JUMP JUMPDEST PUSH0 PUSH2 0x541 DUP3 PUSH2 0xBFD JUMP JUMPDEST POP PUSH2 0x54B DUP3 PUSH2 0xC83 JUMP JUMPDEST SWAP1 POP SWAP2 SWAP1 POP JUMP JUMPDEST PUSH2 0x564 DUP3 DUP3 PUSH2 0x55F PUSH2 0xCBC JUMP JUMPDEST PUSH2 0xCC3 JUMP JUMPDEST POP POP JUMP JUMPDEST PUSH0 DUP1 PUSH1 0x7 PUSH0 DUP2 SLOAD DUP1 SWAP3 SWAP2 SWAP1 PUSH2 0x57C SWAP1 PUSH2 0x23A1 JUMP JUMPDEST SWAP2 SWAP1 POP SSTORE SWAP1 POP PUSH2 0x58C CALLER DUP3 PUSH2 0xCD5 JUMP JUMPDEST PUSH0 PUSH1 0xA PUSH2 0x598 DUP4 PUSH2 0xDC8 JUMP JUMPDEST PUSH1 0x40 MLOAD PUSH1 0x20 ADD PUSH2 0x5A9 SWAP3 SWAP2 SWAP1 PUSH2 0x24A2 JUMP JUMPDEST PUSH1 0x40 MLOAD PUSH1 0x20 DUP2 DUP4 SUB SUB DUP2 MSTORE SWAP1 PUSH1 0x40 MSTORE SWAP1 POP PUSH2 0x5C4 DUP3 DUP3 PUSH2 0xE92 JUMP JUMPDEST PUSH1 0x1 PUSH1 0x9 SLOAD PUSH2 0x5D3 SWAP2 SWAP1 PUSH2 0x24C5 JUMP JUMPDEST PUSH1 0x9 DUP2 SWAP1 SSTORE POP PUSH1 0x8 SLOAD PUSH1 0x9 SLOAD GT ISZERO PUSH2 0x620 JUMPI PUSH1 0x40 MLOAD PUSH32 0x8C379A000000000000000000000000000000000000000000000000000000000 DUP2 MSTORE PUSH1 0x4 ADD PUSH2 0x617 SWAP1 PUSH2 0x2542 JUMP JUMPDEST PUSH1 0x40 MLOAD DUP1 SWAP2 SUB SWAP1 REVERT JUMPDEST DUP2 SWAP3 POP POP POP SWAP1 JUMP JUMPDEST PUSH1 0x9 SLOAD DUP2 JUMP JUMPDEST PUSH0 PUSH20 0xFFFFFFFFFFFFFFFFFFFFFFFFFFFFFFFFFFFFFFFF AND DUP3 PUSH20 0xFFFFFFFFFFFFFFFFFFFFFFFFFFFFFFFFFFFFFFFF AND SUB PUSH2 0x69E JUMPI PUSH0 PUSH1 0x40 MLOAD PUSH32 0x64A0AE9200000000000000000000000000000000000000000000000000000000 DUP2 MSTORE PUSH1 0x4 ADD PUSH2 0x695 SWAP2 SWAP1 PUSH2 0x1DC3 JUMP JUMPDEST PUSH1 0x40 MLOAD DUP1 SWAP2 SUB SWAP1 REVERT JUMPDEST PUSH0 PUSH2 0x6B1 DUP4 DUP4 PUSH2 0x6AC PUSH2 0xCBC JUMP JUMPDEST PUSH2 0xEEC JUMP JUMPDEST SWAP1 POP DUP4 PUSH20 0xFFFFFFFFFFFFFFFFFFFFFFFFFFFFFFFFFFFFFFFF AND DUP2 PUSH20 0xFFFFFFFFFFFFFFFFFFFFFFFFFFFFFFFFFFFFFFFF AND EQ PUSH2 0x727 JUMPI DUP4 DUP3 DUP3 PUSH1 0x40 MLOAD PUSH32 0x64283D7B00000000000000000000000000000000000000000000000000000000 DUP2 MSTORE PUSH1 0x4 ADD PUSH2 0x71E SWAP4 SWAP3 SWAP2 SWAP1 PUSH2 0x2560 JUMP JUMPDEST PUSH1 0x40 MLOAD DUP1 SWAP2 SUB SWAP1 REVERT JUMPDEST POP POP POP POP JUMP JUMPDEST PUSH2 0x736 DUP2 PUSH2 0x10F7 JUMP JUMPDEST PUSH1 0x1 PUSH1 0x9 SLOAD PUSH2 0x745 SWAP2 SWAP1 PUSH2 0x2595 JUMP JUMPDEST PUSH1 0x9 DUP2 SWAP1 SSTORE POP POP JUMP JUMPDEST PUSH2 0x768 DUP4 DUP4 DUP4 PUSH1 0x40 MLOAD DUP1 PUSH1 0x20 ADD PUSH1 0x40 MSTORE DUP1 PUSH0 DUP2 MSTORE POP PUSH2 0x966 JUMP JUMPDEST POP POP POP JUMP JUMPDEST PUSH0 PUSH2 0x777 DUP3 PUSH2 0xBFD JUMP JUMPDEST SWAP1 POP SWAP2 SWAP1 POP JUMP JUMPDEST PUSH0 DUP1 PUSH20 0xFFFFFFFFFFFFFFFFFFFFFFFFFFFFFFFFFFFFFFFF AND DUP3 PUSH20 0xFFFFFFFFFFFFFFFFFFFFFFFFFFFFFFFFFFFFFFFF AND SUB PUSH2 0x7EF JUMPI PUSH0 PUSH1 0x40 MLOAD PUSH32 0x89C62B6400000000000000000000000000000000000000000000000000000000 DUP2 MSTORE PUSH1 0x4 ADD PUSH2 0x7E6 SWAP2 SWAP1 PUSH2 0x1DC3 JUMP JUMPDEST PUSH1 0x40 MLOAD DUP1 SWAP2 SUB SWAP1 REVERT JUMPDEST PUSH1 0x3 PUSH0 DUP4 PUSH20 0xFFFFFFFFFFFFFFFFFFFFFFFFFFFFFFFFFFFFFFFF AND PUSH20 0xFFFFFFFFFFFFFFFFFFFFFFFFFFFFFFFFFFFFFFFF AND DUP2 MSTORE PUSH1 0x20 ADD SWAP1 DUP2 MSTORE PUSH1 0x20 ADD PUSH0 KECCAK256 SLOAD SWAP1 POP SWAP2 SWAP1 POP JUMP JUMPDEST PUSH1 0xA DUP1 SLOAD PUSH2 0x841 SWAP1 PUSH2 0x20D8 JUMP JUMPDEST DUP1 PUSH1 0x1F ADD PUSH1 0x20 DUP1 SWAP2 DIV MUL PUSH1 0x20 ADD PUSH1 0x40 MLOAD SWAP1 DUP2 ADD PUSH1 0x40 MSTORE DUP1 SWAP3 SWAP2 SWAP1 DUP2 DUP2 MSTORE PUSH1 0x20 ADD DUP3 DUP1 SLOAD PUSH2 0x86D SWAP1 PUSH2 0x20D8 JUMP JUMPDEST DUP1 ISZERO PUSH2 0x8B8 JUMPI DUP1 PUSH1 0x1F LT PUSH2 0x88F JUMPI PUSH2 0x100 DUP1 DUP4 SLOAD DIV MUL DUP4 MSTORE SWAP2 PUSH1 0x20 ADD SWAP2 PUSH2 0x8B8 JUMP JUMPDEST DUP3 ADD SWAP2 SWAP1 PUSH0 MSTORE PUSH1 0x20 PUSH0 KECCAK256 SWAP1 JUMPDEST DUP2 SLOAD DUP2 MSTORE SWAP1 PUSH1 0x1 ADD SWAP1 PUSH1 0x20 ADD DUP1 DUP4 GT PUSH2 0x89B JUMPI DUP3 SWAP1 SUB PUSH1 0x1F AND DUP3 ADD SWAP2 JUMPDEST POP POP POP POP POP DUP2 JUMP JUMPDEST PUSH1 0x60 PUSH1 0x1 DUP1 SLOAD PUSH2 0x8CF SWAP1 PUSH2 0x20D8 JUMP JUMPDEST DUP1 PUSH1 0x1F ADD PUSH1 0x20 DUP1 SWAP2 DIV MUL PUSH1 0x20 ADD PUSH1 0x40 MLOAD SWAP1 DUP2 ADD PUSH1 0x40 MSTORE DUP1 SWAP3 SWAP2 SWAP1 DUP2 DUP2 MSTORE PUSH1 0x20 ADD DUP3 DUP1 SLOAD PUSH2 0x8FB SWAP1 PUSH2 0x20D8 JUMP JUMPDEST DUP1 ISZERO PUSH2 0x946 JUMPI DUP1 PUSH1 0x1F LT PUSH2 0x91D JUMPI PUSH2 0x100 DUP1 DUP4 SLOAD DIV MUL DUP4 MSTORE SWAP2 PUSH1 0x20 ADD SWAP2 PUSH2 0x946 JUMP JUMPDEST DUP3 ADD SWAP2 SWAP1 PUSH0 MSTORE PUSH1 0x20 PUSH0 KECCAK256 SWAP1 JUMPDEST DUP2 SLOAD DUP2 MSTORE SWAP1 PUSH1 0x1 ADD SWAP1 PUSH1 0x20 ADD DUP1 DUP4 GT PUSH2 0x929 JUMPI DUP3 SWAP1 SUB PUSH1 0x1F AND DUP3 ADD SWAP2 JUMPDEST POP POP POP POP POP SWAP1 POP SWAP1 JUMP JUMPDEST PUSH2 0x962 PUSH2 0x95B PUSH2 0xCBC JUMP JUMPDEST DUP4 DUP4 PUSH2 0x1179 JUMP JUMPDEST POP POP JUMP JUMPDEST PUSH2 0x971 DUP5 DUP5 DUP5 PUSH2 0x62E JUMP JUMPDEST PUSH2 0x97D DUP5 DUP5 DUP5 DUP5 PUSH2 0x12E2 JUMP JUMPDEST POP POP POP POP JUMP JUMPDEST PUSH1 0x60 PUSH2 0x98E DUP3 PUSH2 0xBFD JUMP JUMPDEST POP PUSH0 PUSH1 0x6 PUSH0 DUP5 DUP2 MSTORE PUSH1 0x20 ADD SWAP1 DUP2 MSTORE PUSH1 0x20 ADD PUSH0 KECCAK256 DUP1 SLOAD PUSH2 0x9AC SWAP1 PUSH2 0x20D8 JUMP JUMPDEST DUP1 PUSH1 0x1F ADD PUSH1 0x20 DUP1 SWAP2 DIV MUL PUSH1 0x20 ADD PUSH1 0x40 MLOAD SWAP1 DUP2 ADD PUSH1 0x40 MSTORE DUP1 SWAP3 SWAP2 SWAP1 DUP2 DUP2 MSTORE PUSH1 0x20 ADD DUP3 DUP1 SLOAD PUSH2 0x9D8 SWAP1 PUSH2 0x20D8 JUMP JUMPDEST DUP1 ISZERO PUSH2 0xA23 JUMPI DUP1 PUSH1 0x1F LT PUSH2 0x9FA JUMPI PUSH2 0x100 DUP1 DUP4 SLOAD DIV MUL DUP4 MSTORE SWAP2 PUSH1 0x20 ADD SWAP2 PUSH2 0xA23 JUMP JUMPDEST DUP3 ADD SWAP2 SWAP1 PUSH0 MSTORE PUSH1 0x20 PUSH0 KECCAK256 SWAP1 JUMPDEST DUP2 SLOAD DUP2 MSTORE SWAP1 PUSH1 0x1 ADD SWAP1 PUSH1 0x20 ADD DUP1 DUP4 GT PUSH2 0xA06 JUMPI DUP3 SWAP1 SUB PUSH1 0x1F AND DUP3 ADD SWAP2 JUMPDEST POP POP POP POP POP SWAP1 POP PUSH0 PUSH2 0xA33 PUSH2 0x1494 JUMP JUMPDEST SWAP1 POP PUSH0 DUP2 MLOAD SUB PUSH2 0xA47 JUMPI DUP2 SWAP3 POP POP POP PUSH2 0xA89 JUMP JUMPDEST PUSH0 DUP3 MLOAD GT ISZERO PUSH2 0xA7B JUMPI DUP1 DUP3 PUSH1 0x40 MLOAD PUSH1 0x20 ADD PUSH2 0xA63 SWAP3 SWAP2 SWAP1 PUSH2 0x25C8 JUMP JUMPDEST PUSH1 0x40 MLOAD PUSH1 0x20 DUP2 DUP4 SUB SUB DUP2 MSTORE SWAP1 PUSH1 0x40 MSTORE SWAP3 POP POP POP PUSH2 0xA89 JUMP JUMPDEST PUSH2 0xA84 DUP5 PUSH2 0x14AA JUMP JUMPDEST SWAP3 POP POP POP JUMPDEST SWAP2 SWAP1 POP JUMP JUMPDEST PUSH0 PUSH1 0x5 PUSH0 DUP5 PUSH20 0xFFFFFFFFFFFFFFFFFFFFFFFFFFFFFFFFFFFFFFFF AND PUSH20 0xFFFFFFFFFFFFFFFFFFFFFFFFFFFFFFFFFFFFFFFF AND DUP2 MSTORE PUSH1 0x20 ADD SWAP1 DUP2 MSTORE PUSH1 0x20 ADD PUSH0 KECCAK256 PUSH0 DUP4 PUSH20 0xFFFFFFFFFFFFFFFFFFFFFFFFFFFFFFFFFFFFFFFF AND PUSH20 0xFFFFFFFFFFFFFFFFFFFFFFFFFFFFFFFFFFFFFFFF AND DUP2 MSTORE PUSH1 0x20 ADD SWAP1 DUP2 MSTORE PUSH1 0x20 ADD PUSH0 KECCAK256 PUSH0 SWAP1 SLOAD SWAP1 PUSH2 0x100 EXP SWAP1 DIV PUSH1 0xFF AND SWAP1 POP SWAP3 SWAP2 POP POP JUMP JUMPDEST PUSH0 PUSH32 0x80AC58CD00000000000000000000000000000000000000000000000000000000 PUSH28 0xFFFFFFFFFFFFFFFFFFFFFFFFFFFFFFFFFFFFFFFFFFFFFFFFFFFFFFFF NOT AND DUP3 PUSH28 0xFFFFFFFFFFFFFFFFFFFFFFFFFFFFFFFFFFFFFFFFFFFFFFFFFFFFFFFF NOT AND EQ DUP1 PUSH2 0xBE6 JUMPI POP PUSH32 0x5B5E139F00000000000000000000000000000000000000000000000000000000 PUSH28 0xFFFFFFFFFFFFFFFFFFFFFFFFFFFFFFFFFFFFFFFFFFFFFFFFFFFFFFFF NOT AND DUP3 PUSH28 0xFFFFFFFFFFFFFFFFFFFFFFFFFFFFFFFFFFFFFFFFFFFFFFFFFFFFFFFF NOT AND EQ JUMPDEST DUP1 PUSH2 0xBF6 JUMPI POP PUSH2 0xBF5 DUP3 PUSH2 0x1510 JUMP JUMPDEST JUMPDEST SWAP1 POP SWAP2 SWAP1 POP JUMP JUMPDEST PUSH0 DUP1 PUSH2 0xC08 DUP4 PUSH2 0x1579 JUMP JUMPDEST SWAP1 POP PUSH0 PUSH20 0xFFFFFFFFFFFFFFFFFFFFFFFFFFFFFFFFFFFFFFFF AND DUP2 PUSH20 0xFFFFFFFFFFFFFFFFFFFFFFFFFFFFFFFFFFFFFFFF AND SUB PUSH2 0xC7A JUMPI DUP3 PUSH1 0x40 MLOAD PUSH32 0x7E27328900000000000000000000000000000000000000000000000000000000 DUP2 MSTORE PUSH1 0x4 ADD PUSH2 0xC71 SWAP2 SWAP1 PUSH2 0x1E53 JUMP JUMPDEST PUSH1 0x40 MLOAD DUP1 SWAP2 SUB SWAP1 REVERT JUMPDEST DUP1 SWAP2 POP POP SWAP2 SWAP1 POP JUMP JUMPDEST PUSH0 PUSH1 0x4 PUSH0 DUP4 DUP2 MSTORE PUSH1 0x20 ADD SWAP1 DUP2 MSTORE PUSH1 0x20 ADD PUSH0 KECCAK256 PUSH0 SWAP1 SLOAD SWAP1 PUSH2 0x100 EXP SWAP1 DIV PUSH20 0xFFFFFFFFFFFFFFFFFFFFFFFFFFFFFFFFFFFFFFFF AND SWAP1 POP SWAP2 SWAP1 POP JUMP JUMPDEST PUSH0 CALLER SWAP1 POP SWAP1 JUMP JUMPDEST PUSH2 0xCD0 DUP4 DUP4 DUP4 PUSH1 0x1 PUSH2 0x15B2 JUMP JUMPDEST POP POP POP JUMP JUMPDEST PUSH0 PUSH20 0xFFFFFFFFFFFFFFFFFFFFFFFFFFFFFFFFFFFFFFFF AND DUP3 PUSH20 0xFFFFFFFFFFFFFFFFFFFFFFFFFFFFFFFFFFFFFFFF AND SUB PUSH2 0xD45 JUMPI PUSH0 PUSH1 0x40 MLOAD PUSH32 0x64A0AE9200000000000000000000000000000000000000000000000000000000 DUP2 MSTORE PUSH1 0x4 ADD PUSH2 0xD3C SWAP2 SWAP1 PUSH2 0x1DC3 JUMP JUMPDEST PUSH1 0x40 MLOAD DUP1 SWAP2 SUB SWAP1 REVERT JUMPDEST PUSH0 PUSH2 0xD51 DUP4 DUP4 PUSH0 PUSH2 0xEEC JUMP JUMPDEST SWAP1 POP PUSH0 PUSH20 0xFFFFFFFFFFFFFFFFFFFFFFFFFFFFFFFFFFFFFFFF AND DUP2 PUSH20 0xFFFFFFFFFFFFFFFFFFFFFFFFFFFFFFFFFFFFFFFF AND EQ PUSH2 0xDC3 JUMPI PUSH0 PUSH1 0x40 MLOAD PUSH32 0x73C6AC6E00000000000000000000000000000000000000000000000000000000 DUP2 MSTORE PUSH1 0x4 ADD PUSH2 0xDBA SWAP2 SWAP1 PUSH2 0x1DC3 JUMP JUMPDEST PUSH1 0x40 MLOAD DUP1 SWAP2 SUB SWAP1 REVERT JUMPDEST POP POP POP JUMP JUMPDEST PUSH1 0x60 PUSH0 PUSH1 0x1 PUSH2 0xDD6 DUP5 PUSH2 0x1771 JUMP JUMPDEST ADD SWAP1 POP PUSH0 DUP2 PUSH8 0xFFFFFFFFFFFFFFFF DUP2 GT ISZERO PUSH2 0xDF4 JUMPI PUSH2 0xDF3 PUSH2 0x1B21 JUMP JUMPDEST JUMPDEST PUSH1 0x40 MLOAD SWAP1 DUP1 DUP3 MSTORE DUP1 PUSH1 0x1F ADD PUSH1 0x1F NOT AND PUSH1 0x20 ADD DUP3 ADD PUSH1 0x40 MSTORE DUP1 ISZERO PUSH2 0xE26 JUMPI DUP2 PUSH1 0x20 ADD PUSH1 0x1 DUP3 MUL DUP1 CALLDATASIZE DUP4 CALLDATACOPY DUP1 DUP3 ADD SWAP2 POP POP SWAP1 POP JUMPDEST POP SWAP1 POP PUSH0 DUP3 PUSH1 0x20 ADD DUP3 ADD SWAP1 POP JUMPDEST PUSH1 0x1 ISZERO PUSH2 0xE87 JUMPI DUP1 DUP1 PUSH1 0x1 SWAP1 SUB SWAP2 POP POP PUSH32 0x3031323334353637383961626364656600000000000000000000000000000000 PUSH1 0xA DUP7 MOD BYTE DUP2 MSTORE8 PUSH1 0xA DUP6 DUP2 PUSH2 0xE7C JUMPI PUSH2 0xE7B PUSH2 0x25EB JUMP JUMPDEST JUMPDEST DIV SWAP5 POP PUSH0 DUP6 SUB PUSH2 0xE33 JUMPI JUMPDEST DUP2 SWAP4 POP POP POP POP SWAP2 SWAP1 POP JUMP JUMPDEST DUP1 PUSH1 0x6 PUSH0 DUP5 DUP2 MSTORE PUSH1 0x20 ADD SWAP1 DUP2 MSTORE PUSH1 0x20 ADD PUSH0 KECCAK256 SWAP1 DUP2 PUSH2 0xEB0 SWAP2 SWAP1 PUSH2 0x22A5 JUMP JUMPDEST POP PUSH32 0xF8E1A15ABA9398E019F0B49DF1A4FDE98EE17AE345CB5F6B5E2C27F5033E8CE7 DUP3 PUSH1 0x40 MLOAD PUSH2 0xEE0 SWAP2 SWAP1 PUSH2 0x1E53 JUMP JUMPDEST PUSH1 0x40 MLOAD DUP1 SWAP2 SUB SWAP1 LOG1 POP POP JUMP JUMPDEST PUSH0 DUP1 PUSH2 0xEF7 DUP5 PUSH2 0x1579 JUMP JUMPDEST SWAP1 POP PUSH0 PUSH20 0xFFFFFFFFFFFFFFFFFFFFFFFFFFFFFFFFFFFFFFFF AND DUP4 PUSH20 0xFFFFFFFFFFFFFFFFFFFFFFFFFFFFFFFFFFFFFFFF AND EQ PUSH2 0xF38 JUMPI PUSH2 0xF37 DUP2 DUP5 DUP7 PUSH2 0x18C2 JUMP JUMPDEST JUMPDEST PUSH0 PUSH20 0xFFFFFFFFFFFFFFFFFFFFFFFFFFFFFFFFFFFFFFFF AND DUP2 PUSH20 0xFFFFFFFFFFFFFFFFFFFFFFFFFFFFFFFFFFFFFFFF AND EQ PUSH2 0xFC3 JUMPI PUSH2 0xF77 PUSH0 DUP6 PUSH0 DUP1 PUSH2 0x15B2 JUMP JUMPDEST PUSH1 0x1 PUSH1 0x3 PUSH0 DUP4 PUSH20 0xFFFFFFFFFFFFFFFFFFFFFFFFFFFFFFFFFFFFFFFF AND PUSH20 0xFFFFFFFFFFFFFFFFFFFFFFFFFFFFFFFFFFFFFFFF AND DUP2 MSTORE PUSH1 0x20 ADD SWAP1 DUP2 MSTORE PUSH1 0x20 ADD PUSH0 KECCAK256 PUSH0 DUP3 DUP3 SLOAD SUB SWAP3 POP POP DUP2 SWAP1 SSTORE POP JUMPDEST PUSH0 PUSH20 0xFFFFFFFFFFFFFFFFFFFFFFFFFFFFFFFFFFFFFFFF AND DUP6 PUSH20 0xFFFFFFFFFFFFFFFFFFFFFFFFFFFFFFFFFFFFFFFF AND EQ PUSH2 0x1042 JUMPI PUSH1 0x1 PUSH1 0x3 PUSH0 DUP8 PUSH20 0xFFFFFFFFFFFFFFFFFFFFFFFFFFFFFFFFFFFFFFFF AND PUSH20 0xFFFFFFFFFFFFFFFFFFFFFFFFFFFFFFFFFFFFFFFF AND DUP2 MSTORE PUSH1 0x20 ADD SWAP1 DUP2 MSTORE PUSH1 0x20 ADD PUSH0 KECCAK256 PUSH0 DUP3 DUP3 SLOAD ADD SWAP3 POP POP DUP2 SWAP1 SSTORE POP JUMPDEST DUP5 PUSH1 0x2 PUSH0 DUP7 DUP2 MSTORE PUSH1 0x20 ADD SWAP1 DUP2 MSTORE PUSH1 0x20 ADD PUSH0 KECCAK256 PUSH0 PUSH2 0x100 EXP DUP2 SLOAD DUP2 PUSH20 0xFFFFFFFFFFFFFFFFFFFFFFFFFFFFFFFFFFFFFFFF MUL NOT AND SWAP1 DUP4 PUSH20 0xFFFFFFFFFFFFFFFFFFFFFFFFFFFFFFFFFFFFFFFF AND MUL OR SWAP1 SSTORE POP DUP4 DUP6 PUSH20 0xFFFFFFFFFFFFFFFFFFFFFFFFFFFFFFFFFFFFFFFF AND DUP3 PUSH20 0xFFFFFFFFFFFFFFFFFFFFFFFFFFFFFFFFFFFFFFFF AND PUSH32 0xDDF252AD1BE2C89B69C2B068FC378DAA952BA7F163C4A11628F55A4DF523B3EF PUSH1 0x40 MLOAD PUSH1 0x40 MLOAD DUP1 SWAP2 SUB SWAP1 LOG4 DUP1 SWAP2 POP POP SWAP4 SWAP3 POP POP POP JUMP JUMPDEST PUSH0 PUSH2 0x1103 PUSH0 DUP4 PUSH0 PUSH2 0xEEC JUMP JUMPDEST SWAP1 POP PUSH0 PUSH20 0xFFFFFFFFFFFFFFFFFFFFFFFFFFFFFFFFFFFFFFFF AND DUP2 PUSH20 0xFFFFFFFFFFFFFFFFFFFFFFFFFFFFFFFFFFFFFFFF AND SUB PUSH2 0x1175 JUMPI DUP2 PUSH1 0x40 MLOAD PUSH32 0x7E27328900000000000000000000000000000000000000000000000000000000 DUP2 MSTORE PUSH1 0x4 ADD PUSH2 0x116C SWAP2 SWAP1 PUSH2 0x1E53 JUMP JUMPDEST PUSH1 0x40 MLOAD DUP1 SWAP2 SUB SWAP1 REVERT JUMPDEST POP POP JUMP JUMPDEST PUSH0 PUSH20 0xFFFFFFFFFFFFFFFFFFFFFFFFFFFFFFFFFFFFFFFF AND DUP3 PUSH20 0xFFFFFFFFFFFFFFFFFFFFFFFFFFFFFFFFFFFFFFFF AND SUB PUSH2 0x11E9 JUMPI DUP2 PUSH1 0x40 MLOAD PUSH32 0x5B08BA1800000000000000000000000000000000000000000000000000000000 DUP2 MSTORE PUSH1 0x4 ADD PUSH2 0x11E0 SWAP2 SWAP1 PUSH2 0x1DC3 JUMP JUMPDEST PUSH1 0x40 MLOAD DUP1 SWAP2 SUB SWAP1 REVERT JUMPDEST DUP1 PUSH1 0x5 PUSH0 DUP6 PUSH20 0xFFFFFFFFFFFFFFFFFFFFFFFFFFFFFFFFFFFFFFFF AND PUSH20 0xFFFFFFFFFFFFFFFFFFFFFFFFFFFFFFFFFFFFFFFF AND DUP2 MSTORE PUSH1 0x20 ADD SWAP1 DUP2 MSTORE PUSH1 0x20 ADD PUSH0 KECCAK256 PUSH0 DUP5 PUSH20 0xFFFFFFFFFFFFFFFFFFFFFFFFFFFFFFFFFFFFFFFF AND PUSH20 0xFFFFFFFFFFFFFFFFFFFFFFFFFFFFFFFFFFFFFFFF AND DUP2 MSTORE PUSH1 0x20 ADD SWAP1 DUP2 MSTORE PUSH1 0x20 ADD PUSH0 KECCAK256 PUSH0 PUSH2 0x100 EXP DUP2 SLOAD DUP2 PUSH1 0xFF MUL NOT AND SWAP1 DUP4 ISZERO ISZERO MUL OR SWAP1 SSTORE POP DUP2 PUSH20 0xFFFFFFFFFFFFFFFFFFFFFFFFFFFFFFFFFFFFFFFF AND DUP4 PUSH20 0xFFFFFFFFFFFFFFFFFFFFFFFFFFFFFFFFFFFFFFFF AND PUSH32 0x17307EAB39AB6107E8899845AD3D59BD9653F200F220920489CA2B5937696C31 DUP4 PUSH1 0x40 MLOAD PUSH2 0x12D5 SWAP2 SWAP1 PUSH2 0x1AF0 JUMP JUMPDEST PUSH1 0x40 MLOAD DUP1 SWAP2 SUB SWAP1 LOG3 POP POP POP JUMP JUMPDEST PUSH0 DUP4 PUSH20 0xFFFFFFFFFFFFFFFFFFFFFFFFFFFFFFFFFFFFFFFF AND EXTCODESIZE GT ISZERO PUSH2 0x148E JUMPI DUP3 PUSH20 0xFFFFFFFFFFFFFFFFFFFFFFFFFFFFFFFFFFFFFFFF AND PUSH4 0x150B7A02 PUSH2 0x1325 PUSH2 0xCBC JUMP JUMPDEST DUP7 DUP6 DUP6 PUSH1 0x40 MLOAD DUP6 PUSH4 0xFFFFFFFF AND PUSH1 0xE0 SHL DUP2 MSTORE PUSH1 0x4 ADD PUSH2 0x1347 SWAP5 SWAP4 SWAP3 SWAP2 SWAP1 PUSH2 0x266A JUMP JUMPDEST PUSH1 0x20 PUSH1 0x40 MLOAD DUP1 DUP4 SUB DUP2 PUSH0 DUP8 GAS CALL SWAP3 POP POP POP DUP1 ISZERO PUSH2 0x1382 JUMPI POP PUSH1 0x40 MLOAD RETURNDATASIZE PUSH1 0x1F NOT PUSH1 0x1F DUP3 ADD AND DUP3 ADD DUP1 PUSH1 0x40 MSTORE POP DUP2 ADD SWAP1 PUSH2 0x137F SWAP2 SWAP1 PUSH2 0x26C8 JUMP JUMPDEST PUSH1 0x1 JUMPDEST PUSH2 0x1403 JUMPI RETURNDATASIZE DUP1 PUSH0 DUP2 EQ PUSH2 0x13B0 JUMPI PUSH1 0x40 MLOAD SWAP2 POP PUSH1 0x1F NOT PUSH1 0x3F RETURNDATASIZE ADD AND DUP3 ADD PUSH1 0x40 MSTORE RETURNDATASIZE DUP3 MSTORE RETURNDATASIZE PUSH0 PUSH1 0x20 DUP5 ADD RETURNDATACOPY PUSH2 0x13B5 JUMP JUMPDEST PUSH1 0x60 SWAP2 POP JUMPDEST POP PUSH0 DUP2 MLOAD SUB PUSH2 0x13FB JUMPI DUP4 PUSH1 0x40 MLOAD PUSH32 0x64A0AE9200000000000000000000000000000000000000000000000000000000 DUP2 MSTORE PUSH1 0x4 ADD PUSH2 0x13F2 SWAP2 SWAP1 PUSH2 0x1DC3 JUMP JUMPDEST PUSH1 0x40 MLOAD DUP1 SWAP2 SUB SWAP1 REVERT JUMPDEST DUP1 MLOAD DUP2 PUSH1 0x20 ADD REVERT JUMPDEST PUSH4 0x150B7A02 PUSH1 0xE0 SHL PUSH28 0xFFFFFFFFFFFFFFFFFFFFFFFFFFFFFFFFFFFFFFFFFFFFFFFFFFFFFFFF NOT AND DUP2 PUSH28 0xFFFFFFFFFFFFFFFFFFFFFFFFFFFFFFFFFFFFFFFFFFFFFFFFFFFFFFFF NOT AND EQ PUSH2 0x148C JUMPI DUP4 PUSH1 0x40 MLOAD PUSH32 0x64A0AE9200000000000000000000000000000000000000000000000000000000 DUP2 MSTORE PUSH1 0x4 ADD PUSH2 0x1483 SWAP2 SWAP1 PUSH2 0x1DC3 JUMP JUMPDEST PUSH1 0x40 MLOAD DUP1 SWAP2 SUB SWAP1 REVERT JUMPDEST POP JUMPDEST POP POP POP POP JUMP JUMPDEST PUSH1 0x60 PUSH1 0x40 MLOAD DUP1 PUSH1 0x20 ADD PUSH1 0x40 MSTORE DUP1 PUSH0 DUP2 MSTORE POP SWAP1 POP SWAP1 JUMP JUMPDEST PUSH1 0x60 PUSH2 0x14B5 DUP3 PUSH2 0xBFD JUMP JUMPDEST POP PUSH0 PUSH2 0x14BF PUSH2 0x1494 JUMP JUMPDEST SWAP1 POP PUSH0 DUP2 MLOAD GT PUSH2 0x14DD JUMPI PUSH1 0x40 MLOAD DUP1 PUSH1 0x20 ADD PUSH1 0x40 MSTORE DUP1 PUSH0 DUP2 MSTORE POP PUSH2 0x1508 JUMP JUMPDEST DUP1 PUSH2 0x14E7 DUP5 PUSH2 0xDC8 JUMP JUMPDEST PUSH1 0x40 MLOAD PUSH1 0x20 ADD PUSH2 0x14F8 SWAP3 SWAP2 SWAP1 PUSH2 0x25C8 JUMP JUMPDEST PUSH1 0x40 MLOAD PUSH1 0x20 DUP2 DUP4 SUB SUB DUP2 MSTORE SWAP1 PUSH1 0x40 MSTORE JUMPDEST SWAP2 POP POP SWAP2 SWAP1 POP JUMP JUMPDEST PUSH0 PUSH32 0x1FFC9A700000000000000000000000000000000000000000000000000000000 PUSH28 0xFFFFFFFFFFFFFFFFFFFFFFFFFFFFFFFFFFFFFFFFFFFFFFFFFFFFFFFF NOT AND DUP3 PUSH28 0xFFFFFFFFFFFFFFFFFFFFFFFFFFFFFFFFFFFFFFFFFFFFFFFFFFFFFFFF NOT AND EQ SWAP1 POP SWAP2 SWAP1 POP JUMP JUMPDEST PUSH0 PUSH1 0x2 PUSH0 DUP4 DUP2 MSTORE PUSH1 0x20 ADD SWAP1 DUP2 MSTORE PUSH1 0x20 ADD PUSH0 KECCAK256 PUSH0 SWAP1 SLOAD SWAP1 PUSH2 0x100 EXP SWAP1 DIV PUSH20 0xFFFFFFFFFFFFFFFFFFFFFFFFFFFFFFFFFFFFFFFF AND SWAP1 POP SWAP2 SWAP1 POP JUMP JUMPDEST DUP1 DUP1 PUSH2 0x15EA JUMPI POP PUSH0 PUSH20 0xFFFFFFFFFFFFFFFFFFFFFFFFFFFFFFFFFFFFFFFF AND DUP3 PUSH20 0xFFFFFFFFFFFFFFFFFFFFFFFFFFFFFFFFFFFFFFFF AND EQ ISZERO JUMPDEST ISZERO PUSH2 0x171C JUMPI PUSH0 PUSH2 0x15F9 DUP5 PUSH2 0xBFD JUMP JUMPDEST SWAP1 POP PUSH0 PUSH20 0xFFFFFFFFFFFFFFFFFFFFFFFFFFFFFFFFFFFFFFFF AND DUP4 PUSH20 0xFFFFFFFFFFFFFFFFFFFFFFFFFFFFFFFFFFFFFFFF AND EQ ISZERO DUP1 ISZERO PUSH2 0x1663 JUMPI POP DUP3 PUSH20 0xFFFFFFFFFFFFFFFFFFFFFFFFFFFFFFFFFFFFFFFF AND DUP2 PUSH20 0xFFFFFFFFFFFFFFFFFFFFFFFFFFFFFFFFFFFFFFFF AND EQ ISZERO JUMPDEST DUP1 ISZERO PUSH2 0x1676 JUMPI POP PUSH2 0x1674 DUP2 DUP5 PUSH2 0xA8E JUMP JUMPDEST ISZERO JUMPDEST ISZERO PUSH2 0x16B8 JUMPI DUP3 PUSH1 0x40 MLOAD PUSH32 0xA9FBF51F00000000000000000000000000000000000000000000000000000000 DUP2 MSTORE PUSH1 0x4 ADD PUSH2 0x16AF SWAP2 SWAP1 PUSH2 0x1DC3 JUMP JUMPDEST PUSH1 0x40 MLOAD DUP1 SWAP2 SUB SWAP1 REVERT JUMPDEST DUP2 ISZERO PUSH2 0x171A JUMPI DUP4 DUP6 PUSH20 0xFFFFFFFFFFFFFFFFFFFFFFFFFFFFFFFFFFFFFFFF AND DUP3 PUSH20 0xFFFFFFFFFFFFFFFFFFFFFFFFFFFFFFFFFFFFFFFF AND PUSH32 0x8C5BE1E5EBEC7D5BD14F71427D1E84F3DD0314C0F7B2291E5B200AC8C7C3B925 PUSH1 0x40 MLOAD PUSH1 0x40 MLOAD DUP1 SWAP2 SUB SWAP1 LOG4 JUMPDEST POP JUMPDEST DUP4 PUSH1 0x4 PUSH0 DUP6 DUP2 MSTORE PUSH1 0x20 ADD SWAP1 DUP2 MSTORE PUSH1 0x20 ADD PUSH0 KECCAK256 PUSH0 PUSH2 0x100 EXP DUP2 SLOAD DUP2 PUSH20 0xFFFFFFFFFFFFFFFFFFFFFFFFFFFFFFFFFFFFFFFF MUL NOT AND SWAP1 DUP4 PUSH20 0xFFFFFFFFFFFFFFFFFFFFFFFFFFFFFFFFFFFFFFFF AND MUL OR SWAP1 SSTORE POP POP POP POP POP JUMP JUMPDEST PUSH0 DUP1 PUSH0 SWAP1 POP PUSH27 0x184F03E93FF9F4DAA797ED6E38ED64BF6A1F010000000000000000 DUP4 LT PUSH2 0x17CD JUMPI PUSH27 0x184F03E93FF9F4DAA797ED6E38ED64BF6A1F010000000000000000 DUP4 DUP2 PUSH2 0x17C3 JUMPI PUSH2 0x17C2 PUSH2 0x25EB JUMP JUMPDEST JUMPDEST DIV SWAP3 POP PUSH1 0x40 DUP2 ADD SWAP1 POP JUMPDEST PUSH14 0x4EE2D6D415B85ACEF8100000000 DUP4 LT PUSH2 0x180A JUMPI PUSH14 0x4EE2D6D415B85ACEF8100000000 DUP4 DUP2 PUSH2 0x1800 JUMPI PUSH2 0x17FF PUSH2 0x25EB JUMP JUMPDEST JUMPDEST DIV SWAP3 POP PUSH1 0x20 DUP2 ADD SWAP1 POP JUMPDEST PUSH7 0x2386F26FC10000 DUP4 LT PUSH2 0x1839 JUMPI PUSH7 0x2386F26FC10000 DUP4 DUP2 PUSH2 0x182F JUMPI PUSH2 0x182E PUSH2 0x25EB JUMP JUMPDEST JUMPDEST DIV SWAP3 POP PUSH1 0x10 DUP2 ADD SWAP1 POP JUMPDEST PUSH4 0x5F5E100 DUP4 LT PUSH2 0x1862 JUMPI PUSH4 0x5F5E100 DUP4 DUP2 PUSH2 0x1858 JUMPI PUSH2 0x1857 PUSH2 0x25EB JUMP JUMPDEST JUMPDEST DIV SWAP3 POP PUSH1 0x8 DUP2 ADD SWAP1 POP JUMPDEST PUSH2 0x2710 DUP4 LT PUSH2 0x1887 JUMPI PUSH2 0x2710 DUP4 DUP2 PUSH2 0x187D JUMPI PUSH2 0x187C PUSH2 0x25EB JUMP JUMPDEST JUMPDEST DIV SWAP3 POP PUSH1 0x4 DUP2 ADD SWAP1 POP JUMPDEST PUSH1 0x64 DUP4 LT PUSH2 0x18AA JUMPI PUSH1 0x64 DUP4 DUP2 PUSH2 0x18A0 JUMPI PUSH2 0x189F PUSH2 0x25EB JUMP JUMPDEST JUMPDEST DIV SWAP3 POP PUSH1 0x2 DUP2 ADD SWAP1 POP JUMPDEST PUSH1 0xA DUP4 LT PUSH2 0x18B9 JUMPI PUSH1 0x1 DUP2 ADD SWAP1 POP JUMPDEST DUP1 SWAP2 POP POP SWAP2 SWAP1 POP JUMP JUMPDEST PUSH2 0x18CD DUP4 DUP4 DUP4 PUSH2 0x1985 JUMP JUMPDEST PUSH2 0x1980 JUMPI PUSH0 PUSH20 0xFFFFFFFFFFFFFFFFFFFFFFFFFFFFFFFFFFFFFFFF AND DUP4 PUSH20 0xFFFFFFFFFFFFFFFFFFFFFFFFFFFFFFFFFFFFFFFF AND SUB PUSH2 0x1941 JUMPI DUP1 PUSH1 0x40 MLOAD PUSH32 0x7E27328900000000000000000000000000000000000000000000000000000000 DUP2 MSTORE PUSH1 0x4 ADD PUSH2 0x1938 SWAP2 SWAP1 PUSH2 0x1E53 JUMP JUMPDEST PUSH1 0x40 MLOAD DUP1 SWAP2 SUB SWAP1 REVERT JUMPDEST DUP2 DUP2 PUSH1 0x40 MLOAD PUSH32 0x177E802F00000000000000000000000000000000000000000000000000000000 DUP2 MSTORE PUSH1 0x4 ADD PUSH2 0x1977 SWAP3 SWAP2 SWAP1 PUSH2 0x26F3 JUMP JUMPDEST PUSH1 0x40 MLOAD DUP1 SWAP2 SUB SWAP1 REVERT JUMPDEST POP POP POP JUMP JUMPDEST PUSH0 DUP1 PUSH20 0xFFFFFFFFFFFFFFFFFFFFFFFFFFFFFFFFFFFFFFFF AND DUP4 PUSH20 0xFFFFFFFFFFFFFFFFFFFFFFFFFFFFFFFFFFFFFFFF AND EQ ISZERO DUP1 ISZERO PUSH2 0x1A3C JUMPI POP DUP3 PUSH20 0xFFFFFFFFFFFFFFFFFFFFFFFFFFFFFFFFFFFFFFFF AND DUP5 PUSH20 0xFFFFFFFFFFFFFFFFFFFFFFFFFFFFFFFFFFFFFFFF AND EQ DUP1 PUSH2 0x19FD JUMPI POP PUSH2 0x19FC DUP5 DUP5 PUSH2 0xA8E JUMP JUMPDEST JUMPDEST DUP1 PUSH2 0x1A3B JUMPI POP DUP3 PUSH20 0xFFFFFFFFFFFFFFFFFFFFFFFFFFFFFFFFFFFFFFFF AND PUSH2 0x1A23 DUP4 PUSH2 0xC83 JUMP JUMPDEST PUSH20 0xFFFFFFFFFFFFFFFFFFFFFFFFFFFFFFFFFFFFFFFF AND EQ JUMPDEST JUMPDEST SWAP1 POP SWAP4 SWAP3 POP POP POP JUMP JUMPDEST PUSH0 PUSH1 0x40 MLOAD SWAP1 POP SWAP1 JUMP JUMPDEST PUSH0 DUP1 REVERT JUMPDEST PUSH0 DUP1 REVERT JUMPDEST PUSH0 PUSH32 0xFFFFFFFF00000000000000000000000000000000000000000000000000000000 DUP3 AND SWAP1 POP SWAP2 SWAP1 POP JUMP JUMPDEST PUSH2 0x1A8A DUP2 PUSH2 0x1A56 JUMP JUMPDEST DUP2 EQ PUSH2 0x1A94 JUMPI PUSH0 DUP1 REVERT JUMPDEST POP JUMP JUMPDEST PUSH0 DUP2 CALLDATALOAD SWAP1 POP PUSH2 0x1AA5 DUP2 PUSH2 0x1A81 JUMP JUMPDEST SWAP3 SWAP2 POP POP JUMP JUMPDEST PUSH0 PUSH1 0x20 DUP3 DUP5 SUB SLT ISZERO PUSH2 0x1AC0 JUMPI PUSH2 0x1ABF PUSH2 0x1A4E JUMP JUMPDEST JUMPDEST PUSH0 PUSH2 0x1ACD DUP5 DUP3 DUP6 ADD PUSH2 0x1A97 JUMP JUMPDEST SWAP2 POP POP SWAP3 SWAP2 POP POP JUMP JUMPDEST PUSH0 DUP2 ISZERO ISZERO SWAP1 POP SWAP2 SWAP1 POP JUMP JUMPDEST PUSH2 0x1AEA DUP2 PUSH2 0x1AD6 JUMP JUMPDEST DUP3 MSTORE POP POP JUMP JUMPDEST PUSH0 PUSH1 0x20 DUP3 ADD SWAP1 POP PUSH2 0x1B03 PUSH0 DUP4 ADD DUP5 PUSH2 0x1AE1 JUMP JUMPDEST SWAP3 SWAP2 POP POP JUMP JUMPDEST PUSH0 DUP1 REVERT JUMPDEST PUSH0 DUP1 REVERT JUMPDEST PUSH0 PUSH1 0x1F NOT PUSH1 0x1F DUP4 ADD AND SWAP1 POP SWAP2 SWAP1 POP JUMP JUMPDEST PUSH32 0x4E487B7100000000000000000000000000000000000000000000000000000000 PUSH0 MSTORE PUSH1 0x41 PUSH1 0x4 MSTORE PUSH1 0x24 PUSH0 REVERT JUMPDEST PUSH2 0x1B57 DUP3 PUSH2 0x1B11 JUMP JUMPDEST DUP2 ADD DUP2 DUP2 LT PUSH8 0xFFFFFFFFFFFFFFFF DUP3 GT OR ISZERO PUSH2 0x1B76 JUMPI PUSH2 0x1B75 PUSH2 0x1B21 JUMP JUMPDEST JUMPDEST DUP1 PUSH1 0x40 MSTORE POP POP POP JUMP JUMPDEST PUSH0 PUSH2 0x1B88 PUSH2 0x1A45 JUMP JUMPDEST SWAP1 POP PUSH2 0x1B94 DUP3 DUP3 PUSH2 0x1B4E JUMP JUMPDEST SWAP2 SWAP1 POP JUMP JUMPDEST PUSH0 PUSH8 0xFFFFFFFFFFFFFFFF DUP3 GT ISZERO PUSH2 0x1BB3 JUMPI PUSH2 0x1BB2 PUSH2 0x1B21 JUMP JUMPDEST JUMPDEST PUSH2 0x1BBC DUP3 PUSH2 0x1B11 JUMP JUMPDEST SWAP1 POP PUSH1 0x20 DUP2 ADD SWAP1 POP SWAP2 SWAP1 POP JUMP JUMPDEST DUP3 DUP2 DUP4 CALLDATACOPY PUSH0 DUP4 DUP4 ADD MSTORE POP POP POP JUMP JUMPDEST PUSH0 PUSH2 0x1BE9 PUSH2 0x1BE4 DUP5 PUSH2 0x1B99 JUMP JUMPDEST PUSH2 0x1B7F JUMP JUMPDEST SWAP1 POP DUP3 DUP2 MSTORE PUSH1 0x20 DUP2 ADD DUP5 DUP5 DUP5 ADD GT ISZERO PUSH2 0x1C05 JUMPI PUSH2 0x1C04 PUSH2 0x1B0D JUMP JUMPDEST JUMPDEST PUSH2 0x1C10 DUP5 DUP3 DUP6 PUSH2 0x1BC9 JUMP JUMPDEST POP SWAP4 SWAP3 POP POP POP JUMP JUMPDEST PUSH0 DUP3 PUSH1 0x1F DUP4 ADD SLT PUSH2 0x1C2C JUMPI PUSH2 0x1C2B PUSH2 0x1B09 JUMP JUMPDEST JUMPDEST DUP2 CALLDATALOAD PUSH2 0x1C3C DUP5 DUP3 PUSH1 0x20 DUP7 ADD PUSH2 0x1BD7 JUMP JUMPDEST SWAP2 POP POP SWAP3 SWAP2 POP POP JUMP JUMPDEST PUSH0 PUSH1 0x20 DUP3 DUP5 SUB SLT ISZERO PUSH2 0x1C5A JUMPI PUSH2 0x1C59 PUSH2 0x1A4E JUMP JUMPDEST JUMPDEST PUSH0 DUP3 ADD CALLDATALOAD PUSH8 0xFFFFFFFFFFFFFFFF DUP2 GT ISZERO PUSH2 0x1C77 JUMPI PUSH2 0x1C76 PUSH2 0x1A52 JUMP JUMPDEST JUMPDEST PUSH2 0x1C83 DUP5 DUP3 DUP6 ADD PUSH2 0x1C18 JUMP JUMPDEST SWAP2 POP POP SWAP3 SWAP2 POP POP JUMP JUMPDEST PUSH0 DUP2 MLOAD SWAP1 POP SWAP2 SWAP1 POP JUMP JUMPDEST PUSH0 DUP3 DUP3 MSTORE PUSH1 0x20 DUP3 ADD SWAP1 POP SWAP3 SWAP2 POP POP JUMP JUMPDEST PUSH0 JUMPDEST DUP4 DUP2 LT ISZERO PUSH2 0x1CC3 JUMPI DUP1 DUP3 ADD MLOAD DUP2 DUP5 ADD MSTORE PUSH1 0x20 DUP2 ADD SWAP1 POP PUSH2 0x1CA8 JUMP JUMPDEST PUSH0 DUP5 DUP5 ADD MSTORE POP POP POP POP JUMP JUMPDEST PUSH0 PUSH2 0x1CD8 DUP3 PUSH2 0x1C8C JUMP JUMPDEST PUSH2 0x1CE2 DUP2 DUP6 PUSH2 0x1C96 JUMP JUMPDEST SWAP4 POP PUSH2 0x1CF2 DUP2 DUP6 PUSH1 0x20 DUP7 ADD PUSH2 0x1CA6 JUMP JUMPDEST PUSH2 0x1CFB DUP2 PUSH2 0x1B11 JUMP JUMPDEST DUP5 ADD SWAP2 POP POP SWAP3 SWAP2 POP POP JUMP JUMPDEST PUSH0 PUSH1 0x20 DUP3 ADD SWAP1 POP DUP2 DUP2 SUB PUSH0 DUP4 ADD MSTORE PUSH2 0x1D1E DUP2 DUP5 PUSH2 0x1CCE JUMP JUMPDEST SWAP1 POP SWAP3 SWAP2 POP POP JUMP JUMPDEST PUSH0 DUP2 SWAP1 POP SWAP2 SWAP1 POP JUMP JUMPDEST PUSH2 0x1D38 DUP2 PUSH2 0x1D26 JUMP JUMPDEST DUP2 EQ PUSH2 0x1D42 JUMPI PUSH0 DUP1 REVERT JUMPDEST POP JUMP JUMPDEST PUSH0 DUP2 CALLDATALOAD SWAP1 POP PUSH2 0x1D53 DUP2 PUSH2 0x1D2F JUMP JUMPDEST SWAP3 SWAP2 POP POP JUMP JUMPDEST PUSH0 PUSH1 0x20 DUP3 DUP5 SUB SLT ISZERO PUSH2 0x1D6E JUMPI PUSH2 0x1D6D PUSH2 0x1A4E JUMP JUMPDEST JUMPDEST PUSH0 PUSH2 0x1D7B DUP5 DUP3 DUP6 ADD PUSH2 0x1D45 JUMP JUMPDEST SWAP2 POP POP SWAP3 SWAP2 POP POP JUMP JUMPDEST PUSH0 PUSH20 0xFFFFFFFFFFFFFFFFFFFFFFFFFFFFFFFFFFFFFFFF DUP3 AND SWAP1 POP SWAP2 SWAP1 POP JUMP JUMPDEST PUSH0 PUSH2 0x1DAD DUP3 PUSH2 0x1D84 JUMP JUMPDEST SWAP1 POP SWAP2 SWAP1 POP JUMP JUMPDEST PUSH2 0x1DBD DUP2 PUSH2 0x1DA3 JUMP JUMPDEST DUP3 MSTORE POP POP JUMP JUMPDEST PUSH0 PUSH1 0x20 DUP3 ADD SWAP1 POP PUSH2 0x1DD6 PUSH0 DUP4 ADD DUP5 PUSH2 0x1DB4 JUMP JUMPDEST SWAP3 SWAP2 POP POP JUMP JUMPDEST PUSH2 0x1DE5 DUP2 PUSH2 0x1DA3 JUMP JUMPDEST DUP2 EQ PUSH2 0x1DEF JUMPI PUSH0 DUP1 REVERT JUMPDEST POP JUMP JUMPDEST PUSH0 DUP2 CALLDATALOAD SWAP1 POP PUSH2 0x1E00 DUP2 PUSH2 0x1DDC JUMP JUMPDEST SWAP3 SWAP2 POP POP JUMP JUMPDEST PUSH0 DUP1 PUSH1 0x40 DUP4 DUP6 SUB SLT ISZERO PUSH2 0x1E1C JUMPI PUSH2 0x1E1B PUSH2 0x1A4E JUMP JUMPDEST JUMPDEST PUSH0 PUSH2 0x1E29 DUP6 DUP3 DUP7 ADD PUSH2 0x1DF2 JUMP JUMPDEST SWAP3 POP POP PUSH1 0x20 PUSH2 0x1E3A DUP6 DUP3 DUP7 ADD PUSH2 0x1D45 JUMP JUMPDEST SWAP2 POP POP SWAP3 POP SWAP3 SWAP1 POP JUMP JUMPDEST PUSH2 0x1E4D DUP2 PUSH2 0x1D26 JUMP JUMPDEST DUP3 MSTORE POP POP JUMP JUMPDEST PUSH0 PUSH1 0x20 DUP3 ADD SWAP1 POP PUSH2 0x1E66 PUSH0 DUP4 ADD DUP5 PUSH2 0x1E44 JUMP JUMPDEST SWAP3 SWAP2 POP POP JUMP JUMPDEST PUSH0 DUP1 PUSH0 PUSH1 0x60 DUP5 DUP7 SUB SLT ISZERO PUSH2 0x1E83 JUMPI PUSH2 0x1E82 PUSH2 0x1A4E JUMP JUMPDEST JUMPDEST PUSH0 PUSH2 0x1E90 DUP7 DUP3 DUP8 ADD PUSH2 0x1DF2 JUMP JUMPDEST SWAP4 POP POP PUSH1 0x20 PUSH2 0x1EA1 DUP7 DUP3 DUP8 ADD PUSH2 0x1DF2 JUMP JUMPDEST SWAP3 POP POP PUSH1 0x40 PUSH2 0x1EB2 DUP7 DUP3 DUP8 ADD PUSH2 0x1D45 JUMP JUMPDEST SWAP2 POP POP SWAP3 POP SWAP3 POP SWAP3 JUMP JUMPDEST PUSH0 PUSH1 0x20 DUP3 DUP5 SUB SLT ISZERO PUSH2 0x1ED1 JUMPI PUSH2 0x1ED0 PUSH2 0x1A4E JUMP JUMPDEST JUMPDEST PUSH0 PUSH2 0x1EDE DUP5 DUP3 DUP6 ADD PUSH2 0x1DF2 JUMP JUMPDEST SWAP2 POP POP SWAP3 SWAP2 POP POP JUMP JUMPDEST PUSH2 0x1EF0 DUP2 PUSH2 0x1AD6 JUMP JUMPDEST DUP2 EQ PUSH2 0x1EFA JUMPI PUSH0 DUP1 REVERT JUMPDEST POP JUMP JUMPDEST PUSH0 DUP2 CALLDATALOAD SWAP1 POP PUSH2 0x1F0B DUP2 PUSH2 0x1EE7 JUMP JUMPDEST SWAP3 SWAP2 POP POP JUMP JUMPDEST PUSH0 DUP1 PUSH1 0x40 DUP4 DUP6 SUB SLT ISZERO PUSH2 0x1F27 JUMPI PUSH2 0x1F26 PUSH2 0x1A4E JUMP JUMPDEST JUMPDEST PUSH0 PUSH2 0x1F34 DUP6 DUP3 DUP7 ADD PUSH2 0x1DF2 JUMP JUMPDEST SWAP3 POP POP PUSH1 0x20 PUSH2 0x1F45 DUP6 DUP3 DUP7 ADD PUSH2 0x1EFD JUMP JUMPDEST SWAP2 POP POP SWAP3 POP SWAP3 SWAP1 POP JUMP JUMPDEST PUSH0 PUSH8 0xFFFFFFFFFFFFFFFF DUP3 GT ISZERO PUSH2 0x1F69 JUMPI PUSH2 0x1F68 PUSH2 0x1B21 JUMP JUMPDEST JUMPDEST PUSH2 0x1F72 DUP3 PUSH2 0x1B11 JUMP JUMPDEST SWAP1 POP PUSH1 0x20 DUP2 ADD SWAP1 POP SWAP2 SWAP1 POP JUMP JUMPDEST PUSH0 PUSH2 0x1F91 PUSH2 0x1F8C DUP5 PUSH2 0x1F4F JUMP JUMPDEST PUSH2 0x1B7F JUMP JUMPDEST SWAP1 POP DUP3 DUP2 MSTORE PUSH1 0x20 DUP2 ADD DUP5 DUP5 DUP5 ADD GT ISZERO PUSH2 0x1FAD JUMPI PUSH2 0x1FAC PUSH2 0x1B0D JUMP JUMPDEST JUMPDEST PUSH2 0x1FB8 DUP5 DUP3 DUP6 PUSH2 0x1BC9 JUMP JUMPDEST POP SWAP4 SWAP3 POP POP POP JUMP JUMPDEST PUSH0 DUP3 PUSH1 0x1F DUP4 ADD SLT PUSH2 0x1FD4 JUMPI PUSH2 0x1FD3 PUSH2 0x1B09 JUMP JUMPDEST JUMPDEST DUP2 CALLDATALOAD PUSH2 0x1FE4 DUP5 DUP3 PUSH1 0x20 DUP7 ADD PUSH2 0x1F7F JUMP JUMPDEST SWAP2 POP POP SWAP3 SWAP2 POP POP JUMP JUMPDEST PUSH0 DUP1 PUSH0 DUP1 PUSH1 0x80 DUP6 DUP8 SUB SLT ISZERO PUSH2 0x2005 JUMPI PUSH2 0x2004 PUSH2 0x1A4E JUMP JUMPDEST JUMPDEST PUSH0 PUSH2 0x2012 DUP8 DUP3 DUP9 ADD PUSH2 0x1DF2 JUMP JUMPDEST SWAP5 POP POP PUSH1 0x20 PUSH2 0x2023 DUP8 DUP3 DUP9 ADD PUSH2 0x1DF2 JUMP JUMPDEST SWAP4 POP POP PUSH1 0x40 PUSH2 0x2034 DUP8 DUP3 DUP9 ADD PUSH2 0x1D45 JUMP JUMPDEST SWAP3 POP POP PUSH1 0x60 DUP6 ADD CALLDATALOAD PUSH8 0xFFFFFFFFFFFFFFFF DUP2 GT ISZERO PUSH2 0x2055 JUMPI PUSH2 0x2054 PUSH2 0x1A52 JUMP JUMPDEST JUMPDEST PUSH2 0x2061 DUP8 DUP3 DUP9 ADD PUSH2 0x1FC0 JUMP JUMPDEST SWAP2 POP POP SWAP3 SWAP6 SWAP2 SWAP5 POP SWAP3 POP JUMP JUMPDEST PUSH0 DUP1 PUSH1 0x40 DUP4 DUP6 SUB SLT ISZERO PUSH2 0x2083 JUMPI PUSH2 0x2082 PUSH2 0x1A4E JUMP JUMPDEST JUMPDEST PUSH0 PUSH2 0x2090 DUP6 DUP3 DUP7 ADD PUSH2 0x1DF2 JUMP JUMPDEST SWAP3 POP POP PUSH1 0x20 PUSH2 0x20A1 DUP6 DUP3 DUP7 ADD PUSH2 0x1DF2 JUMP JUMPDEST SWAP2 POP POP SWAP3 POP SWAP3 SWAP1 POP JUMP JUMPDEST PUSH32 0x4E487B7100000000000000000000000000000000000000000000000000000000 PUSH0 MSTORE PUSH1 0x22 PUSH1 0x4 MSTORE PUSH1 0x24 PUSH0 REVERT JUMPDEST PUSH0 PUSH1 0x2 DUP3 DIV SWAP1 POP PUSH1 0x1 DUP3 AND DUP1 PUSH2 0x20EF JUMPI PUSH1 0x7F DUP3 AND SWAP2 POP JUMPDEST PUSH1 0x20 DUP3 LT DUP2 SUB PUSH2 0x2102 JUMPI PUSH2 0x2101 PUSH2 0x20AB JUMP JUMPDEST JUMPDEST POP SWAP2 SWAP1 POP JUMP JUMPDEST PUSH0 DUP2 SWAP1 POP DUP2 PUSH0 MSTORE PUSH1 0x20 PUSH0 KECCAK256 SWAP1 POP SWAP2 SWAP1 POP JUMP JUMPDEST PUSH0 PUSH1 0x20 PUSH1 0x1F DUP4 ADD DIV SWAP1 POP SWAP2 SWAP1 POP JUMP JUMPDEST PUSH0 DUP3 DUP3 SHL SWAP1 POP SWAP3 SWAP2 POP POP JUMP JUMPDEST PUSH0 PUSH1 0x8 DUP4 MUL PUSH2 0x2164 PUSH32 0xFFFFFFFFFFFFFFFFFFFFFFFFFFFFFFFFFFFFFFFFFFFFFFFFFFFFFFFFFFFFFFFF DUP3 PUSH2 0x2129 JUMP JUMPDEST PUSH2 0x216E DUP7 DUP4 PUSH2 0x2129 JUMP JUMPDEST SWAP6 POP DUP1 NOT DUP5 AND SWAP4 POP DUP1 DUP7 AND DUP5 OR SWAP3 POP POP POP SWAP4 SWAP3 POP POP POP JUMP JUMPDEST PUSH0 DUP2 SWAP1 POP SWAP2 SWAP1 POP JUMP JUMPDEST PUSH0 PUSH2 0x21A9 PUSH2 0x21A4 PUSH2 0x219F DUP5 PUSH2 0x1D26 JUMP JUMPDEST PUSH2 0x2186 JUMP JUMPDEST PUSH2 0x1D26 JUMP JUMPDEST SWAP1 POP SWAP2 SWAP1 POP JUMP JUMPDEST PUSH0 DUP2 SWAP1 POP SWAP2 SWAP1 POP JUMP JUMPDEST PUSH2 0x21C2 DUP4 PUSH2 0x218F JUMP JUMPDEST PUSH2 0x21D6 PUSH2 0x21CE DUP3 PUSH2 0x21B0 JUMP JUMPDEST DUP5 DUP5 SLOAD PUSH2 0x2135 JUMP JUMPDEST DUP3 SSTORE POP POP POP POP JUMP JUMPDEST PUSH0 SWAP1 JUMP JUMPDEST PUSH2 0x21EA PUSH2 0x21DE JUMP JUMPDEST PUSH2 0x21F5 DUP2 DUP5 DUP5 PUSH2 0x21B9 JUMP JUMPDEST POP POP POP JUMP JUMPDEST JUMPDEST DUP2 DUP2 LT ISZERO PUSH2 0x2218 JUMPI PUSH2 0x220D PUSH0 DUP3 PUSH2 0x21E2 JUMP JUMPDEST PUSH1 0x1 DUP2 ADD SWAP1 POP PUSH2 0x21FB JUMP JUMPDEST POP POP JUMP JUMPDEST PUSH1 0x1F DUP3 GT ISZERO PUSH2 0x225D JUMPI PUSH2 0x222E DUP2 PUSH2 0x2108 JUMP JUMPDEST PUSH2 0x2237 DUP5 PUSH2 0x211A JUMP JUMPDEST DUP2 ADD PUSH1 0x20 DUP6 LT ISZERO PUSH2 0x2246 JUMPI DUP2 SWAP1 POP JUMPDEST PUSH2 0x225A PUSH2 0x2252 DUP6 PUSH2 0x211A JUMP JUMPDEST DUP4 ADD DUP3 PUSH2 0x21FA JUMP JUMPDEST POP POP JUMPDEST POP POP POP JUMP JUMPDEST PUSH0 DUP3 DUP3 SHR SWAP1 POP SWAP3 SWAP2 POP POP JUMP JUMPDEST PUSH0 PUSH2 0x227D PUSH0 NOT DUP5 PUSH1 0x8 MUL PUSH2 0x2262 JUMP JUMPDEST NOT DUP1 DUP4 AND SWAP2 POP POP SWAP3 SWAP2 POP POP JUMP JUMPDEST PUSH0 PUSH2 0x2295 DUP4 DUP4 PUSH2 0x226E JUMP JUMPDEST SWAP2 POP DUP3 PUSH1 0x2 MUL DUP3 OR SWAP1 POP SWAP3 SWAP2 POP POP JUMP JUMPDEST PUSH2 0x22AE DUP3 PUSH2 0x1C8C JUMP JUMPDEST PUSH8 0xFFFFFFFFFFFFFFFF DUP2 GT ISZERO PUSH2 0x22C7 JUMPI PUSH2 0x22C6 PUSH2 0x1B21 JUMP JUMPDEST JUMPDEST PUSH2 0x22D1 DUP3 SLOAD PUSH2 0x20D8 JUMP JUMPDEST PUSH2 0x22DC DUP3 DUP3 DUP6 PUSH2 0x221C JUMP JUMPDEST PUSH0 PUSH1 0x20 SWAP1 POP PUSH1 0x1F DUP4 GT PUSH1 0x1 DUP2 EQ PUSH2 0x230D JUMPI PUSH0 DUP5 ISZERO PUSH2 0x22FB JUMPI DUP3 DUP8 ADD MLOAD SWAP1 POP JUMPDEST PUSH2 0x2305 DUP6 DUP3 PUSH2 0x228A JUMP JUMPDEST DUP7 SSTORE POP PUSH2 0x236C JUMP JUMPDEST PUSH1 0x1F NOT DUP5 AND PUSH2 0x231B DUP7 PUSH2 0x2108 JUMP JUMPDEST PUSH0 JUMPDEST DUP3 DUP2 LT ISZERO PUSH2 0x2342 JUMPI DUP5 DUP10 ADD MLOAD DUP3 SSTORE PUSH1 0x1 DUP3 ADD SWAP2 POP PUSH1 0x20 DUP6 ADD SWAP5 POP PUSH1 0x20 DUP2 ADD SWAP1 POP PUSH2 0x231D JUMP JUMPDEST DUP7 DUP4 LT ISZERO PUSH2 0x235F JUMPI DUP5 DUP10 ADD MLOAD PUSH2 0x235B PUSH1 0x1F DUP10 AND DUP3 PUSH2 0x226E JUMP JUMPDEST DUP4 SSTORE POP JUMPDEST PUSH1 0x1 PUSH1 0x2 DUP9 MUL ADD DUP9 SSTORE POP POP POP JUMPDEST POP POP POP POP POP POP JUMP JUMPDEST PUSH32 0x4E487B7100000000000000000000000000000000000000000000000000000000 PUSH0 MSTORE PUSH1 0x11 PUSH1 0x4 MSTORE PUSH1 0x24 PUSH0 REVERT JUMPDEST PUSH0 PUSH2 0x23AB DUP3 PUSH2 0x1D26 JUMP JUMPDEST SWAP2 POP PUSH32 0xFFFFFFFFFFFFFFFFFFFFFFFFFFFFFFFFFFFFFFFFFFFFFFFFFFFFFFFFFFFFFFFF DUP3 SUB PUSH2 0x23DD JUMPI PUSH2 0x23DC PUSH2 0x2374 JUMP JUMPDEST JUMPDEST PUSH1 0x1 DUP3 ADD SWAP1 POP SWAP2 SWAP1 POP JUMP JUMPDEST PUSH0 DUP2 SWAP1 POP SWAP3 SWAP2 POP POP JUMP JUMPDEST PUSH0 DUP2 SLOAD PUSH2 0x23FE DUP2 PUSH2 0x20D8 JUMP JUMPDEST PUSH2 0x2408 DUP2 DUP7 PUSH2 0x23E8 JUMP JUMPDEST SWAP5 POP PUSH1 0x1 DUP3 AND PUSH0 DUP2 EQ PUSH2 0x2422 JUMPI PUSH1 0x1 DUP2 EQ PUSH2 0x2437 JUMPI PUSH2 0x2469 JUMP JUMPDEST PUSH1 0xFF NOT DUP4 AND DUP7 MSTORE DUP2 ISZERO ISZERO DUP3 MUL DUP7 ADD SWAP4 POP PUSH2 0x2469 JUMP JUMPDEST PUSH2 0x2440 DUP6 PUSH2 0x2108 JUMP JUMPDEST PUSH0 JUMPDEST DUP4 DUP2 LT ISZERO PUSH2 0x2461 JUMPI DUP2 SLOAD DUP2 DUP10 ADD MSTORE PUSH1 0x1 DUP3 ADD SWAP2 POP PUSH1 0x20 DUP2 ADD SWAP1 POP PUSH2 0x2442 JUMP JUMPDEST DUP4 DUP9 ADD SWAP6 POP POP POP JUMPDEST POP POP POP SWAP3 SWAP2 POP POP JUMP JUMPDEST PUSH0 PUSH2 0x247C DUP3 PUSH2 0x1C8C JUMP JUMPDEST PUSH2 0x2486 DUP2 DUP6 PUSH2 0x23E8 JUMP JUMPDEST SWAP4 POP PUSH2 0x2496 DUP2 DUP6 PUSH1 0x20 DUP7 ADD PUSH2 0x1CA6 JUMP JUMPDEST DUP1 DUP5 ADD SWAP2 POP POP SWAP3 SWAP2 POP POP JUMP JUMPDEST PUSH0 PUSH2 0x24AD DUP3 DUP6 PUSH2 0x23F2 JUMP JUMPDEST SWAP2 POP PUSH2 0x24B9 DUP3 DUP5 PUSH2 0x2472 JUMP JUMPDEST SWAP2 POP DUP2 SWAP1 POP SWAP4 SWAP3 POP POP POP JUMP JUMPDEST PUSH0 PUSH2 0x24CF DUP3 PUSH2 0x1D26 JUMP JUMPDEST SWAP2 POP PUSH2 0x24DA DUP4 PUSH2 0x1D26 JUMP JUMPDEST SWAP3 POP DUP3 DUP3 ADD SWAP1 POP DUP1 DUP3 GT ISZERO PUSH2 0x24F2 JUMPI PUSH2 0x24F1 PUSH2 0x2374 JUMP JUMPDEST JUMPDEST SWAP3 SWAP2 POP POP JUMP JUMPDEST PUSH32 0x5468657265206973206120737570706C79206361700000000000000000000000 PUSH0 DUP3 ADD MSTORE POP JUMP JUMPDEST PUSH0 PUSH2 0x252C PUSH1 0x15 DUP4 PUSH2 0x1C96 JUMP JUMPDEST SWAP2 POP PUSH2 0x2537 DUP3 PUSH2 0x24F8 JUMP JUMPDEST PUSH1 0x20 DUP3 ADD SWAP1 POP SWAP2 SWAP1 POP JUMP JUMPDEST PUSH0 PUSH1 0x20 DUP3 ADD SWAP1 POP DUP2 DUP2 SUB PUSH0 DUP4 ADD MSTORE PUSH2 0x2559 DUP2 PUSH2 0x2520 JUMP JUMPDEST SWAP1 POP SWAP2 SWAP1 POP JUMP JUMPDEST PUSH0 PUSH1 0x60 DUP3 ADD SWAP1 POP PUSH2 0x2573 PUSH0 DUP4 ADD DUP7 PUSH2 0x1DB4 JUMP JUMPDEST PUSH2 0x2580 PUSH1 0x20 DUP4 ADD DUP6 PUSH2 0x1E44 JUMP JUMPDEST PUSH2 0x258D PUSH1 0x40 DUP4 ADD DUP5 PUSH2 0x1DB4 JUMP JUMPDEST SWAP5 SWAP4 POP POP POP POP JUMP JUMPDEST PUSH0 PUSH2 0x259F DUP3 PUSH2 0x1D26 JUMP JUMPDEST SWAP2 POP PUSH2 0x25AA DUP4 PUSH2 0x1D26 JUMP JUMPDEST SWAP3 POP DUP3 DUP3 SUB SWAP1 POP DUP2 DUP2 GT ISZERO PUSH2 0x25C2 JUMPI PUSH2 0x25C1 PUSH2 0x2374 JUMP JUMPDEST JUMPDEST SWAP3 SWAP2 POP POP JUMP JUMPDEST PUSH0 PUSH2 0x25D3 DUP3 DUP6 PUSH2 0x2472 JUMP JUMPDEST SWAP2 POP PUSH2 0x25DF DUP3 DUP5 PUSH2 0x2472 JUMP JUMPDEST SWAP2 POP DUP2 SWAP1 POP SWAP4 SWAP3 POP POP POP JUMP JUMPDEST PUSH32 0x4E487B7100000000000000000000000000000000000000000000000000000000 PUSH0 MSTORE PUSH1 0x12 PUSH1 0x4 MSTORE PUSH1 0x24 PUSH0 REVERT JUMPDEST PUSH0 DUP2 MLOAD SWAP1 POP SWAP2 SWAP1 POP JUMP JUMPDEST PUSH0 DUP3 DUP3 MSTORE PUSH1 0x20 DUP3 ADD SWAP1 POP SWAP3 SWAP2 POP POP JUMP JUMPDEST PUSH0 PUSH2 0x263C DUP3 PUSH2 0x2618 JUMP JUMPDEST PUSH2 0x2646 DUP2 DUP6 PUSH2 0x2622 JUMP JUMPDEST SWAP4 POP PUSH2 0x2656 DUP2 DUP6 PUSH1 0x20 DUP7 ADD PUSH2 0x1CA6 JUMP JUMPDEST PUSH2 0x265F DUP2 PUSH2 0x1B11 JUMP JUMPDEST DUP5 ADD SWAP2 POP POP SWAP3 SWAP2 POP POP JUMP JUMPDEST PUSH0 PUSH1 0x80 DUP3 ADD SWAP1 POP PUSH2 0x267D PUSH0 DUP4 ADD DUP8 PUSH2 0x1DB4 JUMP JUMPDEST PUSH2 0x268A PUSH1 0x20 DUP4 ADD DUP7 PUSH2 0x1DB4 JUMP JUMPDEST PUSH2 0x2697 PUSH1 0x40 DUP4 ADD DUP6 PUSH2 0x1E44 JUMP JUMPDEST DUP2 DUP2 SUB PUSH1 0x60 DUP4 ADD MSTORE PUSH2 0x26A9 DUP2 DUP5 PUSH2 0x2632 JUMP JUMPDEST SWAP1 POP SWAP6 SWAP5 POP POP POP POP POP JUMP JUMPDEST PUSH0 DUP2 MLOAD SWAP1 POP PUSH2 0x26C2 DUP2 PUSH2 0x1A81 JUMP JUMPDEST SWAP3 SWAP2 POP POP JUMP JUMPDEST PUSH0 PUSH1 0x20 DUP3 DUP5 SUB SLT ISZERO PUSH2 0x26DD JUMPI PUSH2 0x26DC PUSH2 0x1A4E JUMP JUMPDEST JUMPDEST PUSH0 PUSH2 0x26EA DUP5 DUP3 DUP6 ADD PUSH2 0x26B4 JUMP JUMPDEST SWAP2 POP POP SWAP3 SWAP2 POP POP JUMP JUMPDEST PUSH0 PUSH1 0x40 DUP3 ADD SWAP1 POP PUSH2 0x2706 PUSH0 DUP4 ADD DUP6 PUSH2 0x1DB4 JUMP JUMPDEST PUSH2 0x2713 PUSH1 0x20 DUP4 ADD DUP5 PUSH2 0x1E44 JUMP JUMPDEST SWAP4 SWAP3 POP POP POP JUMP INVALID LOG2 PUSH5 0x6970667358 0x22 SLT KECCAK256 COINBASE 0xE6 0xC3 SWAP15 0xF8 SIGNEXTEND 0xD5 LOG2 PUSH30 0xE975B0475502F3655C1256C9ED718F16654A88B7755E0364736F6C634300 ADDMOD ISZERO STOP CALLER "
				},
				"gasEstimates": {
					"creation": {
						"codeDepositCost": "2012800",
						"executionCost": "infinite",
						"totalCost": "infinite"
					},
					"external": {
						"approve(address,uint256)": "infinite",
						"balanceOf(address)": "infinite",
						"burnNFT(uint256)": "infinite",
						"currentTokenURI()": "infinite",
						"getApproved(uint256)": "infinite",
						"isApprovedForAll(address,address)": "infinite",
						"mintNFT()": "infinite",
						"name()": "infinite",
						"ownerOf(uint256)": "infinite",
						"safeTransferFrom(address,address,uint256)": "infinite",
						"safeTransferFrom(address,address,uint256,bytes)": "infinite",
						"setApprovalForAll(address,bool)": "infinite",
						"setURI(string)": "infinite",
						"supportsInterface(bytes4)": "881",
						"symbol()": "infinite",
						"tokenURI(uint256)": "infinite",
						"totalSupply()": "2492",
						"transferFrom(address,address,uint256)": "infinite"
					}
				},
				"methodIdentifiers": {
					"approve(address,uint256)": "095ea7b3",
					"balanceOf(address)": "70a08231",
					"burnNFT(uint256)": "2890e0d7",
					"currentTokenURI()": "8e9673a5",
					"getApproved(uint256)": "081812fc",
					"isApprovedForAll(address,address)": "e985e9c5",
					"mintNFT()": "14f710fe",
					"name()": "06fdde03",
					"ownerOf(uint256)": "6352211e",
					"safeTransferFrom(address,address,uint256)": "42842e0e",
					"safeTransferFrom(address,address,uint256,bytes)": "b88d4fde",
					"setApprovalForAll(address,bool)": "a22cb465",
					"setURI(string)": "02fe5305",
					"supportsInterface(bytes4)": "01ffc9a7",
					"symbol()": "95d89b41",
					"tokenURI(uint256)": "c87b56dd",
					"totalSupply()": "18160ddd",
					"transferFrom(address,address,uint256)": "23b872dd"
				}
			},
			"storageLayout": {
				"storage": [
					{
						"astId": 201,
						"contract": "src/nft.sol:NFT",
						"label": "_name",
						"offset": 0,
						"slot": "0",
						"type": "t_string_storage"
					},
					{
						"astId": 203,
						"contract": "src/nft.sol:NFT",
						"label": "_symbol",
						"offset": 0,
						"slot": "1",
						"type": "t_string_storage"
					},
					{
						"astId": 207,
						"contract": "src/nft.sol:NFT",
						"label": "_owners",
						"offset": 0,
						"slot": "2",
						"type": "t_mapping(t_uint256,t_address)"
					},
					{
						"astId": 211,
						"contract": "src/nft.sol:NFT",
						"label": "_balances",
						"offset": 0,
						"slot": "3",
						"type": "t_mapping(t_address,t_uint256)"
					},
					{
						"astId": 215,
						"contract": "src/nft.sol:NFT",
						"label": "_tokenApprovals",
						"offset": 0,
						"slot": "4",
						"type": "t_mapping(t_uint256,t_address)"
					},
					{
						"astId": 221,
						"contract": "src/nft.sol:NFT",
						"label": "_operatorApprovals",
						"offset": 0,
						"slot": "5",
						"type": "t_mapping(t_address,t_mapping(t_address,t_bool))"
					},
					{
						"astId": 1340,
						"contract": "src/nft.sol:NFT",
						"label": "_tokenURIs",
						"offset": 0,
						"slot": "6",
						"type": "t_mapping(t_uint256,t_string_storage)"
					},
					{
						"astId": 2950,
						"contract": "src/nft.sol:NFT",
						"label": "nextTokenId",
						"offset": 0,
						"slot": "7",
						"type": "t_uint256"
					},
					{
						"astId": 2953,
						"contract": "src/nft.sol:NFT",
						"label": "cap",
						"offset": 0,
						"slot": "8",
						"type": "t_uint256"
					},
					{
						"astId": 2955,
						"contract": "src/nft.sol:NFT",
						"label": "totalSupply",
						"offset": 0,
						"slot": "9",
						"type": "t_uint256"
					},
					{
						"astId": 2957,
						"contract": "src/nft.sol:NFT",
						"label": "currentTokenURI",
						"offset": 0,
						"slot": "10",
						"type": "t_string_storage"
					}
				],
				"types": {
					"t_address": {
						"encoding": "inplace",
						"label": "address",
						"numberOfBytes": "20"
					},
					"t_bool": {
						"encoding": "inplace",
						"label": "bool",
						"numberOfBytes": "1"
					},
					"t_mapping(t_address,t_bool)": {
						"encoding": "mapping",
						"key": "t_address",
						"label": "mapping(address => bool)",
						"numberOfBytes": "32",
						"value": "t_bool"
					},
					"t_mapping(t_address,t_mapping(t_address,t_bool))": {
						"encoding": "mapping",
						"key": "t_address",
						"label": "mapping(address => mapping(address => bool))",
						"numberOfBytes": "32",
						"value": "t_mapping(t_address,t_bool)"
					},
					"t_mapping(t_address,t_uint256)": {
						"encoding": "mapping",
						"key": "t_address",
						"label": "mapping(address => uint256)",
						"numberOfBytes": "32",
						"value": "t_uint256"
					},
					"t_mapping(t_uint256,t_address)": {
						"encoding": "mapping",
						"key": "t_uint256",
						"label": "mapping(uint256 => address)",
						"numberOfBytes": "32",
						"value": "t_address"
					},
					"t_mapping(t_uint256,t_string_storage)": {
						"encoding": "mapping",
						"key": "t_uint256",
						"label": "mapping(uint256 => string)",
						"numberOfBytes": "32",
						"value": "t_string_storage"
					},
					"t_string_storage": {
						"encoding": "bytes",
						"label": "string",
						"numberOfBytes": "32"
					},
					"t_uint256": {
						"encoding": "inplace",
						"label": "uint256",
						"numberOfBytes": "32"
					}
				}
			},
			"userdoc": {
				"kind": "user",
				"methods": {},
				"version": 1
			}
		}
	}
}